{
  "_format": "hh-sol-artifact-1",
  "contractName": "PriceFeedAdapter",
  "sourceName": "contracts/Interfaces/PriceFeedAdapter.sol",
  "abi": [
    {
      "inputs": [
        {
          "internalType": "address",
          "name": "_priceFeed",
          "type": "address"
        }
      ],
      "stateMutability": "nonpayable",
      "type": "constructor"
    },
    {
      "inputs": [],
      "name": "decimals",
      "outputs": [
        {
          "internalType": "uint8",
          "name": "",
          "type": "uint8"
        }
      ],
      "stateMutability": "view",
      "type": "function"
    },
    {
      "inputs": [],
      "name": "description",
      "outputs": [
        {
          "internalType": "string",
          "name": "",
          "type": "string"
        }
      ],
      "stateMutability": "view",
      "type": "function"
    },
    {
      "inputs": [
        {
          "internalType": "uint80",
          "name": "_roundId",
          "type": "uint80"
        }
      ],
      "name": "getRoundData",
      "outputs": [
        {
          "internalType": "uint80",
          "name": "roundId",
          "type": "uint80"
        },
        {
          "internalType": "int256",
          "name": "answer",
          "type": "int256"
        },
        {
          "internalType": "uint256",
          "name": "startedAt",
          "type": "uint256"
        },
        {
          "internalType": "uint256",
          "name": "updatedAt",
          "type": "uint256"
        },
        {
          "internalType": "uint80",
          "name": "answeredInRound",
          "type": "uint80"
        }
      ],
      "stateMutability": "view",
      "type": "function"
    },
    {
      "inputs": [],
      "name": "latestRoundData",
      "outputs": [
        {
          "internalType": "uint80",
          "name": "roundId",
          "type": "uint80"
        },
        {
          "internalType": "int256",
          "name": "answer",
          "type": "int256"
        },
        {
          "internalType": "uint256",
          "name": "startedAt",
          "type": "uint256"
        },
        {
          "internalType": "uint256",
          "name": "updatedAt",
          "type": "uint256"
        },
        {
          "internalType": "uint80",
          "name": "answeredInRound",
          "type": "uint80"
        }
      ],
      "stateMutability": "view",
      "type": "function"
    },
    {
      "inputs": [],
      "name": "version",
      "outputs": [
        {
          "internalType": "uint256",
          "name": "",
          "type": "uint256"
        }
      ],
      "stateMutability": "view",
      "type": "function"
    }
  ],
  "bytecode": "0x60a060405234801561001057600080fd5b50604051610aac380380610aac833981810160405281019061003291906100cf565b8073ffffffffffffffffffffffffffffffffffffffff1660808173ffffffffffffffffffffffffffffffffffffffff1681525050506100fc565b600080fd5b600073ffffffffffffffffffffffffffffffffffffffff82169050919050565b600061009c82610071565b9050919050565b6100ac81610091565b81146100b757600080fd5b50565b6000815190506100c9816100a3565b92915050565b6000602082840312156100e5576100e461006c565b5b60006100f3848285016100ba565b91505092915050565b60805161097961013360003960008181610110015281816101a60152818161023c015281816102dd015261039201526109796000f3fe608060405234801561001057600080fd5b50600436106100575760003560e01c8063313ce5671461005c57806354fd4d501461007a5780637284e416146100985780639a6fc8f5146100b6578063feaf968c146100ea575b600080fd5b61006461010c565b604051610071919061044c565b60405180910390f35b6100826101a2565b60405161008f9190610480565b60405180910390f35b6100a0610238565b6040516100ad919061052b565b60405180910390f35b6100d060048036038101906100cb91906105a3565b6102d3565b6040516100e19594939291906105f8565b60405180910390f35b6100f2610388565b6040516101039594939291906105f8565b60405180910390f35b60007f000000000000000000000000000000000000000000000000000000000000000073ffffffffffffffffffffffffffffffffffffffff1663313ce5676040518163ffffffff1660e01b8152600401602060405180830381865afa158015610179573d6000803e3d6000fd5b505050506040513d601f19601f8201168201806040525081019061019d9190610677565b905090565b60007f000000000000000000000000000000000000000000000000000000000000000073ffffffffffffffffffffffffffffffffffffffff166354fd4d506040518163ffffffff1660e01b8152600401602060405180830381865afa15801561020f573d6000803e3d6000fd5b505050506040513d601f19601f8201168201806040525081019061023391906106d0565b905090565b60607f000000000000000000000000000000000000000000000000000000000000000073ffffffffffffffffffffffffffffffffffffffff16637284e4166040518163ffffffff1660e01b8152600401600060405180830381865afa1580156102a5573d6000803e3d6000fd5b505050506040513d6000823e3d601f19601f820116820180604052508101906102ce9190610823565b905090565b60008060008060007f000000000000000000000000000000000000000000000000000000000000000073ffffffffffffffffffffffffffffffffffffffff16639a6fc8f5876040518263ffffffff1660e01b8152600401610334919061086c565b60a060405180830381865afa158015610351573d6000803e3d6000fd5b505050506040513d601f19601f8201168201806040525081019061037591906108c8565b9450945094509450945091939590929450565b60008060008060007f000000000000000000000000000000000000000000000000000000000000000073ffffffffffffffffffffffffffffffffffffffff1663feaf968c6040518163ffffffff1660e01b815260040160a060405180830381865afa1580156103fb573d6000803e3d6000fd5b505050506040513d601f19601f8201168201806040525081019061041f91906108c8565b945094509450945094509091929394565b600060ff82169050919050565b61044681610430565b82525050565b6000602082019050610461600083018461043d565b92915050565b6000819050919050565b61047a81610467565b82525050565b60006020820190506104956000830184610471565b92915050565b600081519050919050565b600082825260208201905092915050565b60005b838110156104d55780820151818401526020810190506104ba565b60008484015250505050565b6000601f19601f8301169050919050565b60006104fd8261049b565b61050781856104a6565b93506105178185602086016104b7565b610520816104e1565b840191505092915050565b6000602082019050818103600083015261054581846104f2565b905092915050565b6000604051905090565b600080fd5b600080fd5b600069ffffffffffffffffffff82169050919050565b61058081610561565b811461058b57600080fd5b50565b60008135905061059d81610577565b92915050565b6000602082840312156105b9576105b8610557565b5b60006105c78482850161058e565b91505092915050565b6105d981610561565b82525050565b6000819050919050565b6105f2816105df565b82525050565b600060a08201905061060d60008301886105d0565b61061a60208301876105e9565b6106276040830186610471565b6106346060830185610471565b61064160808301846105d0565b9695505050505050565b61065481610430565b811461065f57600080fd5b50565b6000815190506106718161064b565b92915050565b60006020828403121561068d5761068c610557565b5b600061069b84828501610662565b91505092915050565b6106ad81610467565b81146106b857600080fd5b50565b6000815190506106ca816106a4565b92915050565b6000602082840312156106e6576106e5610557565b5b60006106f4848285016106bb565b91505092915050565b600080fd5b600080fd5b7f4e487b7100000000000000000000000000000000000000000000000000000000600052604160045260246000fd5b61073f826104e1565b810181811067ffffffffffffffff8211171561075e5761075d610707565b5b80604052505050565b600061077161054d565b905061077d8282610736565b919050565b600067ffffffffffffffff82111561079d5761079c610707565b5b6107a6826104e1565b9050602081019050919050565b60006107c66107c184610782565b610767565b9050828152602081018484840111156107e2576107e1610702565b5b6107ed8482856104b7565b509392505050565b600082601f83011261080a576108096106fd565b5b815161081a8482602086016107b3565b91505092915050565b60006020828403121561083957610838610557565b5b600082015167ffffffffffffffff8111156108575761085661055c565b5b610863848285016107f5565b91505092915050565b600060208201905061088160008301846105d0565b92915050565b60008151905061089681610577565b92915050565b6108a5816105df565b81146108b057600080fd5b50565b6000815190506108c28161089c565b92915050565b600080600080600060a086880312156108e4576108e3610557565b5b60006108f288828901610887565b9550506020610903888289016108b3565b9450506040610914888289016106bb565b9350506060610925888289016106bb565b925050608061093688828901610887565b915050929550929590935056fea26469706673582212202e68c662a424e6ed2ab66723921f69b53a895eeb0e64bc099c1038b0b035c9c864736f6c634300081b0033",
  "linkReferences": {},
  "deployedLinkReferences": {}
}