{
  "_format": "hh-sol-artifact-1",
  "contractName": "DLPToken",
  "sourceName": "contracts/DLPToken.sol",
  "abi": [
    {
      "inputs": [],
      "stateMutability": "nonpayable",
      "type": "constructor"
    },
    {
      "inputs": [
        {
          "internalType": "address",
          "name": "spender",
          "type": "address"
        },
        {
          "internalType": "uint256",
          "name": "allowance",
          "type": "uint256"
        },
        {
          "internalType": "uint256",
          "name": "needed",
          "type": "uint256"
        }
      ],
      "name": "ERC20InsufficientAllowance",
      "type": "error"
    },
    {
      "inputs": [
        {
          "internalType": "address",
          "name": "sender",
          "type": "address"
        },
        {
          "internalType": "uint256",
          "name": "balance",
          "type": "uint256"
        },
        {
          "internalType": "uint256",
          "name": "needed",
          "type": "uint256"
        }
      ],
      "name": "ERC20InsufficientBalance",
      "type": "error"
    },
    {
      "inputs": [
        {
          "internalType": "address",
          "name": "approver",
          "type": "address"
        }
      ],
      "name": "ERC20InvalidApprover",
      "type": "error"
    },
    {
      "inputs": [
        {
          "internalType": "address",
          "name": "receiver",
          "type": "address"
        }
      ],
      "name": "ERC20InvalidReceiver",
      "type": "error"
    },
    {
      "inputs": [
        {
          "internalType": "address",
          "name": "sender",
          "type": "address"
        }
      ],
      "name": "ERC20InvalidSender",
      "type": "error"
    },
    {
      "inputs": [
        {
          "internalType": "address",
          "name": "spender",
          "type": "address"
        }
      ],
      "name": "ERC20InvalidSpender",
      "type": "error"
    },
    {
      "inputs": [
        {
          "internalType": "address",
          "name": "owner",
          "type": "address"
        }
      ],
      "name": "OwnableInvalidOwner",
      "type": "error"
    },
    {
      "inputs": [
        {
          "internalType": "address",
          "name": "account",
          "type": "address"
        }
      ],
      "name": "OwnableUnauthorizedAccount",
      "type": "error"
    },
    {
      "anonymous": false,
      "inputs": [
        {
          "indexed": true,
          "internalType": "address",
          "name": "owner",
          "type": "address"
        },
        {
          "indexed": true,
          "internalType": "address",
          "name": "spender",
          "type": "address"
        },
        {
          "indexed": false,
          "internalType": "uint256",
          "name": "value",
          "type": "uint256"
        }
      ],
      "name": "Approval",
      "type": "event"
    },
    {
      "anonymous": false,
      "inputs": [
        {
          "indexed": true,
          "internalType": "address",
          "name": "previousOwner",
          "type": "address"
        },
        {
          "indexed": true,
          "internalType": "address",
          "name": "newOwner",
          "type": "address"
        }
      ],
      "name": "OwnershipTransferred",
      "type": "event"
    },
    {
      "anonymous": false,
      "inputs": [
        {
          "indexed": true,
          "internalType": "address",
          "name": "from",
          "type": "address"
        },
        {
          "indexed": true,
          "internalType": "address",
          "name": "to",
          "type": "address"
        },
        {
          "indexed": false,
          "internalType": "uint256",
          "name": "value",
          "type": "uint256"
        }
      ],
      "name": "Transfer",
      "type": "event"
    },
    {
      "inputs": [
        {
          "internalType": "address",
          "name": "owner",
          "type": "address"
        },
        {
          "internalType": "address",
          "name": "spender",
          "type": "address"
        }
      ],
      "name": "allowance",
      "outputs": [
        {
          "internalType": "uint256",
          "name": "",
          "type": "uint256"
        }
      ],
      "stateMutability": "view",
      "type": "function"
    },
    {
      "inputs": [
        {
          "internalType": "address",
          "name": "spender",
          "type": "address"
        },
        {
          "internalType": "uint256",
          "name": "value",
          "type": "uint256"
        }
      ],
      "name": "approve",
      "outputs": [
        {
          "internalType": "bool",
          "name": "",
          "type": "bool"
        }
      ],
      "stateMutability": "nonpayable",
      "type": "function"
    },
    {
      "inputs": [
        {
          "internalType": "address",
          "name": "account",
          "type": "address"
        }
      ],
      "name": "balanceOf",
      "outputs": [
        {
          "internalType": "uint256",
          "name": "",
          "type": "uint256"
        }
      ],
      "stateMutability": "view",
      "type": "function"
    },
    {
      "inputs": [
        {
          "internalType": "address",
          "name": "from",
          "type": "address"
        },
        {
          "internalType": "uint256",
          "name": "amount",
          "type": "uint256"
        }
      ],
      "name": "burn",
      "outputs": [],
      "stateMutability": "nonpayable",
      "type": "function"
    },
    {
      "inputs": [],
      "name": "decimals",
      "outputs": [
        {
          "internalType": "uint8",
          "name": "",
          "type": "uint8"
        }
      ],
      "stateMutability": "view",
      "type": "function"
    },
    {
      "inputs": [],
      "name": "dexAddress",
      "outputs": [
        {
          "internalType": "address",
          "name": "",
          "type": "address"
        }
      ],
      "stateMutability": "view",
      "type": "function"
    },
    {
      "inputs": [
        {
          "internalType": "address",
          "name": "to",
          "type": "address"
        },
        {
          "internalType": "uint256",
          "name": "amount",
          "type": "uint256"
        }
      ],
      "name": "mint",
      "outputs": [],
      "stateMutability": "nonpayable",
      "type": "function"
    },
    {
      "inputs": [],
      "name": "name",
      "outputs": [
        {
          "internalType": "string",
          "name": "",
          "type": "string"
        }
      ],
      "stateMutability": "view",
      "type": "function"
    },
    {
      "inputs": [],
      "name": "owner",
      "outputs": [
        {
          "internalType": "address",
          "name": "",
          "type": "address"
        }
      ],
      "stateMutability": "view",
      "type": "function"
    },
    {
      "inputs": [],
      "name": "renounceOwnership",
      "outputs": [],
      "stateMutability": "nonpayable",
      "type": "function"
    },
    {
      "inputs": [
        {
          "internalType": "address",
          "name": "_dexAddress",
          "type": "address"
        }
      ],
      "name": "setDexAddress",
      "outputs": [],
      "stateMutability": "nonpayable",
      "type": "function"
    },
    {
      "inputs": [],
      "name": "symbol",
      "outputs": [
        {
          "internalType": "string",
          "name": "",
          "type": "string"
        }
      ],
      "stateMutability": "view",
      "type": "function"
    },
    {
      "inputs": [],
      "name": "totalSupply",
      "outputs": [
        {
          "internalType": "uint256",
          "name": "",
          "type": "uint256"
        }
      ],
      "stateMutability": "view",
      "type": "function"
    },
    {
      "inputs": [
        {
          "internalType": "address",
          "name": "to",
          "type": "address"
        },
        {
          "internalType": "uint256",
          "name": "value",
          "type": "uint256"
        }
      ],
      "name": "transfer",
      "outputs": [
        {
          "internalType": "bool",
          "name": "",
          "type": "bool"
        }
      ],
      "stateMutability": "nonpayable",
      "type": "function"
    },
    {
      "inputs": [
        {
          "internalType": "address",
          "name": "from",
          "type": "address"
        },
        {
          "internalType": "address",
          "name": "to",
          "type": "address"
        },
        {
          "internalType": "uint256",
          "name": "value",
          "type": "uint256"
        }
      ],
      "name": "transferFrom",
      "outputs": [
        {
          "internalType": "bool",
          "name": "",
          "type": "bool"
        }
      ],
      "stateMutability": "nonpayable",
      "type": "function"
    },
    {
      "inputs": [
        {
          "internalType": "address",
          "name": "newOwner",
          "type": "address"
        }
      ],
      "name": "transferOwnership",
      "outputs": [],
      "stateMutability": "nonpayable",
      "type": "function"
    }
  ],
  "bytecode": "0x608060405234801561001057600080fd5b50336040518060400160405280600c81526020017f444558204c5020546f6b656e00000000000000000000000000000000000000008152506040518060400160405280600381526020017f444c500000000000000000000000000000000000000000000000000000000000815250816003908161008d919061043d565b50806004908161009d919061043d565b505050600073ffffffffffffffffffffffffffffffffffffffff168173ffffffffffffffffffffffffffffffffffffffff16036101125760006040517f1e4fbdf70000000000000000000000000000000000000000000000000000000081526004016101099190610550565b60405180910390fd5b6101218161012760201b60201c565b5061056b565b6000600560009054906101000a900473ffffffffffffffffffffffffffffffffffffffff16905081600560006101000a81548173ffffffffffffffffffffffffffffffffffffffff021916908373ffffffffffffffffffffffffffffffffffffffff1602179055508173ffffffffffffffffffffffffffffffffffffffff168173ffffffffffffffffffffffffffffffffffffffff167f8be0079c531659141344cd1fd0a4f28419497f9722a3daafe3b4186f6b6457e060405160405180910390a35050565b600081519050919050565b7f4e487b7100000000000000000000000000000000000000000000000000000000600052604160045260246000fd5b7f4e487b7100000000000000000000000000000000000000000000000000000000600052602260045260246000fd5b6000600282049050600182168061026e57607f821691505b60208210810361028157610280610227565b5b50919050565b60008190508160005260206000209050919050565b60006020601f8301049050919050565b600082821b905092915050565b6000600883026102e97fffffffffffffffffffffffffffffffffffffffffffffffffffffffffffffffff826102ac565b6102f386836102ac565b95508019841693508086168417925050509392505050565b6000819050919050565b6000819050919050565b600061033a6103356103308461030b565b610315565b61030b565b9050919050565b6000819050919050565b6103548361031f565b61036861036082610341565b8484546102b9565b825550505050565b600090565b61037d610370565b61038881848461034b565b505050565b5b818110156103ac576103a1600082610375565b60018101905061038e565b5050565b601f8211156103f1576103c281610287565b6103cb8461029c565b810160208510156103da578190505b6103ee6103e68561029c565b83018261038d565b50505b505050565b600082821c905092915050565b6000610414600019846008026103f6565b1980831691505092915050565b600061042d8383610403565b9150826002028217905092915050565b610446826101ed565b67ffffffffffffffff81111561045f5761045e6101f8565b5b6104698254610256565b6104748282856103b0565b600060209050601f8311600181146104a75760008415610495578287015190505b61049f8582610421565b865550610507565b601f1984166104b586610287565b60005b828110156104dd578489015182556001820191506020850194506020810190506104b8565b868310156104fa57848901516104f6601f891682610403565b8355505b6001600288020188555050505b505050505050565b600073ffffffffffffffffffffffffffffffffffffffff82169050919050565b600061053a8261050f565b9050919050565b61054a8161052f565b82525050565b60006020820190506105656000830184610541565b92915050565b6114a78061057a6000396000f3fe608060405234801561001057600080fd5b50600436106101005760003560e01c8063715018a6116100975780639dc29fac116100665780639dc29fac1461028b578063a9059cbb146102a7578063dd62ed3e146102d7578063f2fde38b1461030757610100565b8063715018a614610227578063745fba84146102315780638da5cb5b1461024f57806395d89b411461026d57610100565b806326f9a952116100d357806326f9a952146101a1578063313ce567146101bd57806340c10f19146101db57806370a08231146101f757610100565b806306fdde0314610105578063095ea7b31461012357806318160ddd1461015357806323b872dd14610171575b600080fd5b61010d610323565b60405161011a919061108f565b60405180910390f35b61013d6004803603810190610138919061114a565b6103b5565b60405161014a91906111a5565b60405180910390f35b61015b6103d8565b60405161016891906111cf565b60405180910390f35b61018b600480360381019061018691906111ea565b6103e2565b60405161019891906111a5565b60405180910390f35b6101bb60048036038101906101b6919061123d565b610411565b005b6101c561045d565b6040516101d29190611286565b60405180910390f35b6101f560048036038101906101f0919061114a565b610466565b005b610211600480360381019061020c919061123d565b610504565b60405161021e91906111cf565b60405180910390f35b61022f61054c565b005b610239610560565b60405161024691906112b0565b60405180910390f35b610257610586565b60405161026491906112b0565b60405180910390f35b6102756105b0565b604051610282919061108f565b60405180910390f35b6102a560048036038101906102a0919061114a565b610642565b005b6102c160048036038101906102bc919061114a565b6106e0565b6040516102ce91906111a5565b60405180910390f35b6102f160048036038101906102ec91906112cb565b610703565b6040516102fe91906111cf565b60405180910390f35b610321600480360381019061031c919061123d565b61078a565b005b6060600380546103329061133a565b80601f016020809104026020016040519081016040528092919081815260200182805461035e9061133a565b80156103ab5780601f10610380576101008083540402835291602001916103ab565b820191906000526020600020905b81548152906001019060200180831161038e57829003601f168201915b5050505050905090565b6000806103c0610810565b90506103cd818585610818565b600191505092915050565b6000600254905090565b6000806103ed610810565b90506103fa85828561082a565b6104058585856108be565b60019150509392505050565b6104196109b2565b80600660006101000a81548173ffffffffffffffffffffffffffffffffffffffff021916908373ffffffffffffffffffffffffffffffffffffffff16021790555050565b60006012905090565b600660009054906101000a900473ffffffffffffffffffffffffffffffffffffffff1673ffffffffffffffffffffffffffffffffffffffff163373ffffffffffffffffffffffffffffffffffffffff16146104f6576040517f08c379a00000000000000000000000000000000000000000000000000000000081526004016104ed906113b7565b60405180910390fd5b6105008282610a39565b5050565b60008060008373ffffffffffffffffffffffffffffffffffffffff1673ffffffffffffffffffffffffffffffffffffffff168152602001908152602001600020549050919050565b6105546109b2565b61055e6000610abb565b565b600660009054906101000a900473ffffffffffffffffffffffffffffffffffffffff1681565b6000600560009054906101000a900473ffffffffffffffffffffffffffffffffffffffff16905090565b6060600480546105bf9061133a565b80601f01602080910402602001604051908101604052809291908181526020018280546105eb9061133a565b80156106385780601f1061060d57610100808354040283529160200191610638565b820191906000526020600020905b81548152906001019060200180831161061b57829003601f168201915b5050505050905090565b600660009054906101000a900473ffffffffffffffffffffffffffffffffffffffff1673ffffffffffffffffffffffffffffffffffffffff163373ffffffffffffffffffffffffffffffffffffffff16146106d2576040517f08c379a00000000000000000000000000000000000000000000000000000000081526004016106c9906113b7565b60405180910390fd5b6106dc8282610b81565b5050565b6000806106eb610810565b90506106f88185856108be565b600191505092915050565b6000600160008473ffffffffffffffffffffffffffffffffffffffff1673ffffffffffffffffffffffffffffffffffffffff16815260200190815260200160002060008373ffffffffffffffffffffffffffffffffffffffff1673ffffffffffffffffffffffffffffffffffffffff16815260200190815260200160002054905092915050565b6107926109b2565b600073ffffffffffffffffffffffffffffffffffffffff168173ffffffffffffffffffffffffffffffffffffffff16036108045760006040517f1e4fbdf70000000000000000000000000000000000000000000000000000000081526004016107fb91906112b0565b60405180910390fd5b61080d81610abb565b50565b600033905090565b6108258383836001610c03565b505050565b60006108368484610703565b90507fffffffffffffffffffffffffffffffffffffffffffffffffffffffffffffffff81146108b857818110156108a8578281836040517ffb8f41b200000000000000000000000000000000000000000000000000000000815260040161089f939291906113d7565b60405180910390fd5b6108b784848484036000610c03565b5b50505050565b600073ffffffffffffffffffffffffffffffffffffffff168373ffffffffffffffffffffffffffffffffffffffff16036109305760006040517f96c6fd1e00000000000000000000000000000000000000000000000000000000815260040161092791906112b0565b60405180910390fd5b600073ffffffffffffffffffffffffffffffffffffffff168273ffffffffffffffffffffffffffffffffffffffff16036109a25760006040517fec442f0500000000000000000000000000000000000000000000000000000000815260040161099991906112b0565b60405180910390fd5b6109ad838383610dda565b505050565b6109ba610810565b73ffffffffffffffffffffffffffffffffffffffff166109d8610586565b73ffffffffffffffffffffffffffffffffffffffff1614610a37576109fb610810565b6040517f118cdaa7000000000000000000000000000000000000000000000000000000008152600401610a2e91906112b0565b60405180910390fd5b565b600073ffffffffffffffffffffffffffffffffffffffff168273ffffffffffffffffffffffffffffffffffffffff1603610aab5760006040517fec442f05000000000000000000000000000000000000000000000000000000008152600401610aa291906112b0565b60405180910390fd5b610ab760008383610dda565b5050565b6000600560009054906101000a900473ffffffffffffffffffffffffffffffffffffffff16905081600560006101000a81548173ffffffffffffffffffffffffffffffffffffffff021916908373ffffffffffffffffffffffffffffffffffffffff1602179055508173ffffffffffffffffffffffffffffffffffffffff168173ffffffffffffffffffffffffffffffffffffffff167f8be0079c531659141344cd1fd0a4f28419497f9722a3daafe3b4186f6b6457e060405160405180910390a35050565b600073ffffffffffffffffffffffffffffffffffffffff168273ffffffffffffffffffffffffffffffffffffffff1603610bf35760006040517f96c6fd1e000000000000000000000000000000000000000000000000000000008152600401610bea91906112b0565b60405180910390fd5b610bff82600083610dda565b5050565b600073ffffffffffffffffffffffffffffffffffffffff168473ffffffffffffffffffffffffffffffffffffffff1603610c755760006040517fe602df05000000000000000000000000000000000000000000000000000000008152600401610c6c91906112b0565b60405180910390fd5b600073ffffffffffffffffffffffffffffffffffffffff168373ffffffffffffffffffffffffffffffffffffffff1603610ce75760006040517f94280d62000000000000000000000000000000000000000000000000000000008152600401610cde91906112b0565b60405180910390fd5b81600160008673ffffffffffffffffffffffffffffffffffffffff1673ffffffffffffffffffffffffffffffffffffffff16815260200190815260200160002060008573ffffffffffffffffffffffffffffffffffffffff1673ffffffffffffffffffffffffffffffffffffffff168152602001908152602001600020819055508015610dd4578273ffffffffffffffffffffffffffffffffffffffff168473ffffffffffffffffffffffffffffffffffffffff167f8c5be1e5ebec7d5bd14f71427d1e84f3dd0314c0f7b2291e5b200ac8c7c3b92584604051610dcb91906111cf565b60405180910390a35b50505050565b600073ffffffffffffffffffffffffffffffffffffffff168373ffffffffffffffffffffffffffffffffffffffff1603610e2c578060026000828254610e20919061143d565b92505081905550610eff565b60008060008573ffffffffffffffffffffffffffffffffffffffff1673ffffffffffffffffffffffffffffffffffffffff16815260200190815260200160002054905081811015610eb8578381836040517fe450d38c000000000000000000000000000000000000000000000000000000008152600401610eaf939291906113d7565b60405180910390fd5b8181036000808673ffffffffffffffffffffffffffffffffffffffff1673ffffffffffffffffffffffffffffffffffffffff16815260200190815260200160002081905550505b600073ffffffffffffffffffffffffffffffffffffffff168273ffffffffffffffffffffffffffffffffffffffff1603610f485780600260008282540392505081905550610f95565b806000808473ffffffffffffffffffffffffffffffffffffffff1673ffffffffffffffffffffffffffffffffffffffff168152602001908152602001600020600082825401925050819055505b8173ffffffffffffffffffffffffffffffffffffffff168373ffffffffffffffffffffffffffffffffffffffff167fddf252ad1be2c89b69c2b068fc378daa952ba7f163c4a11628f55a4df523b3ef83604051610ff291906111cf565b60405180910390a3505050565b600081519050919050565b600082825260208201905092915050565b60005b8381101561103957808201518184015260208101905061101e565b60008484015250505050565b6000601f19601f8301169050919050565b600061106182610fff565b61106b818561100a565b935061107b81856020860161101b565b61108481611045565b840191505092915050565b600060208201905081810360008301526110a98184611056565b905092915050565b600080fd5b600073ffffffffffffffffffffffffffffffffffffffff82169050919050565b60006110e1826110b6565b9050919050565b6110f1816110d6565b81146110fc57600080fd5b50565b60008135905061110e816110e8565b92915050565b6000819050919050565b61112781611114565b811461113257600080fd5b50565b6000813590506111448161111e565b92915050565b60008060408385031215611161576111606110b1565b5b600061116f858286016110ff565b925050602061118085828601611135565b9150509250929050565b60008115159050919050565b61119f8161118a565b82525050565b60006020820190506111ba6000830184611196565b92915050565b6111c981611114565b82525050565b60006020820190506111e460008301846111c0565b92915050565b600080600060608486031215611203576112026110b1565b5b6000611211868287016110ff565b9350506020611222868287016110ff565b925050604061123386828701611135565b9150509250925092565b600060208284031215611253576112526110b1565b5b6000611261848285016110ff565b91505092915050565b600060ff82169050919050565b6112808161126a565b82525050565b600060208201905061129b6000830184611277565b92915050565b6112aa816110d6565b82525050565b60006020820190506112c560008301846112a1565b92915050565b600080604083850312156112e2576112e16110b1565b5b60006112f0858286016110ff565b9250506020611301858286016110ff565b9150509250929050565b7f4e487b7100000000000000000000000000000000000000000000000000000000600052602260045260246000fd5b6000600282049050600182168061135257607f821691505b6020821081036113655761136461130b565b5b50919050565b7f4f6e6c79204445582063616e2063616c6c207468697300000000000000000000600082015250565b60006113a160168361100a565b91506113ac8261136b565b602082019050919050565b600060208201905081810360008301526113d081611394565b9050919050565b60006060820190506113ec60008301866112a1565b6113f960208301856111c0565b61140660408301846111c0565b949350505050565b7f4e487b7100000000000000000000000000000000000000000000000000000000600052601160045260246000fd5b600061144882611114565b915061145383611114565b925082820190508082111561146b5761146a61140e565b5b9291505056fea264697066735822122095808044141a1d863642252c5f48762aa29dab755003bb1f343b2ad184599a1164736f6c634300081b0033",
  "linkReferences": {},
  "deployedLinkReferences": {}
}