{
  "_format": "hh-sol-artifact-1",
  "contractName": "DEX",
  "sourceName": "contracts/Dex.sol",
  "abi": [
    {
      "inputs": [
        {
          "internalType": "address",
          "name": "_firstToken",
          "type": "address"
        },
        {
          "internalType": "address",
          "name": "_secondToken",
          "type": "address"
        },
        {
          "internalType": "contract PriceFeedAdapter",
          "name": "_firstPriceFeed",
          "type": "address"
        },
        {
          "internalType": "contract PriceFeedAdapter",
          "name": "_secondPriceFeed",
          "type": "address"
        }
      ],
      "stateMutability": "nonpayable",
      "type": "constructor"
    },
    {
      "inputs": [],
      "name": "DEX__AmountTooHigh",
      "type": "error"
    },
    {
      "inputs": [],
      "name": "DEX__AmountTooLow",
      "type": "error"
    },
    {
      "inputs": [],
      "name": "DEX__CircuitBreakerTriggered",
      "type": "error"
    },
    {
      "inputs": [],
      "name": "DEX__ExcessiveSlippage",
      "type": "error"
    },
    {
      "inputs": [],
      "name": "DEX__FlashLoanProtection",
      "type": "error"
    },
    {
      "inputs": [],
      "name": "DEX__InsufficientLiquidityBalance",
      "type": "error"
    },
    {
      "inputs": [],
      "name": "DEX__InvalidSwapToken",
      "type": "error"
    },
    {
      "inputs": [],
      "name": "DEX__InvalidTokenRatio",
      "type": "error"
    },
    {
      "inputs": [],
      "name": "DEX__MustGreaterThanZero",
      "type": "error"
    },
    {
      "inputs": [
        {
          "internalType": "uint256",
          "name": "",
          "type": "uint256"
        }
      ],
      "name": "DEX__RateLimitExceeded",
      "type": "error"
    },
    {
      "inputs": [],
      "name": "DEX__TransferFailed",
      "type": "error"
    },
    {
      "inputs": [],
      "name": "DEX__ZeroPrice",
      "type": "error"
    },
    {
      "inputs": [],
      "name": "ReentrancyGuardReentrantCall",
      "type": "error"
    },
    {
      "anonymous": false,
      "inputs": [
        {
          "indexed": true,
          "internalType": "address",
          "name": "sender",
          "type": "address"
        },
        {
          "indexed": false,
          "internalType": "address",
          "name": "firstToken",
          "type": "address"
        },
        {
          "indexed": false,
          "internalType": "uint256",
          "name": "firstTokenAmount",
          "type": "uint256"
        },
        {
          "indexed": false,
          "internalType": "address",
          "name": "secondToken",
          "type": "address"
        },
        {
          "indexed": false,
          "internalType": "uint256",
          "name": "secondTokenAmount",
          "type": "uint256"
        },
        {
          "indexed": false,
          "internalType": "uint256",
          "name": "lpTokensMinted",
          "type": "uint256"
        }
      ],
      "name": "AddLiquidity",
      "type": "event"
    },
    {
      "anonymous": false,
      "inputs": [
        {
          "indexed": false,
          "internalType": "uint256",
          "name": "oldPrice",
          "type": "uint256"
        },
        {
          "indexed": false,
          "internalType": "uint256",
          "name": "newPrice",
          "type": "uint256"
        },
        {
          "indexed": false,
          "internalType": "uint256",
          "name": "timestamp",
          "type": "uint256"
        }
      ],
      "name": "CircuitBreakerTriggered",
      "type": "event"
    },
    {
      "anonymous": false,
      "inputs": [
        {
          "indexed": false,
          "internalType": "address",
          "name": "user",
          "type": "address"
        },
        {
          "indexed": false,
          "internalType": "uint256",
          "name": "slippage",
          "type": "uint256"
        }
      ],
      "name": "HighSlippageWarning",
      "type": "event"
    },
    {
      "anonymous": false,
      "inputs": [
        {
          "indexed": true,
          "internalType": "address",
          "name": "sender",
          "type": "address"
        },
        {
          "indexed": false,
          "internalType": "address",
          "name": "firstToken",
          "type": "address"
        },
        {
          "indexed": false,
          "internalType": "uint256",
          "name": "firstTokenAmount",
          "type": "uint256"
        },
        {
          "indexed": false,
          "internalType": "address",
          "name": "secondToken",
          "type": "address"
        },
        {
          "indexed": false,
          "internalType": "uint256",
          "name": "secondTokenAmount",
          "type": "uint256"
        },
        {
          "indexed": false,
          "internalType": "uint256",
          "name": "lpTokensBurned",
          "type": "uint256"
        }
      ],
      "name": "RemoveLiquidity",
      "type": "event"
    },
    {
      "anonymous": false,
      "inputs": [
        {
          "indexed": true,
          "internalType": "address",
          "name": "sender",
          "type": "address"
        },
        {
          "indexed": false,
          "internalType": "address",
          "name": "tokenIn",
          "type": "address"
        },
        {
          "indexed": false,
          "internalType": "uint256",
          "name": "amountIn",
          "type": "uint256"
        },
        {
          "indexed": false,
          "internalType": "address",
          "name": "tokenOut",
          "type": "address"
        },
        {
          "indexed": false,
          "internalType": "uint256",
          "name": "amountOut",
          "type": "uint256"
        }
      ],
      "name": "Swap",
      "type": "event"
    },
    {
      "anonymous": false,
      "inputs": [
        {
          "indexed": false,
          "internalType": "address",
          "name": "user",
          "type": "address"
        },
        {
          "indexed": false,
          "internalType": "uint256",
          "name": "swapsCount",
          "type": "uint256"
        },
        {
          "indexed": false,
          "internalType": "uint256",
          "name": "windowStart",
          "type": "uint256"
        }
      ],
      "name": "SwapTracked",
      "type": "event"
    },
    {
      "anonymous": false,
      "inputs": [
        {
          "indexed": false,
          "internalType": "address",
          "name": "user",
          "type": "address"
        },
        {
          "indexed": false,
          "internalType": "uint256",
          "name": "newWindowStart",
          "type": "uint256"
        }
      ],
      "name": "WindowReset",
      "type": "event"
    },
    {
      "inputs": [
        {
          "internalType": "uint256",
          "name": "_ethAmount",
          "type": "uint256"
        },
        {
          "internalType": "uint256",
          "name": "_daiAmount",
          "type": "uint256"
        }
      ],
      "name": "addLiquidity",
      "outputs": [
        {
          "internalType": "uint256",
          "name": "lpTokens",
          "type": "uint256"
        }
      ],
      "stateMutability": "nonpayable",
      "type": "function"
    },
    {
      "inputs": [],
      "name": "getLiquidityTotalSupply",
      "outputs": [
        {
          "internalType": "uint256",
          "name": "",
          "type": "uint256"
        },
        {
          "internalType": "uint256",
          "name": "",
          "type": "uint256"
        }
      ],
      "stateMutability": "view",
      "type": "function"
    },
    {
      "inputs": [
        {
          "internalType": "address",
          "name": "user",
          "type": "address"
        }
      ],
      "name": "getLpTokensBalance",
      "outputs": [
        {
          "internalType": "uint256",
          "name": "",
          "type": "uint256"
        }
      ],
      "stateMutability": "view",
      "type": "function"
    },
    {
      "inputs": [
        {
          "internalType": "address",
          "name": "tokenIn",
          "type": "address"
        },
        {
          "internalType": "uint256",
          "name": "amountIn",
          "type": "uint256"
        }
      ],
      "name": "getOutputAmount",
      "outputs": [
        {
          "internalType": "uint256",
          "name": "",
          "type": "uint256"
        }
      ],
      "stateMutability": "view",
      "type": "function"
    },
    {
      "inputs": [
        {
          "internalType": "address",
          "name": "tokenIn",
          "type": "address"
        },
        {
          "internalType": "uint256",
          "name": "amountIn",
          "type": "uint256"
        }
      ],
      "name": "getOutputLiquidity",
      "outputs": [
        {
          "internalType": "uint256",
          "name": "liquidity",
          "type": "uint256"
        }
      ],
      "stateMutability": "view",
      "type": "function"
    },
    {
      "inputs": [],
      "name": "getPrice",
      "outputs": [
        {
          "internalType": "uint256",
          "name": "",
          "type": "uint256"
        },
        {
          "internalType": "uint256",
          "name": "",
          "type": "uint256"
        }
      ],
      "stateMutability": "view",
      "type": "function"
    },
    {
      "inputs": [],
      "name": "getTotalLpTokens",
      "outputs": [
        {
          "internalType": "uint256",
          "name": "",
          "type": "uint256"
        }
      ],
      "stateMutability": "view",
      "type": "function"
    },
    {
      "inputs": [
        {
          "internalType": "address",
          "name": "user",
          "type": "address"
        }
      ],
      "name": "getUserLiquidity",
      "outputs": [
        {
          "internalType": "uint256",
          "name": "",
          "type": "uint256"
        },
        {
          "internalType": "uint256",
          "name": "",
          "type": "uint256"
        }
      ],
      "stateMutability": "view",
      "type": "function"
    },
    {
      "inputs": [
        {
          "internalType": "uint256",
          "name": "_lpTokens",
          "type": "uint256"
        }
      ],
      "name": "removeLiquidity",
      "outputs": [
        {
          "internalType": "uint256",
          "name": "_ethAmount",
          "type": "uint256"
        },
        {
          "internalType": "uint256",
          "name": "_daiAmount",
          "type": "uint256"
        }
      ],
      "stateMutability": "nonpayable",
      "type": "function"
    },
    {
      "inputs": [
        {
          "internalType": "address",
          "name": "tokenIn",
          "type": "address"
        },
        {
          "internalType": "uint256",
          "name": "amountIn",
          "type": "uint256"
        },
        {
          "internalType": "uint256",
          "name": "minAmountOut",
          "type": "uint256"
        }
      ],
      "name": "swap",
      "outputs": [
        {
          "internalType": "uint256",
          "name": "amountOut",
          "type": "uint256"
        }
      ],
      "stateMutability": "nonpayable",
      "type": "function"
    }
  ],
  "bytecode": "0x60e060405234801561001057600080fd5b5060405161551938038061551983398181016040528101906100329190610322565b60016000819055508373ffffffffffffffffffffffffffffffffffffffff1660a08173ffffffffffffffffffffffffffffffffffffffff16815250508273ffffffffffffffffffffffffffffffffffffffff1660c08173ffffffffffffffffffffffffffffffffffffffff1681525050816003600060a05173ffffffffffffffffffffffffffffffffffffffff1673ffffffffffffffffffffffffffffffffffffffff16815260200190815260200160002060006101000a81548173ffffffffffffffffffffffffffffffffffffffff021916908373ffffffffffffffffffffffffffffffffffffffff160217905550806004600060c05173ffffffffffffffffffffffffffffffffffffffff1673ffffffffffffffffffffffffffffffffffffffff16815260200190815260200160002060006101000a81548173ffffffffffffffffffffffffffffffffffffffff021916908373ffffffffffffffffffffffffffffffffffffffff1602179055506040516101ae90610274565b604051809103906000f0801580156101ca573d6000803e3d6000fd5b5073ffffffffffffffffffffffffffffffffffffffff1660808173ffffffffffffffffffffffffffffffffffffffff168152505060805173ffffffffffffffffffffffffffffffffffffffff166326f9a952306040518263ffffffff1660e01b81526004016102399190610398565b600060405180830381600087803b15801561025357600080fd5b505af1158015610267573d6000803e3d6000fd5b50505050505050506103b3565b611a2180613af883390190565b600080fd5b600073ffffffffffffffffffffffffffffffffffffffff82169050919050565b60006102b182610286565b9050919050565b6102c1816102a6565b81146102cc57600080fd5b50565b6000815190506102de816102b8565b92915050565b60006102ef826102a6565b9050919050565b6102ff816102e4565b811461030a57600080fd5b50565b60008151905061031c816102f6565b92915050565b6000806000806080858703121561033c5761033b610281565b5b600061034a878288016102cf565b945050602061035b878288016102cf565b935050604061036c8782880161030d565b925050606061037d8782880161030d565b91505092959194509250565b610392816102a6565b82525050565b60006020820190506103ad6000830184610389565b92915050565b60805160a05160c0516135bf61053960003960008181610260015281816104bf0152818161080a01528181610b4501528181610ca1015281816113f00152818161154101528181611805015281816118fa01528181611a5001528181611be501528181611cd101528181611e3c01528181611f2801528181612044015281816123be015281816127060152818161290601528181612a750152612b760152600081816102da01528181610446015281816104990152818161078601528181610b2301528181610c7f0152818161138c015281816114a0015281816116ff01528181611885015281816119aa01528181611b3201528181611c5b01528181611d8901528181611eb201528181611fa20152818161231a015281816125fe015281816128af01528181612a1e01528181612afd0152612b5001526000818161035e015281816106e901528181610a460152818161166c01528181611772015281816124ac015281816125630152818161265a01528181612762015261281c01526135bf6000f3fe608060405234801561001057600080fd5b506004361061009e5760003560e01c80639c8f9f23116100665780639c8f9f23146101705780639cd441da146101a15780639f1d0f59146101d1578063b4f601f414610201578063dbbdd935146102205761009e565b8063048792b0146100a35780632c763477146100d35780637b07004b146101035780638fd28a0b1461013357806398d5fdca14610151575b600080fd5b6100bd60048036038101906100b89190612ee4565b610251565b6040516100ca9190612f33565b60405180910390f35b6100ed60048036038101906100e89190612f4e565b61035a565b6040516100fa9190612f33565b60405180910390f35b61011d60048036038101906101189190612ee4565b6103fd565b60405161012a9190612f33565b60405180910390f35b61013b6106e5565b6040516101489190612f33565b60405180910390f35b61015961077b565b604051610167929190612f7b565b60405180910390f35b61018a60048036038101906101859190612fa4565b6109e2565b604051610198929190612f7b565b60405180910390f35b6101bb60048036038101906101b69190612fd1565b610b8d565b6040516101c89190612f33565b60405180910390f35b6101eb60048036038101906101e69190613011565b610ceb565b6040516101f89190612f33565b60405180910390f35b610209611381565b604051610217929190612f7b565b60405180910390f35b61023a60048036038101906102359190612f4e565b611458565b604051610248929190612f7b565b60405180910390f35b60008061025c6115aa565b90507f000000000000000000000000000000000000000000000000000000000000000073ffffffffffffffffffffffffffffffffffffffff168473ffffffffffffffffffffffffffffffffffffffff16036102d85780670de0b6b3a7640000846102c69190613093565b6102d09190613104565b915050610354565b7f000000000000000000000000000000000000000000000000000000000000000073ffffffffffffffffffffffffffffffffffffffff168473ffffffffffffffffffffffffffffffffffffffff160361035257670de0b6b3a764000081846103409190613093565b61034a9190613104565b915050610354565b505b92915050565b60007f000000000000000000000000000000000000000000000000000000000000000073ffffffffffffffffffffffffffffffffffffffff166370a08231836040518263ffffffff1660e01b81526004016103b59190613144565b602060405180830381865afa1580156103d2573d6000803e3d6000fd5b505050506040513d601f19601f820116820180604052508101906103f69190613174565b9050919050565b600080600260008573ffffffffffffffffffffffffffffffffffffffff1673ffffffffffffffffffffffffffffffffffffffff16815260200190815260200160002054905060007f000000000000000000000000000000000000000000000000000000000000000073ffffffffffffffffffffffffffffffffffffffff168573ffffffffffffffffffffffffffffffffffffffff16146104bd577f00000000000000000000000000000000000000000000000000000000000000006104df565b7f00000000000000000000000000000000000000000000000000000000000000005b90506000600260008373ffffffffffffffffffffffffffffffffffffffff1673ffffffffffffffffffffffffffffffffffffffff1681526020019081526020016000205490506103e88311158061053857506103e88111155b1561056f576040517f8a35dadb00000000000000000000000000000000000000000000000000000000815260040160405180910390fd5b601e61271061057e91906131a1565b7fffffffffffffffffffffffffffffffffffffffffffffffffffffffffffffffff6105a99190613104565b85106105e1576040517f4b0220dd00000000000000000000000000000000000000000000000000000000815260040160405180910390fd5b6000601e6127106105f291906131a1565b866105fd9190613093565b9050807fffffffffffffffffffffffffffffffffffffffffffffffffffffffffffffffff61062b9190613104565b8210610663576040517f4b0220dd00000000000000000000000000000000000000000000000000000000815260040160405180910390fd5b600082826106719190613093565b9050600082612710876106849190613093565b61068e91906131d5565b905060008110156106cb576040517fce01ee3500000000000000000000000000000000000000000000000000000000815260040160405180910390fd5b80826106d79190613104565b965050505050505092915050565b60007f000000000000000000000000000000000000000000000000000000000000000073ffffffffffffffffffffffffffffffffffffffff166318160ddd6040518163ffffffff1660e01b8152600401602060405180830381865afa158015610752573d6000803e3d6000fd5b505050506040513d601f19601f820116820180604052508101906107769190613174565b905090565b6000806000600360007f000000000000000000000000000000000000000000000000000000000000000073ffffffffffffffffffffffffffffffffffffffff1673ffffffffffffffffffffffffffffffffffffffff16815260200190815260200160002060009054906101000a900473ffffffffffffffffffffffffffffffffffffffff1690506000600460007f000000000000000000000000000000000000000000000000000000000000000073ffffffffffffffffffffffffffffffffffffffff1673ffffffffffffffffffffffffffffffffffffffff16815260200190815260200160002060009054906101000a900473ffffffffffffffffffffffffffffffffffffffff16905060008273ffffffffffffffffffffffffffffffffffffffff1673__$9037b2fcd2753f718e08d07444b301ed88$__632b8d062190916040518263ffffffff1660e01b81526004016108d79190613268565b60a060405180830381865af41580156108f4573d6000803e3d6000fd5b505050506040513d601f19601f8201168201806040525081019061091891906132fb565b50505091505060008273ffffffffffffffffffffffffffffffffffffffff1673__$9037b2fcd2753f718e08d07444b301ed88$__632b8d062190916040518263ffffffff1660e01b815260040161096f9190613268565b60a060405180830381865af415801561098c573d6000803e3d6000fd5b505050506040513d601f19601f820116820180604052508101906109b091906132fb565b5050509150506305f5e100826109c69190613104565b6305f5e100826109d69190613104565b95509550505050509091565b6000806109ed611621565b8260008111610a28576040517fdfe91a9100000000000000000000000000000000000000000000000000000000815260040160405180910390fd5b610a3184611667565b8093508194505050610a4433848461187b565b7f000000000000000000000000000000000000000000000000000000000000000073ffffffffffffffffffffffffffffffffffffffff16639dc29fac33866040518363ffffffff1660e01b8152600401610a9f929190613376565b600060405180830381600087803b158015610ab957600080fd5b505af1158015610acd573d6000803e3d6000fd5b50505050610ade3384846000611ae8565b610ae9338484611f9e565b3373ffffffffffffffffffffffffffffffffffffffff167f31a83f5720229e02936f2f1b2260a050bbd8377dce85422763735b783106deb17f0000000000000000000000000000000000000000000000000000000000000000857f00000000000000000000000000000000000000000000000000000000000000008689604051610b7795949392919061339f565b60405180910390a250610b8861212b565b915091565b6000610b97611621565b8260008111610bd2576040517fdfe91a9100000000000000000000000000000000000000000000000000000000815260040160405180910390fd5b8260008111610c0d576040517fdfe91a9100000000000000000000000000000000000000000000000000000000815260040160405180910390fd5b610c178585612135565b610c218585612264565b610c2c338686612316565b610c3685856124a7565b9250610c453386866001611ae8565b3373ffffffffffffffffffffffffffffffffffffffff167fcfc390ea13b09661b205e48ee692d38f6798b0e0992a868008f841929b0e03d27f0000000000000000000000000000000000000000000000000000000000000000877f00000000000000000000000000000000000000000000000000000000000000008888604051610cd395949392919061339f565b60405180910390a25050610ce561212b565b92915050565b6000610cf5611621565b8260008111610d30576040517fdfe91a9100000000000000000000000000000000000000000000000000000000815260040160405180910390fd5b6000610d3a6115aa565b9050600060065403610fef57806006819055506000600560003373ffffffffffffffffffffffffffffffffffffffff1673ffffffffffffffffffffffffffffffffffffffff16815260200190815260200160002090506000429050620151808260010154610da891906131d5565b8110610dfb57600082600001819055508082600101819055507fa31800064c1fa7483461ad24aa6c1699852837e3767bcbade2174f349352205c3382604051610df2929190613376565b60405180910390a15b600a826000015410610e6657600081620151808460010154610e1d91906131d5565b610e2791906131a1565b9050806040517f34f4c357000000000000000000000000000000000000000000000000000000008152600401610e5d9190612f33565b60405180910390fd5b816000016000815480929190610e7b906133f2565b91905055507f2f3530d2b4c7f3027f91111f096ce4db6f8c8a39110882358c36bc02c868278d3383600001548460010154604051610ebb9392919061343a565b60405180910390a13373ffffffffffffffffffffffffffffffffffffffff163273ffffffffffffffffffffffffffffffffffffffff1614610f28576040517fd193014500000000000000000000000000000000000000000000000000000000815260040160405180910390fd5b610f3288886128ad565b6000610f3d89612a1a565b9050610f4989896103fd565b955086861015610f85576040517fc7f6f5d800000000000000000000000000000000000000000000000000000000815260040160405180910390fd5b610f92338a8a848a612b9d565b3373ffffffffffffffffffffffffffffffffffffffff167f5380cf97d8f645d3c4896da60c053458dca03a3a31cec642ac80e1ddf0d8d02a8a8a848a604051610fde9493929190613471565b60405180910390a250505050611371565b60006006548211156110295760065460646006548461100e91906131a1565b6110189190613093565b6110229190613104565b9050611053565b60065460648360065461103c91906131a1565b6110469190613093565b6110509190613104565b90505b60148111156110cb577f3d747073b9d4b08f72a3edbdb8e590c3266455bdd20cc08af18f78bb50b0adcc6006548342604051611091939291906134b6565b60405180910390a16040517f4a82f61900000000000000000000000000000000000000000000000000000000815260040160405180910390fd5b816006819055506000600560003373ffffffffffffffffffffffffffffffffffffffff1673ffffffffffffffffffffffffffffffffffffffff1681526020019081526020016000209050600042905062015180826001015461112d91906131d5565b811061118057600082600001819055508082600101819055507fa31800064c1fa7483461ad24aa6c1699852837e3767bcbade2174f349352205c3382604051611177929190613376565b60405180910390a15b600a8260000154106111eb576000816201518084600101546111a291906131d5565b6111ac91906131a1565b9050806040517f34f4c3570000000000000000000000000000000000000000000000000000000081526004016111e29190612f33565b60405180910390fd5b816000016000815480929190611200906133f2565b91905055507f2f3530d2b4c7f3027f91111f096ce4db6f8c8a39110882358c36bc02c868278d33836000015484600101546040516112409392919061343a565b60405180910390a13373ffffffffffffffffffffffffffffffffffffffff163273ffffffffffffffffffffffffffffffffffffffff16146112ad576040517fd193014500000000000000000000000000000000000000000000000000000000815260040160405180910390fd5b6112b789896128ad565b60006112c28a612a1a565b90506112ce8a8a6103fd565b96508787101561130a576040517fc7f6f5d800000000000000000000000000000000000000000000000000000000815260040160405180910390fd5b611317338b8b848b612b9d565b3373ffffffffffffffffffffffffffffffffffffffff167f5380cf97d8f645d3c4896da60c053458dca03a3a31cec642ac80e1ddf0d8d02a8b8b848b6040516113639493929190613471565b60405180910390a250505050505b5061137a61212b565b9392505050565b6000806000600260007f000000000000000000000000000000000000000000000000000000000000000073ffffffffffffffffffffffffffffffffffffffff1673ffffffffffffffffffffffffffffffffffffffff1681526020019081526020016000205490506000600260007f000000000000000000000000000000000000000000000000000000000000000073ffffffffffffffffffffffffffffffffffffffff1673ffffffffffffffffffffffffffffffffffffffff16815260200190815260200160002054905081819350935050509091565b6000806000600160008573ffffffffffffffffffffffffffffffffffffffff1673ffffffffffffffffffffffffffffffffffffffff16815260200190815260200160002060007f000000000000000000000000000000000000000000000000000000000000000073ffffffffffffffffffffffffffffffffffffffff1673ffffffffffffffffffffffffffffffffffffffff1681526020019081526020016000205490506000600160008673ffffffffffffffffffffffffffffffffffffffff1673ffffffffffffffffffffffffffffffffffffffff16815260200190815260200160002060007f000000000000000000000000000000000000000000000000000000000000000073ffffffffffffffffffffffffffffffffffffffff1673ffffffffffffffffffffffffffffffffffffffff1681526020019081526020016000205490508181935093505050915091565b60008060006115b761077b565b91509150600081670de0b6b3a7640000846115d29190613093565b6115dc9190613104565b905060008103611618576040517fce01ee3500000000000000000000000000000000000000000000000000000000815260040160405180910390fd5b80935050505090565b60026000540361165d576040517f3ee5aeb500000000000000000000000000000000000000000000000000000000815260040160405180910390fd5b6002600081905550565b6000807f000000000000000000000000000000000000000000000000000000000000000073ffffffffffffffffffffffffffffffffffffffff166318160ddd6040518163ffffffff1660e01b8152600401602060405180830381865afa1580156116d5573d6000803e3d6000fd5b505050506040513d601f19601f820116820180604052508101906116f99190613174565b600260007f000000000000000000000000000000000000000000000000000000000000000073ffffffffffffffffffffffffffffffffffffffff1673ffffffffffffffffffffffffffffffffffffffff16815260200190815260200160002054846117649190613093565b61176e9190613104565b91507f000000000000000000000000000000000000000000000000000000000000000073ffffffffffffffffffffffffffffffffffffffff166318160ddd6040518163ffffffff1660e01b8152600401602060405180830381865afa1580156117db573d6000803e3d6000fd5b505050506040513d601f19601f820116820180604052508101906117ff9190613174565b600260007f000000000000000000000000000000000000000000000000000000000000000073ffffffffffffffffffffffffffffffffffffffff1673ffffffffffffffffffffffffffffffffffffffff168152602001908152602001600020548461186a9190613093565b6118749190613104565b9050915091565b6103e882600260007f000000000000000000000000000000000000000000000000000000000000000073ffffffffffffffffffffffffffffffffffffffff1673ffffffffffffffffffffffffffffffffffffffff168152602001908152602001600020546118e991906131a1565b108061196057506103e881600260007f000000000000000000000000000000000000000000000000000000000000000073ffffffffffffffffffffffffffffffffffffffff1673ffffffffffffffffffffffffffffffffffffffff1681526020019081526020016000205461195e91906131a1565b105b80611a06575081600160008573ffffffffffffffffffffffffffffffffffffffff1673ffffffffffffffffffffffffffffffffffffffff16815260200190815260200160002060007f000000000000000000000000000000000000000000000000000000000000000073ffffffffffffffffffffffffffffffffffffffff1673ffffffffffffffffffffffffffffffffffffffff16815260200190815260200160002054105b80611aac575080600160008573ffffffffffffffffffffffffffffffffffffffff1673ffffffffffffffffffffffffffffffffffffffff16815260200190815260200160002060007f000000000000000000000000000000000000000000000000000000000000000073ffffffffffffffffffffffffffffffffffffffff1673ffffffffffffffffffffffffffffffffffffffff16815260200190815260200160002054105b15611ae3576040517f71b0892700000000000000000000000000000000000000000000000000000000815260040160405180910390fd5b505050565b8015611d455782600160008673ffffffffffffffffffffffffffffffffffffffff1673ffffffffffffffffffffffffffffffffffffffff16815260200190815260200160002060007f000000000000000000000000000000000000000000000000000000000000000073ffffffffffffffffffffffffffffffffffffffff1673ffffffffffffffffffffffffffffffffffffffff1681526020019081526020016000206000828254611b9a91906131d5565b9250508190555081600160008673ffffffffffffffffffffffffffffffffffffffff1673ffffffffffffffffffffffffffffffffffffffff16815260200190815260200160002060007f000000000000000000000000000000000000000000000000000000000000000073ffffffffffffffffffffffffffffffffffffffff1673ffffffffffffffffffffffffffffffffffffffff1681526020019081526020016000206000828254611c4d91906131d5565b9250508190555082600260007f000000000000000000000000000000000000000000000000000000000000000073ffffffffffffffffffffffffffffffffffffffff1673ffffffffffffffffffffffffffffffffffffffff1681526020019081526020016000206000828254611cc391906131d5565b9250508190555081600260007f000000000000000000000000000000000000000000000000000000000000000073ffffffffffffffffffffffffffffffffffffffff1673ffffffffffffffffffffffffffffffffffffffff1681526020019081526020016000206000828254611d3991906131d5565b92505081905550611f98565b82600160008673ffffffffffffffffffffffffffffffffffffffff1673ffffffffffffffffffffffffffffffffffffffff16815260200190815260200160002060007f000000000000000000000000000000000000000000000000000000000000000073ffffffffffffffffffffffffffffffffffffffff1673ffffffffffffffffffffffffffffffffffffffff1681526020019081526020016000206000828254611df191906131a1565b9250508190555081600160008673ffffffffffffffffffffffffffffffffffffffff1673ffffffffffffffffffffffffffffffffffffffff16815260200190815260200160002060007f000000000000000000000000000000000000000000000000000000000000000073ffffffffffffffffffffffffffffffffffffffff1673ffffffffffffffffffffffffffffffffffffffff1681526020019081526020016000206000828254611ea491906131a1565b9250508190555082600260007f000000000000000000000000000000000000000000000000000000000000000073ffffffffffffffffffffffffffffffffffffffff1673ffffffffffffffffffffffffffffffffffffffff1681526020019081526020016000206000828254611f1a91906131a1565b9250508190555081600260007f000000000000000000000000000000000000000000000000000000000000000073ffffffffffffffffffffffffffffffffffffffff1673ffffffffffffffffffffffffffffffffffffffff1681526020019081526020016000206000828254611f9091906131a1565b925050819055505b50505050565b60007f000000000000000000000000000000000000000000000000000000000000000073ffffffffffffffffffffffffffffffffffffffff1663a9059cbb85856040518363ffffffff1660e01b8152600401611ffb929190613376565b6020604051808303816000875af115801561201a573d6000803e3d6000fd5b505050506040513d601f19601f8201168201806040525081019061203e9190613525565b905060007f000000000000000000000000000000000000000000000000000000000000000073ffffffffffffffffffffffffffffffffffffffff1663a9059cbb86856040518363ffffffff1660e01b815260040161209d929190613376565b6020604051808303816000875af11580156120bc573d6000803e3d6000fd5b505050506040513d601f19601f820116820180604052508101906120e09190613525565b90508115806120ed575080155b15612124576040517f67ba00c000000000000000000000000000000000000000000000000000000000815260040160405180910390fd5b5050505050565b6001600081905550565b670de0b6b3a76400007fffffffffffffffffffffffffffffffffffffffffffffffffffffffffffffffff6121699190613104565b821015806121aa5750670de0b6b3a76400007fffffffffffffffffffffffffffffffffffffffffffffffffffffffffffffffff6121a69190613104565b8110155b806121df5750807fffffffffffffffffffffffffffffffffffffffffffffffffffffffffffffffff6121dc9190613104565b82115b15612216576040517f4b0220dd00000000000000000000000000000000000000000000000000000000815260040160405180910390fd5b6103e88211158061222957506103e88111155b15612260576040517f8a35dadb00000000000000000000000000000000000000000000000000000000815260040160405180910390fd5b5050565b600061226e6115aa565b9050600061227a61077b565b5090506000818461228b9190613104565b83866122979190613093565b6122a19190613104565b905060006064846122b29190613104565b905080846122c091906131d5565b8211806122d7575080846122d491906131a1565b82105b1561230e576040517f6b07152c00000000000000000000000000000000000000000000000000000000815260040160405180910390fd5b505050505050565b60007f000000000000000000000000000000000000000000000000000000000000000073ffffffffffffffffffffffffffffffffffffffff166323b872dd8530866040518463ffffffff1660e01b815260040161237593929190613552565b6020604051808303816000875af1158015612394573d6000803e3d6000fd5b505050506040513d601f19601f820116820180604052508101906123b89190613525565b905060007f000000000000000000000000000000000000000000000000000000000000000073ffffffffffffffffffffffffffffffffffffffff166323b872dd8630866040518463ffffffff1660e01b815260040161241993929190613552565b6020604051808303816000875af1158015612438573d6000803e3d6000fd5b505050506040513d601f19601f8201168201806040525081019061245c9190613525565b9050811580612469575080155b156124a0576040517f67ba00c000000000000000000000000000000000000000000000000000000000815260040160405180910390fd5b5050505050565b6000807f000000000000000000000000000000000000000000000000000000000000000073ffffffffffffffffffffffffffffffffffffffff166318160ddd6040518163ffffffff1660e01b8152600401602060405180830381865afa158015612515573d6000803e3d6000fd5b505050506040513d601f19601f820116820180604052508101906125399190613174565b036125f6576103e861255583856125509190613093565b612dc3565b61255f91906131a1565b90507f000000000000000000000000000000000000000000000000000000000000000073ffffffffffffffffffffffffffffffffffffffff166340c10f1960016103e86040518363ffffffff1660e01b81526004016125bf929190613376565b600060405180830381600087803b1580156125d957600080fd5b505af11580156125ed573d6000803e3d6000fd5b5050505061281a565b6000600260007f000000000000000000000000000000000000000000000000000000000000000073ffffffffffffffffffffffffffffffffffffffff1673ffffffffffffffffffffffffffffffffffffffff168152602001908152602001600020547f000000000000000000000000000000000000000000000000000000000000000073ffffffffffffffffffffffffffffffffffffffff166318160ddd6040518163ffffffff1660e01b8152600401602060405180830381865afa1580156126c3573d6000803e3d6000fd5b505050506040513d601f19601f820116820180604052508101906126e79190613174565b856126f29190613093565b6126fc9190613104565b90506000600260007f000000000000000000000000000000000000000000000000000000000000000073ffffffffffffffffffffffffffffffffffffffff1673ffffffffffffffffffffffffffffffffffffffff168152602001908152602001600020547f000000000000000000000000000000000000000000000000000000000000000073ffffffffffffffffffffffffffffffffffffffff166318160ddd6040518163ffffffff1660e01b8152600401602060405180830381865afa1580156127cb573d6000803e3d6000fd5b505050506040513d601f19601f820116820180604052508101906127ef9190613174565b856127fa9190613093565b6128049190613104565b90508082106128135780612815565b815b925050505b7f000000000000000000000000000000000000000000000000000000000000000073ffffffffffffffffffffffffffffffffffffffff166340c10f1933836040518363ffffffff1660e01b8152600401612875929190613376565b600060405180830381600087803b15801561288f57600080fd5b505af11580156128a3573d6000803e3d6000fd5b5050505092915050565b7f000000000000000000000000000000000000000000000000000000000000000073ffffffffffffffffffffffffffffffffffffffff168273ffffffffffffffffffffffffffffffffffffffff161415801561295557507f000000000000000000000000000000000000000000000000000000000000000073ffffffffffffffffffffffffffffffffffffffff168273ffffffffffffffffffffffffffffffffffffffff1614155b1561298c576040517f03267b3000000000000000000000000000000000000000000000000000000000815260040160405180910390fd5b600060028060008573ffffffffffffffffffffffffffffffffffffffff1673ffffffffffffffffffffffffffffffffffffffff168152602001908152602001600020546129d99190613104565b905080821115612a15576040517f4b0220dd00000000000000000000000000000000000000000000000000000000815260040160405180910390fd5b505050565b60007f000000000000000000000000000000000000000000000000000000000000000073ffffffffffffffffffffffffffffffffffffffff168273ffffffffffffffffffffffffffffffffffffffff1614158015612ac457507f000000000000000000000000000000000000000000000000000000000000000073ffffffffffffffffffffffffffffffffffffffff168273ffffffffffffffffffffffffffffffffffffffff1614155b15612afb576040517f03267b3000000000000000000000000000000000000000000000000000000000815260040160405180910390fd5b7f000000000000000000000000000000000000000000000000000000000000000073ffffffffffffffffffffffffffffffffffffffff168273ffffffffffffffffffffffffffffffffffffffff1614612b74577f0000000000000000000000000000000000000000000000000000000000000000612b96565b7f00000000000000000000000000000000000000000000000000000000000000005b9050919050565b60008473ffffffffffffffffffffffffffffffffffffffff166323b872dd8730876040518463ffffffff1660e01b8152600401612bdc93929190613552565b6020604051808303816000875af1158015612bfb573d6000803e3d6000fd5b505050506040513d601f19601f82011682018060405250810190612c1f9190613525565b905080612c58576040517f67ba00c000000000000000000000000000000000000000000000000000000000815260040160405180910390fd5b8273ffffffffffffffffffffffffffffffffffffffff1663a9059cbb87846040518363ffffffff1660e01b8152600401612c93929190613376565b6020604051808303816000875af1158015612cb2573d6000803e3d6000fd5b505050506040513d601f19601f82011682018060405250810190612cd69190613525565b905080612d0f576040517f67ba00c000000000000000000000000000000000000000000000000000000000815260040160405180910390fd5b83600260008773ffffffffffffffffffffffffffffffffffffffff1673ffffffffffffffffffffffffffffffffffffffff1681526020019081526020016000206000828254612d5e91906131d5565b9250508190555081600260008573ffffffffffffffffffffffffffffffffffffffff1673ffffffffffffffffffffffffffffffffffffffff1681526020019081526020016000206000828254612db491906131a1565b92505081905550505050505050565b6000808203612dd55760009050612e46565b60038211612de65760019050612e46565b8190506000600183901c90505b81811015612e44578091506001818285612e0d9190613104565b612e1791906131d5565b901c905081811480612e34575081600182612e3291906131d5565b145b15612e3f5750612e46565b612df3565b505b919050565b600080fd5b600073ffffffffffffffffffffffffffffffffffffffff82169050919050565b6000612e7b82612e50565b9050919050565b612e8b81612e70565b8114612e9657600080fd5b50565b600081359050612ea881612e82565b92915050565b6000819050919050565b612ec181612eae565b8114612ecc57600080fd5b50565b600081359050612ede81612eb8565b92915050565b60008060408385031215612efb57612efa612e4b565b5b6000612f0985828601612e99565b9250506020612f1a85828601612ecf565b9150509250929050565b612f2d81612eae565b82525050565b6000602082019050612f486000830184612f24565b92915050565b600060208284031215612f6457612f63612e4b565b5b6000612f7284828501612e99565b91505092915050565b6000604082019050612f906000830185612f24565b612f9d6020830184612f24565b9392505050565b600060208284031215612fba57612fb9612e4b565b5b6000612fc884828501612ecf565b91505092915050565b60008060408385031215612fe857612fe7612e4b565b5b6000612ff685828601612ecf565b925050602061300785828601612ecf565b9150509250929050565b60008060006060848603121561302a57613029612e4b565b5b600061303886828701612e99565b935050602061304986828701612ecf565b925050604061305a86828701612ecf565b9150509250925092565b7f4e487b7100000000000000000000000000000000000000000000000000000000600052601160045260246000fd5b600061309e82612eae565b91506130a983612eae565b92508282026130b781612eae565b915082820484148315176130ce576130cd613064565b5b5092915050565b7f4e487b7100000000000000000000000000000000000000000000000000000000600052601260045260246000fd5b600061310f82612eae565b915061311a83612eae565b92508261312a576131296130d5565b5b828204905092915050565b61313e81612e70565b82525050565b60006020820190506131596000830184613135565b92915050565b60008151905061316e81612eb8565b92915050565b60006020828403121561318a57613189612e4b565b5b60006131988482850161315f565b91505092915050565b60006131ac82612eae565b91506131b783612eae565b92508282039050818111156131cf576131ce613064565b5b92915050565b60006131e082612eae565b91506131eb83612eae565b925082820190508082111561320357613202613064565b5b92915050565b6000819050919050565b600061322e61322961322484612e50565b613209565b612e50565b9050919050565b600061324082613213565b9050919050565b600061325282613235565b9050919050565b61326281613247565b82525050565b600060208201905061327d6000830184613259565b92915050565b600069ffffffffffffffffffff82169050919050565b6132a281613283565b81146132ad57600080fd5b50565b6000815190506132bf81613299565b92915050565b6000819050919050565b6132d8816132c5565b81146132e357600080fd5b50565b6000815190506132f5816132cf565b92915050565b600080600080600060a0868803121561331757613316612e4b565b5b6000613325888289016132b0565b9550506020613336888289016132e6565b94505060406133478882890161315f565b93505060606133588882890161315f565b9250506080613369888289016132b0565b9150509295509295909350565b600060408201905061338b6000830185613135565b6133986020830184612f24565b9392505050565b600060a0820190506133b46000830188613135565b6133c16020830187612f24565b6133ce6040830186613135565b6133db6060830185612f24565b6133e86080830184612f24565b9695505050505050565b60006133fd82612eae565b91507fffffffffffffffffffffffffffffffffffffffffffffffffffffffffffffffff820361342f5761342e613064565b5b600182019050919050565b600060608201905061344f6000830186613135565b61345c6020830185612f24565b6134696040830184612f24565b949350505050565b60006080820190506134866000830187613135565b6134936020830186612f24565b6134a06040830185613135565b6134ad6060830184612f24565b95945050505050565b60006060820190506134cb6000830186612f24565b6134d86020830185612f24565b6134e56040830184612f24565b949350505050565b60008115159050919050565b613502816134ed565b811461350d57600080fd5b50565b60008151905061351f816134f9565b92915050565b60006020828403121561353b5761353a612e4b565b5b600061354984828501613510565b91505092915050565b60006060820190506135676000830186613135565b6135746020830185613135565b6135816040830184612f24565b94935050505056fea26469706673582212206c86a539e77f82ce26e76bd0598bf42dca69b1a6488e05213fcb4ea7419cb4f164736f6c634300081b0033608060405234801561001057600080fd5b50336040518060400160405280600c81526020017f444558204c5020546f6b656e00000000000000000000000000000000000000008152506040518060400160405280600381526020017f444c500000000000000000000000000000000000000000000000000000000000815250816003908161008d919061043d565b50806004908161009d919061043d565b505050600073ffffffffffffffffffffffffffffffffffffffff168173ffffffffffffffffffffffffffffffffffffffff16036101125760006040517f1e4fbdf70000000000000000000000000000000000000000000000000000000081526004016101099190610550565b60405180910390fd5b6101218161012760201b60201c565b5061056b565b6000600560009054906101000a900473ffffffffffffffffffffffffffffffffffffffff16905081600560006101000a81548173ffffffffffffffffffffffffffffffffffffffff021916908373ffffffffffffffffffffffffffffffffffffffff1602179055508173ffffffffffffffffffffffffffffffffffffffff168173ffffffffffffffffffffffffffffffffffffffff167f8be0079c531659141344cd1fd0a4f28419497f9722a3daafe3b4186f6b6457e060405160405180910390a35050565b600081519050919050565b7f4e487b7100000000000000000000000000000000000000000000000000000000600052604160045260246000fd5b7f4e487b7100000000000000000000000000000000000000000000000000000000600052602260045260246000fd5b6000600282049050600182168061026e57607f821691505b60208210810361028157610280610227565b5b50919050565b60008190508160005260206000209050919050565b60006020601f8301049050919050565b600082821b905092915050565b6000600883026102e97fffffffffffffffffffffffffffffffffffffffffffffffffffffffffffffffff826102ac565b6102f386836102ac565b95508019841693508086168417925050509392505050565b6000819050919050565b6000819050919050565b600061033a6103356103308461030b565b610315565b61030b565b9050919050565b6000819050919050565b6103548361031f565b61036861036082610341565b8484546102b9565b825550505050565b600090565b61037d610370565b61038881848461034b565b505050565b5b818110156103ac576103a1600082610375565b60018101905061038e565b5050565b601f8211156103f1576103c281610287565b6103cb8461029c565b810160208510156103da578190505b6103ee6103e68561029c565b83018261038d565b50505b505050565b600082821c905092915050565b6000610414600019846008026103f6565b1980831691505092915050565b600061042d8383610403565b9150826002028217905092915050565b610446826101ed565b67ffffffffffffffff81111561045f5761045e6101f8565b5b6104698254610256565b6104748282856103b0565b600060209050601f8311600181146104a75760008415610495578287015190505b61049f8582610421565b865550610507565b601f1984166104b586610287565b60005b828110156104dd578489015182556001820191506020850194506020810190506104b8565b868310156104fa57848901516104f6601f891682610403565b8355505b6001600288020188555050505b505050505050565b600073ffffffffffffffffffffffffffffffffffffffff82169050919050565b600061053a8261050f565b9050919050565b61054a8161052f565b82525050565b60006020820190506105656000830184610541565b92915050565b6114a78061057a6000396000f3fe608060405234801561001057600080fd5b50600436106101005760003560e01c8063715018a6116100975780639dc29fac116100665780639dc29fac1461028b578063a9059cbb146102a7578063dd62ed3e146102d7578063f2fde38b1461030757610100565b8063715018a614610227578063745fba84146102315780638da5cb5b1461024f57806395d89b411461026d57610100565b806326f9a952116100d357806326f9a952146101a1578063313ce567146101bd57806340c10f19146101db57806370a08231146101f757610100565b806306fdde0314610105578063095ea7b31461012357806318160ddd1461015357806323b872dd14610171575b600080fd5b61010d610323565b60405161011a919061108f565b60405180910390f35b61013d6004803603810190610138919061114a565b6103b5565b60405161014a91906111a5565b60405180910390f35b61015b6103d8565b60405161016891906111cf565b60405180910390f35b61018b600480360381019061018691906111ea565b6103e2565b60405161019891906111a5565b60405180910390f35b6101bb60048036038101906101b6919061123d565b610411565b005b6101c561045d565b6040516101d29190611286565b60405180910390f35b6101f560048036038101906101f0919061114a565b610466565b005b610211600480360381019061020c919061123d565b610504565b60405161021e91906111cf565b60405180910390f35b61022f61054c565b005b610239610560565b60405161024691906112b0565b60405180910390f35b610257610586565b60405161026491906112b0565b60405180910390f35b6102756105b0565b604051610282919061108f565b60405180910390f35b6102a560048036038101906102a0919061114a565b610642565b005b6102c160048036038101906102bc919061114a565b6106e0565b6040516102ce91906111a5565b60405180910390f35b6102f160048036038101906102ec91906112cb565b610703565b6040516102fe91906111cf565b60405180910390f35b610321600480360381019061031c919061123d565b61078a565b005b6060600380546103329061133a565b80601f016020809104026020016040519081016040528092919081815260200182805461035e9061133a565b80156103ab5780601f10610380576101008083540402835291602001916103ab565b820191906000526020600020905b81548152906001019060200180831161038e57829003601f168201915b5050505050905090565b6000806103c0610810565b90506103cd818585610818565b600191505092915050565b6000600254905090565b6000806103ed610810565b90506103fa85828561082a565b6104058585856108be565b60019150509392505050565b6104196109b2565b80600660006101000a81548173ffffffffffffffffffffffffffffffffffffffff021916908373ffffffffffffffffffffffffffffffffffffffff16021790555050565b60006012905090565b600660009054906101000a900473ffffffffffffffffffffffffffffffffffffffff1673ffffffffffffffffffffffffffffffffffffffff163373ffffffffffffffffffffffffffffffffffffffff16146104f6576040517f08c379a00000000000000000000000000000000000000000000000000000000081526004016104ed906113b7565b60405180910390fd5b6105008282610a39565b5050565b60008060008373ffffffffffffffffffffffffffffffffffffffff1673ffffffffffffffffffffffffffffffffffffffff168152602001908152602001600020549050919050565b6105546109b2565b61055e6000610abb565b565b600660009054906101000a900473ffffffffffffffffffffffffffffffffffffffff1681565b6000600560009054906101000a900473ffffffffffffffffffffffffffffffffffffffff16905090565b6060600480546105bf9061133a565b80601f01602080910402602001604051908101604052809291908181526020018280546105eb9061133a565b80156106385780601f1061060d57610100808354040283529160200191610638565b820191906000526020600020905b81548152906001019060200180831161061b57829003601f168201915b5050505050905090565b600660009054906101000a900473ffffffffffffffffffffffffffffffffffffffff1673ffffffffffffffffffffffffffffffffffffffff163373ffffffffffffffffffffffffffffffffffffffff16146106d2576040517f08c379a00000000000000000000000000000000000000000000000000000000081526004016106c9906113b7565b60405180910390fd5b6106dc8282610b81565b5050565b6000806106eb610810565b90506106f88185856108be565b600191505092915050565b6000600160008473ffffffffffffffffffffffffffffffffffffffff1673ffffffffffffffffffffffffffffffffffffffff16815260200190815260200160002060008373ffffffffffffffffffffffffffffffffffffffff1673ffffffffffffffffffffffffffffffffffffffff16815260200190815260200160002054905092915050565b6107926109b2565b600073ffffffffffffffffffffffffffffffffffffffff168173ffffffffffffffffffffffffffffffffffffffff16036108045760006040517f1e4fbdf70000000000000000000000000000000000000000000000000000000081526004016107fb91906112b0565b60405180910390fd5b61080d81610abb565b50565b600033905090565b6108258383836001610c03565b505050565b60006108368484610703565b90507fffffffffffffffffffffffffffffffffffffffffffffffffffffffffffffffff81146108b857818110156108a8578281836040517ffb8f41b200000000000000000000000000000000000000000000000000000000815260040161089f939291906113d7565b60405180910390fd5b6108b784848484036000610c03565b5b50505050565b600073ffffffffffffffffffffffffffffffffffffffff168373ffffffffffffffffffffffffffffffffffffffff16036109305760006040517f96c6fd1e00000000000000000000000000000000000000000000000000000000815260040161092791906112b0565b60405180910390fd5b600073ffffffffffffffffffffffffffffffffffffffff168273ffffffffffffffffffffffffffffffffffffffff16036109a25760006040517fec442f0500000000000000000000000000000000000000000000000000000000815260040161099991906112b0565b60405180910390fd5b6109ad838383610dda565b505050565b6109ba610810565b73ffffffffffffffffffffffffffffffffffffffff166109d8610586565b73ffffffffffffffffffffffffffffffffffffffff1614610a37576109fb610810565b6040517f118cdaa7000000000000000000000000000000000000000000000000000000008152600401610a2e91906112b0565b60405180910390fd5b565b600073ffffffffffffffffffffffffffffffffffffffff168273ffffffffffffffffffffffffffffffffffffffff1603610aab5760006040517fec442f05000000000000000000000000000000000000000000000000000000008152600401610aa291906112b0565b60405180910390fd5b610ab760008383610dda565b5050565b6000600560009054906101000a900473ffffffffffffffffffffffffffffffffffffffff16905081600560006101000a81548173ffffffffffffffffffffffffffffffffffffffff021916908373ffffffffffffffffffffffffffffffffffffffff1602179055508173ffffffffffffffffffffffffffffffffffffffff168173ffffffffffffffffffffffffffffffffffffffff167f8be0079c531659141344cd1fd0a4f28419497f9722a3daafe3b4186f6b6457e060405160405180910390a35050565b600073ffffffffffffffffffffffffffffffffffffffff168273ffffffffffffffffffffffffffffffffffffffff1603610bf35760006040517f96c6fd1e000000000000000000000000000000000000000000000000000000008152600401610bea91906112b0565b60405180910390fd5b610bff82600083610dda565b5050565b600073ffffffffffffffffffffffffffffffffffffffff168473ffffffffffffffffffffffffffffffffffffffff1603610c755760006040517fe602df05000000000000000000000000000000000000000000000000000000008152600401610c6c91906112b0565b60405180910390fd5b600073ffffffffffffffffffffffffffffffffffffffff168373ffffffffffffffffffffffffffffffffffffffff1603610ce75760006040517f94280d62000000000000000000000000000000000000000000000000000000008152600401610cde91906112b0565b60405180910390fd5b81600160008673ffffffffffffffffffffffffffffffffffffffff1673ffffffffffffffffffffffffffffffffffffffff16815260200190815260200160002060008573ffffffffffffffffffffffffffffffffffffffff1673ffffffffffffffffffffffffffffffffffffffff168152602001908152602001600020819055508015610dd4578273ffffffffffffffffffffffffffffffffffffffff168473ffffffffffffffffffffffffffffffffffffffff167f8c5be1e5ebec7d5bd14f71427d1e84f3dd0314c0f7b2291e5b200ac8c7c3b92584604051610dcb91906111cf565b60405180910390a35b50505050565b600073ffffffffffffffffffffffffffffffffffffffff168373ffffffffffffffffffffffffffffffffffffffff1603610e2c578060026000828254610e20919061143d565b92505081905550610eff565b60008060008573ffffffffffffffffffffffffffffffffffffffff1673ffffffffffffffffffffffffffffffffffffffff16815260200190815260200160002054905081811015610eb8578381836040517fe450d38c000000000000000000000000000000000000000000000000000000008152600401610eaf939291906113d7565b60405180910390fd5b8181036000808673ffffffffffffffffffffffffffffffffffffffff1673ffffffffffffffffffffffffffffffffffffffff16815260200190815260200160002081905550505b600073ffffffffffffffffffffffffffffffffffffffff168273ffffffffffffffffffffffffffffffffffffffff1603610f485780600260008282540392505081905550610f95565b806000808473ffffffffffffffffffffffffffffffffffffffff1673ffffffffffffffffffffffffffffffffffffffff168152602001908152602001600020600082825401925050819055505b8173ffffffffffffffffffffffffffffffffffffffff168373ffffffffffffffffffffffffffffffffffffffff167fddf252ad1be2c89b69c2b068fc378daa952ba7f163c4a11628f55a4df523b3ef83604051610ff291906111cf565b60405180910390a3505050565b600081519050919050565b600082825260208201905092915050565b60005b8381101561103957808201518184015260208101905061101e565b60008484015250505050565b6000601f19601f8301169050919050565b600061106182610fff565b61106b818561100a565b935061107b81856020860161101b565b61108481611045565b840191505092915050565b600060208201905081810360008301526110a98184611056565b905092915050565b600080fd5b600073ffffffffffffffffffffffffffffffffffffffff82169050919050565b60006110e1826110b6565b9050919050565b6110f1816110d6565b81146110fc57600080fd5b50565b60008135905061110e816110e8565b92915050565b6000819050919050565b61112781611114565b811461113257600080fd5b50565b6000813590506111448161111e565b92915050565b60008060408385031215611161576111606110b1565b5b600061116f858286016110ff565b925050602061118085828601611135565b9150509250929050565b60008115159050919050565b61119f8161118a565b82525050565b60006020820190506111ba6000830184611196565b92915050565b6111c981611114565b82525050565b60006020820190506111e460008301846111c0565b92915050565b600080600060608486031215611203576112026110b1565b5b6000611211868287016110ff565b9350506020611222868287016110ff565b925050604061123386828701611135565b9150509250925092565b600060208284031215611253576112526110b1565b5b6000611261848285016110ff565b91505092915050565b600060ff82169050919050565b6112808161126a565b82525050565b600060208201905061129b6000830184611277565b92915050565b6112aa816110d6565b82525050565b60006020820190506112c560008301846112a1565b92915050565b600080604083850312156112e2576112e16110b1565b5b60006112f0858286016110ff565b9250506020611301858286016110ff565b9150509250929050565b7f4e487b7100000000000000000000000000000000000000000000000000000000600052602260045260246000fd5b6000600282049050600182168061135257607f821691505b6020821081036113655761136461130b565b5b50919050565b7f4f6e6c79204445582063616e2063616c6c207468697300000000000000000000600082015250565b60006113a160168361100a565b91506113ac8261136b565b602082019050919050565b600060208201905081810360008301526113d081611394565b9050919050565b60006060820190506113ec60008301866112a1565b6113f960208301856111c0565b61140660408301846111c0565b949350505050565b7f4e487b7100000000000000000000000000000000000000000000000000000000600052601160045260246000fd5b600061144882611114565b915061145383611114565b925082820190508082111561146b5761146a61140e565b5b9291505056fea264697066735822122095808044141a1d863642252c5f48762aa29dab755003bb1f343b2ad184599a1164736f6c634300081b0033",
  "linkReferences": {
    "contracts/libraries/OracleLib.sol": {
      "OracleLib": [
        {
          "length": 20,
          "start": 3546
        },
        {
          "length": 20,
          "start": 3698
        }
      ]
    }
  },
  "deployedLinkReferences": {
    "contracts/libraries/OracleLib.sol": {
      "OracleLib": [
        {
          "length": 20,
          "start": 2209
        },
        {
          "length": 20,
          "start": 2361
        }
      ]
    }
  }
}