{
  "_format": "hh-sol-artifact-1",
  "contractName": "LendingBorrowing",
  "sourceName": "contracts/LendingBorrowing.sol",
  "abi": [
    {
      "inputs": [
        {
          "internalType": "address",
          "name": "_daiToken",
          "type": "address"
        },
        {
          "internalType": "address",
          "name": "_collateralToken",
          "type": "address"
        },
        {
          "internalType": "address",
          "name": "_collateralPriceFeed",
          "type": "address"
        },
        {
          "internalType": "address",
          "name": "_daiPriceFeed",
          "type": "address"
        }
      ],
      "stateMutability": "nonpayable",
      "type": "constructor"
    },
    {
      "inputs": [
        {
          "internalType": "uint256",
          "name": "",
          "type": "uint256"
        }
      ],
      "name": "LendingBorrowing__HealthFactorIsBroken",
      "type": "error"
    },
    {
      "inputs": [],
      "name": "LendingBorrowing__HealthFactorIsNotBroken",
      "type": "error"
    },
    {
      "inputs": [],
      "name": "LendingBorrowing__InsufficientBalance",
      "type": "error"
    },
    {
      "inputs": [],
      "name": "LendingBorrowing__InsufficientCollateral",
      "type": "error"
    },
    {
      "inputs": [],
      "name": "LendingBorrowing__InsufficientLiquidity",
      "type": "error"
    },
    {
      "inputs": [],
      "name": "LendingBorrowing__MustGreaterThanZero",
      "type": "error"
    },
    {
      "inputs": [],
      "name": "LendingBorrowing__NotEnoughCollateral",
      "type": "error"
    },
    {
      "inputs": [],
      "name": "LendingBorrowing__TransferFailed",
      "type": "error"
    },
    {
      "inputs": [],
      "name": "LendingBorrowing__UserCannotLiquidateHimself",
      "type": "error"
    },
    {
      "inputs": [],
      "name": "ReentrancyGuardReentrantCall",
      "type": "error"
    },
    {
      "anonymous": false,
      "inputs": [
        {
          "indexed": true,
          "internalType": "address",
          "name": "user",
          "type": "address"
        },
        {
          "indexed": true,
          "internalType": "address",
          "name": "token",
          "type": "address"
        },
        {
          "indexed": false,
          "internalType": "uint256",
          "name": "amount",
          "type": "uint256"
        }
      ],
      "name": "Borrow",
      "type": "event"
    },
    {
      "anonymous": false,
      "inputs": [
        {
          "indexed": true,
          "internalType": "address",
          "name": "user",
          "type": "address"
        },
        {
          "indexed": true,
          "internalType": "address",
          "name": "token",
          "type": "address"
        },
        {
          "indexed": false,
          "internalType": "uint256",
          "name": "amount",
          "type": "uint256"
        }
      ],
      "name": "Deposit",
      "type": "event"
    },
    {
      "anonymous": false,
      "inputs": [
        {
          "indexed": true,
          "internalType": "address",
          "name": "user",
          "type": "address"
        },
        {
          "indexed": true,
          "internalType": "address",
          "name": "token",
          "type": "address"
        },
        {
          "indexed": false,
          "internalType": "uint256",
          "name": "amount",
          "type": "uint256"
        }
      ],
      "name": "DepositCollateral",
      "type": "event"
    },
    {
      "anonymous": false,
      "inputs": [
        {
          "indexed": true,
          "internalType": "address",
          "name": "liquidator",
          "type": "address"
        },
        {
          "indexed": true,
          "internalType": "address",
          "name": "borrower",
          "type": "address"
        },
        {
          "indexed": false,
          "internalType": "uint256",
          "name": "amountToLiquidate",
          "type": "uint256"
        },
        {
          "indexed": false,
          "internalType": "uint256",
          "name": "totalCollateralToLiquidate",
          "type": "uint256"
        }
      ],
      "name": "Liquidate",
      "type": "event"
    },
    {
      "anonymous": false,
      "inputs": [
        {
          "indexed": true,
          "internalType": "address",
          "name": "user",
          "type": "address"
        },
        {
          "indexed": true,
          "internalType": "address",
          "name": "token",
          "type": "address"
        },
        {
          "indexed": false,
          "internalType": "uint256",
          "name": "amount",
          "type": "uint256"
        }
      ],
      "name": "RedeemCollateral",
      "type": "event"
    },
    {
      "anonymous": false,
      "inputs": [
        {
          "indexed": true,
          "internalType": "address",
          "name": "user",
          "type": "address"
        },
        {
          "indexed": true,
          "internalType": "address",
          "name": "token",
          "type": "address"
        },
        {
          "indexed": false,
          "internalType": "uint256",
          "name": "amount",
          "type": "uint256"
        }
      ],
      "name": "Repay",
      "type": "event"
    },
    {
      "anonymous": false,
      "inputs": [
        {
          "indexed": true,
          "internalType": "address",
          "name": "user",
          "type": "address"
        },
        {
          "indexed": true,
          "internalType": "address",
          "name": "token",
          "type": "address"
        },
        {
          "indexed": false,
          "internalType": "uint256",
          "name": "amount",
          "type": "uint256"
        }
      ],
      "name": "Withdraw",
      "type": "event"
    },
    {
      "inputs": [],
      "name": "COLLATERAL_FACTOR",
      "outputs": [
        {
          "internalType": "uint256",
          "name": "",
          "type": "uint256"
        }
      ],
      "stateMutability": "view",
      "type": "function"
    },
    {
      "inputs": [],
      "name": "INTEREST_RATE",
      "outputs": [
        {
          "internalType": "uint256",
          "name": "",
          "type": "uint256"
        }
      ],
      "stateMutability": "view",
      "type": "function"
    },
    {
      "inputs": [],
      "name": "LIQUIDATION_BONUS",
      "outputs": [
        {
          "internalType": "uint256",
          "name": "",
          "type": "uint256"
        }
      ],
      "stateMutability": "view",
      "type": "function"
    },
    {
      "inputs": [],
      "name": "LIQUIDATION_THRESHOLD",
      "outputs": [
        {
          "internalType": "uint256",
          "name": "",
          "type": "uint256"
        }
      ],
      "stateMutability": "view",
      "type": "function"
    },
    {
      "inputs": [],
      "name": "SECONDS_IN_A_YEAR",
      "outputs": [
        {
          "internalType": "uint256",
          "name": "",
          "type": "uint256"
        }
      ],
      "stateMutability": "view",
      "type": "function"
    },
    {
      "inputs": [
        {
          "internalType": "uint256",
          "name": "_amount",
          "type": "uint256"
        }
      ],
      "name": "borrow",
      "outputs": [],
      "stateMutability": "nonpayable",
      "type": "function"
    },
    {
      "inputs": [
        {
          "internalType": "address",
          "name": "_user",
          "type": "address"
        }
      ],
      "name": "calculateAvailableBorrow",
      "outputs": [
        {
          "internalType": "uint256",
          "name": "",
          "type": "uint256"
        }
      ],
      "stateMutability": "view",
      "type": "function"
    },
    {
      "inputs": [
        {
          "internalType": "address",
          "name": "_user",
          "type": "address"
        }
      ],
      "name": "calculateHealthFactor",
      "outputs": [
        {
          "internalType": "uint256",
          "name": "",
          "type": "uint256"
        },
        {
          "internalType": "uint256",
          "name": "",
          "type": "uint256"
        }
      ],
      "stateMutability": "view",
      "type": "function"
    },
    {
      "inputs": [
        {
          "internalType": "address",
          "name": "_user",
          "type": "address"
        }
      ],
      "name": "calculateNetWorth",
      "outputs": [
        {
          "internalType": "uint256",
          "name": "",
          "type": "uint256"
        }
      ],
      "stateMutability": "view",
      "type": "function"
    },
    {
      "inputs": [
        {
          "internalType": "uint256",
          "name": "_amount",
          "type": "uint256"
        }
      ],
      "name": "deposit",
      "outputs": [],
      "stateMutability": "nonpayable",
      "type": "function"
    },
    {
      "inputs": [
        {
          "internalType": "uint256",
          "name": "_amount",
          "type": "uint256"
        }
      ],
      "name": "depositCollateral",
      "outputs": [],
      "stateMutability": "nonpayable",
      "type": "function"
    },
    {
      "inputs": [
        {
          "internalType": "address",
          "name": "_user",
          "type": "address"
        }
      ],
      "name": "getBorrowLimit",
      "outputs": [
        {
          "internalType": "uint256",
          "name": "",
          "type": "uint256"
        }
      ],
      "stateMutability": "view",
      "type": "function"
    },
    {
      "inputs": [],
      "name": "getBorrowers",
      "outputs": [
        {
          "internalType": "address[]",
          "name": "",
          "type": "address[]"
        }
      ],
      "stateMutability": "view",
      "type": "function"
    },
    {
      "inputs": [],
      "name": "getCollateralDepositors",
      "outputs": [
        {
          "internalType": "address[]",
          "name": "",
          "type": "address[]"
        }
      ],
      "stateMutability": "view",
      "type": "function"
    },
    {
      "inputs": [],
      "name": "getCollateralPrice",
      "outputs": [
        {
          "internalType": "uint256",
          "name": "",
          "type": "uint256"
        }
      ],
      "stateMutability": "view",
      "type": "function"
    },
    {
      "inputs": [
        {
          "internalType": "uint256",
          "name": "_daiAmount",
          "type": "uint256"
        }
      ],
      "name": "getCollateralTokenAmountFromDai",
      "outputs": [
        {
          "internalType": "uint256",
          "name": "",
          "type": "uint256"
        }
      ],
      "stateMutability": "view",
      "type": "function"
    },
    {
      "inputs": [
        {
          "internalType": "address",
          "name": "_user",
          "type": "address"
        }
      ],
      "name": "getCollateralValue",
      "outputs": [
        {
          "internalType": "uint256",
          "name": "",
          "type": "uint256"
        }
      ],
      "stateMutability": "view",
      "type": "function"
    },
    {
      "inputs": [
        {
          "internalType": "address",
          "name": "_user",
          "type": "address"
        }
      ],
      "name": "getCollateralWalletValue",
      "outputs": [
        {
          "internalType": "uint256",
          "name": "",
          "type": "uint256"
        }
      ],
      "stateMutability": "view",
      "type": "function"
    },
    {
      "inputs": [],
      "name": "getTotalBorrows",
      "outputs": [
        {
          "internalType": "uint256",
          "name": "",
          "type": "uint256"
        }
      ],
      "stateMutability": "view",
      "type": "function"
    },
    {
      "inputs": [],
      "name": "getTotalCollateralValue",
      "outputs": [
        {
          "internalType": "uint256",
          "name": "",
          "type": "uint256"
        }
      ],
      "stateMutability": "view",
      "type": "function"
    },
    {
      "inputs": [],
      "name": "getTotalDeposit",
      "outputs": [
        {
          "internalType": "uint256",
          "name": "",
          "type": "uint256"
        }
      ],
      "stateMutability": "view",
      "type": "function"
    },
    {
      "inputs": [
        {
          "internalType": "address",
          "name": "user",
          "type": "address"
        },
        {
          "internalType": "address",
          "name": "token",
          "type": "address"
        }
      ],
      "name": "getUserBorrow",
      "outputs": [
        {
          "internalType": "uint256",
          "name": "",
          "type": "uint256"
        }
      ],
      "stateMutability": "view",
      "type": "function"
    },
    {
      "inputs": [
        {
          "internalType": "address",
          "name": "user",
          "type": "address"
        },
        {
          "internalType": "address",
          "name": "token",
          "type": "address"
        }
      ],
      "name": "getUserCollateral",
      "outputs": [
        {
          "internalType": "uint256",
          "name": "",
          "type": "uint256"
        }
      ],
      "stateMutability": "view",
      "type": "function"
    },
    {
      "inputs": [
        {
          "internalType": "address",
          "name": "user",
          "type": "address"
        },
        {
          "internalType": "address",
          "name": "token",
          "type": "address"
        }
      ],
      "name": "getUserDeposit",
      "outputs": [
        {
          "internalType": "uint256",
          "name": "",
          "type": "uint256"
        }
      ],
      "stateMutability": "view",
      "type": "function"
    },
    {
      "inputs": [
        {
          "internalType": "address",
          "name": "user",
          "type": "address"
        },
        {
          "internalType": "address",
          "name": "token",
          "type": "address"
        }
      ],
      "name": "getUserTimestamp",
      "outputs": [
        {
          "internalType": "uint256",
          "name": "",
          "type": "uint256"
        }
      ],
      "stateMutability": "view",
      "type": "function"
    },
    {
      "inputs": [
        {
          "internalType": "address",
          "name": "_borrower",
          "type": "address"
        },
        {
          "internalType": "uint256",
          "name": "_debtToCover",
          "type": "uint256"
        }
      ],
      "name": "liquidate",
      "outputs": [],
      "stateMutability": "nonpayable",
      "type": "function"
    },
    {
      "inputs": [
        {
          "internalType": "uint256",
          "name": "_amount",
          "type": "uint256"
        }
      ],
      "name": "redeemCollateral",
      "outputs": [],
      "stateMutability": "nonpayable",
      "type": "function"
    },
    {
      "inputs": [
        {
          "internalType": "uint256",
          "name": "_amount",
          "type": "uint256"
        }
      ],
      "name": "repayBorrow",
      "outputs": [],
      "stateMutability": "nonpayable",
      "type": "function"
    },
    {
      "inputs": [
        {
          "internalType": "uint256",
          "name": "_amount",
          "type": "uint256"
        }
      ],
      "name": "withdraw",
      "outputs": [],
      "stateMutability": "nonpayable",
      "type": "function"
    }
  ],
  "bytecode": "0x60c060405234801561001057600080fd5b506040516141cc3803806141cc8339818101604052810190610032919061020c565b60016000819055508373ffffffffffffffffffffffffffffffffffffffff1660808173ffffffffffffffffffffffffffffffffffffffff16815250508273ffffffffffffffffffffffffffffffffffffffff1660a08173ffffffffffffffffffffffffffffffffffffffff168152505081600860008573ffffffffffffffffffffffffffffffffffffffff1673ffffffffffffffffffffffffffffffffffffffff16815260200190815260200160002060006101000a81548173ffffffffffffffffffffffffffffffffffffffff021916908373ffffffffffffffffffffffffffffffffffffffff160217905550806009600060805173ffffffffffffffffffffffffffffffffffffffff1673ffffffffffffffffffffffffffffffffffffffff16815260200190815260200160002060006101000a81548173ffffffffffffffffffffffffffffffffffffffff021916908373ffffffffffffffffffffffffffffffffffffffff16021790555050505050610273565b600080fd5b600073ffffffffffffffffffffffffffffffffffffffff82169050919050565b60006101d9826101ae565b9050919050565b6101e9816101ce565b81146101f457600080fd5b50565b600081519050610206816101e0565b92915050565b60008060008060808587031215610226576102256101a9565b5b6000610234878288016101f7565b9450506020610245878288016101f7565b9350506040610256878288016101f7565b9250506060610267878288016101f7565b91505092959194509250565b60805160a051613e006103cc600039600081816111360152818161190e01528181611a2901528181611add01528181611b4901528181611cd001528181611eec01528181612003015281816121e7015281816122c1015281816123d00152818161243d0152818161251401528181612f570152818161320a015261362101526000818161067b015281816107680152818161081c015281816108890152818161096201528181610b9601528181610c7101528181610cfa01528181610e1301528181610ec701528181610f6b01528181610fcb015281816111e3015281816113fb01528181611594015281816116af01528181611725015281816117d80152818161183701528181611e3901528181611f5f015281816125ae015281816126aa0152818161279401528181612891015281816128ff015281816129d601528181612abd01528181612baa01526130920152613e006000f3fe608060405234801561001057600080fd5b50600436106101cf5760003560e01c80639ce625f711610104578063c4fa17a4116100a2578063cdb5964411610071578063cdb5964414610557578063ed6493af14610587578063ee31d43f146105a5578063f7683bbc146105d5576101cf565b8063c4fa17a4146104cf578063c5ebeaec146104ed578063c671922c14610509578063cc484c5c14610539576101cf565b8063bad4a01f116100de578063bad4a01f1461045d578063bcbaf48714610479578063bd37b77514610495578063c022215c146104b1576101cf565b80639ce625f7146103e0578063a55e866814610411578063b6b55f2514610441576101cf565b80635b72a33a116101715780636854786a1161014b5780636854786a146103445780637c17d2371461036257806390a8ae9b1461039257806397904e42146103b0576101cf565b80635b72a33a146102c65780635e5c83b4146102e457806364c1519614610314576101cf565b80632957cb77116101ad5780632957cb771461023e5780632e1a7d4d1461025c5780633574d4c4146102785780633b70a7f914610296576101cf565b80630e752702146101d4578063148c658c146101f057806317f49e0514610220575b600080fd5b6101ee60048036038101906101e9919061372a565b6105f3565b005b61020a600480360381019061020591906137b5565b6109f4565b6040516102179190613804565b60405180910390f35b610228610a7b565b6040516102359190613804565b60405180910390f35b610246610a80565b60405161025391906138dd565b60405180910390f35b6102766004803603810190610271919061372a565b610b0e565b005b61028061105f565b60405161028d9190613804565b60405180910390f35b6102b060048036038101906102ab91906137b5565b611064565b6040516102bd9190613804565b60405180910390f35b6102ce6110eb565b6040516102db9190613804565b60405180910390f35b6102fe60048036038101906102f991906138ff565b6110f0565b60405161030b9190613804565b60405180910390f35b61032e6004803603810190610329919061372a565b61129e565b60405161033b9190613804565b60405180910390f35b61034c6112d2565b60405161035991906138dd565b60405180910390f35b61037c600480360381019061037791906138ff565b611360565b6040516103899190613804565b60405180910390f35b61039a61138f565b6040516103a79190613804565b60405180910390f35b6103ca60048036038101906103c591906138ff565b611394565b6040516103d79190613804565b60405180910390f35b6103fa60048036038101906103f591906138ff565b6113a6565b60405161040892919061392c565b60405180910390f35b61042b600480360381019061042691906137b5565b6114c6565b6040516104389190613804565b60405180910390f35b61045b6004803603810190610456919061372a565b61154d565b005b6104776004803603810190610472919061372a565b6118c7565b005b610493600480360381019061048e9190613955565b611bd9565b005b6104af60048036038101906104aa919061372a565b61215f565b005b6104b96125a6565b6040516104c69190613804565b60405180910390f35b6104d761260d565b6040516104e49190613804565b60405180910390f35b6105076004803603810190610502919061372a565b612615565b005b610523600480360381019061051e91906138ff565b612a6a565b6040516105309190613804565b60405180910390f35b610541612b2e565b60405161054e9190613804565b60405180910390f35b610571600480360381019061056c91906137b5565b612c27565b60405161057e9190613804565b60405180910390f35b61058f612cae565b60405161059c9190613804565b60405180910390f35b6105bf60048036038101906105ba91906138ff565b612d13565b6040516105cc9190613804565b60405180910390f35b6105dd612d25565b6040516105ea9190613804565b60405180910390f35b6105fb612d34565b8060008111610636576040517f58f2468300000000000000000000000000000000000000000000000000000000815260040160405180910390fd5b6000600460003373ffffffffffffffffffffffffffffffffffffffff1673ffffffffffffffffffffffffffffffffffffffff16815260200190815260200160002060007f000000000000000000000000000000000000000000000000000000000000000073ffffffffffffffffffffffffffffffffffffffff1673ffffffffffffffffffffffffffffffffffffffff16815260200190815260200160002054905080831115610711576040517f89148a5500000000000000000000000000000000000000000000000000000000815260040160405180910390fd5b60008184116107205783610722565b815b905080600460003373ffffffffffffffffffffffffffffffffffffffff1673ffffffffffffffffffffffffffffffffffffffff16815260200190815260200160002060007f000000000000000000000000000000000000000000000000000000000000000073ffffffffffffffffffffffffffffffffffffffff1673ffffffffffffffffffffffffffffffffffffffff16815260200190815260200160002060008282546107d091906139c4565b925050819055506000600460003373ffffffffffffffffffffffffffffffffffffffff1673ffffffffffffffffffffffffffffffffffffffff16815260200190815260200160002060007f000000000000000000000000000000000000000000000000000000000000000073ffffffffffffffffffffffffffffffffffffffff1673ffffffffffffffffffffffffffffffffffffffff16815260200190815260200160002054036108855761088433612d7a565b5b60007f000000000000000000000000000000000000000000000000000000000000000073ffffffffffffffffffffffffffffffffffffffff166323b872dd3330856040518463ffffffff1660e01b81526004016108e493929190613a07565b6020604051808303816000875af1158015610903573d6000803e3d6000fd5b505050506040513d601f19601f820116820180604052508101906109279190613a76565b905080610960576040517fe64e62de00000000000000000000000000000000000000000000000000000000815260040160405180910390fd5b7f000000000000000000000000000000000000000000000000000000000000000073ffffffffffffffffffffffffffffffffffffffff163373ffffffffffffffffffffffffffffffffffffffff167f05f2eeda0e08e4b437f487c8d7d29b14537d15e3488170dc3de5dbdf8dac4684846040516109dd9190613804565b60405180910390a3505050506109f1612f02565b50565b6000600360008473ffffffffffffffffffffffffffffffffffffffff1673ffffffffffffffffffffffffffffffffffffffff16815260200190815260200160002060008373ffffffffffffffffffffffffffffffffffffffff1673ffffffffffffffffffffffffffffffffffffffff16815260200190815260200160002054905092915050565b604b81565b60606002805480602002602001604051908101604052809291908181526020018280548015610b0457602002820191906000526020600020905b8160009054906101000a900473ffffffffffffffffffffffffffffffffffffffff1673ffffffffffffffffffffffffffffffffffffffff1681526020019060010190808311610aba575b5050505050905090565b610b16612d34565b8060008111610b51576040517f58f2468300000000000000000000000000000000000000000000000000000000815260040160405180910390fd5b6000600360003373ffffffffffffffffffffffffffffffffffffffff1673ffffffffffffffffffffffffffffffffffffffff16815260200190815260200160002060007f000000000000000000000000000000000000000000000000000000000000000073ffffffffffffffffffffffffffffffffffffffff1673ffffffffffffffffffffffffffffffffffffffff16815260200190815260200160002054905082811015610c2c576040517f89148a5500000000000000000000000000000000000000000000000000000000815260040160405180910390fd5b6000600660003373ffffffffffffffffffffffffffffffffffffffff1673ffffffffffffffffffffffffffffffffffffffff16815260200190815260200160002060007f000000000000000000000000000000000000000000000000000000000000000073ffffffffffffffffffffffffffffffffffffffff1673ffffffffffffffffffffffffffffffffffffffff1681526020019081526020016000205442610cd691906139c4565b90506000610ce48583612f0c565b905060008186610cf49190613aa3565b905060007f000000000000000000000000000000000000000000000000000000000000000073ffffffffffffffffffffffffffffffffffffffff1663a9059cbb33846040518363ffffffff1660e01b8152600401610d53929190613ad7565b6020604051808303816000875af1158015610d72573d6000803e3d6000fd5b505050506040513d601f19601f82011682018060405250810190610d969190613a76565b905080610dcf576040517fe64e62de00000000000000000000000000000000000000000000000000000000815260040160405180910390fd5b86600360003373ffffffffffffffffffffffffffffffffffffffff1673ffffffffffffffffffffffffffffffffffffffff16815260200190815260200160002060007f000000000000000000000000000000000000000000000000000000000000000073ffffffffffffffffffffffffffffffffffffffff1673ffffffffffffffffffffffffffffffffffffffff1681526020019081526020016000206000828254610e7b91906139c4565b925050819055506000600360003373ffffffffffffffffffffffffffffffffffffffff1673ffffffffffffffffffffffffffffffffffffffff16815260200190815260200160002060007f000000000000000000000000000000000000000000000000000000000000000073ffffffffffffffffffffffffffffffffffffffff1673ffffffffffffffffffffffffffffffffffffffff1681526020019081526020016000205403610fc9576000600660003373ffffffffffffffffffffffffffffffffffffffff1673ffffffffffffffffffffffffffffffffffffffff16815260200190815260200160002060007f000000000000000000000000000000000000000000000000000000000000000073ffffffffffffffffffffffffffffffffffffffff1673ffffffffffffffffffffffffffffffffffffffff168152602001908152602001600020819055505b7f000000000000000000000000000000000000000000000000000000000000000073ffffffffffffffffffffffffffffffffffffffff163373ffffffffffffffffffffffffffffffffffffffff167f9b1bfa7fa9ee420a16e124f794c35ac9f90472acc99140eb2f6447c714cad8eb896040516110469190613804565b60405180910390a350505050505061105c612f02565b50565b600a81565b6000600660008473ffffffffffffffffffffffffffffffffffffffff1673ffffffffffffffffffffffffffffffffffffffff16815260200190815260200160002060008373ffffffffffffffffffffffffffffffffffffffff1673ffffffffffffffffffffffffffffffffffffffff16815260200190815260200160002054905092915050565b600581565b600080600560008473ffffffffffffffffffffffffffffffffffffffff1673ffffffffffffffffffffffffffffffffffffffff16815260200190815260200160002060007f000000000000000000000000000000000000000000000000000000000000000073ffffffffffffffffffffffffffffffffffffffff1673ffffffffffffffffffffffffffffffffffffffff168152602001908152602001600020549050600061119c612f4e565b90506000600460008673ffffffffffffffffffffffffffffffffffffffff1673ffffffffffffffffffffffffffffffffffffffff16815260200190815260200160002060007f000000000000000000000000000000000000000000000000000000000000000073ffffffffffffffffffffffffffffffffffffffff1673ffffffffffffffffffffffffffffffffffffffff1681526020019081526020016000205490506000611249613089565b9050670de0b6b3a764000081836112609190613b00565b61126a9190613b71565b670de0b6b3a7640000848661127f9190613b00565b6112899190613b71565b61129391906139c4565b945050505050919050565b6000806112a9612f4e565b905080670de0b6b3a7640000846112c09190613b00565b6112ca9190613b71565b915050919050565b6060600180548060200260200160405190810160405280929190818152602001828054801561135657602002820191906000526020600020905b8160009054906101000a900473ffffffffffffffffffffffffffffffffffffffff1673ffffffffffffffffffffffffffffffffffffffff168152602001906001019080831161130c575b5050505050905090565b60008061136c836131c4565b90506064604b8261137d9190613b00565b6113879190613b71565b915050919050565b605081565b600061139f826131c4565b9050919050565b60008060006113b4846131c4565b90506000600460008673ffffffffffffffffffffffffffffffffffffffff1673ffffffffffffffffffffffffffffffffffffffff16815260200190815260200160002060007f000000000000000000000000000000000000000000000000000000000000000073ffffffffffffffffffffffffffffffffffffffff1673ffffffffffffffffffffffffffffffffffffffff1681526020019081526020016000205490506000810361147657683635c9adc5dea0000060009350935050506114c1565b600060646050846114879190613b00565b6114919190613b71565b9050600082670de0b6b3a7640000836114aa9190613b00565b6114b49190613b71565b9050808395509550505050505b915091565b6000600560008473ffffffffffffffffffffffffffffffffffffffff1673ffffffffffffffffffffffffffffffffffffffff16815260200190815260200160002060008373ffffffffffffffffffffffffffffffffffffffff1673ffffffffffffffffffffffffffffffffffffffff16815260200190815260200160002054905092915050565b611555612d34565b8060008111611590576040517f58f2468300000000000000000000000000000000000000000000000000000000815260040160405180910390fd5b60007f000000000000000000000000000000000000000000000000000000000000000073ffffffffffffffffffffffffffffffffffffffff166323b872dd3330866040518463ffffffff1660e01b81526004016115ef93929190613a07565b6020604051808303816000875af115801561160e573d6000803e3d6000fd5b505050506040513d601f19601f820116820180604052508101906116329190613a76565b90508061166b576040517fe64e62de00000000000000000000000000000000000000000000000000000000815260040160405180910390fd5b82600360003373ffffffffffffffffffffffffffffffffffffffff1673ffffffffffffffffffffffffffffffffffffffff16815260200190815260200160002060007f000000000000000000000000000000000000000000000000000000000000000073ffffffffffffffffffffffffffffffffffffffff1673ffffffffffffffffffffffffffffffffffffffff16815260200190815260200160002060008282546117179190613aa3565b9250508190555082600760007f000000000000000000000000000000000000000000000000000000000000000073ffffffffffffffffffffffffffffffffffffffff1673ffffffffffffffffffffffffffffffffffffffff168152602001908152602001600020600082825461178d9190613aa3565b9250508190555042600660003373ffffffffffffffffffffffffffffffffffffffff1673ffffffffffffffffffffffffffffffffffffffff16815260200190815260200160002060007f000000000000000000000000000000000000000000000000000000000000000073ffffffffffffffffffffffffffffffffffffffff1673ffffffffffffffffffffffffffffffffffffffff168152602001908152602001600020819055507f000000000000000000000000000000000000000000000000000000000000000073ffffffffffffffffffffffffffffffffffffffff163373ffffffffffffffffffffffffffffffffffffffff167f5548c837ab068cf56a2c2479df0882a4922fd203edb7517321831d95078c5f62856040516118b29190613804565b60405180910390a350506118c4612f02565b50565b6118cf612d34565b806000811161190a576040517f58f2468300000000000000000000000000000000000000000000000000000000815260040160405180910390fd5b60007f000000000000000000000000000000000000000000000000000000000000000073ffffffffffffffffffffffffffffffffffffffff166323b872dd3330866040518463ffffffff1660e01b815260040161196993929190613a07565b6020604051808303816000875af1158015611988573d6000803e3d6000fd5b505050506040513d601f19601f820116820180604052508101906119ac9190613a76565b9050806119e5576040517fe64e62de00000000000000000000000000000000000000000000000000000000815260040160405180910390fd5b82600560003373ffffffffffffffffffffffffffffffffffffffff1673ffffffffffffffffffffffffffffffffffffffff16815260200190815260200160002060007f000000000000000000000000000000000000000000000000000000000000000073ffffffffffffffffffffffffffffffffffffffff1673ffffffffffffffffffffffffffffffffffffffff1681526020019081526020016000206000828254611a919190613aa3565b925050819055506000600560003373ffffffffffffffffffffffffffffffffffffffff1673ffffffffffffffffffffffffffffffffffffffff16815260200190815260200160002060007f000000000000000000000000000000000000000000000000000000000000000073ffffffffffffffffffffffffffffffffffffffff1673ffffffffffffffffffffffffffffffffffffffff168152602001908152602001600020541115611b4757611b463361329a565b5b7f000000000000000000000000000000000000000000000000000000000000000073ffffffffffffffffffffffffffffffffffffffff163373ffffffffffffffffffffffffffffffffffffffff167fef12f18e2b6578b91b3c852c423ca8ee530f65f20f770e62a7ce8aa08e1ab77785604051611bc49190613804565b60405180910390a35050611bd6612f02565b50565b611be1612d34565b8060008111611c1c576040517f58f2468300000000000000000000000000000000000000000000000000000000815260040160405180910390fd5b600080611c28856113a6565b91509150670de0b6b3a76400008210611c6d576040517f8bde3e8300000000000000000000000000000000000000000000000000000000815260040160405180910390fd5b6000818511611c7c5784611c7e565b815b90506000611c8b8261129e565b9050600560008873ffffffffffffffffffffffffffffffffffffffff1673ffffffffffffffffffffffffffffffffffffffff16815260200190815260200160002060007f000000000000000000000000000000000000000000000000000000000000000073ffffffffffffffffffffffffffffffffffffffff1673ffffffffffffffffffffffffffffffffffffffff16815260200190815260200160002054811115611d63576040517f6af290b100000000000000000000000000000000000000000000000000000000815260040160405180910390fd5b60006064600a83611d749190613b00565b611d7e9190613b71565b905060008183611d8e9190613aa3565b90508873ffffffffffffffffffffffffffffffffffffffff163373ffffffffffffffffffffffffffffffffffffffff1603611df5576040517f8e04dcbb00000000000000000000000000000000000000000000000000000000815260040160405180910390fd5b83600460008b73ffffffffffffffffffffffffffffffffffffffff1673ffffffffffffffffffffffffffffffffffffffff16815260200190815260200160002060007f000000000000000000000000000000000000000000000000000000000000000073ffffffffffffffffffffffffffffffffffffffff1673ffffffffffffffffffffffffffffffffffffffff1681526020019081526020016000206000828254611ea191906139c4565b9250508190555082600560008b73ffffffffffffffffffffffffffffffffffffffff1673ffffffffffffffffffffffffffffffffffffffff16815260200190815260200160002060007f000000000000000000000000000000000000000000000000000000000000000073ffffffffffffffffffffffffffffffffffffffff1673ffffffffffffffffffffffffffffffffffffffff1681526020019081526020016000206000828254611f5491906139c4565b9250508190555060007f000000000000000000000000000000000000000000000000000000000000000073ffffffffffffffffffffffffffffffffffffffff166323b872dd3330886040518463ffffffff1660e01b8152600401611fba93929190613a07565b6020604051808303816000875af1158015611fd9573d6000803e3d6000fd5b505050506040513d601f19601f82011682018060405250810190611ffd9190613a76565b905060007f000000000000000000000000000000000000000000000000000000000000000073ffffffffffffffffffffffffffffffffffffffff1663a9059cbb33856040518363ffffffff1660e01b815260040161205c929190613ad7565b6020604051808303816000875af115801561207b573d6000803e3d6000fd5b505050506040513d601f19601f8201168201806040525081019061209f9190613a76565b90508115806120ac575080155b156120e3576040517fe64e62de00000000000000000000000000000000000000000000000000000000815260040160405180910390fd5b8a73ffffffffffffffffffffffffffffffffffffffff163373ffffffffffffffffffffffffffffffffffffffff167ff3fa0eaee8f258c23b013654df25d1527f98a5c7ccd5e951dd77caca400ef972888660405161214292919061392c565b60405180910390a350505050505050505061215b612f02565b5050565b612167612d34565b80600081116121a2576040517f58f2468300000000000000000000000000000000000000000000000000000000815260040160405180910390fd5b6000600560003373ffffffffffffffffffffffffffffffffffffffff1673ffffffffffffffffffffffffffffffffffffffff16815260200190815260200160002060007f000000000000000000000000000000000000000000000000000000000000000073ffffffffffffffffffffffffffffffffffffffff1673ffffffffffffffffffffffffffffffffffffffff1681526020019081526020016000205490508281101561227d576040517f663ca2f000000000000000000000000000000000000000000000000000000000815260040160405180910390fd5b82600560003373ffffffffffffffffffffffffffffffffffffffff1673ffffffffffffffffffffffffffffffffffffffff16815260200190815260200160002060007f000000000000000000000000000000000000000000000000000000000000000073ffffffffffffffffffffffffffffffffffffffff1673ffffffffffffffffffffffffffffffffffffffff168152602001908152602001600020600082825461232991906139c4565b92505081905550600061233b336113a6565b509050670de0b6b3a764000081101561238b57806040517f04697f370000000000000000000000000000000000000000000000000000000081526004016123829190613804565b60405180910390fd5b6000600560003373ffffffffffffffffffffffffffffffffffffffff1673ffffffffffffffffffffffffffffffffffffffff16815260200190815260200160002060007f000000000000000000000000000000000000000000000000000000000000000073ffffffffffffffffffffffffffffffffffffffff1673ffffffffffffffffffffffffffffffffffffffff16815260200190815260200160002054036124395761243833613396565b5b60007f000000000000000000000000000000000000000000000000000000000000000073ffffffffffffffffffffffffffffffffffffffff1663a9059cbb33876040518363ffffffff1660e01b8152600401612496929190613ad7565b6020604051808303816000875af11580156124b5573d6000803e3d6000fd5b505050506040513d601f19601f820116820180604052508101906124d99190613a76565b905080612512576040517fe64e62de00000000000000000000000000000000000000000000000000000000815260040160405180910390fd5b7f000000000000000000000000000000000000000000000000000000000000000073ffffffffffffffffffffffffffffffffffffffff163373ffffffffffffffffffffffffffffffffffffffff167fc994feb9b99296d80965b47aec6be0d25704ddf95b9b9bc1ed8bc753960d58098760405161258f9190613804565b60405180910390a3505050506125a3612f02565b50565b6000600760007f000000000000000000000000000000000000000000000000000000000000000073ffffffffffffffffffffffffffffffffffffffff1673ffffffffffffffffffffffffffffffffffffffff16815260200190815260200160002054905090565b6301e1338081565b61261d612d34565b8060008111612658576040517f58f2468300000000000000000000000000000000000000000000000000000000815260040160405180910390fd5b600061266333611360565b90506000600460003373ffffffffffffffffffffffffffffffffffffffff1673ffffffffffffffffffffffffffffffffffffffff16815260200190815260200160002060007f000000000000000000000000000000000000000000000000000000000000000073ffffffffffffffffffffffffffffffffffffffff1673ffffffffffffffffffffffffffffffffffffffff168152602001908152602001600020549050600084826127149190613aa3565b905080831015612750576040517f663ca2f000000000000000000000000000000000000000000000000000000000815260040160405180910390fd5b80600460003373ffffffffffffffffffffffffffffffffffffffff1673ffffffffffffffffffffffffffffffffffffffff16815260200190815260200160002060007f000000000000000000000000000000000000000000000000000000000000000073ffffffffffffffffffffffffffffffffffffffff1673ffffffffffffffffffffffffffffffffffffffff1681526020019081526020016000208190555060006127fc336113a6565b509050670de0b6b3a764000081101561284c57806040517f04697f370000000000000000000000000000000000000000000000000000000081526004016128439190613804565b60405180910390fd5b6000600460003373ffffffffffffffffffffffffffffffffffffffff1673ffffffffffffffffffffffffffffffffffffffff16815260200190815260200160002060007f000000000000000000000000000000000000000000000000000000000000000073ffffffffffffffffffffffffffffffffffffffff1673ffffffffffffffffffffffffffffffffffffffff1681526020019081526020016000205411156128fb576128fa33613520565b5b60007f000000000000000000000000000000000000000000000000000000000000000073ffffffffffffffffffffffffffffffffffffffff1663a9059cbb33896040518363ffffffff1660e01b8152600401612958929190613ad7565b6020604051808303816000875af1158015612977573d6000803e3d6000fd5b505050506040513d601f19601f8201168201806040525081019061299b9190613a76565b9050806129d4576040517fe64e62de00000000000000000000000000000000000000000000000000000000815260040160405180910390fd5b7f000000000000000000000000000000000000000000000000000000000000000073ffffffffffffffffffffffffffffffffffffffff163373ffffffffffffffffffffffffffffffffffffffff167f312a5e5e1079f5dda4e95dbbd0b908b291fd5b992ef22073643ab691572c5b5289604051612a519190613804565b60405180910390a3505050505050612a67612f02565b50565b600080612a7683611360565b90506000600460008573ffffffffffffffffffffffffffffffffffffffff1673ffffffffffffffffffffffffffffffffffffffff16815260200190815260200160002060007f000000000000000000000000000000000000000000000000000000000000000073ffffffffffffffffffffffffffffffffffffffff1673ffffffffffffffffffffffffffffffffffffffff1681526020019081526020016000205490508082612b2591906139c4565b92505050919050565b600080600090506000612b3f6112d2565b905060005b8151811015612c1e5760046000838381518110612b6457612b63613ba2565b5b602002602001015173ffffffffffffffffffffffffffffffffffffffff1673ffffffffffffffffffffffffffffffffffffffff16815260200190815260200160002060007f000000000000000000000000000000000000000000000000000000000000000073ffffffffffffffffffffffffffffffffffffffff1673ffffffffffffffffffffffffffffffffffffffff1681526020019081526020016000205483612c0f9190613aa3565b92508080600101915050612b44565b50819250505090565b6000600460008473ffffffffffffffffffffffffffffffffffffffff1673ffffffffffffffffffffffffffffffffffffffff16815260200190815260200160002060008373ffffffffffffffffffffffffffffffffffffffff1673ffffffffffffffffffffffffffffffffffffffff16815260200190815260200160002054905092915050565b600080600090506000612cbf610a80565b905060005b8151811015612d0a57612cf0828281518110612ce357612ce2613ba2565b5b60200260200101516131c4565b83612cfb9190613aa3565b92508080600101915050612cc4565b50819250505090565b6000612d1e8261361c565b9050919050565b6000612d2f612f4e565b905090565b600260005403612d70576040517f3ee5aeb500000000000000000000000000000000000000000000000000000000815260040160405180910390fd5b6002600081905550565b60005b600180549050811015612efe578173ffffffffffffffffffffffffffffffffffffffff1660018281548110612db557612db4613ba2565b5b9060005260206000200160009054906101000a900473ffffffffffffffffffffffffffffffffffffffff1673ffffffffffffffffffffffffffffffffffffffff1603612ef1576001808080549050612e0d91906139c4565b81548110612e1e57612e1d613ba2565b5b9060005260206000200160009054906101000a900473ffffffffffffffffffffffffffffffffffffffff1660018281548110612e5d57612e5c613ba2565b5b9060005260206000200160006101000a81548173ffffffffffffffffffffffffffffffffffffffff021916908373ffffffffffffffffffffffffffffffffffffffff1602179055506001805480612eb757612eb6613bd1565b5b6001900381819060005260206000200160006101000a81549073ffffffffffffffffffffffffffffffffffffffff02191690559055612efe565b8080600101915050612d7d565b5050565b6001600081905550565b60008060646301e1338084600587612f249190613b00565b612f2e9190613b00565b612f389190613b71565b612f429190613b71565b90508091505092915050565b600080600860007f000000000000000000000000000000000000000000000000000000000000000073ffffffffffffffffffffffffffffffffffffffff1673ffffffffffffffffffffffffffffffffffffffff16815260200190815260200160002060009054906101000a900473ffffffffffffffffffffffffffffffffffffffff169050600081905060008173ffffffffffffffffffffffffffffffffffffffff1673__$9037b2fcd2753f718e08d07444b301ed88$__632ba1c96a90916040518263ffffffff1660e01b81526004016130299190613c5f565b60a060405180830381865af4158015613046573d6000803e3d6000fd5b505050506040513d601f19601f8201168201806040525081019061306a9190613d07565b5050509150506402540be400816130819190613b00565b935050505090565b600080600960007f000000000000000000000000000000000000000000000000000000000000000073ffffffffffffffffffffffffffffffffffffffff1673ffffffffffffffffffffffffffffffffffffffff16815260200190815260200160002060009054906101000a900473ffffffffffffffffffffffffffffffffffffffff169050600081905060008173ffffffffffffffffffffffffffffffffffffffff1673__$9037b2fcd2753f718e08d07444b301ed88$__632ba1c96a90916040518263ffffffff1660e01b81526004016131649190613c5f565b60a060405180830381865af4158015613181573d6000803e3d6000fd5b505050506040513d601f19601f820116820180604052508101906131a59190613d07565b5050509150506402540be400816131bc9190613b00565b935050505090565b600080600560008473ffffffffffffffffffffffffffffffffffffffff1673ffffffffffffffffffffffffffffffffffffffff16815260200190815260200160002060007f000000000000000000000000000000000000000000000000000000000000000073ffffffffffffffffffffffffffffffffffffffff1673ffffffffffffffffffffffffffffffffffffffff1681526020019081526020016000205490506000613270612f4e565b9050670de0b6b3a764000081836132879190613b00565b6132919190613b71565b92505050919050565b60005b60028054905081101561332e578173ffffffffffffffffffffffffffffffffffffffff16600282815481106132d5576132d4613ba2565b5b9060005260206000200160009054906101000a900473ffffffffffffffffffffffffffffffffffffffff1673ffffffffffffffffffffffffffffffffffffffff16036133215750613393565b808060010191505061329d565b506002819080600181540180825580915050600190039060005260206000200160009091909190916101000a81548173ffffffffffffffffffffffffffffffffffffffff021916908373ffffffffffffffffffffffffffffffffffffffff1602179055505b50565b60005b60028054905081101561351c578173ffffffffffffffffffffffffffffffffffffffff16600282815481106133d1576133d0613ba2565b5b9060005260206000200160009054906101000a900473ffffffffffffffffffffffffffffffffffffffff1673ffffffffffffffffffffffffffffffffffffffff160361350f576002600160028054905061342b91906139c4565b8154811061343c5761343b613ba2565b5b9060005260206000200160009054906101000a900473ffffffffffffffffffffffffffffffffffffffff166002828154811061347b5761347a613ba2565b5b9060005260206000200160006101000a81548173ffffffffffffffffffffffffffffffffffffffff021916908373ffffffffffffffffffffffffffffffffffffffff16021790555060028054806134d5576134d4613bd1565b5b6001900381819060005260206000200160006101000a81549073ffffffffffffffffffffffffffffffffffffffff0219169055905561351c565b8080600101915050613399565b5050565b60005b6001805490508110156135b4578173ffffffffffffffffffffffffffffffffffffffff166001828154811061355b5761355a613ba2565b5b9060005260206000200160009054906101000a900473ffffffffffffffffffffffffffffffffffffffff1673ffffffffffffffffffffffffffffffffffffffff16036135a75750613619565b8080600101915050613523565b506001819080600181540180825580915050600190039060005260206000200160009091909190916101000a81548173ffffffffffffffffffffffffffffffffffffffff021916908373ffffffffffffffffffffffffffffffffffffffff1602179055505b50565b6000807f000000000000000000000000000000000000000000000000000000000000000073ffffffffffffffffffffffffffffffffffffffff166370a08231846040518263ffffffff1660e01b81526004016136789190613d82565b602060405180830381865afa158015613695573d6000803e3d6000fd5b505050506040513d601f19601f820116820180604052508101906136b99190613d9d565b905060006136c5612f4e565b9050670de0b6b3a764000081836136dc9190613b00565b6136e69190613b71565b92505050919050565b600080fd5b6000819050919050565b613707816136f4565b811461371257600080fd5b50565b600081359050613724816136fe565b92915050565b6000602082840312156137405761373f6136ef565b5b600061374e84828501613715565b91505092915050565b600073ffffffffffffffffffffffffffffffffffffffff82169050919050565b600061378282613757565b9050919050565b61379281613777565b811461379d57600080fd5b50565b6000813590506137af81613789565b92915050565b600080604083850312156137cc576137cb6136ef565b5b60006137da858286016137a0565b92505060206137eb858286016137a0565b9150509250929050565b6137fe816136f4565b82525050565b600060208201905061381960008301846137f5565b92915050565b600081519050919050565b600082825260208201905092915050565b6000819050602082019050919050565b61385481613777565b82525050565b6000613866838361384b565b60208301905092915050565b6000602082019050919050565b600061388a8261381f565b613894818561382a565b935061389f8361383b565b8060005b838110156138d05781516138b7888261385a565b97506138c283613872565b9250506001810190506138a3565b5085935050505092915050565b600060208201905081810360008301526138f7818461387f565b905092915050565b600060208284031215613915576139146136ef565b5b6000613923848285016137a0565b91505092915050565b600060408201905061394160008301856137f5565b61394e60208301846137f5565b9392505050565b6000806040838503121561396c5761396b6136ef565b5b600061397a858286016137a0565b925050602061398b85828601613715565b9150509250929050565b7f4e487b7100000000000000000000000000000000000000000000000000000000600052601160045260246000fd5b60006139cf826136f4565b91506139da836136f4565b92508282039050818111156139f2576139f1613995565b5b92915050565b613a0181613777565b82525050565b6000606082019050613a1c60008301866139f8565b613a2960208301856139f8565b613a3660408301846137f5565b949350505050565b60008115159050919050565b613a5381613a3e565b8114613a5e57600080fd5b50565b600081519050613a7081613a4a565b92915050565b600060208284031215613a8c57613a8b6136ef565b5b6000613a9a84828501613a61565b91505092915050565b6000613aae826136f4565b9150613ab9836136f4565b9250828201905080821115613ad157613ad0613995565b5b92915050565b6000604082019050613aec60008301856139f8565b613af960208301846137f5565b9392505050565b6000613b0b826136f4565b9150613b16836136f4565b9250828202613b24816136f4565b91508282048414831517613b3b57613b3a613995565b5b5092915050565b7f4e487b7100000000000000000000000000000000000000000000000000000000600052601260045260246000fd5b6000613b7c826136f4565b9150613b87836136f4565b925082613b9757613b96613b42565b5b828204905092915050565b7f4e487b7100000000000000000000000000000000000000000000000000000000600052603260045260246000fd5b7f4e487b7100000000000000000000000000000000000000000000000000000000600052603160045260246000fd5b6000819050919050565b6000613c25613c20613c1b84613757565b613c00565b613757565b9050919050565b6000613c3782613c0a565b9050919050565b6000613c4982613c2c565b9050919050565b613c5981613c3e565b82525050565b6000602082019050613c746000830184613c50565b92915050565b600069ffffffffffffffffffff82169050919050565b613c9981613c7a565b8114613ca457600080fd5b50565b600081519050613cb681613c90565b92915050565b6000819050919050565b613ccf81613cbc565b8114613cda57600080fd5b50565b600081519050613cec81613cc6565b92915050565b600081519050613d01816136fe565b92915050565b600080600080600060a08688031215613d2357613d226136ef565b5b6000613d3188828901613ca7565b9550506020613d4288828901613cdd565b9450506040613d5388828901613cf2565b9350506060613d6488828901613cf2565b9250506080613d7588828901613ca7565b9150509295509295909350565b6000602082019050613d9760008301846139f8565b92915050565b600060208284031215613db357613db26136ef565b5b6000613dc184828501613cf2565b9150509291505056fea264697066735822122049d4a4740fd991b7374c66332da24993e87c4005fe7530eed34c817ed14ee7d064736f6c634300081b0033",
  "linkReferences": {
    "contracts/libraries/OracleLib.sol": {
      "OracleLib": [
        {
          "length": 20,
          "start": 13247
        },
        {
          "length": 20,
          "start": 13562
        }
      ]
    }
  },
  "deployedLinkReferences": {
    "contracts/libraries/OracleLib.sol": {
      "OracleLib": [
        {
          "length": 20,
          "start": 12275
        },
        {
          "length": 20,
          "start": 12590
        }
      ]
    }
  }
}