{
  "_format": "hh-sol-artifact-1",
  "contractName": "OracleLib",
  "sourceName": "contracts/libraries/OracleLib.sol",
  "abi": [
    {
      "inputs": [],
      "name": "OracleLib__InvalidPrice",
      "type": "error"
    },
    {
      "inputs": [],
      "name": "OracleLib__NegativePrice",
      "type": "error"
    },
    {
      "inputs": [],
      "name": "OracleLib__StalePrice",
      "type": "error"
    },
    {
      "inputs": [
        {
          "internalType": "contract AggregatorV3Interface",
          "name": "priceFeed",
          "type": "AggregatorV3Interface"
        }
      ],
      "name": "staleCheckLatestRoundData",
      "outputs": [
        {
          "internalType": "uint80",
          "name": "",
          "type": "uint80"
        },
        {
          "internalType": "int256",
          "name": "",
          "type": "int256"
        },
        {
          "internalType": "uint256",
          "name": "",
          "type": "uint256"
        },
        {
          "internalType": "uint256",
          "name": "",
          "type": "uint256"
        },
        {
          "internalType": "uint80",
          "name": "",
          "type": "uint80"
        }
      ],
      "stateMutability": "view",
      "type": "function"
    }
  ],
  "bytecode": "0x610502610052600b82828239805160001a6073146045577f4e487b7100000000000000000000000000000000000000000000000000000000600052600060045260246000fd5b30600052607381538281f3fe73000000000000000000000000000000000000000030146080604052600436106100355760003560e01c80632ba1c96a1461003a575b600080fd5b610054600480360381019061004f9190610293565b61006e565b604051610065959493929190610317565b60405180910390f35b6000806000806000806000806000808a73ffffffffffffffffffffffffffffffffffffffff1663feaf968c6040518163ffffffff1660e01b815260040160a060405180830381865afa1580156100c8573d6000803e3d6000fd5b505050506040513d601f19601f820116820180604052508101906100ec91906103ee565b9450945094509450945060008569ffffffffffffffffffff161161013c576040517fd67540f300000000000000000000000000000000000000000000000000000000815260040160405180910390fd5b60008413610176576040517f9d964bb300000000000000000000000000000000000000000000000000000000815260040160405180910390fd5b6305f5e1008412156101b4576040517fc4a1093a00000000000000000000000000000000000000000000000000000000815260040160405180910390fd5b600082426101c29190610498565b9050612a30811115610200576040517fc4a1093a00000000000000000000000000000000000000000000000000000000815260040160405180910390fd5b85858585859a509a509a509a509a5050505050505091939590929450565b600080fd5b600073ffffffffffffffffffffffffffffffffffffffff82169050919050565b600061024e82610223565b9050919050565b600061026082610243565b9050919050565b61027081610255565b811461027b57600080fd5b50565b60008135905061028d81610267565b92915050565b6000602082840312156102a9576102a861021e565b5b60006102b78482850161027e565b91505092915050565b600069ffffffffffffffffffff82169050919050565b6102df816102c0565b82525050565b6000819050919050565b6102f8816102e5565b82525050565b6000819050919050565b610311816102fe565b82525050565b600060a08201905061032c60008301886102d6565b61033960208301876102ef565b6103466040830186610308565b6103536060830185610308565b61036060808301846102d6565b9695505050505050565b610373816102c0565b811461037e57600080fd5b50565b6000815190506103908161036a565b92915050565b61039f816102e5565b81146103aa57600080fd5b50565b6000815190506103bc81610396565b92915050565b6103cb816102fe565b81146103d657600080fd5b50565b6000815190506103e8816103c2565b92915050565b600080600080600060a0868803121561040a5761040961021e565b5b600061041888828901610381565b9550506020610429888289016103ad565b945050604061043a888289016103d9565b935050606061044b888289016103d9565b925050608061045c88828901610381565b9150509295509295909350565b7f4e487b7100000000000000000000000000000000000000000000000000000000600052601160045260246000fd5b60006104a3826102fe565b91506104ae836102fe565b92508282039050818111156104c6576104c5610469565b5b9291505056fea26469706673582212200c6974eabc353d859ba69a1ff2f56120b0f591059d781d9c41e51fcc68e4231f64736f6c634300081b0033",
  "linkReferences": {},
  "deployedLinkReferences": {}
}