{
  "_format": "hh-sol-artifact-1",
  "contractName": "ERC20Mock",
  "sourceName": "contracts/mocks/ERC20Mock.sol",
  "abi": [
    {
      "inputs": [
        {
          "internalType": "string",
          "name": "name",
          "type": "string"
        },
        {
          "internalType": "string",
          "name": "symbol",
          "type": "string"
        }
      ],
      "stateMutability": "nonpayable",
      "type": "constructor"
    },
    {
      "inputs": [
        {
          "internalType": "address",
          "name": "spender",
          "type": "address"
        },
        {
          "internalType": "uint256",
          "name": "allowance",
          "type": "uint256"
        },
        {
          "internalType": "uint256",
          "name": "needed",
          "type": "uint256"
        }
      ],
      "name": "ERC20InsufficientAllowance",
      "type": "error"
    },
    {
      "inputs": [
        {
          "internalType": "address",
          "name": "sender",
          "type": "address"
        },
        {
          "internalType": "uint256",
          "name": "balance",
          "type": "uint256"
        },
        {
          "internalType": "uint256",
          "name": "needed",
          "type": "uint256"
        }
      ],
      "name": "ERC20InsufficientBalance",
      "type": "error"
    },
    {
      "inputs": [
        {
          "internalType": "address",
          "name": "approver",
          "type": "address"
        }
      ],
      "name": "ERC20InvalidApprover",
      "type": "error"
    },
    {
      "inputs": [
        {
          "internalType": "address",
          "name": "receiver",
          "type": "address"
        }
      ],
      "name": "ERC20InvalidReceiver",
      "type": "error"
    },
    {
      "inputs": [
        {
          "internalType": "address",
          "name": "sender",
          "type": "address"
        }
      ],
      "name": "ERC20InvalidSender",
      "type": "error"
    },
    {
      "inputs": [
        {
          "internalType": "address",
          "name": "spender",
          "type": "address"
        }
      ],
      "name": "ERC20InvalidSpender",
      "type": "error"
    },
    {
      "anonymous": false,
      "inputs": [
        {
          "indexed": true,
          "internalType": "address",
          "name": "owner",
          "type": "address"
        },
        {
          "indexed": true,
          "internalType": "address",
          "name": "spender",
          "type": "address"
        },
        {
          "indexed": false,
          "internalType": "uint256",
          "name": "value",
          "type": "uint256"
        }
      ],
      "name": "Approval",
      "type": "event"
    },
    {
      "anonymous": false,
      "inputs": [
        {
          "indexed": true,
          "internalType": "address",
          "name": "from",
          "type": "address"
        },
        {
          "indexed": true,
          "internalType": "address",
          "name": "to",
          "type": "address"
        },
        {
          "indexed": false,
          "internalType": "uint256",
          "name": "value",
          "type": "uint256"
        }
      ],
      "name": "Transfer",
      "type": "event"
    },
    {
      "inputs": [
        {
          "internalType": "address",
          "name": "owner",
          "type": "address"
        },
        {
          "internalType": "address",
          "name": "spender",
          "type": "address"
        }
      ],
      "name": "allowance",
      "outputs": [
        {
          "internalType": "uint256",
          "name": "",
          "type": "uint256"
        }
      ],
      "stateMutability": "view",
      "type": "function"
    },
    {
      "inputs": [
        {
          "internalType": "address",
          "name": "spender",
          "type": "address"
        },
        {
          "internalType": "uint256",
          "name": "value",
          "type": "uint256"
        }
      ],
      "name": "approve",
      "outputs": [
        {
          "internalType": "bool",
          "name": "",
          "type": "bool"
        }
      ],
      "stateMutability": "nonpayable",
      "type": "function"
    },
    {
      "inputs": [
        {
          "internalType": "address",
          "name": "account",
          "type": "address"
        }
      ],
      "name": "balanceOf",
      "outputs": [
        {
          "internalType": "uint256",
          "name": "",
          "type": "uint256"
        }
      ],
      "stateMutability": "view",
      "type": "function"
    },
    {
      "inputs": [],
      "name": "decimals",
      "outputs": [
        {
          "internalType": "uint8",
          "name": "",
          "type": "uint8"
        }
      ],
      "stateMutability": "view",
      "type": "function"
    },
    {
      "inputs": [
        {
          "internalType": "address",
          "name": "to",
          "type": "address"
        },
        {
          "internalType": "uint256",
          "name": "amount",
          "type": "uint256"
        }
      ],
      "name": "faucet",
      "outputs": [],
      "stateMutability": "nonpayable",
      "type": "function"
    },
    {
      "inputs": [],
      "name": "name",
      "outputs": [
        {
          "internalType": "string",
          "name": "",
          "type": "string"
        }
      ],
      "stateMutability": "view",
      "type": "function"
    },
    {
      "inputs": [
        {
          "internalType": "bool",
          "name": "_shouldFail",
          "type": "bool"
        }
      ],
      "name": "setTransferFromShouldFail",
      "outputs": [],
      "stateMutability": "nonpayable",
      "type": "function"
    },
    {
      "inputs": [],
      "name": "symbol",
      "outputs": [
        {
          "internalType": "string",
          "name": "",
          "type": "string"
        }
      ],
      "stateMutability": "view",
      "type": "function"
    },
    {
      "inputs": [],
      "name": "totalSupply",
      "outputs": [
        {
          "internalType": "uint256",
          "name": "",
          "type": "uint256"
        }
      ],
      "stateMutability": "view",
      "type": "function"
    },
    {
      "inputs": [
        {
          "internalType": "address",
          "name": "recipient",
          "type": "address"
        },
        {
          "internalType": "uint256",
          "name": "amount",
          "type": "uint256"
        }
      ],
      "name": "transfer",
      "outputs": [
        {
          "internalType": "bool",
          "name": "",
          "type": "bool"
        }
      ],
      "stateMutability": "nonpayable",
      "type": "function"
    },
    {
      "inputs": [
        {
          "internalType": "address",
          "name": "sender",
          "type": "address"
        },
        {
          "internalType": "address",
          "name": "recipient",
          "type": "address"
        },
        {
          "internalType": "uint256",
          "name": "amount",
          "type": "uint256"
        }
      ],
      "name": "transferFrom",
      "outputs": [
        {
          "internalType": "bool",
          "name": "",
          "type": "bool"
        }
      ],
      "stateMutability": "nonpayable",
      "type": "function"
    }
  ],
  "bytecode": "0x608060405234801561001057600080fd5b5060405161155d38038061155d833981810160405281019061003291906101d2565b81818160039081610043919061046b565b508060049081610053919061046b565b505050505061053d565b6000604051905090565b600080fd5b600080fd5b600080fd5b600080fd5b6000601f19601f8301169050919050565b7f4e487b7100000000000000000000000000000000000000000000000000000000600052604160045260246000fd5b6100c48261007b565b810181811067ffffffffffffffff821117156100e3576100e261008c565b5b80604052505050565b60006100f661005d565b905061010282826100bb565b919050565b600067ffffffffffffffff8211156101225761012161008c565b5b61012b8261007b565b9050602081019050919050565b60005b8381101561015657808201518184015260208101905061013b565b60008484015250505050565b600061017561017084610107565b6100ec565b90508281526020810184848401111561019157610190610076565b5b61019c848285610138565b509392505050565b600082601f8301126101b9576101b8610071565b5b81516101c9848260208601610162565b91505092915050565b600080604083850312156101e9576101e8610067565b5b600083015167ffffffffffffffff8111156102075761020661006c565b5b610213858286016101a4565b925050602083015167ffffffffffffffff8111156102345761023361006c565b5b610240858286016101a4565b9150509250929050565b600081519050919050565b7f4e487b7100000000000000000000000000000000000000000000000000000000600052602260045260246000fd5b6000600282049050600182168061029c57607f821691505b6020821081036102af576102ae610255565b5b50919050565b60008190508160005260206000209050919050565b60006020601f8301049050919050565b600082821b905092915050565b6000600883026103177fffffffffffffffffffffffffffffffffffffffffffffffffffffffffffffffff826102da565b61032186836102da565b95508019841693508086168417925050509392505050565b6000819050919050565b6000819050919050565b600061036861036361035e84610339565b610343565b610339565b9050919050565b6000819050919050565b6103828361034d565b61039661038e8261036f565b8484546102e7565b825550505050565b600090565b6103ab61039e565b6103b6818484610379565b505050565b5b818110156103da576103cf6000826103a3565b6001810190506103bc565b5050565b601f82111561041f576103f0816102b5565b6103f9846102ca565b81016020851015610408578190505b61041c610414856102ca565b8301826103bb565b50505b505050565b600082821c905092915050565b600061044260001984600802610424565b1980831691505092915050565b600061045b8383610431565b9150826002028217905092915050565b6104748261024a565b67ffffffffffffffff81111561048d5761048c61008c565b5b6104978254610284565b6104a28282856103de565b600060209050601f8311600181146104d557600084156104c3578287015190505b6104cd858261044f565b865550610535565b601f1984166104e3866102b5565b60005b8281101561050b578489015182556001820191506020850194506020810190506104e6565b868310156105285784890151610524601f891682610431565b8355505b6001600288020188555050505b505050505050565b6110118061054c6000396000f3fe608060405234801561001057600080fd5b50600436106100a95760003560e01c806370a082311161007157806370a08231146101685780637b56c2b21461019857806395d89b41146101b4578063a9059cbb146101d2578063c0b1fd5e14610202578063dd62ed3e1461021e576100a9565b806306fdde03146100ae578063095ea7b3146100cc57806318160ddd146100fc57806323b872dd1461011a578063313ce5671461014a575b600080fd5b6100b661024e565b6040516100c39190610c0c565b60405180910390f35b6100e660048036038101906100e19190610cc7565b6102e0565b6040516100f39190610d22565b60405180910390f35b610104610303565b6040516101119190610d4c565b60405180910390f35b610134600480360381019061012f9190610d67565b61030d565b6040516101419190610d22565b60405180910390f35b610152610342565b60405161015f9190610dd6565b60405180910390f35b610182600480360381019061017d9190610df1565b61034b565b60405161018f9190610d4c565b60405180910390f35b6101b260048036038101906101ad9190610cc7565b610393565b005b6101bc6103a1565b6040516101c99190610c0c565b60405180910390f35b6101ec60048036038101906101e79190610cc7565b610433565b6040516101f99190610d22565b60405180910390f35b61021c60048036038101906102179190610e4a565b610466565b005b61023860048036038101906102339190610e77565b610483565b6040516102459190610d4c565b60405180910390f35b60606003805461025d90610ee6565b80601f016020809104026020016040519081016040528092919081815260200182805461028990610ee6565b80156102d65780601f106102ab576101008083540402835291602001916102d6565b820191906000526020600020905b8154815290600101906020018083116102b957829003601f168201915b5050505050905090565b6000806102eb61050a565b90506102f8818585610512565b600191505092915050565b6000600254905090565b6000600560009054906101000a900460ff161561032d576000905061033b565b610338848484610524565b90505b9392505050565b60006012905090565b60008060008373ffffffffffffffffffffffffffffffffffffffff1673ffffffffffffffffffffffffffffffffffffffff168152602001908152602001600020549050919050565b61039d8282610553565b5050565b6060600480546103b090610ee6565b80601f01602080910402602001604051908101604052809291908181526020018280546103dc90610ee6565b80156104295780601f106103fe57610100808354040283529160200191610429565b820191906000526020600020905b81548152906001019060200180831161040c57829003601f168201915b5050505050905090565b6000600560009054906101000a900460ff16156104535760009050610460565b61045d83836105d5565b90505b92915050565b80600560006101000a81548160ff02191690831515021790555050565b6000600160008473ffffffffffffffffffffffffffffffffffffffff1673ffffffffffffffffffffffffffffffffffffffff16815260200190815260200160002060008373ffffffffffffffffffffffffffffffffffffffff1673ffffffffffffffffffffffffffffffffffffffff16815260200190815260200160002054905092915050565b600033905090565b61051f83838360016105f8565b505050565b60008061052f61050a565b905061053c8582856107cf565b610547858585610863565b60019150509392505050565b600073ffffffffffffffffffffffffffffffffffffffff168273ffffffffffffffffffffffffffffffffffffffff16036105c55760006040517fec442f050000000000000000000000000000000000000000000000000000000081526004016105bc9190610f26565b60405180910390fd5b6105d160008383610957565b5050565b6000806105e061050a565b90506105ed818585610863565b600191505092915050565b600073ffffffffffffffffffffffffffffffffffffffff168473ffffffffffffffffffffffffffffffffffffffff160361066a5760006040517fe602df050000000000000000000000000000000000000000000000000000000081526004016106619190610f26565b60405180910390fd5b600073ffffffffffffffffffffffffffffffffffffffff168373ffffffffffffffffffffffffffffffffffffffff16036106dc5760006040517f94280d620000000000000000000000000000000000000000000000000000000081526004016106d39190610f26565b60405180910390fd5b81600160008673ffffffffffffffffffffffffffffffffffffffff1673ffffffffffffffffffffffffffffffffffffffff16815260200190815260200160002060008573ffffffffffffffffffffffffffffffffffffffff1673ffffffffffffffffffffffffffffffffffffffff1681526020019081526020016000208190555080156107c9578273ffffffffffffffffffffffffffffffffffffffff168473ffffffffffffffffffffffffffffffffffffffff167f8c5be1e5ebec7d5bd14f71427d1e84f3dd0314c0f7b2291e5b200ac8c7c3b925846040516107c09190610d4c565b60405180910390a35b50505050565b60006107db8484610483565b90507fffffffffffffffffffffffffffffffffffffffffffffffffffffffffffffffff811461085d578181101561084d578281836040517ffb8f41b200000000000000000000000000000000000000000000000000000000815260040161084493929190610f41565b60405180910390fd5b61085c848484840360006105f8565b5b50505050565b600073ffffffffffffffffffffffffffffffffffffffff168373ffffffffffffffffffffffffffffffffffffffff16036108d55760006040517f96c6fd1e0000000000000000000000000000000000000000000000000000000081526004016108cc9190610f26565b60405180910390fd5b600073ffffffffffffffffffffffffffffffffffffffff168273ffffffffffffffffffffffffffffffffffffffff16036109475760006040517fec442f0500000000000000000000000000000000000000000000000000000000815260040161093e9190610f26565b60405180910390fd5b610952838383610957565b505050565b600073ffffffffffffffffffffffffffffffffffffffff168373ffffffffffffffffffffffffffffffffffffffff16036109a957806002600082825461099d9190610fa7565b92505081905550610a7c565b60008060008573ffffffffffffffffffffffffffffffffffffffff1673ffffffffffffffffffffffffffffffffffffffff16815260200190815260200160002054905081811015610a35578381836040517fe450d38c000000000000000000000000000000000000000000000000000000008152600401610a2c93929190610f41565b60405180910390fd5b8181036000808673ffffffffffffffffffffffffffffffffffffffff1673ffffffffffffffffffffffffffffffffffffffff16815260200190815260200160002081905550505b600073ffffffffffffffffffffffffffffffffffffffff168273ffffffffffffffffffffffffffffffffffffffff1603610ac55780600260008282540392505081905550610b12565b806000808473ffffffffffffffffffffffffffffffffffffffff1673ffffffffffffffffffffffffffffffffffffffff168152602001908152602001600020600082825401925050819055505b8173ffffffffffffffffffffffffffffffffffffffff168373ffffffffffffffffffffffffffffffffffffffff167fddf252ad1be2c89b69c2b068fc378daa952ba7f163c4a11628f55a4df523b3ef83604051610b6f9190610d4c565b60405180910390a3505050565b600081519050919050565b600082825260208201905092915050565b60005b83811015610bb6578082015181840152602081019050610b9b565b60008484015250505050565b6000601f19601f8301169050919050565b6000610bde82610b7c565b610be88185610b87565b9350610bf8818560208601610b98565b610c0181610bc2565b840191505092915050565b60006020820190508181036000830152610c268184610bd3565b905092915050565b600080fd5b600073ffffffffffffffffffffffffffffffffffffffff82169050919050565b6000610c5e82610c33565b9050919050565b610c6e81610c53565b8114610c7957600080fd5b50565b600081359050610c8b81610c65565b92915050565b6000819050919050565b610ca481610c91565b8114610caf57600080fd5b50565b600081359050610cc181610c9b565b92915050565b60008060408385031215610cde57610cdd610c2e565b5b6000610cec85828601610c7c565b9250506020610cfd85828601610cb2565b9150509250929050565b60008115159050919050565b610d1c81610d07565b82525050565b6000602082019050610d376000830184610d13565b92915050565b610d4681610c91565b82525050565b6000602082019050610d616000830184610d3d565b92915050565b600080600060608486031215610d8057610d7f610c2e565b5b6000610d8e86828701610c7c565b9350506020610d9f86828701610c7c565b9250506040610db086828701610cb2565b9150509250925092565b600060ff82169050919050565b610dd081610dba565b82525050565b6000602082019050610deb6000830184610dc7565b92915050565b600060208284031215610e0757610e06610c2e565b5b6000610e1584828501610c7c565b91505092915050565b610e2781610d07565b8114610e3257600080fd5b50565b600081359050610e4481610e1e565b92915050565b600060208284031215610e6057610e5f610c2e565b5b6000610e6e84828501610e35565b91505092915050565b60008060408385031215610e8e57610e8d610c2e565b5b6000610e9c85828601610c7c565b9250506020610ead85828601610c7c565b9150509250929050565b7f4e487b7100000000000000000000000000000000000000000000000000000000600052602260045260246000fd5b60006002820490506001821680610efe57607f821691505b602082108103610f1157610f10610eb7565b5b50919050565b610f2081610c53565b82525050565b6000602082019050610f3b6000830184610f17565b92915050565b6000606082019050610f566000830186610f17565b610f636020830185610d3d565b610f706040830184610d3d565b949350505050565b7f4e487b7100000000000000000000000000000000000000000000000000000000600052601160045260246000fd5b6000610fb282610c91565b9150610fbd83610c91565b9250828201905080821115610fd557610fd4610f78565b5b9291505056fea2646970667358221220cf409c10a3604c355cd425b2671eb7b3c20b6bb520d3577f3ca172a22f119e0564736f6c634300081b0033",
  "linkReferences": {},
  "deployedLinkReferences": {}
}