{
  "_format": "hh-sol-artifact-1",
  "contractName": "LendingBorrowingV3",
  "sourceName": "contracts/LendingBorrowingV3.sol",
  "abi": [
    {
      "inputs": [
        {
          "internalType": "address",
          "name": "_daiToken",
          "type": "address"
        },
        {
          "internalType": "address",
          "name": "_collateralToken",
          "type": "address"
        },
        {
          "internalType": "contract PriceFeedAdapter",
          "name": "_collateralPriceFeed",
          "type": "address"
        },
        {
          "internalType": "contract PriceFeedAdapter",
          "name": "_daiPriceFeed",
          "type": "address"
        }
      ],
      "stateMutability": "nonpayable",
      "type": "constructor"
    },
    {
      "inputs": [
        {
          "internalType": "uint256",
          "name": "",
          "type": "uint256"
        }
      ],
      "name": "LendingBorrowing__HealthFactorIsBroken",
      "type": "error"
    },
    {
      "inputs": [],
      "name": "LendingBorrowing__HealthFactorIsNotBroken",
      "type": "error"
    },
    {
      "inputs": [],
      "name": "LendingBorrowing__InsufficientBalance",
      "type": "error"
    },
    {
      "inputs": [],
      "name": "LendingBorrowing__InsufficientCollateral",
      "type": "error"
    },
    {
      "inputs": [],
      "name": "LendingBorrowing__InsufficientLiquidity",
      "type": "error"
    },
    {
      "inputs": [],
      "name": "LendingBorrowing__MustGreaterThanZero",
      "type": "error"
    },
    {
      "inputs": [],
      "name": "LendingBorrowing__NotEnoughCollateral",
      "type": "error"
    },
    {
      "inputs": [],
      "name": "LendingBorrowing__TransferFailed",
      "type": "error"
    },
    {
      "inputs": [],
      "name": "LendingBorrowing__UserCannotLiquidateHimself",
      "type": "error"
    },
    {
      "inputs": [],
      "name": "ReentrancyGuardReentrantCall",
      "type": "error"
    },
    {
      "anonymous": false,
      "inputs": [
        {
          "indexed": true,
          "internalType": "address",
          "name": "user",
          "type": "address"
        },
        {
          "indexed": true,
          "internalType": "address",
          "name": "token",
          "type": "address"
        },
        {
          "indexed": false,
          "internalType": "uint256",
          "name": "amount",
          "type": "uint256"
        }
      ],
      "name": "Borrow",
      "type": "event"
    },
    {
      "anonymous": false,
      "inputs": [
        {
          "indexed": true,
          "internalType": "address",
          "name": "user",
          "type": "address"
        },
        {
          "indexed": true,
          "internalType": "address",
          "name": "token",
          "type": "address"
        },
        {
          "indexed": false,
          "internalType": "uint256",
          "name": "amount",
          "type": "uint256"
        }
      ],
      "name": "Deposit",
      "type": "event"
    },
    {
      "anonymous": false,
      "inputs": [
        {
          "indexed": true,
          "internalType": "address",
          "name": "user",
          "type": "address"
        },
        {
          "indexed": true,
          "internalType": "address",
          "name": "token",
          "type": "address"
        },
        {
          "indexed": false,
          "internalType": "uint256",
          "name": "amount",
          "type": "uint256"
        }
      ],
      "name": "DepositCollateral",
      "type": "event"
    },
    {
      "anonymous": false,
      "inputs": [
        {
          "indexed": true,
          "internalType": "address",
          "name": "liquidator",
          "type": "address"
        },
        {
          "indexed": true,
          "internalType": "address",
          "name": "borrower",
          "type": "address"
        },
        {
          "indexed": false,
          "internalType": "uint256",
          "name": "amountToLiquidate",
          "type": "uint256"
        },
        {
          "indexed": false,
          "internalType": "uint256",
          "name": "totalCollateralToLiquidate",
          "type": "uint256"
        }
      ],
      "name": "Liquidate",
      "type": "event"
    },
    {
      "anonymous": false,
      "inputs": [
        {
          "indexed": true,
          "internalType": "address",
          "name": "user",
          "type": "address"
        },
        {
          "indexed": true,
          "internalType": "address",
          "name": "token",
          "type": "address"
        },
        {
          "indexed": false,
          "internalType": "uint256",
          "name": "amount",
          "type": "uint256"
        }
      ],
      "name": "RedeemCollateral",
      "type": "event"
    },
    {
      "anonymous": false,
      "inputs": [
        {
          "indexed": true,
          "internalType": "address",
          "name": "user",
          "type": "address"
        },
        {
          "indexed": true,
          "internalType": "address",
          "name": "token",
          "type": "address"
        },
        {
          "indexed": false,
          "internalType": "uint256",
          "name": "amount",
          "type": "uint256"
        }
      ],
      "name": "Repay",
      "type": "event"
    },
    {
      "anonymous": false,
      "inputs": [
        {
          "indexed": true,
          "internalType": "address",
          "name": "user",
          "type": "address"
        },
        {
          "indexed": true,
          "internalType": "address",
          "name": "token",
          "type": "address"
        },
        {
          "indexed": false,
          "internalType": "uint256",
          "name": "amount",
          "type": "uint256"
        }
      ],
      "name": "Withdraw",
      "type": "event"
    },
    {
      "inputs": [],
      "name": "COLLATERAL_FACTOR",
      "outputs": [
        {
          "internalType": "uint256",
          "name": "",
          "type": "uint256"
        }
      ],
      "stateMutability": "view",
      "type": "function"
    },
    {
      "inputs": [],
      "name": "INTEREST_RATE",
      "outputs": [
        {
          "internalType": "uint256",
          "name": "",
          "type": "uint256"
        }
      ],
      "stateMutability": "view",
      "type": "function"
    },
    {
      "inputs": [],
      "name": "LIQUIDATION_BONUS",
      "outputs": [
        {
          "internalType": "uint256",
          "name": "",
          "type": "uint256"
        }
      ],
      "stateMutability": "view",
      "type": "function"
    },
    {
      "inputs": [],
      "name": "LIQUIDATION_THRESHOLD",
      "outputs": [
        {
          "internalType": "uint256",
          "name": "",
          "type": "uint256"
        }
      ],
      "stateMutability": "view",
      "type": "function"
    },
    {
      "inputs": [],
      "name": "SECONDS_IN_A_YEAR",
      "outputs": [
        {
          "internalType": "uint256",
          "name": "",
          "type": "uint256"
        }
      ],
      "stateMutability": "view",
      "type": "function"
    },
    {
      "inputs": [
        {
          "internalType": "uint256",
          "name": "_amount",
          "type": "uint256"
        }
      ],
      "name": "borrow",
      "outputs": [],
      "stateMutability": "nonpayable",
      "type": "function"
    },
    {
      "inputs": [
        {
          "internalType": "address",
          "name": "_user",
          "type": "address"
        }
      ],
      "name": "calculateAvailableBorrow",
      "outputs": [
        {
          "internalType": "uint256",
          "name": "",
          "type": "uint256"
        }
      ],
      "stateMutability": "view",
      "type": "function"
    },
    {
      "inputs": [
        {
          "internalType": "address",
          "name": "_user",
          "type": "address"
        }
      ],
      "name": "calculateHealthFactor",
      "outputs": [
        {
          "internalType": "uint256",
          "name": "",
          "type": "uint256"
        },
        {
          "internalType": "uint256",
          "name": "",
          "type": "uint256"
        }
      ],
      "stateMutability": "view",
      "type": "function"
    },
    {
      "inputs": [
        {
          "internalType": "address",
          "name": "_user",
          "type": "address"
        }
      ],
      "name": "calculateNetWorth",
      "outputs": [
        {
          "internalType": "uint256",
          "name": "",
          "type": "uint256"
        }
      ],
      "stateMutability": "view",
      "type": "function"
    },
    {
      "inputs": [
        {
          "internalType": "uint256",
          "name": "_amount",
          "type": "uint256"
        }
      ],
      "name": "deposit",
      "outputs": [],
      "stateMutability": "nonpayable",
      "type": "function"
    },
    {
      "inputs": [
        {
          "internalType": "uint256",
          "name": "_amount",
          "type": "uint256"
        }
      ],
      "name": "depositCollateral",
      "outputs": [],
      "stateMutability": "nonpayable",
      "type": "function"
    },
    {
      "inputs": [
        {
          "internalType": "address",
          "name": "_user",
          "type": "address"
        }
      ],
      "name": "getBorrowLimit",
      "outputs": [
        {
          "internalType": "uint256",
          "name": "",
          "type": "uint256"
        }
      ],
      "stateMutability": "view",
      "type": "function"
    },
    {
      "inputs": [
        {
          "internalType": "address",
          "name": "_user",
          "type": "address"
        }
      ],
      "name": "getBorrowedValue",
      "outputs": [
        {
          "internalType": "uint256",
          "name": "",
          "type": "uint256"
        }
      ],
      "stateMutability": "view",
      "type": "function"
    },
    {
      "inputs": [],
      "name": "getBorrowers",
      "outputs": [
        {
          "internalType": "address[]",
          "name": "",
          "type": "address[]"
        }
      ],
      "stateMutability": "view",
      "type": "function"
    },
    {
      "inputs": [],
      "name": "getCollateralDepositors",
      "outputs": [
        {
          "internalType": "address[]",
          "name": "",
          "type": "address[]"
        }
      ],
      "stateMutability": "view",
      "type": "function"
    },
    {
      "inputs": [],
      "name": "getCollateralPrice",
      "outputs": [
        {
          "internalType": "uint256",
          "name": "",
          "type": "uint256"
        }
      ],
      "stateMutability": "view",
      "type": "function"
    },
    {
      "inputs": [
        {
          "internalType": "uint256",
          "name": "_daiAmount",
          "type": "uint256"
        }
      ],
      "name": "getCollateralTokenAmountFromDai",
      "outputs": [
        {
          "internalType": "uint256",
          "name": "",
          "type": "uint256"
        }
      ],
      "stateMutability": "view",
      "type": "function"
    },
    {
      "inputs": [
        {
          "internalType": "address",
          "name": "_user",
          "type": "address"
        }
      ],
      "name": "getCollateralValue",
      "outputs": [
        {
          "internalType": "uint256",
          "name": "",
          "type": "uint256"
        }
      ],
      "stateMutability": "view",
      "type": "function"
    },
    {
      "inputs": [
        {
          "internalType": "address",
          "name": "_user",
          "type": "address"
        }
      ],
      "name": "getCollateralWalletValue",
      "outputs": [
        {
          "internalType": "uint256",
          "name": "",
          "type": "uint256"
        }
      ],
      "stateMutability": "view",
      "type": "function"
    },
    {
      "inputs": [],
      "name": "getDaiPrice",
      "outputs": [
        {
          "internalType": "uint256",
          "name": "",
          "type": "uint256"
        }
      ],
      "stateMutability": "view",
      "type": "function"
    },
    {
      "inputs": [],
      "name": "getTotalBorrows",
      "outputs": [
        {
          "internalType": "uint256",
          "name": "",
          "type": "uint256"
        }
      ],
      "stateMutability": "view",
      "type": "function"
    },
    {
      "inputs": [],
      "name": "getTotalCollateralValue",
      "outputs": [
        {
          "internalType": "uint256",
          "name": "",
          "type": "uint256"
        }
      ],
      "stateMutability": "view",
      "type": "function"
    },
    {
      "inputs": [],
      "name": "getTotalDeposit",
      "outputs": [
        {
          "internalType": "uint256",
          "name": "",
          "type": "uint256"
        }
      ],
      "stateMutability": "view",
      "type": "function"
    },
    {
      "inputs": [
        {
          "internalType": "address",
          "name": "user",
          "type": "address"
        }
      ],
      "name": "getUserBorrow",
      "outputs": [
        {
          "internalType": "uint256",
          "name": "",
          "type": "uint256"
        }
      ],
      "stateMutability": "view",
      "type": "function"
    },
    {
      "inputs": [
        {
          "internalType": "address",
          "name": "user",
          "type": "address"
        }
      ],
      "name": "getUserCollateral",
      "outputs": [
        {
          "internalType": "uint256",
          "name": "",
          "type": "uint256"
        }
      ],
      "stateMutability": "view",
      "type": "function"
    },
    {
      "inputs": [
        {
          "internalType": "address",
          "name": "user",
          "type": "address"
        }
      ],
      "name": "getUserDeposit",
      "outputs": [
        {
          "internalType": "uint256",
          "name": "",
          "type": "uint256"
        }
      ],
      "stateMutability": "view",
      "type": "function"
    },
    {
      "inputs": [
        {
          "internalType": "address",
          "name": "user",
          "type": "address"
        }
      ],
      "name": "getUserTimestamp",
      "outputs": [
        {
          "internalType": "uint256",
          "name": "",
          "type": "uint256"
        }
      ],
      "stateMutability": "view",
      "type": "function"
    },
    {
      "inputs": [
        {
          "internalType": "address",
          "name": "_borrower",
          "type": "address"
        },
        {
          "internalType": "uint256",
          "name": "_debtToCover",
          "type": "uint256"
        }
      ],
      "name": "liquidate",
      "outputs": [],
      "stateMutability": "nonpayable",
      "type": "function"
    },
    {
      "inputs": [
        {
          "internalType": "uint256",
          "name": "_amount",
          "type": "uint256"
        }
      ],
      "name": "redeemCollateral",
      "outputs": [],
      "stateMutability": "nonpayable",
      "type": "function"
    },
    {
      "inputs": [
        {
          "internalType": "uint256",
          "name": "_amount",
          "type": "uint256"
        }
      ],
      "name": "repayBorrow",
      "outputs": [],
      "stateMutability": "nonpayable",
      "type": "function"
    },
    {
      "inputs": [
        {
          "internalType": "uint256",
          "name": "_amount",
          "type": "uint256"
        }
      ],
      "name": "withdraw",
      "outputs": [],
      "stateMutability": "nonpayable",
      "type": "function"
    }
  ],
  "bytecode": "0x60c060405234801561001057600080fd5b5060405161424b38038061424b8339818101604052810190610032919061024a565b60016000819055508373ffffffffffffffffffffffffffffffffffffffff1660808173ffffffffffffffffffffffffffffffffffffffff16815250508273ffffffffffffffffffffffffffffffffffffffff1660a08173ffffffffffffffffffffffffffffffffffffffff168152505081600860008573ffffffffffffffffffffffffffffffffffffffff1673ffffffffffffffffffffffffffffffffffffffff16815260200190815260200160002060006101000a81548173ffffffffffffffffffffffffffffffffffffffff021916908373ffffffffffffffffffffffffffffffffffffffff160217905550806009600060805173ffffffffffffffffffffffffffffffffffffffff1673ffffffffffffffffffffffffffffffffffffffff16815260200190815260200160002060006101000a81548173ffffffffffffffffffffffffffffffffffffffff021916908373ffffffffffffffffffffffffffffffffffffffff160217905550505050506102b1565b600080fd5b600073ffffffffffffffffffffffffffffffffffffffff82169050919050565b60006101d9826101ae565b9050919050565b6101e9816101ce565b81146101f457600080fd5b50565b600081519050610206816101e0565b92915050565b6000610217826101ce565b9050919050565b6102278161020c565b811461023257600080fd5b50565b6000815190506102448161021e565b92915050565b60008060008060808587031215610264576102636101a9565b5b6000610272878288016101f7565b9450506020610283878288016101f7565b935050604061029487828801610235565b92505060606102a587828801610235565b91505092959194509250565b60805160a051613e2c61041f60003960008181611712015281816117ba015281816118d501528181611989015281816119f501528181611b7c01528181611d9801528181611eaf015281816120930152818161216d0152818161227c015281816122e9015281816123c001528181613052015281816131d4015261368d0152600081816106df015281816107cc01528181610880015281816108ed015281816109c601528181610b8201528181610c5d01528181610ce601528181610dff01528181610eb301528181610f5701528181610fb70152818161109a015281816112880152818161139a015281816114b50152818161152b015281816115de0152818161163d01528181611ce501528181611e0b0152818161246c015281816125100152818161260e015281816126f8015281816127f5015281816128630152818161293a01528181612a2101528181612b0e01528181612c5601528181612e9801526131280152613e2c6000f3fe608060405234801561001057600080fd5b50600436106101e55760003560e01c8063b6b55f251161010f578063c4fa17a4116100a2578063ed6493af11610071578063ed6493af146105bb578063ee31d43f146105d9578063f7683bbc14610609578063fc2e93b514610627576101e5565b8063c4fa17a414610533578063c5ebeaec14610551578063c671922c1461056d578063cc484c5c1461059d576101e5565b8063bd37b775116100de578063bd37b77514610499578063beb2c806146104b5578063c022215c146104e5578063c084b10b14610503576101e5565b8063b6b55f2514610415578063b6f7132f14610431578063bad4a01f14610461578063bcbaf4871461047d576101e5565b80635e0bd769116101875780637c17d237116101565780637c17d2371461036657806390a8ae9b1461039657806397904e42146103b45780639ce625f7146103e4576101e5565b80635e0bd769146102b85780635e5c83b4146102e857806364c15196146103185780636854786a14610348576101e5565b80632957cb77116101c35780632957cb77146102425780632e1a7d4d146102605780633574d4c41461027c5780635b72a33a1461029a576101e5565b80630e752702146101ea57806317f49e05146102065780632649aa1614610224575b600080fd5b61020460048036038101906101ff9190613796565b610657565b005b61020e610a58565b60405161021b91906137d2565b60405180910390f35b61022c610a5d565b60405161023991906137d2565b60405180910390f35b61024a610a6c565b60405161025791906138dd565b60405180910390f35b61027a60048036038101906102759190613796565b610afa565b005b61028461104b565b60405161029191906137d2565b60405180910390f35b6102a2611050565b6040516102af91906137d2565b60405180910390f35b6102d260048036038101906102cd919061392b565b611055565b6040516102df91906137d2565b60405180910390f35b61030260048036038101906102fd919061392b565b6110fb565b60405161030f91906137d2565b60405180910390f35b610332600480360381019061032d9190613796565b61112b565b60405161033f91906137d2565b60405180910390f35b61035061115f565b60405161035d91906138dd565b60405180910390f35b610380600480360381019061037b919061392b565b6111ed565b60405161038d91906137d2565b60405180910390f35b61039e61121c565b6040516103ab91906137d2565b60405180910390f35b6103ce60048036038101906103c9919061392b565b611221565b6040516103db91906137d2565b60405180910390f35b6103fe60048036038101906103f9919061392b565b611233565b60405161040c929190613958565b60405180910390f35b61042f600480360381019061042a9190613796565b611353565b005b61044b6004803603810190610446919061392b565b6116cd565b60405161045891906137d2565b60405180910390f35b61047b60048036038101906104769190613796565b611773565b005b61049760048036038101906104929190613981565b611a85565b005b6104b360048036038101906104ae9190613796565b61200b565b005b6104cf60048036038101906104ca919061392b565b612452565b6040516104dc91906137d2565b60405180910390f35b6104ed612464565b6040516104fa91906137d2565b60405180910390f35b61051d6004803603810190610518919061392b565b6124cb565b60405161052a91906137d2565b60405180910390f35b61053b612571565b60405161054891906137d2565b60405180910390f35b61056b60048036038101906105669190613796565b612579565b005b6105876004803603810190610582919061392b565b6129ce565b60405161059491906137d2565b60405180910390f35b6105a5612a92565b6040516105b291906137d2565b60405180910390f35b6105c3612b8b565b6040516105d091906137d2565b60405180910390f35b6105f360048036038101906105ee919061392b565b612bf0565b60405161060091906137d2565b60405180910390f35b610611612c02565b60405161061e91906137d2565b60405180910390f35b610641600480360381019061063c919061392b565b612c11565b60405161064e91906137d2565b60405180910390f35b61065f612cb7565b806000811161069a576040517f58f2468300000000000000000000000000000000000000000000000000000000815260040160405180910390fd5b6000600460003373ffffffffffffffffffffffffffffffffffffffff1673ffffffffffffffffffffffffffffffffffffffff16815260200190815260200160002060007f000000000000000000000000000000000000000000000000000000000000000073ffffffffffffffffffffffffffffffffffffffff1673ffffffffffffffffffffffffffffffffffffffff16815260200190815260200160002054905080831115610775576040517f89148a5500000000000000000000000000000000000000000000000000000000815260040160405180910390fd5b60008184116107845783610786565b815b905080600460003373ffffffffffffffffffffffffffffffffffffffff1673ffffffffffffffffffffffffffffffffffffffff16815260200190815260200160002060007f000000000000000000000000000000000000000000000000000000000000000073ffffffffffffffffffffffffffffffffffffffff1673ffffffffffffffffffffffffffffffffffffffff168152602001908152602001600020600082825461083491906139f0565b925050819055506000600460003373ffffffffffffffffffffffffffffffffffffffff1673ffffffffffffffffffffffffffffffffffffffff16815260200190815260200160002060007f000000000000000000000000000000000000000000000000000000000000000073ffffffffffffffffffffffffffffffffffffffff1673ffffffffffffffffffffffffffffffffffffffff16815260200190815260200160002054036108e9576108e833612cfd565b5b60007f000000000000000000000000000000000000000000000000000000000000000073ffffffffffffffffffffffffffffffffffffffff166323b872dd3330856040518463ffffffff1660e01b815260040161094893929190613a33565b6020604051808303816000875af1158015610967573d6000803e3d6000fd5b505050506040513d601f19601f8201168201806040525081019061098b9190613aa2565b9050806109c4576040517fe64e62de00000000000000000000000000000000000000000000000000000000815260040160405180910390fd5b7f000000000000000000000000000000000000000000000000000000000000000073ffffffffffffffffffffffffffffffffffffffff163373ffffffffffffffffffffffffffffffffffffffff167f05f2eeda0e08e4b437f487c8d7d29b14537d15e3488170dc3de5dbdf8dac468484604051610a4191906137d2565b60405180910390a350505050610a55612e85565b50565b604b81565b6000610a67612e8f565b905090565b60606002805480602002602001604051908101604052809291908181526020018280548015610af057602002820191906000526020600020905b8160009054906101000a900473ffffffffffffffffffffffffffffffffffffffff1673ffffffffffffffffffffffffffffffffffffffff1681526020019060010190808311610aa6575b5050505050905090565b610b02612cb7565b8060008111610b3d576040517f58f2468300000000000000000000000000000000000000000000000000000000815260040160405180910390fd5b6000600360003373ffffffffffffffffffffffffffffffffffffffff1673ffffffffffffffffffffffffffffffffffffffff16815260200190815260200160002060007f000000000000000000000000000000000000000000000000000000000000000073ffffffffffffffffffffffffffffffffffffffff1673ffffffffffffffffffffffffffffffffffffffff16815260200190815260200160002054905082811015610c18576040517f89148a5500000000000000000000000000000000000000000000000000000000815260040160405180910390fd5b6000600660003373ffffffffffffffffffffffffffffffffffffffff1673ffffffffffffffffffffffffffffffffffffffff16815260200190815260200160002060007f000000000000000000000000000000000000000000000000000000000000000073ffffffffffffffffffffffffffffffffffffffff1673ffffffffffffffffffffffffffffffffffffffff1681526020019081526020016000205442610cc291906139f0565b90506000610cd08583612fca565b905060008186610ce09190613acf565b905060007f000000000000000000000000000000000000000000000000000000000000000073ffffffffffffffffffffffffffffffffffffffff1663a9059cbb33846040518363ffffffff1660e01b8152600401610d3f929190613b03565b6020604051808303816000875af1158015610d5e573d6000803e3d6000fd5b505050506040513d601f19601f82011682018060405250810190610d829190613aa2565b905080610dbb576040517fe64e62de00000000000000000000000000000000000000000000000000000000815260040160405180910390fd5b86600360003373ffffffffffffffffffffffffffffffffffffffff1673ffffffffffffffffffffffffffffffffffffffff16815260200190815260200160002060007f000000000000000000000000000000000000000000000000000000000000000073ffffffffffffffffffffffffffffffffffffffff1673ffffffffffffffffffffffffffffffffffffffff1681526020019081526020016000206000828254610e6791906139f0565b925050819055506000600360003373ffffffffffffffffffffffffffffffffffffffff1673ffffffffffffffffffffffffffffffffffffffff16815260200190815260200160002060007f000000000000000000000000000000000000000000000000000000000000000073ffffffffffffffffffffffffffffffffffffffff1673ffffffffffffffffffffffffffffffffffffffff1681526020019081526020016000205403610fb5576000600660003373ffffffffffffffffffffffffffffffffffffffff1673ffffffffffffffffffffffffffffffffffffffff16815260200190815260200160002060007f000000000000000000000000000000000000000000000000000000000000000073ffffffffffffffffffffffffffffffffffffffff1673ffffffffffffffffffffffffffffffffffffffff168152602001908152602001600020819055505b7f000000000000000000000000000000000000000000000000000000000000000073ffffffffffffffffffffffffffffffffffffffff163373ffffffffffffffffffffffffffffffffffffffff167f9b1bfa7fa9ee420a16e124f794c35ac9f90472acc99140eb2f6447c714cad8eb8960405161103291906137d2565b60405180910390a3505050505050611048612e85565b50565b600a81565b600581565b6000600660008373ffffffffffffffffffffffffffffffffffffffff1673ffffffffffffffffffffffffffffffffffffffff16815260200190815260200160002060007f000000000000000000000000000000000000000000000000000000000000000073ffffffffffffffffffffffffffffffffffffffff1673ffffffffffffffffffffffffffffffffffffffff168152602001908152602001600020549050919050565b6000806111078361300c565b90506000611114846130e2565b9050808261112291906139f0565b92505050919050565b6000806111366131cb565b905080670de0b6b3a76400008461114d9190613b2c565b6111579190613b9d565b915050919050565b606060018054806020026020016040519081016040528092919081815260200182805480156111e357602002820191906000526020600020905b8160009054906101000a900473ffffffffffffffffffffffffffffffffffffffff1673ffffffffffffffffffffffffffffffffffffffff1681526020019060010190808311611199575b5050505050905090565b6000806111f98361300c565b90506064604b8261120a9190613b2c565b6112149190613b9d565b915050919050565b605081565b600061122c8261300c565b9050919050565b60008060006112418461300c565b90506000600460008673ffffffffffffffffffffffffffffffffffffffff1673ffffffffffffffffffffffffffffffffffffffff16815260200190815260200160002060007f000000000000000000000000000000000000000000000000000000000000000073ffffffffffffffffffffffffffffffffffffffff1673ffffffffffffffffffffffffffffffffffffffff1681526020019081526020016000205490506000810361130357683635c9adc5dea00000600093509350505061134e565b600060646050846113149190613b2c565b61131e9190613b9d565b9050600082670de0b6b3a7640000836113379190613b2c565b6113419190613b9d565b9050808395509550505050505b915091565b61135b612cb7565b8060008111611396576040517f58f2468300000000000000000000000000000000000000000000000000000000815260040160405180910390fd5b60007f000000000000000000000000000000000000000000000000000000000000000073ffffffffffffffffffffffffffffffffffffffff166323b872dd3330866040518463ffffffff1660e01b81526004016113f593929190613a33565b6020604051808303816000875af1158015611414573d6000803e3d6000fd5b505050506040513d601f19601f820116820180604052508101906114389190613aa2565b905080611471576040517fe64e62de00000000000000000000000000000000000000000000000000000000815260040160405180910390fd5b82600360003373ffffffffffffffffffffffffffffffffffffffff1673ffffffffffffffffffffffffffffffffffffffff16815260200190815260200160002060007f000000000000000000000000000000000000000000000000000000000000000073ffffffffffffffffffffffffffffffffffffffff1673ffffffffffffffffffffffffffffffffffffffff168152602001908152602001600020600082825461151d9190613acf565b9250508190555082600760007f000000000000000000000000000000000000000000000000000000000000000073ffffffffffffffffffffffffffffffffffffffff1673ffffffffffffffffffffffffffffffffffffffff16815260200190815260200160002060008282546115939190613acf565b9250508190555042600660003373ffffffffffffffffffffffffffffffffffffffff1673ffffffffffffffffffffffffffffffffffffffff16815260200190815260200160002060007f000000000000000000000000000000000000000000000000000000000000000073ffffffffffffffffffffffffffffffffffffffff1673ffffffffffffffffffffffffffffffffffffffff168152602001908152602001600020819055507f000000000000000000000000000000000000000000000000000000000000000073ffffffffffffffffffffffffffffffffffffffff163373ffffffffffffffffffffffffffffffffffffffff167f5548c837ab068cf56a2c2479df0882a4922fd203edb7517321831d95078c5f62856040516116b891906137d2565b60405180910390a350506116ca612e85565b50565b6000600560008373ffffffffffffffffffffffffffffffffffffffff1673ffffffffffffffffffffffffffffffffffffffff16815260200190815260200160002060007f000000000000000000000000000000000000000000000000000000000000000073ffffffffffffffffffffffffffffffffffffffff1673ffffffffffffffffffffffffffffffffffffffff168152602001908152602001600020549050919050565b61177b612cb7565b80600081116117b6576040517f58f2468300000000000000000000000000000000000000000000000000000000815260040160405180910390fd5b60007f000000000000000000000000000000000000000000000000000000000000000073ffffffffffffffffffffffffffffffffffffffff166323b872dd3330866040518463ffffffff1660e01b815260040161181593929190613a33565b6020604051808303816000875af1158015611834573d6000803e3d6000fd5b505050506040513d601f19601f820116820180604052508101906118589190613aa2565b905080611891576040517fe64e62de00000000000000000000000000000000000000000000000000000000815260040160405180910390fd5b82600560003373ffffffffffffffffffffffffffffffffffffffff1673ffffffffffffffffffffffffffffffffffffffff16815260200190815260200160002060007f000000000000000000000000000000000000000000000000000000000000000073ffffffffffffffffffffffffffffffffffffffff1673ffffffffffffffffffffffffffffffffffffffff168152602001908152602001600020600082825461193d9190613acf565b925050819055506000600560003373ffffffffffffffffffffffffffffffffffffffff1673ffffffffffffffffffffffffffffffffffffffff16815260200190815260200160002060007f000000000000000000000000000000000000000000000000000000000000000073ffffffffffffffffffffffffffffffffffffffff1673ffffffffffffffffffffffffffffffffffffffff1681526020019081526020016000205411156119f3576119f233613306565b5b7f000000000000000000000000000000000000000000000000000000000000000073ffffffffffffffffffffffffffffffffffffffff163373ffffffffffffffffffffffffffffffffffffffff167fef12f18e2b6578b91b3c852c423ca8ee530f65f20f770e62a7ce8aa08e1ab77785604051611a7091906137d2565b60405180910390a35050611a82612e85565b50565b611a8d612cb7565b8060008111611ac8576040517f58f2468300000000000000000000000000000000000000000000000000000000815260040160405180910390fd5b600080611ad485611233565b91509150670de0b6b3a76400008210611b19576040517f8bde3e8300000000000000000000000000000000000000000000000000000000815260040160405180910390fd5b6000818511611b285784611b2a565b815b90506000611b378261112b565b9050600560008873ffffffffffffffffffffffffffffffffffffffff1673ffffffffffffffffffffffffffffffffffffffff16815260200190815260200160002060007f000000000000000000000000000000000000000000000000000000000000000073ffffffffffffffffffffffffffffffffffffffff1673ffffffffffffffffffffffffffffffffffffffff16815260200190815260200160002054811115611c0f576040517f6af290b100000000000000000000000000000000000000000000000000000000815260040160405180910390fd5b60006064600a83611c209190613b2c565b611c2a9190613b9d565b905060008183611c3a9190613acf565b90508873ffffffffffffffffffffffffffffffffffffffff163373ffffffffffffffffffffffffffffffffffffffff1603611ca1576040517f8e04dcbb00000000000000000000000000000000000000000000000000000000815260040160405180910390fd5b83600460008b73ffffffffffffffffffffffffffffffffffffffff1673ffffffffffffffffffffffffffffffffffffffff16815260200190815260200160002060007f000000000000000000000000000000000000000000000000000000000000000073ffffffffffffffffffffffffffffffffffffffff1673ffffffffffffffffffffffffffffffffffffffff1681526020019081526020016000206000828254611d4d91906139f0565b9250508190555082600560008b73ffffffffffffffffffffffffffffffffffffffff1673ffffffffffffffffffffffffffffffffffffffff16815260200190815260200160002060007f000000000000000000000000000000000000000000000000000000000000000073ffffffffffffffffffffffffffffffffffffffff1673ffffffffffffffffffffffffffffffffffffffff1681526020019081526020016000206000828254611e0091906139f0565b9250508190555060007f000000000000000000000000000000000000000000000000000000000000000073ffffffffffffffffffffffffffffffffffffffff166323b872dd3330886040518463ffffffff1660e01b8152600401611e6693929190613a33565b6020604051808303816000875af1158015611e85573d6000803e3d6000fd5b505050506040513d601f19601f82011682018060405250810190611ea99190613aa2565b905060007f000000000000000000000000000000000000000000000000000000000000000073ffffffffffffffffffffffffffffffffffffffff1663a9059cbb33856040518363ffffffff1660e01b8152600401611f08929190613b03565b6020604051808303816000875af1158015611f27573d6000803e3d6000fd5b505050506040513d601f19601f82011682018060405250810190611f4b9190613aa2565b9050811580611f58575080155b15611f8f576040517fe64e62de00000000000000000000000000000000000000000000000000000000815260040160405180910390fd5b8a73ffffffffffffffffffffffffffffffffffffffff163373ffffffffffffffffffffffffffffffffffffffff167ff3fa0eaee8f258c23b013654df25d1527f98a5c7ccd5e951dd77caca400ef9728886604051611fee929190613958565b60405180910390a3505050505050505050612007612e85565b5050565b612013612cb7565b806000811161204e576040517f58f2468300000000000000000000000000000000000000000000000000000000815260040160405180910390fd5b6000600560003373ffffffffffffffffffffffffffffffffffffffff1673ffffffffffffffffffffffffffffffffffffffff16815260200190815260200160002060007f000000000000000000000000000000000000000000000000000000000000000073ffffffffffffffffffffffffffffffffffffffff1673ffffffffffffffffffffffffffffffffffffffff16815260200190815260200160002054905082811015612129576040517f663ca2f000000000000000000000000000000000000000000000000000000000815260040160405180910390fd5b82600560003373ffffffffffffffffffffffffffffffffffffffff1673ffffffffffffffffffffffffffffffffffffffff16815260200190815260200160002060007f000000000000000000000000000000000000000000000000000000000000000073ffffffffffffffffffffffffffffffffffffffff1673ffffffffffffffffffffffffffffffffffffffff16815260200190815260200160002060008282546121d591906139f0565b9250508190555060006121e733611233565b509050670de0b6b3a764000081101561223757806040517f04697f3700000000000000000000000000000000000000000000000000000000815260040161222e91906137d2565b60405180910390fd5b6000600560003373ffffffffffffffffffffffffffffffffffffffff1673ffffffffffffffffffffffffffffffffffffffff16815260200190815260200160002060007f000000000000000000000000000000000000000000000000000000000000000073ffffffffffffffffffffffffffffffffffffffff1673ffffffffffffffffffffffffffffffffffffffff16815260200190815260200160002054036122e5576122e433613402565b5b60007f000000000000000000000000000000000000000000000000000000000000000073ffffffffffffffffffffffffffffffffffffffff1663a9059cbb33876040518363ffffffff1660e01b8152600401612342929190613b03565b6020604051808303816000875af1158015612361573d6000803e3d6000fd5b505050506040513d601f19601f820116820180604052508101906123859190613aa2565b9050806123be576040517fe64e62de00000000000000000000000000000000000000000000000000000000815260040160405180910390fd5b7f000000000000000000000000000000000000000000000000000000000000000073ffffffffffffffffffffffffffffffffffffffff163373ffffffffffffffffffffffffffffffffffffffff167fc994feb9b99296d80965b47aec6be0d25704ddf95b9b9bc1ed8bc753960d58098760405161243b91906137d2565b60405180910390a35050505061244f612e85565b50565b600061245d826130e2565b9050919050565b6000600760007f000000000000000000000000000000000000000000000000000000000000000073ffffffffffffffffffffffffffffffffffffffff1673ffffffffffffffffffffffffffffffffffffffff16815260200190815260200160002054905090565b6000600360008373ffffffffffffffffffffffffffffffffffffffff1673ffffffffffffffffffffffffffffffffffffffff16815260200190815260200160002060007f000000000000000000000000000000000000000000000000000000000000000073ffffffffffffffffffffffffffffffffffffffff1673ffffffffffffffffffffffffffffffffffffffff168152602001908152602001600020549050919050565b6301e1338081565b612581612cb7565b80600081116125bc576040517f58f2468300000000000000000000000000000000000000000000000000000000815260040160405180910390fd5b60006125c7336111ed565b90506000600460003373ffffffffffffffffffffffffffffffffffffffff1673ffffffffffffffffffffffffffffffffffffffff16815260200190815260200160002060007f000000000000000000000000000000000000000000000000000000000000000073ffffffffffffffffffffffffffffffffffffffff1673ffffffffffffffffffffffffffffffffffffffff168152602001908152602001600020549050600084826126789190613acf565b9050808310156126b4576040517f663ca2f000000000000000000000000000000000000000000000000000000000815260040160405180910390fd5b80600460003373ffffffffffffffffffffffffffffffffffffffff1673ffffffffffffffffffffffffffffffffffffffff16815260200190815260200160002060007f000000000000000000000000000000000000000000000000000000000000000073ffffffffffffffffffffffffffffffffffffffff1673ffffffffffffffffffffffffffffffffffffffff16815260200190815260200160002081905550600061276033611233565b509050670de0b6b3a76400008110156127b057806040517f04697f370000000000000000000000000000000000000000000000000000000081526004016127a791906137d2565b60405180910390fd5b6000600460003373ffffffffffffffffffffffffffffffffffffffff1673ffffffffffffffffffffffffffffffffffffffff16815260200190815260200160002060007f000000000000000000000000000000000000000000000000000000000000000073ffffffffffffffffffffffffffffffffffffffff1673ffffffffffffffffffffffffffffffffffffffff16815260200190815260200160002054111561285f5761285e3361358c565b5b60007f000000000000000000000000000000000000000000000000000000000000000073ffffffffffffffffffffffffffffffffffffffff1663a9059cbb33896040518363ffffffff1660e01b81526004016128bc929190613b03565b6020604051808303816000875af11580156128db573d6000803e3d6000fd5b505050506040513d601f19601f820116820180604052508101906128ff9190613aa2565b905080612938576040517fe64e62de00000000000000000000000000000000000000000000000000000000815260040160405180910390fd5b7f000000000000000000000000000000000000000000000000000000000000000073ffffffffffffffffffffffffffffffffffffffff163373ffffffffffffffffffffffffffffffffffffffff167f312a5e5e1079f5dda4e95dbbd0b908b291fd5b992ef22073643ab691572c5b52896040516129b591906137d2565b60405180910390a35050505050506129cb612e85565b50565b6000806129da836111ed565b90506000600460008573ffffffffffffffffffffffffffffffffffffffff1673ffffffffffffffffffffffffffffffffffffffff16815260200190815260200160002060007f000000000000000000000000000000000000000000000000000000000000000073ffffffffffffffffffffffffffffffffffffffff1673ffffffffffffffffffffffffffffffffffffffff1681526020019081526020016000205490508082612a8991906139f0565b92505050919050565b600080600090506000612aa361115f565b905060005b8151811015612b825760046000838381518110612ac857612ac7613bce565b5b602002602001015173ffffffffffffffffffffffffffffffffffffffff1673ffffffffffffffffffffffffffffffffffffffff16815260200190815260200160002060007f000000000000000000000000000000000000000000000000000000000000000073ffffffffffffffffffffffffffffffffffffffff1673ffffffffffffffffffffffffffffffffffffffff1681526020019081526020016000205483612b739190613acf565b92508080600101915050612aa8565b50819250505090565b600080600090506000612b9c610a6c565b905060005b8151811015612be757612bcd828281518110612bc057612bbf613bce565b5b602002602001015161300c565b83612bd89190613acf565b92508080600101915050612ba1565b50819250505090565b6000612bfb82613688565b9050919050565b6000612c0c6131cb565b905090565b6000600460008373ffffffffffffffffffffffffffffffffffffffff1673ffffffffffffffffffffffffffffffffffffffff16815260200190815260200160002060007f000000000000000000000000000000000000000000000000000000000000000073ffffffffffffffffffffffffffffffffffffffff1673ffffffffffffffffffffffffffffffffffffffff168152602001908152602001600020549050919050565b600260005403612cf3576040517f3ee5aeb500000000000000000000000000000000000000000000000000000000815260040160405180910390fd5b6002600081905550565b60005b600180549050811015612e81578173ffffffffffffffffffffffffffffffffffffffff1660018281548110612d3857612d37613bce565b5b9060005260206000200160009054906101000a900473ffffffffffffffffffffffffffffffffffffffff1673ffffffffffffffffffffffffffffffffffffffff1603612e74576001808080549050612d9091906139f0565b81548110612da157612da0613bce565b5b9060005260206000200160009054906101000a900473ffffffffffffffffffffffffffffffffffffffff1660018281548110612de057612ddf613bce565b5b9060005260206000200160006101000a81548173ffffffffffffffffffffffffffffffffffffffff021916908373ffffffffffffffffffffffffffffffffffffffff1602179055506001805480612e3a57612e39613bfd565b5b6001900381819060005260206000200160006101000a81549073ffffffffffffffffffffffffffffffffffffffff02191690559055612e81565b8080600101915050612d00565b5050565b6001600081905550565b600080600960007f000000000000000000000000000000000000000000000000000000000000000073ffffffffffffffffffffffffffffffffffffffff1673ffffffffffffffffffffffffffffffffffffffff16815260200190815260200160002060009054906101000a900473ffffffffffffffffffffffffffffffffffffffff169050600081905060008173ffffffffffffffffffffffffffffffffffffffff1673__$9037b2fcd2753f718e08d07444b301ed88$__632b8d062190916040518263ffffffff1660e01b8152600401612f6a9190613c8b565b60a060405180830381865af4158015612f87573d6000803e3d6000fd5b505050506040513d601f19601f82011682018060405250810190612fab9190613d33565b5050509150506402540be40081612fc29190613b2c565b935050505090565b60008060646301e1338084600587612fe29190613b2c565b612fec9190613b2c565b612ff69190613b9d565b6130009190613b9d565b90508091505092915050565b600080600560008473ffffffffffffffffffffffffffffffffffffffff1673ffffffffffffffffffffffffffffffffffffffff16815260200190815260200160002060007f000000000000000000000000000000000000000000000000000000000000000073ffffffffffffffffffffffffffffffffffffffff1673ffffffffffffffffffffffffffffffffffffffff16815260200190815260200160002054905060006130b86131cb565b9050670de0b6b3a764000081836130cf9190613b2c565b6130d99190613b9d565b92505050919050565b600080600460008473ffffffffffffffffffffffffffffffffffffffff1673ffffffffffffffffffffffffffffffffffffffff16815260200190815260200160002060007f000000000000000000000000000000000000000000000000000000000000000073ffffffffffffffffffffffffffffffffffffffff1673ffffffffffffffffffffffffffffffffffffffff168152602001908152602001600020549050600081036131965760009150506131c6565b60006131a0612e8f565b9050670de0b6b3a764000081836131b79190613b2c565b6131c19190613b9d565b925050505b919050565b600080600860007f000000000000000000000000000000000000000000000000000000000000000073ffffffffffffffffffffffffffffffffffffffff1673ffffffffffffffffffffffffffffffffffffffff16815260200190815260200160002060009054906101000a900473ffffffffffffffffffffffffffffffffffffffff169050600081905060008173ffffffffffffffffffffffffffffffffffffffff1673__$9037b2fcd2753f718e08d07444b301ed88$__632b8d062190916040518263ffffffff1660e01b81526004016132a69190613c8b565b60a060405180830381865af41580156132c3573d6000803e3d6000fd5b505050506040513d601f19601f820116820180604052508101906132e79190613d33565b5050509150506402540be400816132fe9190613b2c565b935050505090565b60005b60028054905081101561339a578173ffffffffffffffffffffffffffffffffffffffff166002828154811061334157613340613bce565b5b9060005260206000200160009054906101000a900473ffffffffffffffffffffffffffffffffffffffff1673ffffffffffffffffffffffffffffffffffffffff160361338d57506133ff565b8080600101915050613309565b506002819080600181540180825580915050600190039060005260206000200160009091909190916101000a81548173ffffffffffffffffffffffffffffffffffffffff021916908373ffffffffffffffffffffffffffffffffffffffff1602179055505b50565b60005b600280549050811015613588578173ffffffffffffffffffffffffffffffffffffffff166002828154811061343d5761343c613bce565b5b9060005260206000200160009054906101000a900473ffffffffffffffffffffffffffffffffffffffff1673ffffffffffffffffffffffffffffffffffffffff160361357b576002600160028054905061349791906139f0565b815481106134a8576134a7613bce565b5b9060005260206000200160009054906101000a900473ffffffffffffffffffffffffffffffffffffffff16600282815481106134e7576134e6613bce565b5b9060005260206000200160006101000a81548173ffffffffffffffffffffffffffffffffffffffff021916908373ffffffffffffffffffffffffffffffffffffffff160217905550600280548061354157613540613bfd565b5b6001900381819060005260206000200160006101000a81549073ffffffffffffffffffffffffffffffffffffffff02191690559055613588565b8080600101915050613405565b5050565b60005b600180549050811015613620578173ffffffffffffffffffffffffffffffffffffffff16600182815481106135c7576135c6613bce565b5b9060005260206000200160009054906101000a900473ffffffffffffffffffffffffffffffffffffffff1673ffffffffffffffffffffffffffffffffffffffff16036136135750613685565b808060010191505061358f565b506001819080600181540180825580915050600190039060005260206000200160009091909190916101000a81548173ffffffffffffffffffffffffffffffffffffffff021916908373ffffffffffffffffffffffffffffffffffffffff1602179055505b50565b6000807f000000000000000000000000000000000000000000000000000000000000000073ffffffffffffffffffffffffffffffffffffffff166370a08231846040518263ffffffff1660e01b81526004016136e49190613dae565b602060405180830381865afa158015613701573d6000803e3d6000fd5b505050506040513d601f19601f820116820180604052508101906137259190613dc9565b905060006137316131cb565b9050670de0b6b3a764000081836137489190613b2c565b6137529190613b9d565b92505050919050565b600080fd5b6000819050919050565b61377381613760565b811461377e57600080fd5b50565b6000813590506137908161376a565b92915050565b6000602082840312156137ac576137ab61375b565b5b60006137ba84828501613781565b91505092915050565b6137cc81613760565b82525050565b60006020820190506137e760008301846137c3565b92915050565b600081519050919050565b600082825260208201905092915050565b6000819050602082019050919050565b600073ffffffffffffffffffffffffffffffffffffffff82169050919050565b600061384482613819565b9050919050565b61385481613839565b82525050565b6000613866838361384b565b60208301905092915050565b6000602082019050919050565b600061388a826137ed565b61389481856137f8565b935061389f83613809565b8060005b838110156138d05781516138b7888261385a565b97506138c283613872565b9250506001810190506138a3565b5085935050505092915050565b600060208201905081810360008301526138f7818461387f565b905092915050565b61390881613839565b811461391357600080fd5b50565b600081359050613925816138ff565b92915050565b6000602082840312156139415761394061375b565b5b600061394f84828501613916565b91505092915050565b600060408201905061396d60008301856137c3565b61397a60208301846137c3565b9392505050565b600080604083850312156139985761399761375b565b5b60006139a685828601613916565b92505060206139b785828601613781565b9150509250929050565b7f4e487b7100000000000000000000000000000000000000000000000000000000600052601160045260246000fd5b60006139fb82613760565b9150613a0683613760565b9250828203905081811115613a1e57613a1d6139c1565b5b92915050565b613a2d81613839565b82525050565b6000606082019050613a486000830186613a24565b613a556020830185613a24565b613a6260408301846137c3565b949350505050565b60008115159050919050565b613a7f81613a6a565b8114613a8a57600080fd5b50565b600081519050613a9c81613a76565b92915050565b600060208284031215613ab857613ab761375b565b5b6000613ac684828501613a8d565b91505092915050565b6000613ada82613760565b9150613ae583613760565b9250828201905080821115613afd57613afc6139c1565b5b92915050565b6000604082019050613b186000830185613a24565b613b2560208301846137c3565b9392505050565b6000613b3782613760565b9150613b4283613760565b9250828202613b5081613760565b91508282048414831517613b6757613b666139c1565b5b5092915050565b7f4e487b7100000000000000000000000000000000000000000000000000000000600052601260045260246000fd5b6000613ba882613760565b9150613bb383613760565b925082613bc357613bc2613b6e565b5b828204905092915050565b7f4e487b7100000000000000000000000000000000000000000000000000000000600052603260045260246000fd5b7f4e487b7100000000000000000000000000000000000000000000000000000000600052603160045260246000fd5b6000819050919050565b6000613c51613c4c613c4784613819565b613c2c565b613819565b9050919050565b6000613c6382613c36565b9050919050565b6000613c7582613c58565b9050919050565b613c8581613c6a565b82525050565b6000602082019050613ca06000830184613c7c565b92915050565b600069ffffffffffffffffffff82169050919050565b613cc581613ca6565b8114613cd057600080fd5b50565b600081519050613ce281613cbc565b92915050565b6000819050919050565b613cfb81613ce8565b8114613d0657600080fd5b50565b600081519050613d1881613cf2565b92915050565b600081519050613d2d8161376a565b92915050565b600080600080600060a08688031215613d4f57613d4e61375b565b5b6000613d5d88828901613cd3565b9550506020613d6e88828901613d09565b9450506040613d7f88828901613d1e565b9350506060613d9088828901613d1e565b9250506080613da188828901613cd3565b9150509295509295909350565b6000602082019050613dc36000830184613a24565b92915050565b600060208284031215613ddf57613dde61375b565b5b6000613ded84828501613d1e565b9150509291505056fea2646970667358221220d8d5c59742e9ed5e454feddb2e9f090f322dab9a955fc4f22ceb72a154c5f13364736f6c634300081b0033",
  "linkReferences": {
    "contracts/libraries/OracleLib.sol": {
      "OracleLib": [
        {
          "length": 20,
          "start": 13139
        },
        {
          "length": 20,
          "start": 13967
        }
      ]
    }
  },
  "deployedLinkReferences": {
    "contracts/libraries/OracleLib.sol": {
      "OracleLib": [
        {
          "length": 20,
          "start": 12084
        },
        {
          "length": 20,
          "start": 12912
        }
      ]
    }
  }
}