{
  "_format": "hh-sol-artifact-1",
  "contractName": "LendingBorrowingV3",
  "sourceName": "contracts/LendingBorrowingV3.sol",
  "abi": [
    {
      "inputs": [
        {
          "internalType": "address",
          "name": "_daiToken",
          "type": "address"
        },
        {
          "internalType": "address",
          "name": "_collateralToken",
          "type": "address"
        },
        {
          "internalType": "contract PriceFeedAdapter",
          "name": "_collateralPriceFeed",
          "type": "address"
        },
        {
          "internalType": "contract PriceFeedAdapter",
          "name": "_daiPriceFeed",
          "type": "address"
        }
      ],
      "stateMutability": "nonpayable",
      "type": "constructor"
    },
    {
      "inputs": [
        {
          "internalType": "uint256",
          "name": "",
          "type": "uint256"
        }
      ],
      "name": "LendingBorrowing__HealthFactorIsBroken",
      "type": "error"
    },
    {
      "inputs": [],
      "name": "LendingBorrowing__HealthFactorIsNotBroken",
      "type": "error"
    },
    {
      "inputs": [],
      "name": "LendingBorrowing__InsufficientBalance",
      "type": "error"
    },
    {
      "inputs": [],
      "name": "LendingBorrowing__InsufficientCollateral",
      "type": "error"
    },
    {
      "inputs": [],
      "name": "LendingBorrowing__InsufficientLiquidity",
      "type": "error"
    },
    {
      "inputs": [],
      "name": "LendingBorrowing__MustGreaterThanZero",
      "type": "error"
    },
    {
      "inputs": [],
      "name": "LendingBorrowing__NotEnoughCollateral",
      "type": "error"
    },
    {
      "inputs": [],
      "name": "LendingBorrowing__TransferFailed",
      "type": "error"
    },
    {
      "inputs": [],
      "name": "LendingBorrowing__UserCannotLiquidateHimself",
      "type": "error"
    },
    {
      "inputs": [],
      "name": "ReentrancyGuardReentrantCall",
      "type": "error"
    },
    {
      "anonymous": false,
      "inputs": [
        {
          "indexed": true,
          "internalType": "address",
          "name": "user",
          "type": "address"
        },
        {
          "indexed": true,
          "internalType": "address",
          "name": "token",
          "type": "address"
        },
        {
          "indexed": false,
          "internalType": "uint256",
          "name": "amount",
          "type": "uint256"
        }
      ],
      "name": "Borrow",
      "type": "event"
    },
    {
      "anonymous": false,
      "inputs": [
        {
          "indexed": true,
          "internalType": "address",
          "name": "user",
          "type": "address"
        },
        {
          "indexed": true,
          "internalType": "address",
          "name": "token",
          "type": "address"
        },
        {
          "indexed": false,
          "internalType": "uint256",
          "name": "amount",
          "type": "uint256"
        }
      ],
      "name": "Deposit",
      "type": "event"
    },
    {
      "anonymous": false,
      "inputs": [
        {
          "indexed": true,
          "internalType": "address",
          "name": "user",
          "type": "address"
        },
        {
          "indexed": true,
          "internalType": "address",
          "name": "token",
          "type": "address"
        },
        {
          "indexed": false,
          "internalType": "uint256",
          "name": "amount",
          "type": "uint256"
        }
      ],
      "name": "DepositCollateral",
      "type": "event"
    },
    {
      "anonymous": false,
      "inputs": [
        {
          "indexed": true,
          "internalType": "address",
          "name": "liquidator",
          "type": "address"
        },
        {
          "indexed": true,
          "internalType": "address",
          "name": "borrower",
          "type": "address"
        },
        {
          "indexed": false,
          "internalType": "uint256",
          "name": "amountToLiquidate",
          "type": "uint256"
        },
        {
          "indexed": false,
          "internalType": "uint256",
          "name": "totalCollateralToLiquidate",
          "type": "uint256"
        }
      ],
      "name": "Liquidate",
      "type": "event"
    },
    {
      "anonymous": false,
      "inputs": [
        {
          "indexed": true,
          "internalType": "address",
          "name": "user",
          "type": "address"
        },
        {
          "indexed": true,
          "internalType": "address",
          "name": "token",
          "type": "address"
        },
        {
          "indexed": false,
          "internalType": "uint256",
          "name": "amount",
          "type": "uint256"
        }
      ],
      "name": "RedeemCollateral",
      "type": "event"
    },
    {
      "anonymous": false,
      "inputs": [
        {
          "indexed": true,
          "internalType": "address",
          "name": "user",
          "type": "address"
        },
        {
          "indexed": true,
          "internalType": "address",
          "name": "token",
          "type": "address"
        },
        {
          "indexed": false,
          "internalType": "uint256",
          "name": "amount",
          "type": "uint256"
        }
      ],
      "name": "Repay",
      "type": "event"
    },
    {
      "anonymous": false,
      "inputs": [
        {
          "indexed": true,
          "internalType": "address",
          "name": "user",
          "type": "address"
        },
        {
          "indexed": true,
          "internalType": "address",
          "name": "token",
          "type": "address"
        },
        {
          "indexed": false,
          "internalType": "uint256",
          "name": "amount",
          "type": "uint256"
        }
      ],
      "name": "Withdraw",
      "type": "event"
    },
    {
      "inputs": [],
      "name": "COLLATERAL_FACTOR",
      "outputs": [
        {
          "internalType": "uint256",
          "name": "",
          "type": "uint256"
        }
      ],
      "stateMutability": "view",
      "type": "function"
    },
    {
      "inputs": [],
      "name": "INTEREST_RATE",
      "outputs": [
        {
          "internalType": "uint256",
          "name": "",
          "type": "uint256"
        }
      ],
      "stateMutability": "view",
      "type": "function"
    },
    {
      "inputs": [],
      "name": "LIQUIDATION_BONUS",
      "outputs": [
        {
          "internalType": "uint256",
          "name": "",
          "type": "uint256"
        }
      ],
      "stateMutability": "view",
      "type": "function"
    },
    {
      "inputs": [],
      "name": "LIQUIDATION_THRESHOLD",
      "outputs": [
        {
          "internalType": "uint256",
          "name": "",
          "type": "uint256"
        }
      ],
      "stateMutability": "view",
      "type": "function"
    },
    {
      "inputs": [],
      "name": "SECONDS_IN_A_YEAR",
      "outputs": [
        {
          "internalType": "uint256",
          "name": "",
          "type": "uint256"
        }
      ],
      "stateMutability": "view",
      "type": "function"
    },
    {
      "inputs": [
        {
          "internalType": "uint256",
          "name": "_amount",
          "type": "uint256"
        }
      ],
      "name": "borrow",
      "outputs": [],
      "stateMutability": "nonpayable",
      "type": "function"
    },
    {
      "inputs": [
        {
          "internalType": "address",
          "name": "_user",
          "type": "address"
        }
      ],
      "name": "calculateAvailableBorrow",
      "outputs": [
        {
          "internalType": "uint256",
          "name": "",
          "type": "uint256"
        }
      ],
      "stateMutability": "view",
      "type": "function"
    },
    {
      "inputs": [
        {
          "internalType": "address",
          "name": "_user",
          "type": "address"
        }
      ],
      "name": "calculateHealthFactor",
      "outputs": [
        {
          "internalType": "uint256",
          "name": "",
          "type": "uint256"
        },
        {
          "internalType": "uint256",
          "name": "",
          "type": "uint256"
        }
      ],
      "stateMutability": "view",
      "type": "function"
    },
    {
      "inputs": [
        {
          "internalType": "address",
          "name": "_user",
          "type": "address"
        }
      ],
      "name": "calculateNetWorth",
      "outputs": [
        {
          "internalType": "uint256",
          "name": "",
          "type": "uint256"
        }
      ],
      "stateMutability": "view",
      "type": "function"
    },
    {
      "inputs": [
        {
          "internalType": "uint256",
          "name": "_amount",
          "type": "uint256"
        }
      ],
      "name": "deposit",
      "outputs": [],
      "stateMutability": "nonpayable",
      "type": "function"
    },
    {
      "inputs": [
        {
          "internalType": "uint256",
          "name": "_amount",
          "type": "uint256"
        }
      ],
      "name": "depositCollateral",
      "outputs": [],
      "stateMutability": "nonpayable",
      "type": "function"
    },
    {
      "inputs": [
        {
          "internalType": "address",
          "name": "_user",
          "type": "address"
        }
      ],
      "name": "getBorrowLimit",
      "outputs": [
        {
          "internalType": "uint256",
          "name": "",
          "type": "uint256"
        }
      ],
      "stateMutability": "view",
      "type": "function"
    },
    {
      "inputs": [],
      "name": "getBorrowers",
      "outputs": [
        {
          "internalType": "address[]",
          "name": "",
          "type": "address[]"
        }
      ],
      "stateMutability": "view",
      "type": "function"
    },
    {
      "inputs": [],
      "name": "getCollateralDepositors",
      "outputs": [
        {
          "internalType": "address[]",
          "name": "",
          "type": "address[]"
        }
      ],
      "stateMutability": "view",
      "type": "function"
    },
    {
      "inputs": [],
      "name": "getCollateralPrice",
      "outputs": [
        {
          "internalType": "uint256",
          "name": "",
          "type": "uint256"
        }
      ],
      "stateMutability": "view",
      "type": "function"
    },
    {
      "inputs": [
        {
          "internalType": "uint256",
          "name": "_daiAmount",
          "type": "uint256"
        }
      ],
      "name": "getCollateralTokenAmountFromDai",
      "outputs": [
        {
          "internalType": "uint256",
          "name": "",
          "type": "uint256"
        }
      ],
      "stateMutability": "view",
      "type": "function"
    },
    {
      "inputs": [
        {
          "internalType": "address",
          "name": "_user",
          "type": "address"
        }
      ],
      "name": "getCollateralValue",
      "outputs": [
        {
          "internalType": "uint256",
          "name": "",
          "type": "uint256"
        }
      ],
      "stateMutability": "view",
      "type": "function"
    },
    {
      "inputs": [
        {
          "internalType": "address",
          "name": "_user",
          "type": "address"
        }
      ],
      "name": "getCollateralWalletValue",
      "outputs": [
        {
          "internalType": "uint256",
          "name": "",
          "type": "uint256"
        }
      ],
      "stateMutability": "view",
      "type": "function"
    },
    {
      "inputs": [],
      "name": "getDaiPrice",
      "outputs": [
        {
          "internalType": "uint256",
          "name": "",
          "type": "uint256"
        }
      ],
      "stateMutability": "view",
      "type": "function"
    },
    {
      "inputs": [],
      "name": "getTotalBorrows",
      "outputs": [
        {
          "internalType": "uint256",
          "name": "",
          "type": "uint256"
        }
      ],
      "stateMutability": "view",
      "type": "function"
    },
    {
      "inputs": [],
      "name": "getTotalCollateralValue",
      "outputs": [
        {
          "internalType": "uint256",
          "name": "",
          "type": "uint256"
        }
      ],
      "stateMutability": "view",
      "type": "function"
    },
    {
      "inputs": [],
      "name": "getTotalDeposit",
      "outputs": [
        {
          "internalType": "uint256",
          "name": "",
          "type": "uint256"
        }
      ],
      "stateMutability": "view",
      "type": "function"
    },
    {
      "inputs": [
        {
          "internalType": "address",
          "name": "user",
          "type": "address"
        }
      ],
      "name": "getUserBorrow",
      "outputs": [
        {
          "internalType": "uint256",
          "name": "",
          "type": "uint256"
        }
      ],
      "stateMutability": "view",
      "type": "function"
    },
    {
      "inputs": [
        {
          "internalType": "address",
          "name": "user",
          "type": "address"
        }
      ],
      "name": "getUserCollateral",
      "outputs": [
        {
          "internalType": "uint256",
          "name": "",
          "type": "uint256"
        }
      ],
      "stateMutability": "view",
      "type": "function"
    },
    {
      "inputs": [
        {
          "internalType": "address",
          "name": "user",
          "type": "address"
        }
      ],
      "name": "getUserDeposit",
      "outputs": [
        {
          "internalType": "uint256",
          "name": "",
          "type": "uint256"
        }
      ],
      "stateMutability": "view",
      "type": "function"
    },
    {
      "inputs": [
        {
          "internalType": "address",
          "name": "user",
          "type": "address"
        }
      ],
      "name": "getUserTimestamp",
      "outputs": [
        {
          "internalType": "uint256",
          "name": "",
          "type": "uint256"
        }
      ],
      "stateMutability": "view",
      "type": "function"
    },
    {
      "inputs": [
        {
          "internalType": "address",
          "name": "_borrower",
          "type": "address"
        },
        {
          "internalType": "uint256",
          "name": "_debtToCover",
          "type": "uint256"
        }
      ],
      "name": "liquidate",
      "outputs": [],
      "stateMutability": "nonpayable",
      "type": "function"
    },
    {
      "inputs": [
        {
          "internalType": "uint256",
          "name": "_amount",
          "type": "uint256"
        }
      ],
      "name": "redeemCollateral",
      "outputs": [],
      "stateMutability": "nonpayable",
      "type": "function"
    },
    {
      "inputs": [
        {
          "internalType": "uint256",
          "name": "_amount",
          "type": "uint256"
        }
      ],
      "name": "repayBorrow",
      "outputs": [],
      "stateMutability": "nonpayable",
      "type": "function"
    },
    {
      "inputs": [
        {
          "internalType": "uint256",
          "name": "_amount",
          "type": "uint256"
        }
      ],
      "name": "withdraw",
      "outputs": [],
      "stateMutability": "nonpayable",
      "type": "function"
    }
  ],
  "bytecode": "0x60c060405234801561001057600080fd5b506040516141bc3803806141bc8339818101604052810190610032919061024a565b60016000819055508373ffffffffffffffffffffffffffffffffffffffff1660808173ffffffffffffffffffffffffffffffffffffffff16815250508273ffffffffffffffffffffffffffffffffffffffff1660a08173ffffffffffffffffffffffffffffffffffffffff168152505081600860008573ffffffffffffffffffffffffffffffffffffffff1673ffffffffffffffffffffffffffffffffffffffff16815260200190815260200160002060006101000a81548173ffffffffffffffffffffffffffffffffffffffff021916908373ffffffffffffffffffffffffffffffffffffffff160217905550806009600060805173ffffffffffffffffffffffffffffffffffffffff1673ffffffffffffffffffffffffffffffffffffffff16815260200190815260200160002060006101000a81548173ffffffffffffffffffffffffffffffffffffffff021916908373ffffffffffffffffffffffffffffffffffffffff160217905550505050506102b1565b600080fd5b600073ffffffffffffffffffffffffffffffffffffffff82169050919050565b60006101d9826101ae565b9050919050565b6101e9816101ce565b81146101f457600080fd5b50565b600081519050610206816101e0565b92915050565b6000610217826101ce565b9050919050565b6102278161020c565b811461023257600080fd5b50565b6000815190506102448161021e565b92915050565b60008060008060808587031215610264576102636101a9565b5b6000610272878288016101f7565b9450506020610283878288016101f7565b935050604061029487828801610235565b92505060606102a587828801610235565b91505092959194509250565b60805160a051613d9d61041f6000396000818161177e0152818161182601528181611941015281816119f501528181611a6101528181611be801528181611e0401528181611f1b015281816120ff015281816121d9015281816122e8015281816123550152818161242c015281816130ac0152818161314501526135fe0152600081816106a40152818161079101528181610845015281816108b20152818161098b01528181610b4701528181610c2201528181610cab01528181610dc401528181610e7801528181610f1c01528181610f7c0152818161105f01528181611113015281816112f40152818161140601528181611521015281816115970152818161164a015281816116a901528181611d5101528181611e77015281816124c60152818161256a01528181612668015281816127520152818161284f015281816128bd0152818161299401528181612a7b01528181612b6801528181612cb00152612ef20152613d9d6000f3fe608060405234801561001057600080fd5b50600436106101da5760003560e01c8063b6b55f2511610104578063c4fa17a4116100a2578063ed6493af11610071578063ed6493af14610580578063ee31d43f1461059e578063f7683bbc146105ce578063fc2e93b5146105ec576101da565b8063c4fa17a4146104f8578063c5ebeaec14610516578063c671922c14610532578063cc484c5c14610562576101da565b8063bcbaf487116100de578063bcbaf48714610472578063bd37b7751461048e578063c022215c146104aa578063c084b10b146104c8576101da565b8063b6b55f251461040a578063b6f7132f14610426578063bad4a01f14610456576101da565b80635e0bd7691161017c5780637c17d2371161014b5780637c17d2371461035b57806390a8ae9b1461038b57806397904e42146103a95780639ce625f7146103d9576101da565b80635e0bd769146102ad5780635e5c83b4146102dd57806364c151961461030d5780636854786a1461033d576101da565b80632957cb77116101b85780632957cb77146102375780632e1a7d4d146102555780633574d4c4146102715780635b72a33a1461028f576101da565b80630e752702146101df57806317f49e05146101fb5780632649aa1614610219575b600080fd5b6101f960048036038101906101f49190613707565b61061c565b005b610203610a1d565b6040516102109190613743565b60405180910390f35b610221610a22565b60405161022e9190613743565b60405180910390f35b61023f610a31565b60405161024c919061384e565b60405180910390f35b61026f600480360381019061026a9190613707565b610abf565b005b610279611010565b6040516102869190613743565b60405180910390f35b610297611015565b6040516102a49190613743565b60405180910390f35b6102c760048036038101906102c2919061389c565b61101a565b6040516102d49190613743565b60405180910390f35b6102f760048036038101906102f2919061389c565b6110c0565b6040516103049190613743565b60405180910390f35b61032760048036038101906103229190613707565b611197565b6040516103349190613743565b60405180910390f35b6103456111cb565b604051610352919061384e565b60405180910390f35b6103756004803603810190610370919061389c565b611259565b6040516103829190613743565b60405180910390f35b610393611288565b6040516103a09190613743565b60405180910390f35b6103c360048036038101906103be919061389c565b61128d565b6040516103d09190613743565b60405180910390f35b6103f360048036038101906103ee919061389c565b61129f565b6040516104019291906138c9565b60405180910390f35b610424600480360381019061041f9190613707565b6113bf565b005b610440600480360381019061043b919061389c565b611739565b60405161044d9190613743565b60405180910390f35b610470600480360381019061046b9190613707565b6117df565b005b61048c600480360381019061048791906138f2565b611af1565b005b6104a860048036038101906104a39190613707565b612077565b005b6104b26124be565b6040516104bf9190613743565b60405180910390f35b6104e260048036038101906104dd919061389c565b612525565b6040516104ef9190613743565b60405180910390f35b6105006125cb565b60405161050d9190613743565b60405180910390f35b610530600480360381019061052b9190613707565b6125d3565b005b61054c6004803603810190610547919061389c565b612a28565b6040516105599190613743565b60405180910390f35b61056a612aec565b6040516105779190613743565b60405180910390f35b610588612be5565b6040516105959190613743565b60405180910390f35b6105b860048036038101906105b3919061389c565b612c4a565b6040516105c59190613743565b60405180910390f35b6105d6612c5c565b6040516105e39190613743565b60405180910390f35b6106066004803603810190610601919061389c565b612c6b565b6040516106139190613743565b60405180910390f35b610624612d11565b806000811161065f576040517f58f2468300000000000000000000000000000000000000000000000000000000815260040160405180910390fd5b6000600460003373ffffffffffffffffffffffffffffffffffffffff1673ffffffffffffffffffffffffffffffffffffffff16815260200190815260200160002060007f000000000000000000000000000000000000000000000000000000000000000073ffffffffffffffffffffffffffffffffffffffff1673ffffffffffffffffffffffffffffffffffffffff1681526020019081526020016000205490508083111561073a576040517f89148a5500000000000000000000000000000000000000000000000000000000815260040160405180910390fd5b6000818411610749578361074b565b815b905080600460003373ffffffffffffffffffffffffffffffffffffffff1673ffffffffffffffffffffffffffffffffffffffff16815260200190815260200160002060007f000000000000000000000000000000000000000000000000000000000000000073ffffffffffffffffffffffffffffffffffffffff1673ffffffffffffffffffffffffffffffffffffffff16815260200190815260200160002060008282546107f99190613961565b925050819055506000600460003373ffffffffffffffffffffffffffffffffffffffff1673ffffffffffffffffffffffffffffffffffffffff16815260200190815260200160002060007f000000000000000000000000000000000000000000000000000000000000000073ffffffffffffffffffffffffffffffffffffffff1673ffffffffffffffffffffffffffffffffffffffff16815260200190815260200160002054036108ae576108ad33612d57565b5b60007f000000000000000000000000000000000000000000000000000000000000000073ffffffffffffffffffffffffffffffffffffffff166323b872dd3330856040518463ffffffff1660e01b815260040161090d939291906139a4565b6020604051808303816000875af115801561092c573d6000803e3d6000fd5b505050506040513d601f19601f820116820180604052508101906109509190613a13565b905080610989576040517fe64e62de00000000000000000000000000000000000000000000000000000000815260040160405180910390fd5b7f000000000000000000000000000000000000000000000000000000000000000073ffffffffffffffffffffffffffffffffffffffff163373ffffffffffffffffffffffffffffffffffffffff167f05f2eeda0e08e4b437f487c8d7d29b14537d15e3488170dc3de5dbdf8dac468484604051610a069190613743565b60405180910390a350505050610a1a612edf565b50565b604b81565b6000610a2c612ee9565b905090565b60606002805480602002602001604051908101604052809291908181526020018280548015610ab557602002820191906000526020600020905b8160009054906101000a900473ffffffffffffffffffffffffffffffffffffffff1673ffffffffffffffffffffffffffffffffffffffff1681526020019060010190808311610a6b575b5050505050905090565b610ac7612d11565b8060008111610b02576040517f58f2468300000000000000000000000000000000000000000000000000000000815260040160405180910390fd5b6000600360003373ffffffffffffffffffffffffffffffffffffffff1673ffffffffffffffffffffffffffffffffffffffff16815260200190815260200160002060007f000000000000000000000000000000000000000000000000000000000000000073ffffffffffffffffffffffffffffffffffffffff1673ffffffffffffffffffffffffffffffffffffffff16815260200190815260200160002054905082811015610bdd576040517f89148a5500000000000000000000000000000000000000000000000000000000815260040160405180910390fd5b6000600660003373ffffffffffffffffffffffffffffffffffffffff1673ffffffffffffffffffffffffffffffffffffffff16815260200190815260200160002060007f000000000000000000000000000000000000000000000000000000000000000073ffffffffffffffffffffffffffffffffffffffff1673ffffffffffffffffffffffffffffffffffffffff1681526020019081526020016000205442610c879190613961565b90506000610c958583613024565b905060008186610ca59190613a40565b905060007f000000000000000000000000000000000000000000000000000000000000000073ffffffffffffffffffffffffffffffffffffffff1663a9059cbb33846040518363ffffffff1660e01b8152600401610d04929190613a74565b6020604051808303816000875af1158015610d23573d6000803e3d6000fd5b505050506040513d601f19601f82011682018060405250810190610d479190613a13565b905080610d80576040517fe64e62de00000000000000000000000000000000000000000000000000000000815260040160405180910390fd5b86600360003373ffffffffffffffffffffffffffffffffffffffff1673ffffffffffffffffffffffffffffffffffffffff16815260200190815260200160002060007f000000000000000000000000000000000000000000000000000000000000000073ffffffffffffffffffffffffffffffffffffffff1673ffffffffffffffffffffffffffffffffffffffff1681526020019081526020016000206000828254610e2c9190613961565b925050819055506000600360003373ffffffffffffffffffffffffffffffffffffffff1673ffffffffffffffffffffffffffffffffffffffff16815260200190815260200160002060007f000000000000000000000000000000000000000000000000000000000000000073ffffffffffffffffffffffffffffffffffffffff1673ffffffffffffffffffffffffffffffffffffffff1681526020019081526020016000205403610f7a576000600660003373ffffffffffffffffffffffffffffffffffffffff1673ffffffffffffffffffffffffffffffffffffffff16815260200190815260200160002060007f000000000000000000000000000000000000000000000000000000000000000073ffffffffffffffffffffffffffffffffffffffff1673ffffffffffffffffffffffffffffffffffffffff168152602001908152602001600020819055505b7f000000000000000000000000000000000000000000000000000000000000000073ffffffffffffffffffffffffffffffffffffffff163373ffffffffffffffffffffffffffffffffffffffff167f9b1bfa7fa9ee420a16e124f794c35ac9f90472acc99140eb2f6447c714cad8eb89604051610ff79190613743565b60405180910390a350505050505061100d612edf565b50565b600a81565b600581565b6000600660008373ffffffffffffffffffffffffffffffffffffffff1673ffffffffffffffffffffffffffffffffffffffff16815260200190815260200160002060007f000000000000000000000000000000000000000000000000000000000000000073ffffffffffffffffffffffffffffffffffffffff1673ffffffffffffffffffffffffffffffffffffffff168152602001908152602001600020549050919050565b6000806110cc83613066565b90506000600460008573ffffffffffffffffffffffffffffffffffffffff1673ffffffffffffffffffffffffffffffffffffffff16815260200190815260200160002060007f000000000000000000000000000000000000000000000000000000000000000073ffffffffffffffffffffffffffffffffffffffff1673ffffffffffffffffffffffffffffffffffffffff16815260200190815260200160002054905060008103611181578192505050611192565b808261118d9190613961565b925050505b919050565b6000806111a261313c565b905080670de0b6b3a7640000846111b99190613a9d565b6111c39190613b0e565b915050919050565b6060600180548060200260200160405190810160405280929190818152602001828054801561124f57602002820191906000526020600020905b8160009054906101000a900473ffffffffffffffffffffffffffffffffffffffff1673ffffffffffffffffffffffffffffffffffffffff1681526020019060010190808311611205575b5050505050905090565b60008061126583613066565b90506064604b826112769190613a9d565b6112809190613b0e565b915050919050565b605081565b600061129882613066565b9050919050565b60008060006112ad84613066565b90506000600460008673ffffffffffffffffffffffffffffffffffffffff1673ffffffffffffffffffffffffffffffffffffffff16815260200190815260200160002060007f000000000000000000000000000000000000000000000000000000000000000073ffffffffffffffffffffffffffffffffffffffff1673ffffffffffffffffffffffffffffffffffffffff1681526020019081526020016000205490506000810361136f57683635c9adc5dea0000060009350935050506113ba565b600060646050846113809190613a9d565b61138a9190613b0e565b9050600082670de0b6b3a7640000836113a39190613a9d565b6113ad9190613b0e565b9050808395509550505050505b915091565b6113c7612d11565b8060008111611402576040517f58f2468300000000000000000000000000000000000000000000000000000000815260040160405180910390fd5b60007f000000000000000000000000000000000000000000000000000000000000000073ffffffffffffffffffffffffffffffffffffffff166323b872dd3330866040518463ffffffff1660e01b8152600401611461939291906139a4565b6020604051808303816000875af1158015611480573d6000803e3d6000fd5b505050506040513d601f19601f820116820180604052508101906114a49190613a13565b9050806114dd576040517fe64e62de00000000000000000000000000000000000000000000000000000000815260040160405180910390fd5b82600360003373ffffffffffffffffffffffffffffffffffffffff1673ffffffffffffffffffffffffffffffffffffffff16815260200190815260200160002060007f000000000000000000000000000000000000000000000000000000000000000073ffffffffffffffffffffffffffffffffffffffff1673ffffffffffffffffffffffffffffffffffffffff16815260200190815260200160002060008282546115899190613a40565b9250508190555082600760007f000000000000000000000000000000000000000000000000000000000000000073ffffffffffffffffffffffffffffffffffffffff1673ffffffffffffffffffffffffffffffffffffffff16815260200190815260200160002060008282546115ff9190613a40565b9250508190555042600660003373ffffffffffffffffffffffffffffffffffffffff1673ffffffffffffffffffffffffffffffffffffffff16815260200190815260200160002060007f000000000000000000000000000000000000000000000000000000000000000073ffffffffffffffffffffffffffffffffffffffff1673ffffffffffffffffffffffffffffffffffffffff168152602001908152602001600020819055507f000000000000000000000000000000000000000000000000000000000000000073ffffffffffffffffffffffffffffffffffffffff163373ffffffffffffffffffffffffffffffffffffffff167f5548c837ab068cf56a2c2479df0882a4922fd203edb7517321831d95078c5f62856040516117249190613743565b60405180910390a35050611736612edf565b50565b6000600560008373ffffffffffffffffffffffffffffffffffffffff1673ffffffffffffffffffffffffffffffffffffffff16815260200190815260200160002060007f000000000000000000000000000000000000000000000000000000000000000073ffffffffffffffffffffffffffffffffffffffff1673ffffffffffffffffffffffffffffffffffffffff168152602001908152602001600020549050919050565b6117e7612d11565b8060008111611822576040517f58f2468300000000000000000000000000000000000000000000000000000000815260040160405180910390fd5b60007f000000000000000000000000000000000000000000000000000000000000000073ffffffffffffffffffffffffffffffffffffffff166323b872dd3330866040518463ffffffff1660e01b8152600401611881939291906139a4565b6020604051808303816000875af11580156118a0573d6000803e3d6000fd5b505050506040513d601f19601f820116820180604052508101906118c49190613a13565b9050806118fd576040517fe64e62de00000000000000000000000000000000000000000000000000000000815260040160405180910390fd5b82600560003373ffffffffffffffffffffffffffffffffffffffff1673ffffffffffffffffffffffffffffffffffffffff16815260200190815260200160002060007f000000000000000000000000000000000000000000000000000000000000000073ffffffffffffffffffffffffffffffffffffffff1673ffffffffffffffffffffffffffffffffffffffff16815260200190815260200160002060008282546119a99190613a40565b925050819055506000600560003373ffffffffffffffffffffffffffffffffffffffff1673ffffffffffffffffffffffffffffffffffffffff16815260200190815260200160002060007f000000000000000000000000000000000000000000000000000000000000000073ffffffffffffffffffffffffffffffffffffffff1673ffffffffffffffffffffffffffffffffffffffff168152602001908152602001600020541115611a5f57611a5e33613277565b5b7f000000000000000000000000000000000000000000000000000000000000000073ffffffffffffffffffffffffffffffffffffffff163373ffffffffffffffffffffffffffffffffffffffff167fef12f18e2b6578b91b3c852c423ca8ee530f65f20f770e62a7ce8aa08e1ab77785604051611adc9190613743565b60405180910390a35050611aee612edf565b50565b611af9612d11565b8060008111611b34576040517f58f2468300000000000000000000000000000000000000000000000000000000815260040160405180910390fd5b600080611b408561129f565b91509150670de0b6b3a76400008210611b85576040517f8bde3e8300000000000000000000000000000000000000000000000000000000815260040160405180910390fd5b6000818511611b945784611b96565b815b90506000611ba382611197565b9050600560008873ffffffffffffffffffffffffffffffffffffffff1673ffffffffffffffffffffffffffffffffffffffff16815260200190815260200160002060007f000000000000000000000000000000000000000000000000000000000000000073ffffffffffffffffffffffffffffffffffffffff1673ffffffffffffffffffffffffffffffffffffffff16815260200190815260200160002054811115611c7b576040517f6af290b100000000000000000000000000000000000000000000000000000000815260040160405180910390fd5b60006064600a83611c8c9190613a9d565b611c969190613b0e565b905060008183611ca69190613a40565b90508873ffffffffffffffffffffffffffffffffffffffff163373ffffffffffffffffffffffffffffffffffffffff1603611d0d576040517f8e04dcbb00000000000000000000000000000000000000000000000000000000815260040160405180910390fd5b83600460008b73ffffffffffffffffffffffffffffffffffffffff1673ffffffffffffffffffffffffffffffffffffffff16815260200190815260200160002060007f000000000000000000000000000000000000000000000000000000000000000073ffffffffffffffffffffffffffffffffffffffff1673ffffffffffffffffffffffffffffffffffffffff1681526020019081526020016000206000828254611db99190613961565b9250508190555082600560008b73ffffffffffffffffffffffffffffffffffffffff1673ffffffffffffffffffffffffffffffffffffffff16815260200190815260200160002060007f000000000000000000000000000000000000000000000000000000000000000073ffffffffffffffffffffffffffffffffffffffff1673ffffffffffffffffffffffffffffffffffffffff1681526020019081526020016000206000828254611e6c9190613961565b9250508190555060007f000000000000000000000000000000000000000000000000000000000000000073ffffffffffffffffffffffffffffffffffffffff166323b872dd3330886040518463ffffffff1660e01b8152600401611ed2939291906139a4565b6020604051808303816000875af1158015611ef1573d6000803e3d6000fd5b505050506040513d601f19601f82011682018060405250810190611f159190613a13565b905060007f000000000000000000000000000000000000000000000000000000000000000073ffffffffffffffffffffffffffffffffffffffff1663a9059cbb33856040518363ffffffff1660e01b8152600401611f74929190613a74565b6020604051808303816000875af1158015611f93573d6000803e3d6000fd5b505050506040513d601f19601f82011682018060405250810190611fb79190613a13565b9050811580611fc4575080155b15611ffb576040517fe64e62de00000000000000000000000000000000000000000000000000000000815260040160405180910390fd5b8a73ffffffffffffffffffffffffffffffffffffffff163373ffffffffffffffffffffffffffffffffffffffff167ff3fa0eaee8f258c23b013654df25d1527f98a5c7ccd5e951dd77caca400ef972888660405161205a9291906138c9565b60405180910390a3505050505050505050612073612edf565b5050565b61207f612d11565b80600081116120ba576040517f58f2468300000000000000000000000000000000000000000000000000000000815260040160405180910390fd5b6000600560003373ffffffffffffffffffffffffffffffffffffffff1673ffffffffffffffffffffffffffffffffffffffff16815260200190815260200160002060007f000000000000000000000000000000000000000000000000000000000000000073ffffffffffffffffffffffffffffffffffffffff1673ffffffffffffffffffffffffffffffffffffffff16815260200190815260200160002054905082811015612195576040517f663ca2f000000000000000000000000000000000000000000000000000000000815260040160405180910390fd5b82600560003373ffffffffffffffffffffffffffffffffffffffff1673ffffffffffffffffffffffffffffffffffffffff16815260200190815260200160002060007f000000000000000000000000000000000000000000000000000000000000000073ffffffffffffffffffffffffffffffffffffffff1673ffffffffffffffffffffffffffffffffffffffff16815260200190815260200160002060008282546122419190613961565b9250508190555060006122533361129f565b509050670de0b6b3a76400008110156122a357806040517f04697f3700000000000000000000000000000000000000000000000000000000815260040161229a9190613743565b60405180910390fd5b6000600560003373ffffffffffffffffffffffffffffffffffffffff1673ffffffffffffffffffffffffffffffffffffffff16815260200190815260200160002060007f000000000000000000000000000000000000000000000000000000000000000073ffffffffffffffffffffffffffffffffffffffff1673ffffffffffffffffffffffffffffffffffffffff16815260200190815260200160002054036123515761235033613373565b5b60007f000000000000000000000000000000000000000000000000000000000000000073ffffffffffffffffffffffffffffffffffffffff1663a9059cbb33876040518363ffffffff1660e01b81526004016123ae929190613a74565b6020604051808303816000875af11580156123cd573d6000803e3d6000fd5b505050506040513d601f19601f820116820180604052508101906123f19190613a13565b90508061242a576040517fe64e62de00000000000000000000000000000000000000000000000000000000815260040160405180910390fd5b7f000000000000000000000000000000000000000000000000000000000000000073ffffffffffffffffffffffffffffffffffffffff163373ffffffffffffffffffffffffffffffffffffffff167fc994feb9b99296d80965b47aec6be0d25704ddf95b9b9bc1ed8bc753960d5809876040516124a79190613743565b60405180910390a3505050506124bb612edf565b50565b6000600760007f000000000000000000000000000000000000000000000000000000000000000073ffffffffffffffffffffffffffffffffffffffff1673ffffffffffffffffffffffffffffffffffffffff16815260200190815260200160002054905090565b6000600360008373ffffffffffffffffffffffffffffffffffffffff1673ffffffffffffffffffffffffffffffffffffffff16815260200190815260200160002060007f000000000000000000000000000000000000000000000000000000000000000073ffffffffffffffffffffffffffffffffffffffff1673ffffffffffffffffffffffffffffffffffffffff168152602001908152602001600020549050919050565b6301e1338081565b6125db612d11565b8060008111612616576040517f58f2468300000000000000000000000000000000000000000000000000000000815260040160405180910390fd5b600061262133611259565b90506000600460003373ffffffffffffffffffffffffffffffffffffffff1673ffffffffffffffffffffffffffffffffffffffff16815260200190815260200160002060007f000000000000000000000000000000000000000000000000000000000000000073ffffffffffffffffffffffffffffffffffffffff1673ffffffffffffffffffffffffffffffffffffffff168152602001908152602001600020549050600084826126d29190613a40565b90508083101561270e576040517f663ca2f000000000000000000000000000000000000000000000000000000000815260040160405180910390fd5b80600460003373ffffffffffffffffffffffffffffffffffffffff1673ffffffffffffffffffffffffffffffffffffffff16815260200190815260200160002060007f000000000000000000000000000000000000000000000000000000000000000073ffffffffffffffffffffffffffffffffffffffff1673ffffffffffffffffffffffffffffffffffffffff1681526020019081526020016000208190555060006127ba3361129f565b509050670de0b6b3a764000081101561280a57806040517f04697f370000000000000000000000000000000000000000000000000000000081526004016128019190613743565b60405180910390fd5b6000600460003373ffffffffffffffffffffffffffffffffffffffff1673ffffffffffffffffffffffffffffffffffffffff16815260200190815260200160002060007f000000000000000000000000000000000000000000000000000000000000000073ffffffffffffffffffffffffffffffffffffffff1673ffffffffffffffffffffffffffffffffffffffff1681526020019081526020016000205411156128b9576128b8336134fd565b5b60007f000000000000000000000000000000000000000000000000000000000000000073ffffffffffffffffffffffffffffffffffffffff1663a9059cbb33896040518363ffffffff1660e01b8152600401612916929190613a74565b6020604051808303816000875af1158015612935573d6000803e3d6000fd5b505050506040513d601f19601f820116820180604052508101906129599190613a13565b905080612992576040517fe64e62de00000000000000000000000000000000000000000000000000000000815260040160405180910390fd5b7f000000000000000000000000000000000000000000000000000000000000000073ffffffffffffffffffffffffffffffffffffffff163373ffffffffffffffffffffffffffffffffffffffff167f312a5e5e1079f5dda4e95dbbd0b908b291fd5b992ef22073643ab691572c5b5289604051612a0f9190613743565b60405180910390a3505050505050612a25612edf565b50565b600080612a3483611259565b90506000600460008573ffffffffffffffffffffffffffffffffffffffff1673ffffffffffffffffffffffffffffffffffffffff16815260200190815260200160002060007f000000000000000000000000000000000000000000000000000000000000000073ffffffffffffffffffffffffffffffffffffffff1673ffffffffffffffffffffffffffffffffffffffff1681526020019081526020016000205490508082612ae39190613961565b92505050919050565b600080600090506000612afd6111cb565b905060005b8151811015612bdc5760046000838381518110612b2257612b21613b3f565b5b602002602001015173ffffffffffffffffffffffffffffffffffffffff1673ffffffffffffffffffffffffffffffffffffffff16815260200190815260200160002060007f000000000000000000000000000000000000000000000000000000000000000073ffffffffffffffffffffffffffffffffffffffff1673ffffffffffffffffffffffffffffffffffffffff1681526020019081526020016000205483612bcd9190613a40565b92508080600101915050612b02565b50819250505090565b600080600090506000612bf6610a31565b905060005b8151811015612c4157612c27828281518110612c1a57612c19613b3f565b5b6020026020010151613066565b83612c329190613a40565b92508080600101915050612bfb565b50819250505090565b6000612c55826135f9565b9050919050565b6000612c6661313c565b905090565b6000600460008373ffffffffffffffffffffffffffffffffffffffff1673ffffffffffffffffffffffffffffffffffffffff16815260200190815260200160002060007f000000000000000000000000000000000000000000000000000000000000000073ffffffffffffffffffffffffffffffffffffffff1673ffffffffffffffffffffffffffffffffffffffff168152602001908152602001600020549050919050565b600260005403612d4d576040517f3ee5aeb500000000000000000000000000000000000000000000000000000000815260040160405180910390fd5b6002600081905550565b60005b600180549050811015612edb578173ffffffffffffffffffffffffffffffffffffffff1660018281548110612d9257612d91613b3f565b5b9060005260206000200160009054906101000a900473ffffffffffffffffffffffffffffffffffffffff1673ffffffffffffffffffffffffffffffffffffffff1603612ece576001808080549050612dea9190613961565b81548110612dfb57612dfa613b3f565b5b9060005260206000200160009054906101000a900473ffffffffffffffffffffffffffffffffffffffff1660018281548110612e3a57612e39613b3f565b5b9060005260206000200160006101000a81548173ffffffffffffffffffffffffffffffffffffffff021916908373ffffffffffffffffffffffffffffffffffffffff1602179055506001805480612e9457612e93613b6e565b5b6001900381819060005260206000200160006101000a81549073ffffffffffffffffffffffffffffffffffffffff02191690559055612edb565b8080600101915050612d5a565b5050565b6001600081905550565b600080600960007f000000000000000000000000000000000000000000000000000000000000000073ffffffffffffffffffffffffffffffffffffffff1673ffffffffffffffffffffffffffffffffffffffff16815260200190815260200160002060009054906101000a900473ffffffffffffffffffffffffffffffffffffffff169050600081905060008173ffffffffffffffffffffffffffffffffffffffff1673__$9037b2fcd2753f718e08d07444b301ed88$__632b8d062190916040518263ffffffff1660e01b8152600401612fc49190613bfc565b60a060405180830381865af4158015612fe1573d6000803e3d6000fd5b505050506040513d601f19601f820116820180604052508101906130059190613ca4565b5050509150506402540be4008161301c9190613a9d565b935050505090565b60008060646301e133808460058761303c9190613a9d565b6130469190613a9d565b6130509190613b0e565b61305a9190613b0e565b90508091505092915050565b600080600560008473ffffffffffffffffffffffffffffffffffffffff1673ffffffffffffffffffffffffffffffffffffffff16815260200190815260200160002060007f000000000000000000000000000000000000000000000000000000000000000073ffffffffffffffffffffffffffffffffffffffff1673ffffffffffffffffffffffffffffffffffffffff168152602001908152602001600020549050600061311261313c565b9050670de0b6b3a764000081836131299190613a9d565b6131339190613b0e565b92505050919050565b600080600860007f000000000000000000000000000000000000000000000000000000000000000073ffffffffffffffffffffffffffffffffffffffff1673ffffffffffffffffffffffffffffffffffffffff16815260200190815260200160002060009054906101000a900473ffffffffffffffffffffffffffffffffffffffff169050600081905060008173ffffffffffffffffffffffffffffffffffffffff1673__$9037b2fcd2753f718e08d07444b301ed88$__632b8d062190916040518263ffffffff1660e01b81526004016132179190613bfc565b60a060405180830381865af4158015613234573d6000803e3d6000fd5b505050506040513d601f19601f820116820180604052508101906132589190613ca4565b5050509150506402540be4008161326f9190613a9d565b935050505090565b60005b60028054905081101561330b578173ffffffffffffffffffffffffffffffffffffffff16600282815481106132b2576132b1613b3f565b5b9060005260206000200160009054906101000a900473ffffffffffffffffffffffffffffffffffffffff1673ffffffffffffffffffffffffffffffffffffffff16036132fe5750613370565b808060010191505061327a565b506002819080600181540180825580915050600190039060005260206000200160009091909190916101000a81548173ffffffffffffffffffffffffffffffffffffffff021916908373ffffffffffffffffffffffffffffffffffffffff1602179055505b50565b60005b6002805490508110156134f9578173ffffffffffffffffffffffffffffffffffffffff16600282815481106133ae576133ad613b3f565b5b9060005260206000200160009054906101000a900473ffffffffffffffffffffffffffffffffffffffff1673ffffffffffffffffffffffffffffffffffffffff16036134ec57600260016002805490506134089190613961565b8154811061341957613418613b3f565b5b9060005260206000200160009054906101000a900473ffffffffffffffffffffffffffffffffffffffff166002828154811061345857613457613b3f565b5b9060005260206000200160006101000a81548173ffffffffffffffffffffffffffffffffffffffff021916908373ffffffffffffffffffffffffffffffffffffffff16021790555060028054806134b2576134b1613b6e565b5b6001900381819060005260206000200160006101000a81549073ffffffffffffffffffffffffffffffffffffffff021916905590556134f9565b8080600101915050613376565b5050565b60005b600180549050811015613591578173ffffffffffffffffffffffffffffffffffffffff166001828154811061353857613537613b3f565b5b9060005260206000200160009054906101000a900473ffffffffffffffffffffffffffffffffffffffff1673ffffffffffffffffffffffffffffffffffffffff160361358457506135f6565b8080600101915050613500565b506001819080600181540180825580915050600190039060005260206000200160009091909190916101000a81548173ffffffffffffffffffffffffffffffffffffffff021916908373ffffffffffffffffffffffffffffffffffffffff1602179055505b50565b6000807f000000000000000000000000000000000000000000000000000000000000000073ffffffffffffffffffffffffffffffffffffffff166370a08231846040518263ffffffff1660e01b81526004016136559190613d1f565b602060405180830381865afa158015613672573d6000803e3d6000fd5b505050506040513d601f19601f820116820180604052508101906136969190613d3a565b905060006136a261313c565b9050670de0b6b3a764000081836136b99190613a9d565b6136c39190613b0e565b92505050919050565b600080fd5b6000819050919050565b6136e4816136d1565b81146136ef57600080fd5b50565b600081359050613701816136db565b92915050565b60006020828403121561371d5761371c6136cc565b5b600061372b848285016136f2565b91505092915050565b61373d816136d1565b82525050565b60006020820190506137586000830184613734565b92915050565b600081519050919050565b600082825260208201905092915050565b6000819050602082019050919050565b600073ffffffffffffffffffffffffffffffffffffffff82169050919050565b60006137b58261378a565b9050919050565b6137c5816137aa565b82525050565b60006137d783836137bc565b60208301905092915050565b6000602082019050919050565b60006137fb8261375e565b6138058185613769565b93506138108361377a565b8060005b8381101561384157815161382888826137cb565b9750613833836137e3565b925050600181019050613814565b5085935050505092915050565b6000602082019050818103600083015261386881846137f0565b905092915050565b613879816137aa565b811461388457600080fd5b50565b60008135905061389681613870565b92915050565b6000602082840312156138b2576138b16136cc565b5b60006138c084828501613887565b91505092915050565b60006040820190506138de6000830185613734565b6138eb6020830184613734565b9392505050565b60008060408385031215613909576139086136cc565b5b600061391785828601613887565b9250506020613928858286016136f2565b9150509250929050565b7f4e487b7100000000000000000000000000000000000000000000000000000000600052601160045260246000fd5b600061396c826136d1565b9150613977836136d1565b925082820390508181111561398f5761398e613932565b5b92915050565b61399e816137aa565b82525050565b60006060820190506139b96000830186613995565b6139c66020830185613995565b6139d36040830184613734565b949350505050565b60008115159050919050565b6139f0816139db565b81146139fb57600080fd5b50565b600081519050613a0d816139e7565b92915050565b600060208284031215613a2957613a286136cc565b5b6000613a37848285016139fe565b91505092915050565b6000613a4b826136d1565b9150613a56836136d1565b9250828201905080821115613a6e57613a6d613932565b5b92915050565b6000604082019050613a896000830185613995565b613a966020830184613734565b9392505050565b6000613aa8826136d1565b9150613ab3836136d1565b9250828202613ac1816136d1565b91508282048414831517613ad857613ad7613932565b5b5092915050565b7f4e487b7100000000000000000000000000000000000000000000000000000000600052601260045260246000fd5b6000613b19826136d1565b9150613b24836136d1565b925082613b3457613b33613adf565b5b828204905092915050565b7f4e487b7100000000000000000000000000000000000000000000000000000000600052603260045260246000fd5b7f4e487b7100000000000000000000000000000000000000000000000000000000600052603160045260246000fd5b6000819050919050565b6000613bc2613bbd613bb88461378a565b613b9d565b61378a565b9050919050565b6000613bd482613ba7565b9050919050565b6000613be682613bc9565b9050919050565b613bf681613bdb565b82525050565b6000602082019050613c116000830184613bed565b92915050565b600069ffffffffffffffffffff82169050919050565b613c3681613c17565b8114613c4157600080fd5b50565b600081519050613c5381613c2d565b92915050565b6000819050919050565b613c6c81613c59565b8114613c7757600080fd5b50565b600081519050613c8981613c63565b92915050565b600081519050613c9e816136db565b92915050565b600080600080600060a08688031215613cc057613cbf6136cc565b5b6000613cce88828901613c44565b9550506020613cdf88828901613c7a565b9450506040613cf088828901613c8f565b9350506060613d0188828901613c8f565b9250506080613d1288828901613c44565b9150509295509295909350565b6000602082019050613d346000830184613995565b92915050565b600060208284031215613d5057613d4f6136cc565b5b6000613d5e84828501613c8f565b9150509291505056fea2646970667358221220cf0e6f1151dd4328e2ed9687ee6f964b9df6a50599b8c7fee71702e563a797b664736f6c634300081b0033",
  "linkReferences": {
    "contracts/libraries/OracleLib.sol": {
      "OracleLib": [
        {
          "length": 20,
          "start": 13229
        },
        {
          "length": 20,
          "start": 13824
        }
      ]
    }
  },
  "deployedLinkReferences": {
    "contracts/libraries/OracleLib.sol": {
      "OracleLib": [
        {
          "length": 20,
          "start": 12174
        },
        {
          "length": 20,
          "start": 12769
        }
      ]
    }
  }
}