{
  "_format": "hh-sol-artifact-1",
  "contractName": "LendingBorrowingV3",
  "sourceName": "contracts/LendingBorrowingV3.sol",
  "abi": [
    {
      "inputs": [
        {
          "internalType": "address",
          "name": "_daiToken",
          "type": "address"
        },
        {
          "internalType": "address",
          "name": "_collateralToken",
          "type": "address"
        },
        {
          "internalType": "contract PriceFeedAdapter",
          "name": "_collateralPriceFeed",
          "type": "address"
        },
        {
          "internalType": "contract PriceFeedAdapter",
          "name": "_daiPriceFeed",
          "type": "address"
        }
      ],
      "stateMutability": "nonpayable",
      "type": "constructor"
    },
    {
      "inputs": [],
      "name": "LendingBorrowing__ApprovalFailed",
      "type": "error"
    },
    {
      "inputs": [
        {
          "internalType": "uint256",
          "name": "",
          "type": "uint256"
        }
      ],
      "name": "LendingBorrowing__HealthFactorIsBroken",
      "type": "error"
    },
    {
      "inputs": [],
      "name": "LendingBorrowing__HealthFactorIsNotBroken",
      "type": "error"
    },
    {
      "inputs": [],
      "name": "LendingBorrowing__InsufficientBalance",
      "type": "error"
    },
    {
      "inputs": [],
      "name": "LendingBorrowing__InsufficientCollateral",
      "type": "error"
    },
    {
      "inputs": [],
      "name": "LendingBorrowing__InsufficientLiquidity",
      "type": "error"
    },
    {
      "inputs": [],
      "name": "LendingBorrowing__MustGreaterThanZero",
      "type": "error"
    },
    {
      "inputs": [],
      "name": "LendingBorrowing__NotEnoughCollateral",
      "type": "error"
    },
    {
      "inputs": [],
      "name": "LendingBorrowing__TransferFailed",
      "type": "error"
    },
    {
      "inputs": [],
      "name": "LendingBorrowing__UserCannotLiquidateHimself",
      "type": "error"
    },
    {
      "inputs": [],
      "name": "ReentrancyGuardReentrantCall",
      "type": "error"
    },
    {
      "anonymous": false,
      "inputs": [
        {
          "indexed": true,
          "internalType": "address",
          "name": "user",
          "type": "address"
        },
        {
          "indexed": true,
          "internalType": "address",
          "name": "token",
          "type": "address"
        },
        {
          "indexed": false,
          "internalType": "uint256",
          "name": "amount",
          "type": "uint256"
        }
      ],
      "name": "Borrow",
      "type": "event"
    },
    {
      "anonymous": false,
      "inputs": [
        {
          "indexed": true,
          "internalType": "address",
          "name": "user",
          "type": "address"
        },
        {
          "indexed": true,
          "internalType": "address",
          "name": "token",
          "type": "address"
        },
        {
          "indexed": false,
          "internalType": "uint256",
          "name": "amount",
          "type": "uint256"
        }
      ],
      "name": "Deposit",
      "type": "event"
    },
    {
      "anonymous": false,
      "inputs": [
        {
          "indexed": true,
          "internalType": "address",
          "name": "user",
          "type": "address"
        },
        {
          "indexed": true,
          "internalType": "address",
          "name": "token",
          "type": "address"
        },
        {
          "indexed": false,
          "internalType": "uint256",
          "name": "amount",
          "type": "uint256"
        }
      ],
      "name": "DepositCollateral",
      "type": "event"
    },
    {
      "anonymous": false,
      "inputs": [
        {
          "indexed": true,
          "internalType": "address",
          "name": "liquidator",
          "type": "address"
        },
        {
          "indexed": true,
          "internalType": "address",
          "name": "borrower",
          "type": "address"
        },
        {
          "indexed": false,
          "internalType": "uint256",
          "name": "amountToLiquidate",
          "type": "uint256"
        },
        {
          "indexed": false,
          "internalType": "uint256",
          "name": "totalCollateralToLiquidate",
          "type": "uint256"
        }
      ],
      "name": "Liquidate",
      "type": "event"
    },
    {
      "anonymous": false,
      "inputs": [
        {
          "indexed": true,
          "internalType": "address",
          "name": "user",
          "type": "address"
        },
        {
          "indexed": true,
          "internalType": "address",
          "name": "token",
          "type": "address"
        },
        {
          "indexed": false,
          "internalType": "uint256",
          "name": "amount",
          "type": "uint256"
        }
      ],
      "name": "RedeemCollateral",
      "type": "event"
    },
    {
      "anonymous": false,
      "inputs": [
        {
          "indexed": true,
          "internalType": "address",
          "name": "user",
          "type": "address"
        },
        {
          "indexed": true,
          "internalType": "address",
          "name": "token",
          "type": "address"
        },
        {
          "indexed": false,
          "internalType": "uint256",
          "name": "amount",
          "type": "uint256"
        }
      ],
      "name": "Repay",
      "type": "event"
    },
    {
      "anonymous": false,
      "inputs": [
        {
          "indexed": true,
          "internalType": "address",
          "name": "user",
          "type": "address"
        },
        {
          "indexed": true,
          "internalType": "address",
          "name": "token",
          "type": "address"
        },
        {
          "indexed": false,
          "internalType": "uint256",
          "name": "amount",
          "type": "uint256"
        }
      ],
      "name": "Withdraw",
      "type": "event"
    },
    {
      "inputs": [],
      "name": "COLLATERAL_FACTOR",
      "outputs": [
        {
          "internalType": "uint256",
          "name": "",
          "type": "uint256"
        }
      ],
      "stateMutability": "view",
      "type": "function"
    },
    {
      "inputs": [],
      "name": "INTEREST_RATE",
      "outputs": [
        {
          "internalType": "uint256",
          "name": "",
          "type": "uint256"
        }
      ],
      "stateMutability": "view",
      "type": "function"
    },
    {
      "inputs": [],
      "name": "LIQUIDATION_BONUS",
      "outputs": [
        {
          "internalType": "uint256",
          "name": "",
          "type": "uint256"
        }
      ],
      "stateMutability": "view",
      "type": "function"
    },
    {
      "inputs": [],
      "name": "LIQUIDATION_THRESHOLD",
      "outputs": [
        {
          "internalType": "uint256",
          "name": "",
          "type": "uint256"
        }
      ],
      "stateMutability": "view",
      "type": "function"
    },
    {
      "inputs": [],
      "name": "SECONDS_IN_A_YEAR",
      "outputs": [
        {
          "internalType": "uint256",
          "name": "",
          "type": "uint256"
        }
      ],
      "stateMutability": "view",
      "type": "function"
    },
    {
      "inputs": [
        {
          "internalType": "uint256",
          "name": "_amount",
          "type": "uint256"
        }
      ],
      "name": "borrow",
      "outputs": [],
      "stateMutability": "nonpayable",
      "type": "function"
    },
    {
      "inputs": [
        {
          "internalType": "address",
          "name": "_user",
          "type": "address"
        }
      ],
      "name": "calculateAvailableBorrow",
      "outputs": [
        {
          "internalType": "uint256",
          "name": "",
          "type": "uint256"
        }
      ],
      "stateMutability": "view",
      "type": "function"
    },
    {
      "inputs": [
        {
          "internalType": "address",
          "name": "_user",
          "type": "address"
        }
      ],
      "name": "calculateHealthFactor",
      "outputs": [
        {
          "internalType": "uint256",
          "name": "",
          "type": "uint256"
        },
        {
          "internalType": "uint256",
          "name": "",
          "type": "uint256"
        }
      ],
      "stateMutability": "view",
      "type": "function"
    },
    {
      "inputs": [
        {
          "internalType": "address",
          "name": "_user",
          "type": "address"
        }
      ],
      "name": "calculateNetWorth",
      "outputs": [
        {
          "internalType": "uint256",
          "name": "",
          "type": "uint256"
        }
      ],
      "stateMutability": "view",
      "type": "function"
    },
    {
      "inputs": [
        {
          "internalType": "uint256",
          "name": "_amount",
          "type": "uint256"
        }
      ],
      "name": "deposit",
      "outputs": [],
      "stateMutability": "nonpayable",
      "type": "function"
    },
    {
      "inputs": [
        {
          "internalType": "uint256",
          "name": "_amount",
          "type": "uint256"
        }
      ],
      "name": "depositCollateral",
      "outputs": [],
      "stateMutability": "nonpayable",
      "type": "function"
    },
    {
      "inputs": [
        {
          "internalType": "address",
          "name": "_user",
          "type": "address"
        }
      ],
      "name": "getBorrowLimit",
      "outputs": [
        {
          "internalType": "uint256",
          "name": "",
          "type": "uint256"
        }
      ],
      "stateMutability": "view",
      "type": "function"
    },
    {
      "inputs": [],
      "name": "getBorrowers",
      "outputs": [
        {
          "internalType": "address[]",
          "name": "",
          "type": "address[]"
        }
      ],
      "stateMutability": "view",
      "type": "function"
    },
    {
      "inputs": [],
      "name": "getCollateralDepositors",
      "outputs": [
        {
          "internalType": "address[]",
          "name": "",
          "type": "address[]"
        }
      ],
      "stateMutability": "view",
      "type": "function"
    },
    {
      "inputs": [],
      "name": "getCollateralPrice",
      "outputs": [
        {
          "internalType": "uint256",
          "name": "",
          "type": "uint256"
        }
      ],
      "stateMutability": "view",
      "type": "function"
    },
    {
      "inputs": [
        {
          "internalType": "uint256",
          "name": "_daiAmount",
          "type": "uint256"
        }
      ],
      "name": "getCollateralTokenAmountFromDai",
      "outputs": [
        {
          "internalType": "uint256",
          "name": "",
          "type": "uint256"
        }
      ],
      "stateMutability": "view",
      "type": "function"
    },
    {
      "inputs": [
        {
          "internalType": "address",
          "name": "_user",
          "type": "address"
        }
      ],
      "name": "getCollateralValue",
      "outputs": [
        {
          "internalType": "uint256",
          "name": "",
          "type": "uint256"
        }
      ],
      "stateMutability": "view",
      "type": "function"
    },
    {
      "inputs": [
        {
          "internalType": "address",
          "name": "_user",
          "type": "address"
        }
      ],
      "name": "getCollateralWalletValue",
      "outputs": [
        {
          "internalType": "uint256",
          "name": "",
          "type": "uint256"
        }
      ],
      "stateMutability": "view",
      "type": "function"
    },
    {
      "inputs": [],
      "name": "getDaiPrice",
      "outputs": [
        {
          "internalType": "uint256",
          "name": "",
          "type": "uint256"
        }
      ],
      "stateMutability": "view",
      "type": "function"
    },
    {
      "inputs": [],
      "name": "getTotalBorrows",
      "outputs": [
        {
          "internalType": "uint256",
          "name": "",
          "type": "uint256"
        }
      ],
      "stateMutability": "view",
      "type": "function"
    },
    {
      "inputs": [],
      "name": "getTotalCollateralValue",
      "outputs": [
        {
          "internalType": "uint256",
          "name": "",
          "type": "uint256"
        }
      ],
      "stateMutability": "view",
      "type": "function"
    },
    {
      "inputs": [],
      "name": "getTotalDeposit",
      "outputs": [
        {
          "internalType": "uint256",
          "name": "",
          "type": "uint256"
        }
      ],
      "stateMutability": "view",
      "type": "function"
    },
    {
      "inputs": [
        {
          "internalType": "address",
          "name": "user",
          "type": "address"
        }
      ],
      "name": "getUserBorrow",
      "outputs": [
        {
          "internalType": "uint256",
          "name": "",
          "type": "uint256"
        }
      ],
      "stateMutability": "view",
      "type": "function"
    },
    {
      "inputs": [
        {
          "internalType": "address",
          "name": "user",
          "type": "address"
        }
      ],
      "name": "getUserCollateral",
      "outputs": [
        {
          "internalType": "uint256",
          "name": "",
          "type": "uint256"
        }
      ],
      "stateMutability": "view",
      "type": "function"
    },
    {
      "inputs": [
        {
          "internalType": "address",
          "name": "user",
          "type": "address"
        }
      ],
      "name": "getUserDeposit",
      "outputs": [
        {
          "internalType": "uint256",
          "name": "",
          "type": "uint256"
        }
      ],
      "stateMutability": "view",
      "type": "function"
    },
    {
      "inputs": [
        {
          "internalType": "address",
          "name": "user",
          "type": "address"
        }
      ],
      "name": "getUserTimestamp",
      "outputs": [
        {
          "internalType": "uint256",
          "name": "",
          "type": "uint256"
        }
      ],
      "stateMutability": "view",
      "type": "function"
    },
    {
      "inputs": [
        {
          "internalType": "address",
          "name": "_borrower",
          "type": "address"
        },
        {
          "internalType": "uint256",
          "name": "_debtToCover",
          "type": "uint256"
        }
      ],
      "name": "liquidate",
      "outputs": [],
      "stateMutability": "nonpayable",
      "type": "function"
    },
    {
      "inputs": [
        {
          "internalType": "uint256",
          "name": "_amount",
          "type": "uint256"
        }
      ],
      "name": "redeemCollateral",
      "outputs": [],
      "stateMutability": "nonpayable",
      "type": "function"
    },
    {
      "inputs": [
        {
          "internalType": "uint256",
          "name": "_amount",
          "type": "uint256"
        }
      ],
      "name": "repayBorrow",
      "outputs": [],
      "stateMutability": "nonpayable",
      "type": "function"
    },
    {
      "inputs": [
        {
          "internalType": "uint256",
          "name": "_amount",
          "type": "uint256"
        }
      ],
      "name": "withdraw",
      "outputs": [],
      "stateMutability": "nonpayable",
      "type": "function"
    }
  ],
  "bytecode": "0x60c060405234801561001057600080fd5b506040516148bb3803806148bb8339818101604052810190610032919061024a565b60016000819055508373ffffffffffffffffffffffffffffffffffffffff1660808173ffffffffffffffffffffffffffffffffffffffff16815250508273ffffffffffffffffffffffffffffffffffffffff1660a08173ffffffffffffffffffffffffffffffffffffffff168152505081600860008573ffffffffffffffffffffffffffffffffffffffff1673ffffffffffffffffffffffffffffffffffffffff16815260200190815260200160002060006101000a81548173ffffffffffffffffffffffffffffffffffffffff021916908373ffffffffffffffffffffffffffffffffffffffff160217905550806009600060805173ffffffffffffffffffffffffffffffffffffffff1673ffffffffffffffffffffffffffffffffffffffff16815260200190815260200160002060006101000a81548173ffffffffffffffffffffffffffffffffffffffff021916908373ffffffffffffffffffffffffffffffffffffffff160217905550505050506102b1565b600080fd5b600073ffffffffffffffffffffffffffffffffffffffff82169050919050565b60006101d9826101ae565b9050919050565b6101e9816101ce565b81146101f457600080fd5b50565b600081519050610206816101e0565b92915050565b6000610217826101ce565b9050919050565b6102278161020c565b811461023257600080fd5b50565b6000815190506102448161021e565b92915050565b60008060008060808587031215610264576102636101a9565b5b6000610272878288016101f7565b9450506020610283878288016101f7565b935050604061029487828801610235565b92505060606102a587828801610235565b91505092959194509250565b60805160a05161445d61045e60003960008181611a7901528181611b2101528181611bf801528181611d1301528181611dc701528181611e3301528181611fba015281816121d60152818161238d0152818161242d01528181612611015281816126eb015281816127fa015281816128670152818161293e01528181612a150152818161376c015281816138050152613cbe0152600081816106a40152818161079101528181610845015281816108b20152818161098901528181610a6201528181610c1e01528181610cf901528181610d8201528181610e5901528181610f7201528181610fe80152818161109c01528181611140015281816111a00152818161128301528181611337015281816115180152818161162a015281816117010152818161181c0152818161189201528181611945015281816119a40152818161212301528181612249015281816122e901528181612aaf01528181612b5301528181612c5101528181612d3b01528181612e3801528181612ea601528181612f7d015281816130540152818161313b015281816132280152818161337001526135b2015261445d6000f3fe608060405234801561001057600080fd5b50600436106101da5760003560e01c8063b6b55f2511610104578063c4fa17a4116100a2578063ed6493af11610071578063ed6493af14610580578063ee31d43f1461059e578063f7683bbc146105ce578063fc2e93b5146105ec576101da565b8063c4fa17a4146104f8578063c5ebeaec14610516578063c671922c14610532578063cc484c5c14610562576101da565b8063bcbaf487116100de578063bcbaf48714610472578063bd37b7751461048e578063c022215c146104aa578063c084b10b146104c8576101da565b8063b6b55f251461040a578063b6f7132f14610426578063bad4a01f14610456576101da565b80635e0bd7691161017c5780637c17d2371161014b5780637c17d2371461035b57806390a8ae9b1461038b57806397904e42146103a95780639ce625f7146103d9576101da565b80635e0bd769146102ad5780635e5c83b4146102dd57806364c151961461030d5780636854786a1461033d576101da565b80632957cb77116101b85780632957cb77146102375780632e1a7d4d146102555780633574d4c4146102715780635b72a33a1461028f576101da565b80630e752702146101df57806317f49e05146101fb5780632649aa1614610219575b600080fd5b6101f960048036038101906101f49190613dc7565b61061c565b005b610203610af4565b6040516102109190613e03565b60405180910390f35b610221610af9565b60405161022e9190613e03565b60405180910390f35b61023f610b08565b60405161024c9190613f0e565b60405180910390f35b61026f600480360381019061026a9190613dc7565b610b96565b005b610279611234565b6040516102869190613e03565b60405180910390f35b610297611239565b6040516102a49190613e03565b60405180910390f35b6102c760048036038101906102c29190613f5c565b61123e565b6040516102d49190613e03565b60405180910390f35b6102f760048036038101906102f29190613f5c565b6112e4565b6040516103049190613e03565b60405180910390f35b61032760048036038101906103229190613dc7565b6113bb565b6040516103349190613e03565b60405180910390f35b6103456113ef565b6040516103529190613f0e565b60405180910390f35b61037560048036038101906103709190613f5c565b61147d565b6040516103829190613e03565b60405180910390f35b6103936114ac565b6040516103a09190613e03565b60405180910390f35b6103c360048036038101906103be9190613f5c565b6114b1565b6040516103d09190613e03565b60405180910390f35b6103f360048036038101906103ee9190613f5c565b6114c3565b604051610401929190613f89565b60405180910390f35b610424600480360381019061041f9190613dc7565b6115e3565b005b610440600480360381019061043b9190613f5c565b611a34565b60405161044d9190613e03565b60405180910390f35b610470600480360381019061046b9190613dc7565b611ada565b005b61048c60048036038101906104879190613fb2565b611ec3565b005b6104a860048036038101906104a39190613dc7565b612589565b005b6104b2612aa7565b6040516104bf9190613e03565b60405180910390f35b6104e260048036038101906104dd9190613f5c565b612b0e565b6040516104ef9190613e03565b60405180910390f35b610500612bb4565b60405161050d9190613e03565b60405180910390f35b610530600480360381019061052b9190613dc7565b612bbc565b005b61054c60048036038101906105479190613f5c565b6130e8565b6040516105599190613e03565b60405180910390f35b61056a6131ac565b6040516105779190613e03565b60405180910390f35b6105886132a5565b6040516105959190613e03565b60405180910390f35b6105b860048036038101906105b39190613f5c565b61330a565b6040516105c59190613e03565b60405180910390f35b6105d661331c565b6040516105e39190613e03565b60405180910390f35b61060660048036038101906106019190613f5c565b61332b565b6040516106139190613e03565b60405180910390f35b6106246133d1565b806000811161065f576040517f58f2468300000000000000000000000000000000000000000000000000000000815260040160405180910390fd5b6000600460003373ffffffffffffffffffffffffffffffffffffffff1673ffffffffffffffffffffffffffffffffffffffff16815260200190815260200160002060007f000000000000000000000000000000000000000000000000000000000000000073ffffffffffffffffffffffffffffffffffffffff1673ffffffffffffffffffffffffffffffffffffffff1681526020019081526020016000205490508083111561073a576040517f89148a5500000000000000000000000000000000000000000000000000000000815260040160405180910390fd5b6000818411610749578361074b565b815b905080600460003373ffffffffffffffffffffffffffffffffffffffff1673ffffffffffffffffffffffffffffffffffffffff16815260200190815260200160002060007f000000000000000000000000000000000000000000000000000000000000000073ffffffffffffffffffffffffffffffffffffffff1673ffffffffffffffffffffffffffffffffffffffff16815260200190815260200160002060008282546107f99190614021565b925050819055506000600460003373ffffffffffffffffffffffffffffffffffffffff1673ffffffffffffffffffffffffffffffffffffffff16815260200190815260200160002060007f000000000000000000000000000000000000000000000000000000000000000073ffffffffffffffffffffffffffffffffffffffff1673ffffffffffffffffffffffffffffffffffffffff16815260200190815260200160002054036108ae576108ad33613417565b5b60007f000000000000000000000000000000000000000000000000000000000000000073ffffffffffffffffffffffffffffffffffffffff1663095ea7b330846040518363ffffffff1660e01b815260040161090b929190614064565b6020604051808303816000875af115801561092a573d6000803e3d6000fd5b505050506040513d601f19601f8201168201806040525081019061094e91906140c5565b905080610987576040517f98d23b5100000000000000000000000000000000000000000000000000000000815260040160405180910390fd5b7f000000000000000000000000000000000000000000000000000000000000000073ffffffffffffffffffffffffffffffffffffffff166323b872dd3330856040518463ffffffff1660e01b81526004016109e4939291906140f2565b6020604051808303816000875af1158015610a03573d6000803e3d6000fd5b505050506040513d601f19601f82011682018060405250810190610a2791906140c5565b905080610a60576040517fe64e62de00000000000000000000000000000000000000000000000000000000815260040160405180910390fd5b7f000000000000000000000000000000000000000000000000000000000000000073ffffffffffffffffffffffffffffffffffffffff163373ffffffffffffffffffffffffffffffffffffffff167f05f2eeda0e08e4b437f487c8d7d29b14537d15e3488170dc3de5dbdf8dac468484604051610add9190613e03565b60405180910390a350505050610af161359f565b50565b604b81565b6000610b036135a9565b905090565b60606002805480602002602001604051908101604052809291908181526020018280548015610b8c57602002820191906000526020600020905b8160009054906101000a900473ffffffffffffffffffffffffffffffffffffffff1673ffffffffffffffffffffffffffffffffffffffff1681526020019060010190808311610b42575b5050505050905090565b610b9e6133d1565b8060008111610bd9576040517f58f2468300000000000000000000000000000000000000000000000000000000815260040160405180910390fd5b6000600360003373ffffffffffffffffffffffffffffffffffffffff1673ffffffffffffffffffffffffffffffffffffffff16815260200190815260200160002060007f000000000000000000000000000000000000000000000000000000000000000073ffffffffffffffffffffffffffffffffffffffff1673ffffffffffffffffffffffffffffffffffffffff16815260200190815260200160002054905082811015610cb4576040517f89148a5500000000000000000000000000000000000000000000000000000000815260040160405180910390fd5b6000600660003373ffffffffffffffffffffffffffffffffffffffff1673ffffffffffffffffffffffffffffffffffffffff16815260200190815260200160002060007f000000000000000000000000000000000000000000000000000000000000000073ffffffffffffffffffffffffffffffffffffffff1673ffffffffffffffffffffffffffffffffffffffff1681526020019081526020016000205442610d5e9190614021565b90506000610d6c85836136e4565b905060008186610d7c9190614129565b905060007f000000000000000000000000000000000000000000000000000000000000000073ffffffffffffffffffffffffffffffffffffffff1663095ea7b330846040518363ffffffff1660e01b8152600401610ddb929190614064565b6020604051808303816000875af1158015610dfa573d6000803e3d6000fd5b505050506040513d601f19601f82011682018060405250810190610e1e91906140c5565b905080610e57576040517f98d23b5100000000000000000000000000000000000000000000000000000000815260040160405180910390fd5b7f000000000000000000000000000000000000000000000000000000000000000073ffffffffffffffffffffffffffffffffffffffff1663a9059cbb33846040518363ffffffff1660e01b8152600401610eb2929190614064565b6020604051808303816000875af1158015610ed1573d6000803e3d6000fd5b505050506040513d601f19601f82011682018060405250810190610ef591906140c5565b905080610f2e576040517fe64e62de00000000000000000000000000000000000000000000000000000000815260040160405180910390fd5b86600360003373ffffffffffffffffffffffffffffffffffffffff1673ffffffffffffffffffffffffffffffffffffffff16815260200190815260200160002060007f000000000000000000000000000000000000000000000000000000000000000073ffffffffffffffffffffffffffffffffffffffff1673ffffffffffffffffffffffffffffffffffffffff1681526020019081526020016000206000828254610fda9190614021565b9250508190555086600760007f000000000000000000000000000000000000000000000000000000000000000073ffffffffffffffffffffffffffffffffffffffff1673ffffffffffffffffffffffffffffffffffffffff16815260200190815260200160002060008282546110509190614021565b925050819055506000600360003373ffffffffffffffffffffffffffffffffffffffff1673ffffffffffffffffffffffffffffffffffffffff16815260200190815260200160002060007f000000000000000000000000000000000000000000000000000000000000000073ffffffffffffffffffffffffffffffffffffffff1673ffffffffffffffffffffffffffffffffffffffff168152602001908152602001600020540361119e576000600660003373ffffffffffffffffffffffffffffffffffffffff1673ffffffffffffffffffffffffffffffffffffffff16815260200190815260200160002060007f000000000000000000000000000000000000000000000000000000000000000073ffffffffffffffffffffffffffffffffffffffff1673ffffffffffffffffffffffffffffffffffffffff168152602001908152602001600020819055505b7f000000000000000000000000000000000000000000000000000000000000000073ffffffffffffffffffffffffffffffffffffffff163373ffffffffffffffffffffffffffffffffffffffff167f9b1bfa7fa9ee420a16e124f794c35ac9f90472acc99140eb2f6447c714cad8eb8960405161121b9190613e03565b60405180910390a350505050505061123161359f565b50565b600a81565b600581565b6000600660008373ffffffffffffffffffffffffffffffffffffffff1673ffffffffffffffffffffffffffffffffffffffff16815260200190815260200160002060007f000000000000000000000000000000000000000000000000000000000000000073ffffffffffffffffffffffffffffffffffffffff1673ffffffffffffffffffffffffffffffffffffffff168152602001908152602001600020549050919050565b6000806112f083613726565b90506000600460008573ffffffffffffffffffffffffffffffffffffffff1673ffffffffffffffffffffffffffffffffffffffff16815260200190815260200160002060007f000000000000000000000000000000000000000000000000000000000000000073ffffffffffffffffffffffffffffffffffffffff1673ffffffffffffffffffffffffffffffffffffffff168152602001908152602001600020549050600081036113a55781925050506113b6565b80826113b19190614021565b925050505b919050565b6000806113c66137fc565b905080670de0b6b3a7640000846113dd919061415d565b6113e791906141ce565b915050919050565b6060600180548060200260200160405190810160405280929190818152602001828054801561147357602002820191906000526020600020905b8160009054906101000a900473ffffffffffffffffffffffffffffffffffffffff1673ffffffffffffffffffffffffffffffffffffffff1681526020019060010190808311611429575b5050505050905090565b60008061148983613726565b90506064604b8261149a919061415d565b6114a491906141ce565b915050919050565b605081565b60006114bc82613726565b9050919050565b60008060006114d184613726565b90506000600460008673ffffffffffffffffffffffffffffffffffffffff1673ffffffffffffffffffffffffffffffffffffffff16815260200190815260200160002060007f000000000000000000000000000000000000000000000000000000000000000073ffffffffffffffffffffffffffffffffffffffff1673ffffffffffffffffffffffffffffffffffffffff1681526020019081526020016000205490506000810361159357683635c9adc5dea0000060009350935050506115de565b600060646050846115a4919061415d565b6115ae91906141ce565b9050600082670de0b6b3a7640000836115c7919061415d565b6115d191906141ce565b9050808395509550505050505b915091565b6115eb6133d1565b8060008111611626576040517f58f2468300000000000000000000000000000000000000000000000000000000815260040160405180910390fd5b60007f000000000000000000000000000000000000000000000000000000000000000073ffffffffffffffffffffffffffffffffffffffff1663095ea7b330856040518363ffffffff1660e01b8152600401611683929190614064565b6020604051808303816000875af11580156116a2573d6000803e3d6000fd5b505050506040513d601f19601f820116820180604052508101906116c691906140c5565b9050806116ff576040517f98d23b5100000000000000000000000000000000000000000000000000000000815260040160405180910390fd5b7f000000000000000000000000000000000000000000000000000000000000000073ffffffffffffffffffffffffffffffffffffffff166323b872dd3330866040518463ffffffff1660e01b815260040161175c939291906140f2565b6020604051808303816000875af115801561177b573d6000803e3d6000fd5b505050506040513d601f19601f8201168201806040525081019061179f91906140c5565b9050806117d8576040517fe64e62de00000000000000000000000000000000000000000000000000000000815260040160405180910390fd5b82600360003373ffffffffffffffffffffffffffffffffffffffff1673ffffffffffffffffffffffffffffffffffffffff16815260200190815260200160002060007f000000000000000000000000000000000000000000000000000000000000000073ffffffffffffffffffffffffffffffffffffffff1673ffffffffffffffffffffffffffffffffffffffff16815260200190815260200160002060008282546118849190614129565b9250508190555082600760007f000000000000000000000000000000000000000000000000000000000000000073ffffffffffffffffffffffffffffffffffffffff1673ffffffffffffffffffffffffffffffffffffffff16815260200190815260200160002060008282546118fa9190614129565b9250508190555042600660003373ffffffffffffffffffffffffffffffffffffffff1673ffffffffffffffffffffffffffffffffffffffff16815260200190815260200160002060007f000000000000000000000000000000000000000000000000000000000000000073ffffffffffffffffffffffffffffffffffffffff1673ffffffffffffffffffffffffffffffffffffffff168152602001908152602001600020819055507f000000000000000000000000000000000000000000000000000000000000000073ffffffffffffffffffffffffffffffffffffffff163373ffffffffffffffffffffffffffffffffffffffff167f5548c837ab068cf56a2c2479df0882a4922fd203edb7517321831d95078c5f6285604051611a1f9190613e03565b60405180910390a35050611a3161359f565b50565b6000600560008373ffffffffffffffffffffffffffffffffffffffff1673ffffffffffffffffffffffffffffffffffffffff16815260200190815260200160002060007f000000000000000000000000000000000000000000000000000000000000000073ffffffffffffffffffffffffffffffffffffffff1673ffffffffffffffffffffffffffffffffffffffff168152602001908152602001600020549050919050565b611ae26133d1565b8060008111611b1d576040517f58f2468300000000000000000000000000000000000000000000000000000000815260040160405180910390fd5b60007f000000000000000000000000000000000000000000000000000000000000000073ffffffffffffffffffffffffffffffffffffffff1663095ea7b330856040518363ffffffff1660e01b8152600401611b7a929190614064565b6020604051808303816000875af1158015611b99573d6000803e3d6000fd5b505050506040513d601f19601f82011682018060405250810190611bbd91906140c5565b905080611bf6576040517f98d23b5100000000000000000000000000000000000000000000000000000000815260040160405180910390fd5b7f000000000000000000000000000000000000000000000000000000000000000073ffffffffffffffffffffffffffffffffffffffff166323b872dd3330866040518463ffffffff1660e01b8152600401611c53939291906140f2565b6020604051808303816000875af1158015611c72573d6000803e3d6000fd5b505050506040513d601f19601f82011682018060405250810190611c9691906140c5565b905080611ccf576040517fe64e62de00000000000000000000000000000000000000000000000000000000815260040160405180910390fd5b82600560003373ffffffffffffffffffffffffffffffffffffffff1673ffffffffffffffffffffffffffffffffffffffff16815260200190815260200160002060007f000000000000000000000000000000000000000000000000000000000000000073ffffffffffffffffffffffffffffffffffffffff1673ffffffffffffffffffffffffffffffffffffffff1681526020019081526020016000206000828254611d7b9190614129565b925050819055506000600560003373ffffffffffffffffffffffffffffffffffffffff1673ffffffffffffffffffffffffffffffffffffffff16815260200190815260200160002060007f000000000000000000000000000000000000000000000000000000000000000073ffffffffffffffffffffffffffffffffffffffff1673ffffffffffffffffffffffffffffffffffffffff168152602001908152602001600020541115611e3157611e3033613937565b5b7f000000000000000000000000000000000000000000000000000000000000000073ffffffffffffffffffffffffffffffffffffffff163373ffffffffffffffffffffffffffffffffffffffff167fef12f18e2b6578b91b3c852c423ca8ee530f65f20f770e62a7ce8aa08e1ab77785604051611eae9190613e03565b60405180910390a35050611ec061359f565b50565b611ecb6133d1565b8060008111611f06576040517f58f2468300000000000000000000000000000000000000000000000000000000815260040160405180910390fd5b600080611f12856114c3565b91509150670de0b6b3a76400008210611f57576040517f8bde3e8300000000000000000000000000000000000000000000000000000000815260040160405180910390fd5b6000818511611f665784611f68565b815b90506000611f75826113bb565b9050600560008873ffffffffffffffffffffffffffffffffffffffff1673ffffffffffffffffffffffffffffffffffffffff16815260200190815260200160002060007f000000000000000000000000000000000000000000000000000000000000000073ffffffffffffffffffffffffffffffffffffffff1673ffffffffffffffffffffffffffffffffffffffff1681526020019081526020016000205481111561204d576040517f6af290b100000000000000000000000000000000000000000000000000000000815260040160405180910390fd5b60006064600a8361205e919061415d565b61206891906141ce565b9050600081836120789190614129565b90508873ffffffffffffffffffffffffffffffffffffffff163373ffffffffffffffffffffffffffffffffffffffff16036120df576040517f8e04dcbb00000000000000000000000000000000000000000000000000000000815260040160405180910390fd5b83600460008b73ffffffffffffffffffffffffffffffffffffffff1673ffffffffffffffffffffffffffffffffffffffff16815260200190815260200160002060007f000000000000000000000000000000000000000000000000000000000000000073ffffffffffffffffffffffffffffffffffffffff1673ffffffffffffffffffffffffffffffffffffffff168152602001908152602001600020600082825461218b9190614021565b9250508190555082600560008b73ffffffffffffffffffffffffffffffffffffffff1673ffffffffffffffffffffffffffffffffffffffff16815260200190815260200160002060007f000000000000000000000000000000000000000000000000000000000000000073ffffffffffffffffffffffffffffffffffffffff1673ffffffffffffffffffffffffffffffffffffffff168152602001908152602001600020600082825461223e9190614021565b9250508190555060007f000000000000000000000000000000000000000000000000000000000000000073ffffffffffffffffffffffffffffffffffffffff1663095ea7b330876040518363ffffffff1660e01b81526004016122a2929190614064565b6020604051808303816000875af11580156122c1573d6000803e3d6000fd5b505050506040513d601f19601f820116820180604052508101906122e591906140c5565b90507f000000000000000000000000000000000000000000000000000000000000000073ffffffffffffffffffffffffffffffffffffffff166323b872dd3330886040518463ffffffff1660e01b8152600401612344939291906140f2565b6020604051808303816000875af1158015612363573d6000803e3d6000fd5b505050506040513d601f19601f8201168201806040525081019061238791906140c5565b905060007f000000000000000000000000000000000000000000000000000000000000000073ffffffffffffffffffffffffffffffffffffffff1663095ea7b330856040518363ffffffff1660e01b81526004016123e6929190614064565b6020604051808303816000875af1158015612405573d6000803e3d6000fd5b505050506040513d601f19601f8201168201806040525081019061242991906140c5565b90507f000000000000000000000000000000000000000000000000000000000000000073ffffffffffffffffffffffffffffffffffffffff1663a9059cbb33856040518363ffffffff1660e01b8152600401612486929190614064565b6020604051808303816000875af11580156124a5573d6000803e3d6000fd5b505050506040513d601f19601f820116820180604052508101906124c991906140c5565b90508115806124d6575080155b1561250d576040517fe64e62de00000000000000000000000000000000000000000000000000000000815260040160405180910390fd5b8a73ffffffffffffffffffffffffffffffffffffffff163373ffffffffffffffffffffffffffffffffffffffff167ff3fa0eaee8f258c23b013654df25d1527f98a5c7ccd5e951dd77caca400ef972888660405161256c929190613f89565b60405180910390a350505050505050505061258561359f565b5050565b6125916133d1565b80600081116125cc576040517f58f2468300000000000000000000000000000000000000000000000000000000815260040160405180910390fd5b6000600560003373ffffffffffffffffffffffffffffffffffffffff1673ffffffffffffffffffffffffffffffffffffffff16815260200190815260200160002060007f000000000000000000000000000000000000000000000000000000000000000073ffffffffffffffffffffffffffffffffffffffff1673ffffffffffffffffffffffffffffffffffffffff168152602001908152602001600020549050828110156126a7576040517f663ca2f000000000000000000000000000000000000000000000000000000000815260040160405180910390fd5b82600560003373ffffffffffffffffffffffffffffffffffffffff1673ffffffffffffffffffffffffffffffffffffffff16815260200190815260200160002060007f000000000000000000000000000000000000000000000000000000000000000073ffffffffffffffffffffffffffffffffffffffff1673ffffffffffffffffffffffffffffffffffffffff16815260200190815260200160002060008282546127539190614021565b925050819055506000612765336114c3565b509050670de0b6b3a76400008110156127b557806040517f04697f370000000000000000000000000000000000000000000000000000000081526004016127ac9190613e03565b60405180910390fd5b6000600560003373ffffffffffffffffffffffffffffffffffffffff1673ffffffffffffffffffffffffffffffffffffffff16815260200190815260200160002060007f000000000000000000000000000000000000000000000000000000000000000073ffffffffffffffffffffffffffffffffffffffff1673ffffffffffffffffffffffffffffffffffffffff16815260200190815260200160002054036128635761286233613a33565b5b60007f000000000000000000000000000000000000000000000000000000000000000073ffffffffffffffffffffffffffffffffffffffff1663095ea7b330876040518363ffffffff1660e01b81526004016128c0929190614064565b6020604051808303816000875af11580156128df573d6000803e3d6000fd5b505050506040513d601f19601f8201168201806040525081019061290391906140c5565b90508061293c576040517f98d23b5100000000000000000000000000000000000000000000000000000000815260040160405180910390fd5b7f000000000000000000000000000000000000000000000000000000000000000073ffffffffffffffffffffffffffffffffffffffff1663a9059cbb33876040518363ffffffff1660e01b8152600401612997929190614064565b6020604051808303816000875af11580156129b6573d6000803e3d6000fd5b505050506040513d601f19601f820116820180604052508101906129da91906140c5565b905080612a13576040517fe64e62de00000000000000000000000000000000000000000000000000000000815260040160405180910390fd5b7f000000000000000000000000000000000000000000000000000000000000000073ffffffffffffffffffffffffffffffffffffffff163373ffffffffffffffffffffffffffffffffffffffff167fc994feb9b99296d80965b47aec6be0d25704ddf95b9b9bc1ed8bc753960d580987604051612a909190613e03565b60405180910390a350505050612aa461359f565b50565b6000600760007f000000000000000000000000000000000000000000000000000000000000000073ffffffffffffffffffffffffffffffffffffffff1673ffffffffffffffffffffffffffffffffffffffff16815260200190815260200160002054905090565b6000600360008373ffffffffffffffffffffffffffffffffffffffff1673ffffffffffffffffffffffffffffffffffffffff16815260200190815260200160002060007f000000000000000000000000000000000000000000000000000000000000000073ffffffffffffffffffffffffffffffffffffffff1673ffffffffffffffffffffffffffffffffffffffff168152602001908152602001600020549050919050565b6301e1338081565b612bc46133d1565b8060008111612bff576040517f58f2468300000000000000000000000000000000000000000000000000000000815260040160405180910390fd5b6000612c0a3361147d565b90506000600460003373ffffffffffffffffffffffffffffffffffffffff1673ffffffffffffffffffffffffffffffffffffffff16815260200190815260200160002060007f000000000000000000000000000000000000000000000000000000000000000073ffffffffffffffffffffffffffffffffffffffff1673ffffffffffffffffffffffffffffffffffffffff16815260200190815260200160002054905060008482612cbb9190614129565b905080831015612cf7576040517f663ca2f000000000000000000000000000000000000000000000000000000000815260040160405180910390fd5b80600460003373ffffffffffffffffffffffffffffffffffffffff1673ffffffffffffffffffffffffffffffffffffffff16815260200190815260200160002060007f000000000000000000000000000000000000000000000000000000000000000073ffffffffffffffffffffffffffffffffffffffff1673ffffffffffffffffffffffffffffffffffffffff168152602001908152602001600020819055506000612da3336114c3565b509050670de0b6b3a7640000811015612df357806040517f04697f37000000000000000000000000000000000000000000000000000000008152600401612dea9190613e03565b60405180910390fd5b6000600460003373ffffffffffffffffffffffffffffffffffffffff1673ffffffffffffffffffffffffffffffffffffffff16815260200190815260200160002060007f000000000000000000000000000000000000000000000000000000000000000073ffffffffffffffffffffffffffffffffffffffff1673ffffffffffffffffffffffffffffffffffffffff168152602001908152602001600020541115612ea257612ea133613bbd565b5b60007f000000000000000000000000000000000000000000000000000000000000000073ffffffffffffffffffffffffffffffffffffffff1663095ea7b330896040518363ffffffff1660e01b8152600401612eff929190614064565b6020604051808303816000875af1158015612f1e573d6000803e3d6000fd5b505050506040513d601f19601f82011682018060405250810190612f4291906140c5565b905080612f7b576040517f98d23b5100000000000000000000000000000000000000000000000000000000815260040160405180910390fd5b7f000000000000000000000000000000000000000000000000000000000000000073ffffffffffffffffffffffffffffffffffffffff1663a9059cbb33896040518363ffffffff1660e01b8152600401612fd6929190614064565b6020604051808303816000875af1158015612ff5573d6000803e3d6000fd5b505050506040513d601f19601f8201168201806040525081019061301991906140c5565b905080613052576040517fe64e62de00000000000000000000000000000000000000000000000000000000815260040160405180910390fd5b7f000000000000000000000000000000000000000000000000000000000000000073ffffffffffffffffffffffffffffffffffffffff163373ffffffffffffffffffffffffffffffffffffffff167f312a5e5e1079f5dda4e95dbbd0b908b291fd5b992ef22073643ab691572c5b52896040516130cf9190613e03565b60405180910390a35050505050506130e561359f565b50565b6000806130f48361147d565b90506000600460008573ffffffffffffffffffffffffffffffffffffffff1673ffffffffffffffffffffffffffffffffffffffff16815260200190815260200160002060007f000000000000000000000000000000000000000000000000000000000000000073ffffffffffffffffffffffffffffffffffffffff1673ffffffffffffffffffffffffffffffffffffffff16815260200190815260200160002054905080826131a39190614021565b92505050919050565b6000806000905060006131bd6113ef565b905060005b815181101561329c57600460008383815181106131e2576131e16141ff565b5b602002602001015173ffffffffffffffffffffffffffffffffffffffff1673ffffffffffffffffffffffffffffffffffffffff16815260200190815260200160002060007f000000000000000000000000000000000000000000000000000000000000000073ffffffffffffffffffffffffffffffffffffffff1673ffffffffffffffffffffffffffffffffffffffff168152602001908152602001600020548361328d9190614129565b925080806001019150506131c2565b50819250505090565b6000806000905060006132b6610b08565b905060005b8151811015613301576132e78282815181106132da576132d96141ff565b5b6020026020010151613726565b836132f29190614129565b925080806001019150506132bb565b50819250505090565b600061331582613cb9565b9050919050565b60006133266137fc565b905090565b6000600460008373ffffffffffffffffffffffffffffffffffffffff1673ffffffffffffffffffffffffffffffffffffffff16815260200190815260200160002060007f000000000000000000000000000000000000000000000000000000000000000073ffffffffffffffffffffffffffffffffffffffff1673ffffffffffffffffffffffffffffffffffffffff168152602001908152602001600020549050919050565b60026000540361340d576040517f3ee5aeb500000000000000000000000000000000000000000000000000000000815260040160405180910390fd5b6002600081905550565b60005b60018054905081101561359b578173ffffffffffffffffffffffffffffffffffffffff1660018281548110613452576134516141ff565b5b9060005260206000200160009054906101000a900473ffffffffffffffffffffffffffffffffffffffff1673ffffffffffffffffffffffffffffffffffffffff160361358e5760018080805490506134aa9190614021565b815481106134bb576134ba6141ff565b5b9060005260206000200160009054906101000a900473ffffffffffffffffffffffffffffffffffffffff16600182815481106134fa576134f96141ff565b5b9060005260206000200160006101000a81548173ffffffffffffffffffffffffffffffffffffffff021916908373ffffffffffffffffffffffffffffffffffffffff16021790555060018054806135545761355361422e565b5b6001900381819060005260206000200160006101000a81549073ffffffffffffffffffffffffffffffffffffffff0219169055905561359b565b808060010191505061341a565b5050565b6001600081905550565b600080600960007f000000000000000000000000000000000000000000000000000000000000000073ffffffffffffffffffffffffffffffffffffffff1673ffffffffffffffffffffffffffffffffffffffff16815260200190815260200160002060009054906101000a900473ffffffffffffffffffffffffffffffffffffffff169050600081905060008173ffffffffffffffffffffffffffffffffffffffff1673__$9037b2fcd2753f718e08d07444b301ed88$__632b8d062190916040518263ffffffff1660e01b815260040161368491906142bc565b60a060405180830381865af41580156136a1573d6000803e3d6000fd5b505050506040513d601f19601f820116820180604052508101906136c59190614364565b5050509150506402540be400816136dc919061415d565b935050505090565b60008060646301e13380846005876136fc919061415d565b613706919061415d565b61371091906141ce565b61371a91906141ce565b90508091505092915050565b600080600560008473ffffffffffffffffffffffffffffffffffffffff1673ffffffffffffffffffffffffffffffffffffffff16815260200190815260200160002060007f000000000000000000000000000000000000000000000000000000000000000073ffffffffffffffffffffffffffffffffffffffff1673ffffffffffffffffffffffffffffffffffffffff16815260200190815260200160002054905060006137d26137fc565b9050670de0b6b3a764000081836137e9919061415d565b6137f391906141ce565b92505050919050565b600080600860007f000000000000000000000000000000000000000000000000000000000000000073ffffffffffffffffffffffffffffffffffffffff1673ffffffffffffffffffffffffffffffffffffffff16815260200190815260200160002060009054906101000a900473ffffffffffffffffffffffffffffffffffffffff169050600081905060008173ffffffffffffffffffffffffffffffffffffffff1673__$9037b2fcd2753f718e08d07444b301ed88$__632b8d062190916040518263ffffffff1660e01b81526004016138d791906142bc565b60a060405180830381865af41580156138f4573d6000803e3d6000fd5b505050506040513d601f19601f820116820180604052508101906139189190614364565b5050509150506402540be4008161392f919061415d565b935050505090565b60005b6002805490508110156139cb578173ffffffffffffffffffffffffffffffffffffffff1660028281548110613972576139716141ff565b5b9060005260206000200160009054906101000a900473ffffffffffffffffffffffffffffffffffffffff1673ffffffffffffffffffffffffffffffffffffffff16036139be5750613a30565b808060010191505061393a565b506002819080600181540180825580915050600190039060005260206000200160009091909190916101000a81548173ffffffffffffffffffffffffffffffffffffffff021916908373ffffffffffffffffffffffffffffffffffffffff1602179055505b50565b60005b600280549050811015613bb9578173ffffffffffffffffffffffffffffffffffffffff1660028281548110613a6e57613a6d6141ff565b5b9060005260206000200160009054906101000a900473ffffffffffffffffffffffffffffffffffffffff1673ffffffffffffffffffffffffffffffffffffffff1603613bac5760026001600280549050613ac89190614021565b81548110613ad957613ad86141ff565b5b9060005260206000200160009054906101000a900473ffffffffffffffffffffffffffffffffffffffff1660028281548110613b1857613b176141ff565b5b9060005260206000200160006101000a81548173ffffffffffffffffffffffffffffffffffffffff021916908373ffffffffffffffffffffffffffffffffffffffff1602179055506002805480613b7257613b7161422e565b5b6001900381819060005260206000200160006101000a81549073ffffffffffffffffffffffffffffffffffffffff02191690559055613bb9565b8080600101915050613a36565b5050565b60005b600180549050811015613c51578173ffffffffffffffffffffffffffffffffffffffff1660018281548110613bf857613bf76141ff565b5b9060005260206000200160009054906101000a900473ffffffffffffffffffffffffffffffffffffffff1673ffffffffffffffffffffffffffffffffffffffff1603613c445750613cb6565b8080600101915050613bc0565b506001819080600181540180825580915050600190039060005260206000200160009091909190916101000a81548173ffffffffffffffffffffffffffffffffffffffff021916908373ffffffffffffffffffffffffffffffffffffffff1602179055505b50565b6000807f000000000000000000000000000000000000000000000000000000000000000073ffffffffffffffffffffffffffffffffffffffff166370a08231846040518263ffffffff1660e01b8152600401613d1591906143df565b602060405180830381865afa158015613d32573d6000803e3d6000fd5b505050506040513d601f19601f82011682018060405250810190613d5691906143fa565b90506000613d626137fc565b9050670de0b6b3a76400008183613d79919061415d565b613d8391906141ce565b92505050919050565b600080fd5b6000819050919050565b613da481613d91565b8114613daf57600080fd5b50565b600081359050613dc181613d9b565b92915050565b600060208284031215613ddd57613ddc613d8c565b5b6000613deb84828501613db2565b91505092915050565b613dfd81613d91565b82525050565b6000602082019050613e186000830184613df4565b92915050565b600081519050919050565b600082825260208201905092915050565b6000819050602082019050919050565b600073ffffffffffffffffffffffffffffffffffffffff82169050919050565b6000613e7582613e4a565b9050919050565b613e8581613e6a565b82525050565b6000613e978383613e7c565b60208301905092915050565b6000602082019050919050565b6000613ebb82613e1e565b613ec58185613e29565b9350613ed083613e3a565b8060005b83811015613f01578151613ee88882613e8b565b9750613ef383613ea3565b925050600181019050613ed4565b5085935050505092915050565b60006020820190508181036000830152613f288184613eb0565b905092915050565b613f3981613e6a565b8114613f4457600080fd5b50565b600081359050613f5681613f30565b92915050565b600060208284031215613f7257613f71613d8c565b5b6000613f8084828501613f47565b91505092915050565b6000604082019050613f9e6000830185613df4565b613fab6020830184613df4565b9392505050565b60008060408385031215613fc957613fc8613d8c565b5b6000613fd785828601613f47565b9250506020613fe885828601613db2565b9150509250929050565b7f4e487b7100000000000000000000000000000000000000000000000000000000600052601160045260246000fd5b600061402c82613d91565b915061403783613d91565b925082820390508181111561404f5761404e613ff2565b5b92915050565b61405e81613e6a565b82525050565b60006040820190506140796000830185614055565b6140866020830184613df4565b9392505050565b60008115159050919050565b6140a28161408d565b81146140ad57600080fd5b50565b6000815190506140bf81614099565b92915050565b6000602082840312156140db576140da613d8c565b5b60006140e9848285016140b0565b91505092915050565b60006060820190506141076000830186614055565b6141146020830185614055565b6141216040830184613df4565b949350505050565b600061413482613d91565b915061413f83613d91565b925082820190508082111561415757614156613ff2565b5b92915050565b600061416882613d91565b915061417383613d91565b925082820261418181613d91565b9150828204841483151761419857614197613ff2565b5b5092915050565b7f4e487b7100000000000000000000000000000000000000000000000000000000600052601260045260246000fd5b60006141d982613d91565b91506141e483613d91565b9250826141f4576141f361419f565b5b828204905092915050565b7f4e487b7100000000000000000000000000000000000000000000000000000000600052603260045260246000fd5b7f4e487b7100000000000000000000000000000000000000000000000000000000600052603160045260246000fd5b6000819050919050565b600061428261427d61427884613e4a565b61425d565b613e4a565b9050919050565b600061429482614267565b9050919050565b60006142a682614289565b9050919050565b6142b68161429b565b82525050565b60006020820190506142d160008301846142ad565b92915050565b600069ffffffffffffffffffff82169050919050565b6142f6816142d7565b811461430157600080fd5b50565b600081519050614313816142ed565b92915050565b6000819050919050565b61432c81614319565b811461433757600080fd5b50565b60008151905061434981614323565b92915050565b60008151905061435e81613d9b565b92915050565b600080600080600060a086880312156143805761437f613d8c565b5b600061438e88828901614304565b955050602061439f8882890161433a565b94505060406143b08882890161434f565b93505060606143c18882890161434f565b92505060806143d288828901614304565b9150509295509295909350565b60006020820190506143f46000830184614055565b92915050565b6000602082840312156144105761440f613d8c565b5b600061441e8482850161434f565b9150509291505056fea26469706673582212203b849568df7d7db490bfd8636e5ff9c9678ae4732ac2b7aba366ac41db0a033c64736f6c634300081b0033",
  "linkReferences": {
    "contracts/libraries/OracleLib.sol": {
      "OracleLib": [
        {
          "length": 20,
          "start": 15020
        },
        {
          "length": 20,
          "start": 15615
        }
      ]
    }
  },
  "deployedLinkReferences": {
    "contracts/libraries/OracleLib.sol": {
      "OracleLib": [
        {
          "length": 20,
          "start": 13902
        },
        {
          "length": 20,
          "start": 14497
        }
      ]
    }
  }
}