{
  "contracts/libraries/OracleLib.sol": {
    "OracleLib": {
      "abi": [
        {
          "inputs": [],
          "name": "OracleLib__InvalidPrice",
          "type": "error"
        },
        {
          "inputs": [],
          "name": "OracleLib__NegativePrice",
          "type": "error"
        },
        {
          "inputs": [],
          "name": "OracleLib__StalePrice",
          "type": "error"
        },
        {
          "inputs": [
            {
              "internalType": "contract PriceFeedAdapter",
              "name": "priceFeed",
              "type": "PriceFeedAdapter"
            }
          ],
          "name": "staleCheckLatestRoundData",
          "outputs": [
            {
              "internalType": "uint80",
              "name": "",
              "type": "uint80"
            },
            {
              "internalType": "int256",
              "name": "",
              "type": "int256"
            },
            {
              "internalType": "uint256",
              "name": "",
              "type": "uint256"
            },
            {
              "internalType": "uint256",
              "name": "",
              "type": "uint256"
            },
            {
              "internalType": "uint80",
              "name": "",
              "type": "uint80"
            }
          ],
          "stateMutability": "view",
          "type": "function"
        }
      ],
      "evm": {
        "bytecode": {
          "linkReferences": {},
          "object": "610502610052600b82828239805160001a6073146045577f4e487b7100000000000000000000000000000000000000000000000000000000600052600060045260246000fd5b30600052607381538281f3fe73000000000000000000000000000000000000000030146080604052600436106100355760003560e01c80632b8d06211461003a575b600080fd5b610054600480360381019061004f9190610293565b61006e565b604051610065959493929190610317565b60405180910390f35b6000806000806000806000806000808a73ffffffffffffffffffffffffffffffffffffffff1663feaf968c6040518163ffffffff1660e01b815260040160a060405180830381865afa1580156100c8573d6000803e3d6000fd5b505050506040513d601f19601f820116820180604052508101906100ec91906103ee565b9450945094509450945060008569ffffffffffffffffffff161161013c576040517fd67540f300000000000000000000000000000000000000000000000000000000815260040160405180910390fd5b60008413610176576040517f9d964bb300000000000000000000000000000000000000000000000000000000815260040160405180910390fd5b6305f5e1008412156101b4576040517fc4a1093a00000000000000000000000000000000000000000000000000000000815260040160405180910390fd5b600082426101c29190610498565b9050612a30811115610200576040517fc4a1093a00000000000000000000000000000000000000000000000000000000815260040160405180910390fd5b85858585859a509a509a509a509a5050505050505091939590929450565b600080fd5b600073ffffffffffffffffffffffffffffffffffffffff82169050919050565b600061024e82610223565b9050919050565b600061026082610243565b9050919050565b61027081610255565b811461027b57600080fd5b50565b60008135905061028d81610267565b92915050565b6000602082840312156102a9576102a861021e565b5b60006102b78482850161027e565b91505092915050565b600069ffffffffffffffffffff82169050919050565b6102df816102c0565b82525050565b6000819050919050565b6102f8816102e5565b82525050565b6000819050919050565b610311816102fe565b82525050565b600060a08201905061032c60008301886102d6565b61033960208301876102ef565b6103466040830186610308565b6103536060830185610308565b61036060808301846102d6565b9695505050505050565b610373816102c0565b811461037e57600080fd5b50565b6000815190506103908161036a565b92915050565b61039f816102e5565b81146103aa57600080fd5b50565b6000815190506103bc81610396565b92915050565b6103cb816102fe565b81146103d657600080fd5b50565b6000815190506103e8816103c2565b92915050565b600080600080600060a0868803121561040a5761040961021e565b5b600061041888828901610381565b9550506020610429888289016103ad565b945050604061043a888289016103d9565b935050606061044b888289016103d9565b925050608061045c88828901610381565b9150509295509295909350565b7f4e487b7100000000000000000000000000000000000000000000000000000000600052601160045260246000fd5b60006104a3826102fe565b91506104ae836102fe565b92508282039050818111156104c6576104c5610469565b5b9291505056fea264697066735822122081dc26a1968974eadc8fabfe5d934c176d9a5e64fce94c329962964beda36b6764736f6c634300081b0033",
          "opcodes": "PUSH2 0x502 PUSH2 0x52 PUSH1 0xB DUP3 DUP3 DUP3 CODECOPY DUP1 MLOAD PUSH1 0x0 BYTE PUSH1 0x73 EQ PUSH1 0x45 JUMPI PUSH32 0x4E487B7100000000000000000000000000000000000000000000000000000000 PUSH1 0x0 MSTORE PUSH1 0x0 PUSH1 0x4 MSTORE PUSH1 0x24 PUSH1 0x0 REVERT JUMPDEST ADDRESS PUSH1 0x0 MSTORE PUSH1 0x73 DUP2 MSTORE8 DUP3 DUP2 RETURN INVALID PUSH20 0x0 ADDRESS EQ PUSH1 0x80 PUSH1 0x40 MSTORE PUSH1 0x4 CALLDATASIZE LT PUSH2 0x35 JUMPI PUSH1 0x0 CALLDATALOAD PUSH1 0xE0 SHR DUP1 PUSH4 0x2B8D0621 EQ PUSH2 0x3A JUMPI JUMPDEST PUSH1 0x0 DUP1 REVERT JUMPDEST PUSH2 0x54 PUSH1 0x4 DUP1 CALLDATASIZE SUB DUP2 ADD SWAP1 PUSH2 0x4F SWAP2 SWAP1 PUSH2 0x293 JUMP JUMPDEST PUSH2 0x6E JUMP JUMPDEST PUSH1 0x40 MLOAD PUSH2 0x65 SWAP6 SWAP5 SWAP4 SWAP3 SWAP2 SWAP1 PUSH2 0x317 JUMP JUMPDEST PUSH1 0x40 MLOAD DUP1 SWAP2 SUB SWAP1 RETURN JUMPDEST PUSH1 0x0 DUP1 PUSH1 0x0 DUP1 PUSH1 0x0 DUP1 PUSH1 0x0 DUP1 PUSH1 0x0 DUP1 DUP11 PUSH20 0xFFFFFFFFFFFFFFFFFFFFFFFFFFFFFFFFFFFFFFFF AND PUSH4 0xFEAF968C PUSH1 0x40 MLOAD DUP2 PUSH4 0xFFFFFFFF AND PUSH1 0xE0 SHL DUP2 MSTORE PUSH1 0x4 ADD PUSH1 0xA0 PUSH1 0x40 MLOAD DUP1 DUP4 SUB DUP2 DUP7 GAS STATICCALL ISZERO DUP1 ISZERO PUSH2 0xC8 JUMPI RETURNDATASIZE PUSH1 0x0 DUP1 RETURNDATACOPY RETURNDATASIZE PUSH1 0x0 REVERT JUMPDEST POP POP POP POP PUSH1 0x40 MLOAD RETURNDATASIZE PUSH1 0x1F NOT PUSH1 0x1F DUP3 ADD AND DUP3 ADD DUP1 PUSH1 0x40 MSTORE POP DUP2 ADD SWAP1 PUSH2 0xEC SWAP2 SWAP1 PUSH2 0x3EE JUMP JUMPDEST SWAP5 POP SWAP5 POP SWAP5 POP SWAP5 POP SWAP5 POP PUSH1 0x0 DUP6 PUSH10 0xFFFFFFFFFFFFFFFFFFFF AND GT PUSH2 0x13C JUMPI PUSH1 0x40 MLOAD PUSH32 0xD67540F300000000000000000000000000000000000000000000000000000000 DUP2 MSTORE PUSH1 0x4 ADD PUSH1 0x40 MLOAD DUP1 SWAP2 SUB SWAP1 REVERT JUMPDEST PUSH1 0x0 DUP5 SGT PUSH2 0x176 JUMPI PUSH1 0x40 MLOAD PUSH32 0x9D964BB300000000000000000000000000000000000000000000000000000000 DUP2 MSTORE PUSH1 0x4 ADD PUSH1 0x40 MLOAD DUP1 SWAP2 SUB SWAP1 REVERT JUMPDEST PUSH4 0x5F5E100 DUP5 SLT ISZERO PUSH2 0x1B4 JUMPI PUSH1 0x40 MLOAD PUSH32 0xC4A1093A00000000000000000000000000000000000000000000000000000000 DUP2 MSTORE PUSH1 0x4 ADD PUSH1 0x40 MLOAD DUP1 SWAP2 SUB SWAP1 REVERT JUMPDEST PUSH1 0x0 DUP3 TIMESTAMP PUSH2 0x1C2 SWAP2 SWAP1 PUSH2 0x498 JUMP JUMPDEST SWAP1 POP PUSH2 0x2A30 DUP2 GT ISZERO PUSH2 0x200 JUMPI PUSH1 0x40 MLOAD PUSH32 0xC4A1093A00000000000000000000000000000000000000000000000000000000 DUP2 MSTORE PUSH1 0x4 ADD PUSH1 0x40 MLOAD DUP1 SWAP2 SUB SWAP1 REVERT JUMPDEST DUP6 DUP6 DUP6 DUP6 DUP6 SWAP11 POP SWAP11 POP SWAP11 POP SWAP11 POP SWAP11 POP POP POP POP POP POP POP SWAP2 SWAP4 SWAP6 SWAP1 SWAP3 SWAP5 POP JUMP JUMPDEST PUSH1 0x0 DUP1 REVERT JUMPDEST PUSH1 0x0 PUSH20 0xFFFFFFFFFFFFFFFFFFFFFFFFFFFFFFFFFFFFFFFF DUP3 AND SWAP1 POP SWAP2 SWAP1 POP JUMP JUMPDEST PUSH1 0x0 PUSH2 0x24E DUP3 PUSH2 0x223 JUMP JUMPDEST SWAP1 POP SWAP2 SWAP1 POP JUMP JUMPDEST PUSH1 0x0 PUSH2 0x260 DUP3 PUSH2 0x243 JUMP JUMPDEST SWAP1 POP SWAP2 SWAP1 POP JUMP JUMPDEST PUSH2 0x270 DUP2 PUSH2 0x255 JUMP JUMPDEST DUP2 EQ PUSH2 0x27B JUMPI PUSH1 0x0 DUP1 REVERT JUMPDEST POP JUMP JUMPDEST PUSH1 0x0 DUP2 CALLDATALOAD SWAP1 POP PUSH2 0x28D DUP2 PUSH2 0x267 JUMP JUMPDEST SWAP3 SWAP2 POP POP JUMP JUMPDEST PUSH1 0x0 PUSH1 0x20 DUP3 DUP5 SUB SLT ISZERO PUSH2 0x2A9 JUMPI PUSH2 0x2A8 PUSH2 0x21E JUMP JUMPDEST JUMPDEST PUSH1 0x0 PUSH2 0x2B7 DUP5 DUP3 DUP6 ADD PUSH2 0x27E JUMP JUMPDEST SWAP2 POP POP SWAP3 SWAP2 POP POP JUMP JUMPDEST PUSH1 0x0 PUSH10 0xFFFFFFFFFFFFFFFFFFFF DUP3 AND SWAP1 POP SWAP2 SWAP1 POP JUMP JUMPDEST PUSH2 0x2DF DUP2 PUSH2 0x2C0 JUMP JUMPDEST DUP3 MSTORE POP POP JUMP JUMPDEST PUSH1 0x0 DUP2 SWAP1 POP SWAP2 SWAP1 POP JUMP JUMPDEST PUSH2 0x2F8 DUP2 PUSH2 0x2E5 JUMP JUMPDEST DUP3 MSTORE POP POP JUMP JUMPDEST PUSH1 0x0 DUP2 SWAP1 POP SWAP2 SWAP1 POP JUMP JUMPDEST PUSH2 0x311 DUP2 PUSH2 0x2FE JUMP JUMPDEST DUP3 MSTORE POP POP JUMP JUMPDEST PUSH1 0x0 PUSH1 0xA0 DUP3 ADD SWAP1 POP PUSH2 0x32C PUSH1 0x0 DUP4 ADD DUP9 PUSH2 0x2D6 JUMP JUMPDEST PUSH2 0x339 PUSH1 0x20 DUP4 ADD DUP8 PUSH2 0x2EF JUMP JUMPDEST PUSH2 0x346 PUSH1 0x40 DUP4 ADD DUP7 PUSH2 0x308 JUMP JUMPDEST PUSH2 0x353 PUSH1 0x60 DUP4 ADD DUP6 PUSH2 0x308 JUMP JUMPDEST PUSH2 0x360 PUSH1 0x80 DUP4 ADD DUP5 PUSH2 0x2D6 JUMP JUMPDEST SWAP7 SWAP6 POP POP POP POP POP POP JUMP JUMPDEST PUSH2 0x373 DUP2 PUSH2 0x2C0 JUMP JUMPDEST DUP2 EQ PUSH2 0x37E JUMPI PUSH1 0x0 DUP1 REVERT JUMPDEST POP JUMP JUMPDEST PUSH1 0x0 DUP2 MLOAD SWAP1 POP PUSH2 0x390 DUP2 PUSH2 0x36A JUMP JUMPDEST SWAP3 SWAP2 POP POP JUMP JUMPDEST PUSH2 0x39F DUP2 PUSH2 0x2E5 JUMP JUMPDEST DUP2 EQ PUSH2 0x3AA JUMPI PUSH1 0x0 DUP1 REVERT JUMPDEST POP JUMP JUMPDEST PUSH1 0x0 DUP2 MLOAD SWAP1 POP PUSH2 0x3BC DUP2 PUSH2 0x396 JUMP JUMPDEST SWAP3 SWAP2 POP POP JUMP JUMPDEST PUSH2 0x3CB DUP2 PUSH2 0x2FE JUMP JUMPDEST DUP2 EQ PUSH2 0x3D6 JUMPI PUSH1 0x0 DUP1 REVERT JUMPDEST POP JUMP JUMPDEST PUSH1 0x0 DUP2 MLOAD SWAP1 POP PUSH2 0x3E8 DUP2 PUSH2 0x3C2 JUMP JUMPDEST SWAP3 SWAP2 POP POP JUMP JUMPDEST PUSH1 0x0 DUP1 PUSH1 0x0 DUP1 PUSH1 0x0 PUSH1 0xA0 DUP7 DUP9 SUB SLT ISZERO PUSH2 0x40A JUMPI PUSH2 0x409 PUSH2 0x21E JUMP JUMPDEST JUMPDEST PUSH1 0x0 PUSH2 0x418 DUP9 DUP3 DUP10 ADD PUSH2 0x381 JUMP JUMPDEST SWAP6 POP POP PUSH1 0x20 PUSH2 0x429 DUP9 DUP3 DUP10 ADD PUSH2 0x3AD JUMP JUMPDEST SWAP5 POP POP PUSH1 0x40 PUSH2 0x43A DUP9 DUP3 DUP10 ADD PUSH2 0x3D9 JUMP JUMPDEST SWAP4 POP POP PUSH1 0x60 PUSH2 0x44B DUP9 DUP3 DUP10 ADD PUSH2 0x3D9 JUMP JUMPDEST SWAP3 POP POP PUSH1 0x80 PUSH2 0x45C DUP9 DUP3 DUP10 ADD PUSH2 0x381 JUMP JUMPDEST SWAP2 POP POP SWAP3 SWAP6 POP SWAP3 SWAP6 SWAP1 SWAP4 POP JUMP JUMPDEST PUSH32 0x4E487B7100000000000000000000000000000000000000000000000000000000 PUSH1 0x0 MSTORE PUSH1 0x11 PUSH1 0x4 MSTORE PUSH1 0x24 PUSH1 0x0 REVERT JUMPDEST PUSH1 0x0 PUSH2 0x4A3 DUP3 PUSH2 0x2FE JUMP JUMPDEST SWAP2 POP PUSH2 0x4AE DUP4 PUSH2 0x2FE JUMP JUMPDEST SWAP3 POP DUP3 DUP3 SUB SWAP1 POP DUP2 DUP2 GT ISZERO PUSH2 0x4C6 JUMPI PUSH2 0x4C5 PUSH2 0x469 JUMP JUMPDEST JUMPDEST SWAP3 SWAP2 POP POP JUMP INVALID LOG2 PUSH5 0x6970667358 0x22 SLT KECCAK256 DUP2 0xDC 0x26 LOG1 SWAP7 DUP10 PUSH21 0xEADC8FABFE5D934C176D9A5E64FCE94C329962964B 0xED LOG3 PUSH12 0x6764736F6C634300081B0033 "
        },
        "methodIdentifiers": {
          "staleCheckLatestRoundData(PriceFeedAdapter)": "2b8d0621"
        }
      }
    }
  }
}