{
  "contracts/LendingBorrowingV3.sol": {
    "LendingBorrowingV3": {
      "abi": [
        {
          "inputs": [
            {
              "internalType": "address",
              "name": "_daiToken",
              "type": "address"
            },
            {
              "internalType": "address",
              "name": "_collateralToken",
              "type": "address"
            },
            {
              "internalType": "contract PriceFeedAdapter",
              "name": "_collateralPriceFeed",
              "type": "address"
            },
            {
              "internalType": "contract PriceFeedAdapter",
              "name": "_daiPriceFeed",
              "type": "address"
            }
          ],
          "stateMutability": "nonpayable",
          "type": "constructor"
        },
        {
          "inputs": [],
          "name": "LendingBorrowing__ApprovalFailed",
          "type": "error"
        },
        {
          "inputs": [
            {
              "internalType": "uint256",
              "name": "",
              "type": "uint256"
            }
          ],
          "name": "LendingBorrowing__HealthFactorIsBroken",
          "type": "error"
        },
        {
          "inputs": [],
          "name": "LendingBorrowing__HealthFactorIsNotBroken",
          "type": "error"
        },
        {
          "inputs": [],
          "name": "LendingBorrowing__InsufficientBalance",
          "type": "error"
        },
        {
          "inputs": [],
          "name": "LendingBorrowing__InsufficientCollateral",
          "type": "error"
        },
        {
          "inputs": [],
          "name": "LendingBorrowing__InsufficientLiquidity",
          "type": "error"
        },
        {
          "inputs": [],
          "name": "LendingBorrowing__MustGreaterThanZero",
          "type": "error"
        },
        {
          "inputs": [],
          "name": "LendingBorrowing__NotEnoughCollateral",
          "type": "error"
        },
        {
          "inputs": [],
          "name": "LendingBorrowing__TransferFailed",
          "type": "error"
        },
        {
          "inputs": [],
          "name": "LendingBorrowing__UserCannotLiquidateHimself",
          "type": "error"
        },
        {
          "inputs": [],
          "name": "ReentrancyGuardReentrantCall",
          "type": "error"
        },
        {
          "anonymous": false,
          "inputs": [
            {
              "indexed": true,
              "internalType": "address",
              "name": "user",
              "type": "address"
            },
            {
              "indexed": true,
              "internalType": "address",
              "name": "token",
              "type": "address"
            },
            {
              "indexed": false,
              "internalType": "uint256",
              "name": "amount",
              "type": "uint256"
            }
          ],
          "name": "Borrow",
          "type": "event"
        },
        {
          "anonymous": false,
          "inputs": [
            {
              "indexed": true,
              "internalType": "address",
              "name": "user",
              "type": "address"
            },
            {
              "indexed": true,
              "internalType": "address",
              "name": "token",
              "type": "address"
            },
            {
              "indexed": false,
              "internalType": "uint256",
              "name": "amount",
              "type": "uint256"
            }
          ],
          "name": "Deposit",
          "type": "event"
        },
        {
          "anonymous": false,
          "inputs": [
            {
              "indexed": true,
              "internalType": "address",
              "name": "user",
              "type": "address"
            },
            {
              "indexed": true,
              "internalType": "address",
              "name": "token",
              "type": "address"
            },
            {
              "indexed": false,
              "internalType": "uint256",
              "name": "amount",
              "type": "uint256"
            }
          ],
          "name": "DepositCollateral",
          "type": "event"
        },
        {
          "anonymous": false,
          "inputs": [
            {
              "indexed": true,
              "internalType": "address",
              "name": "liquidator",
              "type": "address"
            },
            {
              "indexed": true,
              "internalType": "address",
              "name": "borrower",
              "type": "address"
            },
            {
              "indexed": false,
              "internalType": "uint256",
              "name": "amountToLiquidate",
              "type": "uint256"
            },
            {
              "indexed": false,
              "internalType": "uint256",
              "name": "totalCollateralToLiquidate",
              "type": "uint256"
            }
          ],
          "name": "Liquidate",
          "type": "event"
        },
        {
          "anonymous": false,
          "inputs": [
            {
              "indexed": true,
              "internalType": "address",
              "name": "user",
              "type": "address"
            },
            {
              "indexed": true,
              "internalType": "address",
              "name": "token",
              "type": "address"
            },
            {
              "indexed": false,
              "internalType": "uint256",
              "name": "amount",
              "type": "uint256"
            }
          ],
          "name": "RedeemCollateral",
          "type": "event"
        },
        {
          "anonymous": false,
          "inputs": [
            {
              "indexed": true,
              "internalType": "address",
              "name": "user",
              "type": "address"
            },
            {
              "indexed": true,
              "internalType": "address",
              "name": "token",
              "type": "address"
            },
            {
              "indexed": false,
              "internalType": "uint256",
              "name": "amount",
              "type": "uint256"
            }
          ],
          "name": "Repay",
          "type": "event"
        },
        {
          "anonymous": false,
          "inputs": [
            {
              "indexed": true,
              "internalType": "address",
              "name": "user",
              "type": "address"
            },
            {
              "indexed": true,
              "internalType": "address",
              "name": "token",
              "type": "address"
            },
            {
              "indexed": false,
              "internalType": "uint256",
              "name": "amount",
              "type": "uint256"
            }
          ],
          "name": "Withdraw",
          "type": "event"
        },
        {
          "inputs": [],
          "name": "COLLATERAL_FACTOR",
          "outputs": [
            {
              "internalType": "uint256",
              "name": "",
              "type": "uint256"
            }
          ],
          "stateMutability": "view",
          "type": "function"
        },
        {
          "inputs": [],
          "name": "INTEREST_RATE",
          "outputs": [
            {
              "internalType": "uint256",
              "name": "",
              "type": "uint256"
            }
          ],
          "stateMutability": "view",
          "type": "function"
        },
        {
          "inputs": [],
          "name": "LIQUIDATION_BONUS",
          "outputs": [
            {
              "internalType": "uint256",
              "name": "",
              "type": "uint256"
            }
          ],
          "stateMutability": "view",
          "type": "function"
        },
        {
          "inputs": [],
          "name": "LIQUIDATION_THRESHOLD",
          "outputs": [
            {
              "internalType": "uint256",
              "name": "",
              "type": "uint256"
            }
          ],
          "stateMutability": "view",
          "type": "function"
        },
        {
          "inputs": [],
          "name": "SECONDS_IN_A_YEAR",
          "outputs": [
            {
              "internalType": "uint256",
              "name": "",
              "type": "uint256"
            }
          ],
          "stateMutability": "view",
          "type": "function"
        },
        {
          "inputs": [
            {
              "internalType": "uint256",
              "name": "_amount",
              "type": "uint256"
            }
          ],
          "name": "borrow",
          "outputs": [],
          "stateMutability": "nonpayable",
          "type": "function"
        },
        {
          "inputs": [
            {
              "internalType": "address",
              "name": "_user",
              "type": "address"
            }
          ],
          "name": "calculateAvailableBorrow",
          "outputs": [
            {
              "internalType": "uint256",
              "name": "",
              "type": "uint256"
            }
          ],
          "stateMutability": "view",
          "type": "function"
        },
        {
          "inputs": [
            {
              "internalType": "address",
              "name": "_user",
              "type": "address"
            }
          ],
          "name": "calculateHealthFactor",
          "outputs": [
            {
              "internalType": "uint256",
              "name": "",
              "type": "uint256"
            },
            {
              "internalType": "uint256",
              "name": "",
              "type": "uint256"
            }
          ],
          "stateMutability": "view",
          "type": "function"
        },
        {
          "inputs": [
            {
              "internalType": "address",
              "name": "_user",
              "type": "address"
            }
          ],
          "name": "calculateNetWorth",
          "outputs": [
            {
              "internalType": "uint256",
              "name": "",
              "type": "uint256"
            }
          ],
          "stateMutability": "view",
          "type": "function"
        },
        {
          "inputs": [
            {
              "internalType": "uint256",
              "name": "_amount",
              "type": "uint256"
            }
          ],
          "name": "deposit",
          "outputs": [],
          "stateMutability": "nonpayable",
          "type": "function"
        },
        {
          "inputs": [
            {
              "internalType": "uint256",
              "name": "_amount",
              "type": "uint256"
            }
          ],
          "name": "depositCollateral",
          "outputs": [],
          "stateMutability": "nonpayable",
          "type": "function"
        },
        {
          "inputs": [
            {
              "internalType": "address",
              "name": "_user",
              "type": "address"
            }
          ],
          "name": "getBorrowLimit",
          "outputs": [
            {
              "internalType": "uint256",
              "name": "",
              "type": "uint256"
            }
          ],
          "stateMutability": "view",
          "type": "function"
        },
        {
          "inputs": [],
          "name": "getBorrowers",
          "outputs": [
            {
              "internalType": "address[]",
              "name": "",
              "type": "address[]"
            }
          ],
          "stateMutability": "view",
          "type": "function"
        },
        {
          "inputs": [],
          "name": "getCollateralDepositors",
          "outputs": [
            {
              "internalType": "address[]",
              "name": "",
              "type": "address[]"
            }
          ],
          "stateMutability": "view",
          "type": "function"
        },
        {
          "inputs": [],
          "name": "getCollateralPrice",
          "outputs": [
            {
              "internalType": "uint256",
              "name": "",
              "type": "uint256"
            }
          ],
          "stateMutability": "view",
          "type": "function"
        },
        {
          "inputs": [
            {
              "internalType": "uint256",
              "name": "_daiAmount",
              "type": "uint256"
            }
          ],
          "name": "getCollateralTokenAmountFromDai",
          "outputs": [
            {
              "internalType": "uint256",
              "name": "",
              "type": "uint256"
            }
          ],
          "stateMutability": "view",
          "type": "function"
        },
        {
          "inputs": [
            {
              "internalType": "address",
              "name": "_user",
              "type": "address"
            }
          ],
          "name": "getCollateralValue",
          "outputs": [
            {
              "internalType": "uint256",
              "name": "",
              "type": "uint256"
            }
          ],
          "stateMutability": "view",
          "type": "function"
        },
        {
          "inputs": [
            {
              "internalType": "address",
              "name": "_user",
              "type": "address"
            }
          ],
          "name": "getCollateralWalletValue",
          "outputs": [
            {
              "internalType": "uint256",
              "name": "",
              "type": "uint256"
            }
          ],
          "stateMutability": "view",
          "type": "function"
        },
        {
          "inputs": [],
          "name": "getDaiPrice",
          "outputs": [
            {
              "internalType": "uint256",
              "name": "",
              "type": "uint256"
            }
          ],
          "stateMutability": "view",
          "type": "function"
        },
        {
          "inputs": [],
          "name": "getTotalBorrows",
          "outputs": [
            {
              "internalType": "uint256",
              "name": "",
              "type": "uint256"
            }
          ],
          "stateMutability": "view",
          "type": "function"
        },
        {
          "inputs": [],
          "name": "getTotalCollateralValue",
          "outputs": [
            {
              "internalType": "uint256",
              "name": "",
              "type": "uint256"
            }
          ],
          "stateMutability": "view",
          "type": "function"
        },
        {
          "inputs": [],
          "name": "getTotalDeposit",
          "outputs": [
            {
              "internalType": "uint256",
              "name": "",
              "type": "uint256"
            }
          ],
          "stateMutability": "view",
          "type": "function"
        },
        {
          "inputs": [
            {
              "internalType": "address",
              "name": "user",
              "type": "address"
            }
          ],
          "name": "getUserBorrow",
          "outputs": [
            {
              "internalType": "uint256",
              "name": "",
              "type": "uint256"
            }
          ],
          "stateMutability": "view",
          "type": "function"
        },
        {
          "inputs": [
            {
              "internalType": "address",
              "name": "user",
              "type": "address"
            }
          ],
          "name": "getUserCollateral",
          "outputs": [
            {
              "internalType": "uint256",
              "name": "",
              "type": "uint256"
            }
          ],
          "stateMutability": "view",
          "type": "function"
        },
        {
          "inputs": [
            {
              "internalType": "address",
              "name": "user",
              "type": "address"
            }
          ],
          "name": "getUserDeposit",
          "outputs": [
            {
              "internalType": "uint256",
              "name": "",
              "type": "uint256"
            }
          ],
          "stateMutability": "view",
          "type": "function"
        },
        {
          "inputs": [
            {
              "internalType": "address",
              "name": "user",
              "type": "address"
            }
          ],
          "name": "getUserTimestamp",
          "outputs": [
            {
              "internalType": "uint256",
              "name": "",
              "type": "uint256"
            }
          ],
          "stateMutability": "view",
          "type": "function"
        },
        {
          "inputs": [
            {
              "internalType": "address",
              "name": "_borrower",
              "type": "address"
            },
            {
              "internalType": "uint256",
              "name": "_debtToCover",
              "type": "uint256"
            }
          ],
          "name": "liquidate",
          "outputs": [],
          "stateMutability": "nonpayable",
          "type": "function"
        },
        {
          "inputs": [
            {
              "internalType": "uint256",
              "name": "_amount",
              "type": "uint256"
            }
          ],
          "name": "redeemCollateral",
          "outputs": [],
          "stateMutability": "nonpayable",
          "type": "function"
        },
        {
          "inputs": [
            {
              "internalType": "uint256",
              "name": "_amount",
              "type": "uint256"
            }
          ],
          "name": "repayBorrow",
          "outputs": [],
          "stateMutability": "nonpayable",
          "type": "function"
        },
        {
          "inputs": [
            {
              "internalType": "uint256",
              "name": "_amount",
              "type": "uint256"
            }
          ],
          "name": "withdraw",
          "outputs": [],
          "stateMutability": "nonpayable",
          "type": "function"
        }
      ],
      "evm": {
        "bytecode": {
          "linkReferences": {
            "contracts/libraries/OracleLib.sol": {
              "OracleLib": [
                {
                  "length": 20,
                  "start": 15020
                },
                {
                  "length": 20,
                  "start": 15615
                }
              ]
            }
          },
          "object": "60c060405234801561001057600080fd5b506040516148bb3803806148bb8339818101604052810190610032919061024a565b60016000819055508373ffffffffffffffffffffffffffffffffffffffff1660808173ffffffffffffffffffffffffffffffffffffffff16815250508273ffffffffffffffffffffffffffffffffffffffff1660a08173ffffffffffffffffffffffffffffffffffffffff168152505081600860008573ffffffffffffffffffffffffffffffffffffffff1673ffffffffffffffffffffffffffffffffffffffff16815260200190815260200160002060006101000a81548173ffffffffffffffffffffffffffffffffffffffff021916908373ffffffffffffffffffffffffffffffffffffffff160217905550806009600060805173ffffffffffffffffffffffffffffffffffffffff1673ffffffffffffffffffffffffffffffffffffffff16815260200190815260200160002060006101000a81548173ffffffffffffffffffffffffffffffffffffffff021916908373ffffffffffffffffffffffffffffffffffffffff160217905550505050506102b1565b600080fd5b600073ffffffffffffffffffffffffffffffffffffffff82169050919050565b60006101d9826101ae565b9050919050565b6101e9816101ce565b81146101f457600080fd5b50565b600081519050610206816101e0565b92915050565b6000610217826101ce565b9050919050565b6102278161020c565b811461023257600080fd5b50565b6000815190506102448161021e565b92915050565b60008060008060808587031215610264576102636101a9565b5b6000610272878288016101f7565b9450506020610283878288016101f7565b935050604061029487828801610235565b92505060606102a587828801610235565b91505092959194509250565b60805160a05161445d61045e60003960008181611a7901528181611b2101528181611bf801528181611d1301528181611dc701528181611e3301528181611fba015281816121d60152818161238d0152818161242d01528181612611015281816126eb015281816127fa015281816128670152818161293e01528181612a150152818161376c015281816138050152613cbe0152600081816106a40152818161079101528181610845015281816108b20152818161098901528181610a6201528181610c1e01528181610cf901528181610d8201528181610e5901528181610f7201528181610fe80152818161109c01528181611140015281816111a00152818161128301528181611337015281816115180152818161162a015281816117010152818161181c0152818161189201528181611945015281816119a40152818161212301528181612249015281816122e901528181612aaf01528181612b5301528181612c5101528181612d3b01528181612e3801528181612ea601528181612f7d015281816130540152818161313b015281816132280152818161337001526135b2015261445d6000f3fe608060405234801561001057600080fd5b50600436106101da5760003560e01c8063b6b55f2511610104578063c4fa17a4116100a2578063ed6493af11610071578063ed6493af14610580578063ee31d43f1461059e578063f7683bbc146105ce578063fc2e93b5146105ec576101da565b8063c4fa17a4146104f8578063c5ebeaec14610516578063c671922c14610532578063cc484c5c14610562576101da565b8063bcbaf487116100de578063bcbaf48714610472578063bd37b7751461048e578063c022215c146104aa578063c084b10b146104c8576101da565b8063b6b55f251461040a578063b6f7132f14610426578063bad4a01f14610456576101da565b80635e0bd7691161017c5780637c17d2371161014b5780637c17d2371461035b57806390a8ae9b1461038b57806397904e42146103a95780639ce625f7146103d9576101da565b80635e0bd769146102ad5780635e5c83b4146102dd57806364c151961461030d5780636854786a1461033d576101da565b80632957cb77116101b85780632957cb77146102375780632e1a7d4d146102555780633574d4c4146102715780635b72a33a1461028f576101da565b80630e752702146101df57806317f49e05146101fb5780632649aa1614610219575b600080fd5b6101f960048036038101906101f49190613dc7565b61061c565b005b610203610af4565b6040516102109190613e03565b60405180910390f35b610221610af9565b60405161022e9190613e03565b60405180910390f35b61023f610b08565b60405161024c9190613f0e565b60405180910390f35b61026f600480360381019061026a9190613dc7565b610b96565b005b610279611234565b6040516102869190613e03565b60405180910390f35b610297611239565b6040516102a49190613e03565b60405180910390f35b6102c760048036038101906102c29190613f5c565b61123e565b6040516102d49190613e03565b60405180910390f35b6102f760048036038101906102f29190613f5c565b6112e4565b6040516103049190613e03565b60405180910390f35b61032760048036038101906103229190613dc7565b6113bb565b6040516103349190613e03565b60405180910390f35b6103456113ef565b6040516103529190613f0e565b60405180910390f35b61037560048036038101906103709190613f5c565b61147d565b6040516103829190613e03565b60405180910390f35b6103936114ac565b6040516103a09190613e03565b60405180910390f35b6103c360048036038101906103be9190613f5c565b6114b1565b6040516103d09190613e03565b60405180910390f35b6103f360048036038101906103ee9190613f5c565b6114c3565b604051610401929190613f89565b60405180910390f35b610424600480360381019061041f9190613dc7565b6115e3565b005b610440600480360381019061043b9190613f5c565b611a34565b60405161044d9190613e03565b60405180910390f35b610470600480360381019061046b9190613dc7565b611ada565b005b61048c60048036038101906104879190613fb2565b611ec3565b005b6104a860048036038101906104a39190613dc7565b612589565b005b6104b2612aa7565b6040516104bf9190613e03565b60405180910390f35b6104e260048036038101906104dd9190613f5c565b612b0e565b6040516104ef9190613e03565b60405180910390f35b610500612bb4565b60405161050d9190613e03565b60405180910390f35b610530600480360381019061052b9190613dc7565b612bbc565b005b61054c60048036038101906105479190613f5c565b6130e8565b6040516105599190613e03565b60405180910390f35b61056a6131ac565b6040516105779190613e03565b60405180910390f35b6105886132a5565b6040516105959190613e03565b60405180910390f35b6105b860048036038101906105b39190613f5c565b61330a565b6040516105c59190613e03565b60405180910390f35b6105d661331c565b6040516105e39190613e03565b60405180910390f35b61060660048036038101906106019190613f5c565b61332b565b6040516106139190613e03565b60405180910390f35b6106246133d1565b806000811161065f576040517f58f2468300000000000000000000000000000000000000000000000000000000815260040160405180910390fd5b6000600460003373ffffffffffffffffffffffffffffffffffffffff1673ffffffffffffffffffffffffffffffffffffffff16815260200190815260200160002060007f000000000000000000000000000000000000000000000000000000000000000073ffffffffffffffffffffffffffffffffffffffff1673ffffffffffffffffffffffffffffffffffffffff1681526020019081526020016000205490508083111561073a576040517f89148a5500000000000000000000000000000000000000000000000000000000815260040160405180910390fd5b6000818411610749578361074b565b815b905080600460003373ffffffffffffffffffffffffffffffffffffffff1673ffffffffffffffffffffffffffffffffffffffff16815260200190815260200160002060007f000000000000000000000000000000000000000000000000000000000000000073ffffffffffffffffffffffffffffffffffffffff1673ffffffffffffffffffffffffffffffffffffffff16815260200190815260200160002060008282546107f99190614021565b925050819055506000600460003373ffffffffffffffffffffffffffffffffffffffff1673ffffffffffffffffffffffffffffffffffffffff16815260200190815260200160002060007f000000000000000000000000000000000000000000000000000000000000000073ffffffffffffffffffffffffffffffffffffffff1673ffffffffffffffffffffffffffffffffffffffff16815260200190815260200160002054036108ae576108ad33613417565b5b60007f000000000000000000000000000000000000000000000000000000000000000073ffffffffffffffffffffffffffffffffffffffff1663095ea7b330846040518363ffffffff1660e01b815260040161090b929190614064565b6020604051808303816000875af115801561092a573d6000803e3d6000fd5b505050506040513d601f19601f8201168201806040525081019061094e91906140c5565b905080610987576040517f98d23b5100000000000000000000000000000000000000000000000000000000815260040160405180910390fd5b7f000000000000000000000000000000000000000000000000000000000000000073ffffffffffffffffffffffffffffffffffffffff166323b872dd3330856040518463ffffffff1660e01b81526004016109e4939291906140f2565b6020604051808303816000875af1158015610a03573d6000803e3d6000fd5b505050506040513d601f19601f82011682018060405250810190610a2791906140c5565b905080610a60576040517fe64e62de00000000000000000000000000000000000000000000000000000000815260040160405180910390fd5b7f000000000000000000000000000000000000000000000000000000000000000073ffffffffffffffffffffffffffffffffffffffff163373ffffffffffffffffffffffffffffffffffffffff167f05f2eeda0e08e4b437f487c8d7d29b14537d15e3488170dc3de5dbdf8dac468484604051610add9190613e03565b60405180910390a350505050610af161359f565b50565b604b81565b6000610b036135a9565b905090565b60606002805480602002602001604051908101604052809291908181526020018280548015610b8c57602002820191906000526020600020905b8160009054906101000a900473ffffffffffffffffffffffffffffffffffffffff1673ffffffffffffffffffffffffffffffffffffffff1681526020019060010190808311610b42575b5050505050905090565b610b9e6133d1565b8060008111610bd9576040517f58f2468300000000000000000000000000000000000000000000000000000000815260040160405180910390fd5b6000600360003373ffffffffffffffffffffffffffffffffffffffff1673ffffffffffffffffffffffffffffffffffffffff16815260200190815260200160002060007f000000000000000000000000000000000000000000000000000000000000000073ffffffffffffffffffffffffffffffffffffffff1673ffffffffffffffffffffffffffffffffffffffff16815260200190815260200160002054905082811015610cb4576040517f89148a5500000000000000000000000000000000000000000000000000000000815260040160405180910390fd5b6000600660003373ffffffffffffffffffffffffffffffffffffffff1673ffffffffffffffffffffffffffffffffffffffff16815260200190815260200160002060007f000000000000000000000000000000000000000000000000000000000000000073ffffffffffffffffffffffffffffffffffffffff1673ffffffffffffffffffffffffffffffffffffffff1681526020019081526020016000205442610d5e9190614021565b90506000610d6c85836136e4565b905060008186610d7c9190614129565b905060007f000000000000000000000000000000000000000000000000000000000000000073ffffffffffffffffffffffffffffffffffffffff1663095ea7b330846040518363ffffffff1660e01b8152600401610ddb929190614064565b6020604051808303816000875af1158015610dfa573d6000803e3d6000fd5b505050506040513d601f19601f82011682018060405250810190610e1e91906140c5565b905080610e57576040517f98d23b5100000000000000000000000000000000000000000000000000000000815260040160405180910390fd5b7f000000000000000000000000000000000000000000000000000000000000000073ffffffffffffffffffffffffffffffffffffffff1663a9059cbb33846040518363ffffffff1660e01b8152600401610eb2929190614064565b6020604051808303816000875af1158015610ed1573d6000803e3d6000fd5b505050506040513d601f19601f82011682018060405250810190610ef591906140c5565b905080610f2e576040517fe64e62de00000000000000000000000000000000000000000000000000000000815260040160405180910390fd5b86600360003373ffffffffffffffffffffffffffffffffffffffff1673ffffffffffffffffffffffffffffffffffffffff16815260200190815260200160002060007f000000000000000000000000000000000000000000000000000000000000000073ffffffffffffffffffffffffffffffffffffffff1673ffffffffffffffffffffffffffffffffffffffff1681526020019081526020016000206000828254610fda9190614021565b9250508190555086600760007f000000000000000000000000000000000000000000000000000000000000000073ffffffffffffffffffffffffffffffffffffffff1673ffffffffffffffffffffffffffffffffffffffff16815260200190815260200160002060008282546110509190614021565b925050819055506000600360003373ffffffffffffffffffffffffffffffffffffffff1673ffffffffffffffffffffffffffffffffffffffff16815260200190815260200160002060007f000000000000000000000000000000000000000000000000000000000000000073ffffffffffffffffffffffffffffffffffffffff1673ffffffffffffffffffffffffffffffffffffffff168152602001908152602001600020540361119e576000600660003373ffffffffffffffffffffffffffffffffffffffff1673ffffffffffffffffffffffffffffffffffffffff16815260200190815260200160002060007f000000000000000000000000000000000000000000000000000000000000000073ffffffffffffffffffffffffffffffffffffffff1673ffffffffffffffffffffffffffffffffffffffff168152602001908152602001600020819055505b7f000000000000000000000000000000000000000000000000000000000000000073ffffffffffffffffffffffffffffffffffffffff163373ffffffffffffffffffffffffffffffffffffffff167f9b1bfa7fa9ee420a16e124f794c35ac9f90472acc99140eb2f6447c714cad8eb8960405161121b9190613e03565b60405180910390a350505050505061123161359f565b50565b600a81565b600581565b6000600660008373ffffffffffffffffffffffffffffffffffffffff1673ffffffffffffffffffffffffffffffffffffffff16815260200190815260200160002060007f000000000000000000000000000000000000000000000000000000000000000073ffffffffffffffffffffffffffffffffffffffff1673ffffffffffffffffffffffffffffffffffffffff168152602001908152602001600020549050919050565b6000806112f083613726565b90506000600460008573ffffffffffffffffffffffffffffffffffffffff1673ffffffffffffffffffffffffffffffffffffffff16815260200190815260200160002060007f000000000000000000000000000000000000000000000000000000000000000073ffffffffffffffffffffffffffffffffffffffff1673ffffffffffffffffffffffffffffffffffffffff168152602001908152602001600020549050600081036113a55781925050506113b6565b80826113b19190614021565b925050505b919050565b6000806113c66137fc565b905080670de0b6b3a7640000846113dd919061415d565b6113e791906141ce565b915050919050565b6060600180548060200260200160405190810160405280929190818152602001828054801561147357602002820191906000526020600020905b8160009054906101000a900473ffffffffffffffffffffffffffffffffffffffff1673ffffffffffffffffffffffffffffffffffffffff1681526020019060010190808311611429575b5050505050905090565b60008061148983613726565b90506064604b8261149a919061415d565b6114a491906141ce565b915050919050565b605081565b60006114bc82613726565b9050919050565b60008060006114d184613726565b90506000600460008673ffffffffffffffffffffffffffffffffffffffff1673ffffffffffffffffffffffffffffffffffffffff16815260200190815260200160002060007f000000000000000000000000000000000000000000000000000000000000000073ffffffffffffffffffffffffffffffffffffffff1673ffffffffffffffffffffffffffffffffffffffff1681526020019081526020016000205490506000810361159357683635c9adc5dea0000060009350935050506115de565b600060646050846115a4919061415d565b6115ae91906141ce565b9050600082670de0b6b3a7640000836115c7919061415d565b6115d191906141ce565b9050808395509550505050505b915091565b6115eb6133d1565b8060008111611626576040517f58f2468300000000000000000000000000000000000000000000000000000000815260040160405180910390fd5b60007f000000000000000000000000000000000000000000000000000000000000000073ffffffffffffffffffffffffffffffffffffffff1663095ea7b330856040518363ffffffff1660e01b8152600401611683929190614064565b6020604051808303816000875af11580156116a2573d6000803e3d6000fd5b505050506040513d601f19601f820116820180604052508101906116c691906140c5565b9050806116ff576040517f98d23b5100000000000000000000000000000000000000000000000000000000815260040160405180910390fd5b7f000000000000000000000000000000000000000000000000000000000000000073ffffffffffffffffffffffffffffffffffffffff166323b872dd3330866040518463ffffffff1660e01b815260040161175c939291906140f2565b6020604051808303816000875af115801561177b573d6000803e3d6000fd5b505050506040513d601f19601f8201168201806040525081019061179f91906140c5565b9050806117d8576040517fe64e62de00000000000000000000000000000000000000000000000000000000815260040160405180910390fd5b82600360003373ffffffffffffffffffffffffffffffffffffffff1673ffffffffffffffffffffffffffffffffffffffff16815260200190815260200160002060007f000000000000000000000000000000000000000000000000000000000000000073ffffffffffffffffffffffffffffffffffffffff1673ffffffffffffffffffffffffffffffffffffffff16815260200190815260200160002060008282546118849190614129565b9250508190555082600760007f000000000000000000000000000000000000000000000000000000000000000073ffffffffffffffffffffffffffffffffffffffff1673ffffffffffffffffffffffffffffffffffffffff16815260200190815260200160002060008282546118fa9190614129565b9250508190555042600660003373ffffffffffffffffffffffffffffffffffffffff1673ffffffffffffffffffffffffffffffffffffffff16815260200190815260200160002060007f000000000000000000000000000000000000000000000000000000000000000073ffffffffffffffffffffffffffffffffffffffff1673ffffffffffffffffffffffffffffffffffffffff168152602001908152602001600020819055507f000000000000000000000000000000000000000000000000000000000000000073ffffffffffffffffffffffffffffffffffffffff163373ffffffffffffffffffffffffffffffffffffffff167f5548c837ab068cf56a2c2479df0882a4922fd203edb7517321831d95078c5f6285604051611a1f9190613e03565b60405180910390a35050611a3161359f565b50565b6000600560008373ffffffffffffffffffffffffffffffffffffffff1673ffffffffffffffffffffffffffffffffffffffff16815260200190815260200160002060007f000000000000000000000000000000000000000000000000000000000000000073ffffffffffffffffffffffffffffffffffffffff1673ffffffffffffffffffffffffffffffffffffffff168152602001908152602001600020549050919050565b611ae26133d1565b8060008111611b1d576040517f58f2468300000000000000000000000000000000000000000000000000000000815260040160405180910390fd5b60007f000000000000000000000000000000000000000000000000000000000000000073ffffffffffffffffffffffffffffffffffffffff1663095ea7b330856040518363ffffffff1660e01b8152600401611b7a929190614064565b6020604051808303816000875af1158015611b99573d6000803e3d6000fd5b505050506040513d601f19601f82011682018060405250810190611bbd91906140c5565b905080611bf6576040517f98d23b5100000000000000000000000000000000000000000000000000000000815260040160405180910390fd5b7f000000000000000000000000000000000000000000000000000000000000000073ffffffffffffffffffffffffffffffffffffffff166323b872dd3330866040518463ffffffff1660e01b8152600401611c53939291906140f2565b6020604051808303816000875af1158015611c72573d6000803e3d6000fd5b505050506040513d601f19601f82011682018060405250810190611c9691906140c5565b905080611ccf576040517fe64e62de00000000000000000000000000000000000000000000000000000000815260040160405180910390fd5b82600560003373ffffffffffffffffffffffffffffffffffffffff1673ffffffffffffffffffffffffffffffffffffffff16815260200190815260200160002060007f000000000000000000000000000000000000000000000000000000000000000073ffffffffffffffffffffffffffffffffffffffff1673ffffffffffffffffffffffffffffffffffffffff1681526020019081526020016000206000828254611d7b9190614129565b925050819055506000600560003373ffffffffffffffffffffffffffffffffffffffff1673ffffffffffffffffffffffffffffffffffffffff16815260200190815260200160002060007f000000000000000000000000000000000000000000000000000000000000000073ffffffffffffffffffffffffffffffffffffffff1673ffffffffffffffffffffffffffffffffffffffff168152602001908152602001600020541115611e3157611e3033613937565b5b7f000000000000000000000000000000000000000000000000000000000000000073ffffffffffffffffffffffffffffffffffffffff163373ffffffffffffffffffffffffffffffffffffffff167fef12f18e2b6578b91b3c852c423ca8ee530f65f20f770e62a7ce8aa08e1ab77785604051611eae9190613e03565b60405180910390a35050611ec061359f565b50565b611ecb6133d1565b8060008111611f06576040517f58f2468300000000000000000000000000000000000000000000000000000000815260040160405180910390fd5b600080611f12856114c3565b91509150670de0b6b3a76400008210611f57576040517f8bde3e8300000000000000000000000000000000000000000000000000000000815260040160405180910390fd5b6000818511611f665784611f68565b815b90506000611f75826113bb565b9050600560008873ffffffffffffffffffffffffffffffffffffffff1673ffffffffffffffffffffffffffffffffffffffff16815260200190815260200160002060007f000000000000000000000000000000000000000000000000000000000000000073ffffffffffffffffffffffffffffffffffffffff1673ffffffffffffffffffffffffffffffffffffffff1681526020019081526020016000205481111561204d576040517f6af290b100000000000000000000000000000000000000000000000000000000815260040160405180910390fd5b60006064600a8361205e919061415d565b61206891906141ce565b9050600081836120789190614129565b90508873ffffffffffffffffffffffffffffffffffffffff163373ffffffffffffffffffffffffffffffffffffffff16036120df576040517f8e04dcbb00000000000000000000000000000000000000000000000000000000815260040160405180910390fd5b83600460008b73ffffffffffffffffffffffffffffffffffffffff1673ffffffffffffffffffffffffffffffffffffffff16815260200190815260200160002060007f000000000000000000000000000000000000000000000000000000000000000073ffffffffffffffffffffffffffffffffffffffff1673ffffffffffffffffffffffffffffffffffffffff168152602001908152602001600020600082825461218b9190614021565b9250508190555082600560008b73ffffffffffffffffffffffffffffffffffffffff1673ffffffffffffffffffffffffffffffffffffffff16815260200190815260200160002060007f000000000000000000000000000000000000000000000000000000000000000073ffffffffffffffffffffffffffffffffffffffff1673ffffffffffffffffffffffffffffffffffffffff168152602001908152602001600020600082825461223e9190614021565b9250508190555060007f000000000000000000000000000000000000000000000000000000000000000073ffffffffffffffffffffffffffffffffffffffff1663095ea7b330876040518363ffffffff1660e01b81526004016122a2929190614064565b6020604051808303816000875af11580156122c1573d6000803e3d6000fd5b505050506040513d601f19601f820116820180604052508101906122e591906140c5565b90507f000000000000000000000000000000000000000000000000000000000000000073ffffffffffffffffffffffffffffffffffffffff166323b872dd3330886040518463ffffffff1660e01b8152600401612344939291906140f2565b6020604051808303816000875af1158015612363573d6000803e3d6000fd5b505050506040513d601f19601f8201168201806040525081019061238791906140c5565b905060007f000000000000000000000000000000000000000000000000000000000000000073ffffffffffffffffffffffffffffffffffffffff1663095ea7b330856040518363ffffffff1660e01b81526004016123e6929190614064565b6020604051808303816000875af1158015612405573d6000803e3d6000fd5b505050506040513d601f19601f8201168201806040525081019061242991906140c5565b90507f000000000000000000000000000000000000000000000000000000000000000073ffffffffffffffffffffffffffffffffffffffff1663a9059cbb33856040518363ffffffff1660e01b8152600401612486929190614064565b6020604051808303816000875af11580156124a5573d6000803e3d6000fd5b505050506040513d601f19601f820116820180604052508101906124c991906140c5565b90508115806124d6575080155b1561250d576040517fe64e62de00000000000000000000000000000000000000000000000000000000815260040160405180910390fd5b8a73ffffffffffffffffffffffffffffffffffffffff163373ffffffffffffffffffffffffffffffffffffffff167ff3fa0eaee8f258c23b013654df25d1527f98a5c7ccd5e951dd77caca400ef972888660405161256c929190613f89565b60405180910390a350505050505050505061258561359f565b5050565b6125916133d1565b80600081116125cc576040517f58f2468300000000000000000000000000000000000000000000000000000000815260040160405180910390fd5b6000600560003373ffffffffffffffffffffffffffffffffffffffff1673ffffffffffffffffffffffffffffffffffffffff16815260200190815260200160002060007f000000000000000000000000000000000000000000000000000000000000000073ffffffffffffffffffffffffffffffffffffffff1673ffffffffffffffffffffffffffffffffffffffff168152602001908152602001600020549050828110156126a7576040517f663ca2f000000000000000000000000000000000000000000000000000000000815260040160405180910390fd5b82600560003373ffffffffffffffffffffffffffffffffffffffff1673ffffffffffffffffffffffffffffffffffffffff16815260200190815260200160002060007f000000000000000000000000000000000000000000000000000000000000000073ffffffffffffffffffffffffffffffffffffffff1673ffffffffffffffffffffffffffffffffffffffff16815260200190815260200160002060008282546127539190614021565b925050819055506000612765336114c3565b509050670de0b6b3a76400008110156127b557806040517f04697f370000000000000000000000000000000000000000000000000000000081526004016127ac9190613e03565b60405180910390fd5b6000600560003373ffffffffffffffffffffffffffffffffffffffff1673ffffffffffffffffffffffffffffffffffffffff16815260200190815260200160002060007f000000000000000000000000000000000000000000000000000000000000000073ffffffffffffffffffffffffffffffffffffffff1673ffffffffffffffffffffffffffffffffffffffff16815260200190815260200160002054036128635761286233613a33565b5b60007f000000000000000000000000000000000000000000000000000000000000000073ffffffffffffffffffffffffffffffffffffffff1663095ea7b330876040518363ffffffff1660e01b81526004016128c0929190614064565b6020604051808303816000875af11580156128df573d6000803e3d6000fd5b505050506040513d601f19601f8201168201806040525081019061290391906140c5565b90508061293c576040517f98d23b5100000000000000000000000000000000000000000000000000000000815260040160405180910390fd5b7f000000000000000000000000000000000000000000000000000000000000000073ffffffffffffffffffffffffffffffffffffffff1663a9059cbb33876040518363ffffffff1660e01b8152600401612997929190614064565b6020604051808303816000875af11580156129b6573d6000803e3d6000fd5b505050506040513d601f19601f820116820180604052508101906129da91906140c5565b905080612a13576040517fe64e62de00000000000000000000000000000000000000000000000000000000815260040160405180910390fd5b7f000000000000000000000000000000000000000000000000000000000000000073ffffffffffffffffffffffffffffffffffffffff163373ffffffffffffffffffffffffffffffffffffffff167fc994feb9b99296d80965b47aec6be0d25704ddf95b9b9bc1ed8bc753960d580987604051612a909190613e03565b60405180910390a350505050612aa461359f565b50565b6000600760007f000000000000000000000000000000000000000000000000000000000000000073ffffffffffffffffffffffffffffffffffffffff1673ffffffffffffffffffffffffffffffffffffffff16815260200190815260200160002054905090565b6000600360008373ffffffffffffffffffffffffffffffffffffffff1673ffffffffffffffffffffffffffffffffffffffff16815260200190815260200160002060007f000000000000000000000000000000000000000000000000000000000000000073ffffffffffffffffffffffffffffffffffffffff1673ffffffffffffffffffffffffffffffffffffffff168152602001908152602001600020549050919050565b6301e1338081565b612bc46133d1565b8060008111612bff576040517f58f2468300000000000000000000000000000000000000000000000000000000815260040160405180910390fd5b6000612c0a3361147d565b90506000600460003373ffffffffffffffffffffffffffffffffffffffff1673ffffffffffffffffffffffffffffffffffffffff16815260200190815260200160002060007f000000000000000000000000000000000000000000000000000000000000000073ffffffffffffffffffffffffffffffffffffffff1673ffffffffffffffffffffffffffffffffffffffff16815260200190815260200160002054905060008482612cbb9190614129565b905080831015612cf7576040517f663ca2f000000000000000000000000000000000000000000000000000000000815260040160405180910390fd5b80600460003373ffffffffffffffffffffffffffffffffffffffff1673ffffffffffffffffffffffffffffffffffffffff16815260200190815260200160002060007f000000000000000000000000000000000000000000000000000000000000000073ffffffffffffffffffffffffffffffffffffffff1673ffffffffffffffffffffffffffffffffffffffff168152602001908152602001600020819055506000612da3336114c3565b509050670de0b6b3a7640000811015612df357806040517f04697f37000000000000000000000000000000000000000000000000000000008152600401612dea9190613e03565b60405180910390fd5b6000600460003373ffffffffffffffffffffffffffffffffffffffff1673ffffffffffffffffffffffffffffffffffffffff16815260200190815260200160002060007f000000000000000000000000000000000000000000000000000000000000000073ffffffffffffffffffffffffffffffffffffffff1673ffffffffffffffffffffffffffffffffffffffff168152602001908152602001600020541115612ea257612ea133613bbd565b5b60007f000000000000000000000000000000000000000000000000000000000000000073ffffffffffffffffffffffffffffffffffffffff1663095ea7b330896040518363ffffffff1660e01b8152600401612eff929190614064565b6020604051808303816000875af1158015612f1e573d6000803e3d6000fd5b505050506040513d601f19601f82011682018060405250810190612f4291906140c5565b905080612f7b576040517f98d23b5100000000000000000000000000000000000000000000000000000000815260040160405180910390fd5b7f000000000000000000000000000000000000000000000000000000000000000073ffffffffffffffffffffffffffffffffffffffff1663a9059cbb33896040518363ffffffff1660e01b8152600401612fd6929190614064565b6020604051808303816000875af1158015612ff5573d6000803e3d6000fd5b505050506040513d601f19601f8201168201806040525081019061301991906140c5565b905080613052576040517fe64e62de00000000000000000000000000000000000000000000000000000000815260040160405180910390fd5b7f000000000000000000000000000000000000000000000000000000000000000073ffffffffffffffffffffffffffffffffffffffff163373ffffffffffffffffffffffffffffffffffffffff167f312a5e5e1079f5dda4e95dbbd0b908b291fd5b992ef22073643ab691572c5b52896040516130cf9190613e03565b60405180910390a35050505050506130e561359f565b50565b6000806130f48361147d565b90506000600460008573ffffffffffffffffffffffffffffffffffffffff1673ffffffffffffffffffffffffffffffffffffffff16815260200190815260200160002060007f000000000000000000000000000000000000000000000000000000000000000073ffffffffffffffffffffffffffffffffffffffff1673ffffffffffffffffffffffffffffffffffffffff16815260200190815260200160002054905080826131a39190614021565b92505050919050565b6000806000905060006131bd6113ef565b905060005b815181101561329c57600460008383815181106131e2576131e16141ff565b5b602002602001015173ffffffffffffffffffffffffffffffffffffffff1673ffffffffffffffffffffffffffffffffffffffff16815260200190815260200160002060007f000000000000000000000000000000000000000000000000000000000000000073ffffffffffffffffffffffffffffffffffffffff1673ffffffffffffffffffffffffffffffffffffffff168152602001908152602001600020548361328d9190614129565b925080806001019150506131c2565b50819250505090565b6000806000905060006132b6610b08565b905060005b8151811015613301576132e78282815181106132da576132d96141ff565b5b6020026020010151613726565b836132f29190614129565b925080806001019150506132bb565b50819250505090565b600061331582613cb9565b9050919050565b60006133266137fc565b905090565b6000600460008373ffffffffffffffffffffffffffffffffffffffff1673ffffffffffffffffffffffffffffffffffffffff16815260200190815260200160002060007f000000000000000000000000000000000000000000000000000000000000000073ffffffffffffffffffffffffffffffffffffffff1673ffffffffffffffffffffffffffffffffffffffff168152602001908152602001600020549050919050565b60026000540361340d576040517f3ee5aeb500000000000000000000000000000000000000000000000000000000815260040160405180910390fd5b6002600081905550565b60005b60018054905081101561359b578173ffffffffffffffffffffffffffffffffffffffff1660018281548110613452576134516141ff565b5b9060005260206000200160009054906101000a900473ffffffffffffffffffffffffffffffffffffffff1673ffffffffffffffffffffffffffffffffffffffff160361358e5760018080805490506134aa9190614021565b815481106134bb576134ba6141ff565b5b9060005260206000200160009054906101000a900473ffffffffffffffffffffffffffffffffffffffff16600182815481106134fa576134f96141ff565b5b9060005260206000200160006101000a81548173ffffffffffffffffffffffffffffffffffffffff021916908373ffffffffffffffffffffffffffffffffffffffff16021790555060018054806135545761355361422e565b5b6001900381819060005260206000200160006101000a81549073ffffffffffffffffffffffffffffffffffffffff0219169055905561359b565b808060010191505061341a565b5050565b6001600081905550565b600080600960007f000000000000000000000000000000000000000000000000000000000000000073ffffffffffffffffffffffffffffffffffffffff1673ffffffffffffffffffffffffffffffffffffffff16815260200190815260200160002060009054906101000a900473ffffffffffffffffffffffffffffffffffffffff169050600081905060008173ffffffffffffffffffffffffffffffffffffffff1673__$9037b2fcd2753f718e08d07444b301ed88$__632b8d062190916040518263ffffffff1660e01b815260040161368491906142bc565b60a060405180830381865af41580156136a1573d6000803e3d6000fd5b505050506040513d601f19601f820116820180604052508101906136c59190614364565b5050509150506402540be400816136dc919061415d565b935050505090565b60008060646301e13380846005876136fc919061415d565b613706919061415d565b61371091906141ce565b61371a91906141ce565b90508091505092915050565b600080600560008473ffffffffffffffffffffffffffffffffffffffff1673ffffffffffffffffffffffffffffffffffffffff16815260200190815260200160002060007f000000000000000000000000000000000000000000000000000000000000000073ffffffffffffffffffffffffffffffffffffffff1673ffffffffffffffffffffffffffffffffffffffff16815260200190815260200160002054905060006137d26137fc565b9050670de0b6b3a764000081836137e9919061415d565b6137f391906141ce565b92505050919050565b600080600860007f000000000000000000000000000000000000000000000000000000000000000073ffffffffffffffffffffffffffffffffffffffff1673ffffffffffffffffffffffffffffffffffffffff16815260200190815260200160002060009054906101000a900473ffffffffffffffffffffffffffffffffffffffff169050600081905060008173ffffffffffffffffffffffffffffffffffffffff1673__$9037b2fcd2753f718e08d07444b301ed88$__632b8d062190916040518263ffffffff1660e01b81526004016138d791906142bc565b60a060405180830381865af41580156138f4573d6000803e3d6000fd5b505050506040513d601f19601f820116820180604052508101906139189190614364565b5050509150506402540be4008161392f919061415d565b935050505090565b60005b6002805490508110156139cb578173ffffffffffffffffffffffffffffffffffffffff1660028281548110613972576139716141ff565b5b9060005260206000200160009054906101000a900473ffffffffffffffffffffffffffffffffffffffff1673ffffffffffffffffffffffffffffffffffffffff16036139be5750613a30565b808060010191505061393a565b506002819080600181540180825580915050600190039060005260206000200160009091909190916101000a81548173ffffffffffffffffffffffffffffffffffffffff021916908373ffffffffffffffffffffffffffffffffffffffff1602179055505b50565b60005b600280549050811015613bb9578173ffffffffffffffffffffffffffffffffffffffff1660028281548110613a6e57613a6d6141ff565b5b9060005260206000200160009054906101000a900473ffffffffffffffffffffffffffffffffffffffff1673ffffffffffffffffffffffffffffffffffffffff1603613bac5760026001600280549050613ac89190614021565b81548110613ad957613ad86141ff565b5b9060005260206000200160009054906101000a900473ffffffffffffffffffffffffffffffffffffffff1660028281548110613b1857613b176141ff565b5b9060005260206000200160006101000a81548173ffffffffffffffffffffffffffffffffffffffff021916908373ffffffffffffffffffffffffffffffffffffffff1602179055506002805480613b7257613b7161422e565b5b6001900381819060005260206000200160006101000a81549073ffffffffffffffffffffffffffffffffffffffff02191690559055613bb9565b8080600101915050613a36565b5050565b60005b600180549050811015613c51578173ffffffffffffffffffffffffffffffffffffffff1660018281548110613bf857613bf76141ff565b5b9060005260206000200160009054906101000a900473ffffffffffffffffffffffffffffffffffffffff1673ffffffffffffffffffffffffffffffffffffffff1603613c445750613cb6565b8080600101915050613bc0565b506001819080600181540180825580915050600190039060005260206000200160009091909190916101000a81548173ffffffffffffffffffffffffffffffffffffffff021916908373ffffffffffffffffffffffffffffffffffffffff1602179055505b50565b6000807f000000000000000000000000000000000000000000000000000000000000000073ffffffffffffffffffffffffffffffffffffffff166370a08231846040518263ffffffff1660e01b8152600401613d1591906143df565b602060405180830381865afa158015613d32573d6000803e3d6000fd5b505050506040513d601f19601f82011682018060405250810190613d5691906143fa565b90506000613d626137fc565b9050670de0b6b3a76400008183613d79919061415d565b613d8391906141ce565b92505050919050565b600080fd5b6000819050919050565b613da481613d91565b8114613daf57600080fd5b50565b600081359050613dc181613d9b565b92915050565b600060208284031215613ddd57613ddc613d8c565b5b6000613deb84828501613db2565b91505092915050565b613dfd81613d91565b82525050565b6000602082019050613e186000830184613df4565b92915050565b600081519050919050565b600082825260208201905092915050565b6000819050602082019050919050565b600073ffffffffffffffffffffffffffffffffffffffff82169050919050565b6000613e7582613e4a565b9050919050565b613e8581613e6a565b82525050565b6000613e978383613e7c565b60208301905092915050565b6000602082019050919050565b6000613ebb82613e1e565b613ec58185613e29565b9350613ed083613e3a565b8060005b83811015613f01578151613ee88882613e8b565b9750613ef383613ea3565b925050600181019050613ed4565b5085935050505092915050565b60006020820190508181036000830152613f288184613eb0565b905092915050565b613f3981613e6a565b8114613f4457600080fd5b50565b600081359050613f5681613f30565b92915050565b600060208284031215613f7257613f71613d8c565b5b6000613f8084828501613f47565b91505092915050565b6000604082019050613f9e6000830185613df4565b613fab6020830184613df4565b9392505050565b60008060408385031215613fc957613fc8613d8c565b5b6000613fd785828601613f47565b9250506020613fe885828601613db2565b9150509250929050565b7f4e487b7100000000000000000000000000000000000000000000000000000000600052601160045260246000fd5b600061402c82613d91565b915061403783613d91565b925082820390508181111561404f5761404e613ff2565b5b92915050565b61405e81613e6a565b82525050565b60006040820190506140796000830185614055565b6140866020830184613df4565b9392505050565b60008115159050919050565b6140a28161408d565b81146140ad57600080fd5b50565b6000815190506140bf81614099565b92915050565b6000602082840312156140db576140da613d8c565b5b60006140e9848285016140b0565b91505092915050565b60006060820190506141076000830186614055565b6141146020830185614055565b6141216040830184613df4565b949350505050565b600061413482613d91565b915061413f83613d91565b925082820190508082111561415757614156613ff2565b5b92915050565b600061416882613d91565b915061417383613d91565b925082820261418181613d91565b9150828204841483151761419857614197613ff2565b5b5092915050565b7f4e487b7100000000000000000000000000000000000000000000000000000000600052601260045260246000fd5b60006141d982613d91565b91506141e483613d91565b9250826141f4576141f361419f565b5b828204905092915050565b7f4e487b7100000000000000000000000000000000000000000000000000000000600052603260045260246000fd5b7f4e487b7100000000000000000000000000000000000000000000000000000000600052603160045260246000fd5b6000819050919050565b600061428261427d61427884613e4a565b61425d565b613e4a565b9050919050565b600061429482614267565b9050919050565b60006142a682614289565b9050919050565b6142b68161429b565b82525050565b60006020820190506142d160008301846142ad565b92915050565b600069ffffffffffffffffffff82169050919050565b6142f6816142d7565b811461430157600080fd5b50565b600081519050614313816142ed565b92915050565b6000819050919050565b61432c81614319565b811461433757600080fd5b50565b60008151905061434981614323565b92915050565b60008151905061435e81613d9b565b92915050565b600080600080600060a086880312156143805761437f613d8c565b5b600061438e88828901614304565b955050602061439f8882890161433a565b94505060406143b08882890161434f565b93505060606143c18882890161434f565b92505060806143d288828901614304565b9150509295509295909350565b60006020820190506143f46000830184614055565b92915050565b6000602082840312156144105761440f613d8c565b5b600061441e8482850161434f565b9150509291505056fea26469706673582212203b849568df7d7db490bfd8636e5ff9c9678ae4732ac2b7aba366ac41db0a033c64736f6c634300081b0033",
          "opcodes": "PUSH1 0xC0 PUSH1 0x40 MSTORE CALLVALUE DUP1 ISZERO PUSH2 0x10 JUMPI PUSH1 0x0 DUP1 REVERT JUMPDEST POP PUSH1 0x40 MLOAD PUSH2 0x48BB CODESIZE SUB DUP1 PUSH2 0x48BB DUP4 CODECOPY DUP2 DUP2 ADD PUSH1 0x40 MSTORE DUP2 ADD SWAP1 PUSH2 0x32 SWAP2 SWAP1 PUSH2 0x24A JUMP JUMPDEST PUSH1 0x1 PUSH1 0x0 DUP2 SWAP1 SSTORE POP DUP4 PUSH20 0xFFFFFFFFFFFFFFFFFFFFFFFFFFFFFFFFFFFFFFFF AND PUSH1 0x80 DUP2 PUSH20 0xFFFFFFFFFFFFFFFFFFFFFFFFFFFFFFFFFFFFFFFF AND DUP2 MSTORE POP POP DUP3 PUSH20 0xFFFFFFFFFFFFFFFFFFFFFFFFFFFFFFFFFFFFFFFF AND PUSH1 0xA0 DUP2 PUSH20 0xFFFFFFFFFFFFFFFFFFFFFFFFFFFFFFFFFFFFFFFF AND DUP2 MSTORE POP POP DUP2 PUSH1 0x8 PUSH1 0x0 DUP6 PUSH20 0xFFFFFFFFFFFFFFFFFFFFFFFFFFFFFFFFFFFFFFFF AND PUSH20 0xFFFFFFFFFFFFFFFFFFFFFFFFFFFFFFFFFFFFFFFF AND DUP2 MSTORE PUSH1 0x20 ADD SWAP1 DUP2 MSTORE PUSH1 0x20 ADD PUSH1 0x0 KECCAK256 PUSH1 0x0 PUSH2 0x100 EXP DUP2 SLOAD DUP2 PUSH20 0xFFFFFFFFFFFFFFFFFFFFFFFFFFFFFFFFFFFFFFFF MUL NOT AND SWAP1 DUP4 PUSH20 0xFFFFFFFFFFFFFFFFFFFFFFFFFFFFFFFFFFFFFFFF AND MUL OR SWAP1 SSTORE POP DUP1 PUSH1 0x9 PUSH1 0x0 PUSH1 0x80 MLOAD PUSH20 0xFFFFFFFFFFFFFFFFFFFFFFFFFFFFFFFFFFFFFFFF AND PUSH20 0xFFFFFFFFFFFFFFFFFFFFFFFFFFFFFFFFFFFFFFFF AND DUP2 MSTORE PUSH1 0x20 ADD SWAP1 DUP2 MSTORE PUSH1 0x20 ADD PUSH1 0x0 KECCAK256 PUSH1 0x0 PUSH2 0x100 EXP DUP2 SLOAD DUP2 PUSH20 0xFFFFFFFFFFFFFFFFFFFFFFFFFFFFFFFFFFFFFFFF MUL NOT AND SWAP1 DUP4 PUSH20 0xFFFFFFFFFFFFFFFFFFFFFFFFFFFFFFFFFFFFFFFF AND MUL OR SWAP1 SSTORE POP POP POP POP POP PUSH2 0x2B1 JUMP JUMPDEST PUSH1 0x0 DUP1 REVERT JUMPDEST PUSH1 0x0 PUSH20 0xFFFFFFFFFFFFFFFFFFFFFFFFFFFFFFFFFFFFFFFF DUP3 AND SWAP1 POP SWAP2 SWAP1 POP JUMP JUMPDEST PUSH1 0x0 PUSH2 0x1D9 DUP3 PUSH2 0x1AE JUMP JUMPDEST SWAP1 POP SWAP2 SWAP1 POP JUMP JUMPDEST PUSH2 0x1E9 DUP2 PUSH2 0x1CE JUMP JUMPDEST DUP2 EQ PUSH2 0x1F4 JUMPI PUSH1 0x0 DUP1 REVERT JUMPDEST POP JUMP JUMPDEST PUSH1 0x0 DUP2 MLOAD SWAP1 POP PUSH2 0x206 DUP2 PUSH2 0x1E0 JUMP JUMPDEST SWAP3 SWAP2 POP POP JUMP JUMPDEST PUSH1 0x0 PUSH2 0x217 DUP3 PUSH2 0x1CE JUMP JUMPDEST SWAP1 POP SWAP2 SWAP1 POP JUMP JUMPDEST PUSH2 0x227 DUP2 PUSH2 0x20C JUMP JUMPDEST DUP2 EQ PUSH2 0x232 JUMPI PUSH1 0x0 DUP1 REVERT JUMPDEST POP JUMP JUMPDEST PUSH1 0x0 DUP2 MLOAD SWAP1 POP PUSH2 0x244 DUP2 PUSH2 0x21E JUMP JUMPDEST SWAP3 SWAP2 POP POP JUMP JUMPDEST PUSH1 0x0 DUP1 PUSH1 0x0 DUP1 PUSH1 0x80 DUP6 DUP8 SUB SLT ISZERO PUSH2 0x264 JUMPI PUSH2 0x263 PUSH2 0x1A9 JUMP JUMPDEST JUMPDEST PUSH1 0x0 PUSH2 0x272 DUP8 DUP3 DUP9 ADD PUSH2 0x1F7 JUMP JUMPDEST SWAP5 POP POP PUSH1 0x20 PUSH2 0x283 DUP8 DUP3 DUP9 ADD PUSH2 0x1F7 JUMP JUMPDEST SWAP4 POP POP PUSH1 0x40 PUSH2 0x294 DUP8 DUP3 DUP9 ADD PUSH2 0x235 JUMP JUMPDEST SWAP3 POP POP PUSH1 0x60 PUSH2 0x2A5 DUP8 DUP3 DUP9 ADD PUSH2 0x235 JUMP JUMPDEST SWAP2 POP POP SWAP3 SWAP6 SWAP2 SWAP5 POP SWAP3 POP JUMP JUMPDEST PUSH1 0x80 MLOAD PUSH1 0xA0 MLOAD PUSH2 0x445D PUSH2 0x45E PUSH1 0x0 CODECOPY PUSH1 0x0 DUP2 DUP2 PUSH2 0x1A79 ADD MSTORE DUP2 DUP2 PUSH2 0x1B21 ADD MSTORE DUP2 DUP2 PUSH2 0x1BF8 ADD MSTORE DUP2 DUP2 PUSH2 0x1D13 ADD MSTORE DUP2 DUP2 PUSH2 0x1DC7 ADD MSTORE DUP2 DUP2 PUSH2 0x1E33 ADD MSTORE DUP2 DUP2 PUSH2 0x1FBA ADD MSTORE DUP2 DUP2 PUSH2 0x21D6 ADD MSTORE DUP2 DUP2 PUSH2 0x238D ADD MSTORE DUP2 DUP2 PUSH2 0x242D ADD MSTORE DUP2 DUP2 PUSH2 0x2611 ADD MSTORE DUP2 DUP2 PUSH2 0x26EB ADD MSTORE DUP2 DUP2 PUSH2 0x27FA ADD MSTORE DUP2 DUP2 PUSH2 0x2867 ADD MSTORE DUP2 DUP2 PUSH2 0x293E ADD MSTORE DUP2 DUP2 PUSH2 0x2A15 ADD MSTORE DUP2 DUP2 PUSH2 0x376C ADD MSTORE DUP2 DUP2 PUSH2 0x3805 ADD MSTORE PUSH2 0x3CBE ADD MSTORE PUSH1 0x0 DUP2 DUP2 PUSH2 0x6A4 ADD MSTORE DUP2 DUP2 PUSH2 0x791 ADD MSTORE DUP2 DUP2 PUSH2 0x845 ADD MSTORE DUP2 DUP2 PUSH2 0x8B2 ADD MSTORE DUP2 DUP2 PUSH2 0x989 ADD MSTORE DUP2 DUP2 PUSH2 0xA62 ADD MSTORE DUP2 DUP2 PUSH2 0xC1E ADD MSTORE DUP2 DUP2 PUSH2 0xCF9 ADD MSTORE DUP2 DUP2 PUSH2 0xD82 ADD MSTORE DUP2 DUP2 PUSH2 0xE59 ADD MSTORE DUP2 DUP2 PUSH2 0xF72 ADD MSTORE DUP2 DUP2 PUSH2 0xFE8 ADD MSTORE DUP2 DUP2 PUSH2 0x109C ADD MSTORE DUP2 DUP2 PUSH2 0x1140 ADD MSTORE DUP2 DUP2 PUSH2 0x11A0 ADD MSTORE DUP2 DUP2 PUSH2 0x1283 ADD MSTORE DUP2 DUP2 PUSH2 0x1337 ADD MSTORE DUP2 DUP2 PUSH2 0x1518 ADD MSTORE DUP2 DUP2 PUSH2 0x162A ADD MSTORE DUP2 DUP2 PUSH2 0x1701 ADD MSTORE DUP2 DUP2 PUSH2 0x181C ADD MSTORE DUP2 DUP2 PUSH2 0x1892 ADD MSTORE DUP2 DUP2 PUSH2 0x1945 ADD MSTORE DUP2 DUP2 PUSH2 0x19A4 ADD MSTORE DUP2 DUP2 PUSH2 0x2123 ADD MSTORE DUP2 DUP2 PUSH2 0x2249 ADD MSTORE DUP2 DUP2 PUSH2 0x22E9 ADD MSTORE DUP2 DUP2 PUSH2 0x2AAF ADD MSTORE DUP2 DUP2 PUSH2 0x2B53 ADD MSTORE DUP2 DUP2 PUSH2 0x2C51 ADD MSTORE DUP2 DUP2 PUSH2 0x2D3B ADD MSTORE DUP2 DUP2 PUSH2 0x2E38 ADD MSTORE DUP2 DUP2 PUSH2 0x2EA6 ADD MSTORE DUP2 DUP2 PUSH2 0x2F7D ADD MSTORE DUP2 DUP2 PUSH2 0x3054 ADD MSTORE DUP2 DUP2 PUSH2 0x313B ADD MSTORE DUP2 DUP2 PUSH2 0x3228 ADD MSTORE DUP2 DUP2 PUSH2 0x3370 ADD MSTORE PUSH2 0x35B2 ADD MSTORE PUSH2 0x445D PUSH1 0x0 RETURN INVALID PUSH1 0x80 PUSH1 0x40 MSTORE CALLVALUE DUP1 ISZERO PUSH2 0x10 JUMPI PUSH1 0x0 DUP1 REVERT JUMPDEST POP PUSH1 0x4 CALLDATASIZE LT PUSH2 0x1DA JUMPI PUSH1 0x0 CALLDATALOAD PUSH1 0xE0 SHR DUP1 PUSH4 0xB6B55F25 GT PUSH2 0x104 JUMPI DUP1 PUSH4 0xC4FA17A4 GT PUSH2 0xA2 JUMPI DUP1 PUSH4 0xED6493AF GT PUSH2 0x71 JUMPI DUP1 PUSH4 0xED6493AF EQ PUSH2 0x580 JUMPI DUP1 PUSH4 0xEE31D43F EQ PUSH2 0x59E JUMPI DUP1 PUSH4 0xF7683BBC EQ PUSH2 0x5CE JUMPI DUP1 PUSH4 0xFC2E93B5 EQ PUSH2 0x5EC JUMPI PUSH2 0x1DA JUMP JUMPDEST DUP1 PUSH4 0xC4FA17A4 EQ PUSH2 0x4F8 JUMPI DUP1 PUSH4 0xC5EBEAEC EQ PUSH2 0x516 JUMPI DUP1 PUSH4 0xC671922C EQ PUSH2 0x532 JUMPI DUP1 PUSH4 0xCC484C5C EQ PUSH2 0x562 JUMPI PUSH2 0x1DA JUMP JUMPDEST DUP1 PUSH4 0xBCBAF487 GT PUSH2 0xDE JUMPI DUP1 PUSH4 0xBCBAF487 EQ PUSH2 0x472 JUMPI DUP1 PUSH4 0xBD37B775 EQ PUSH2 0x48E JUMPI DUP1 PUSH4 0xC022215C EQ PUSH2 0x4AA JUMPI DUP1 PUSH4 0xC084B10B EQ PUSH2 0x4C8 JUMPI PUSH2 0x1DA JUMP JUMPDEST DUP1 PUSH4 0xB6B55F25 EQ PUSH2 0x40A JUMPI DUP1 PUSH4 0xB6F7132F EQ PUSH2 0x426 JUMPI DUP1 PUSH4 0xBAD4A01F EQ PUSH2 0x456 JUMPI PUSH2 0x1DA JUMP JUMPDEST DUP1 PUSH4 0x5E0BD769 GT PUSH2 0x17C JUMPI DUP1 PUSH4 0x7C17D237 GT PUSH2 0x14B JUMPI DUP1 PUSH4 0x7C17D237 EQ PUSH2 0x35B JUMPI DUP1 PUSH4 0x90A8AE9B EQ PUSH2 0x38B JUMPI DUP1 PUSH4 0x97904E42 EQ PUSH2 0x3A9 JUMPI DUP1 PUSH4 0x9CE625F7 EQ PUSH2 0x3D9 JUMPI PUSH2 0x1DA JUMP JUMPDEST DUP1 PUSH4 0x5E0BD769 EQ PUSH2 0x2AD JUMPI DUP1 PUSH4 0x5E5C83B4 EQ PUSH2 0x2DD JUMPI DUP1 PUSH4 0x64C15196 EQ PUSH2 0x30D JUMPI DUP1 PUSH4 0x6854786A EQ PUSH2 0x33D JUMPI PUSH2 0x1DA JUMP JUMPDEST DUP1 PUSH4 0x2957CB77 GT PUSH2 0x1B8 JUMPI DUP1 PUSH4 0x2957CB77 EQ PUSH2 0x237 JUMPI DUP1 PUSH4 0x2E1A7D4D EQ PUSH2 0x255 JUMPI DUP1 PUSH4 0x3574D4C4 EQ PUSH2 0x271 JUMPI DUP1 PUSH4 0x5B72A33A EQ PUSH2 0x28F JUMPI PUSH2 0x1DA JUMP JUMPDEST DUP1 PUSH4 0xE752702 EQ PUSH2 0x1DF JUMPI DUP1 PUSH4 0x17F49E05 EQ PUSH2 0x1FB JUMPI DUP1 PUSH4 0x2649AA16 EQ PUSH2 0x219 JUMPI JUMPDEST PUSH1 0x0 DUP1 REVERT JUMPDEST PUSH2 0x1F9 PUSH1 0x4 DUP1 CALLDATASIZE SUB DUP2 ADD SWAP1 PUSH2 0x1F4 SWAP2 SWAP1 PUSH2 0x3DC7 JUMP JUMPDEST PUSH2 0x61C JUMP JUMPDEST STOP JUMPDEST PUSH2 0x203 PUSH2 0xAF4 JUMP JUMPDEST PUSH1 0x40 MLOAD PUSH2 0x210 SWAP2 SWAP1 PUSH2 0x3E03 JUMP JUMPDEST PUSH1 0x40 MLOAD DUP1 SWAP2 SUB SWAP1 RETURN JUMPDEST PUSH2 0x221 PUSH2 0xAF9 JUMP JUMPDEST PUSH1 0x40 MLOAD PUSH2 0x22E SWAP2 SWAP1 PUSH2 0x3E03 JUMP JUMPDEST PUSH1 0x40 MLOAD DUP1 SWAP2 SUB SWAP1 RETURN JUMPDEST PUSH2 0x23F PUSH2 0xB08 JUMP JUMPDEST PUSH1 0x40 MLOAD PUSH2 0x24C SWAP2 SWAP1 PUSH2 0x3F0E JUMP JUMPDEST PUSH1 0x40 MLOAD DUP1 SWAP2 SUB SWAP1 RETURN JUMPDEST PUSH2 0x26F PUSH1 0x4 DUP1 CALLDATASIZE SUB DUP2 ADD SWAP1 PUSH2 0x26A SWAP2 SWAP1 PUSH2 0x3DC7 JUMP JUMPDEST PUSH2 0xB96 JUMP JUMPDEST STOP JUMPDEST PUSH2 0x279 PUSH2 0x1234 JUMP JUMPDEST PUSH1 0x40 MLOAD PUSH2 0x286 SWAP2 SWAP1 PUSH2 0x3E03 JUMP JUMPDEST PUSH1 0x40 MLOAD DUP1 SWAP2 SUB SWAP1 RETURN JUMPDEST PUSH2 0x297 PUSH2 0x1239 JUMP JUMPDEST PUSH1 0x40 MLOAD PUSH2 0x2A4 SWAP2 SWAP1 PUSH2 0x3E03 JUMP JUMPDEST PUSH1 0x40 MLOAD DUP1 SWAP2 SUB SWAP1 RETURN JUMPDEST PUSH2 0x2C7 PUSH1 0x4 DUP1 CALLDATASIZE SUB DUP2 ADD SWAP1 PUSH2 0x2C2 SWAP2 SWAP1 PUSH2 0x3F5C JUMP JUMPDEST PUSH2 0x123E JUMP JUMPDEST PUSH1 0x40 MLOAD PUSH2 0x2D4 SWAP2 SWAP1 PUSH2 0x3E03 JUMP JUMPDEST PUSH1 0x40 MLOAD DUP1 SWAP2 SUB SWAP1 RETURN JUMPDEST PUSH2 0x2F7 PUSH1 0x4 DUP1 CALLDATASIZE SUB DUP2 ADD SWAP1 PUSH2 0x2F2 SWAP2 SWAP1 PUSH2 0x3F5C JUMP JUMPDEST PUSH2 0x12E4 JUMP JUMPDEST PUSH1 0x40 MLOAD PUSH2 0x304 SWAP2 SWAP1 PUSH2 0x3E03 JUMP JUMPDEST PUSH1 0x40 MLOAD DUP1 SWAP2 SUB SWAP1 RETURN JUMPDEST PUSH2 0x327 PUSH1 0x4 DUP1 CALLDATASIZE SUB DUP2 ADD SWAP1 PUSH2 0x322 SWAP2 SWAP1 PUSH2 0x3DC7 JUMP JUMPDEST PUSH2 0x13BB JUMP JUMPDEST PUSH1 0x40 MLOAD PUSH2 0x334 SWAP2 SWAP1 PUSH2 0x3E03 JUMP JUMPDEST PUSH1 0x40 MLOAD DUP1 SWAP2 SUB SWAP1 RETURN JUMPDEST PUSH2 0x345 PUSH2 0x13EF JUMP JUMPDEST PUSH1 0x40 MLOAD PUSH2 0x352 SWAP2 SWAP1 PUSH2 0x3F0E JUMP JUMPDEST PUSH1 0x40 MLOAD DUP1 SWAP2 SUB SWAP1 RETURN JUMPDEST PUSH2 0x375 PUSH1 0x4 DUP1 CALLDATASIZE SUB DUP2 ADD SWAP1 PUSH2 0x370 SWAP2 SWAP1 PUSH2 0x3F5C JUMP JUMPDEST PUSH2 0x147D JUMP JUMPDEST PUSH1 0x40 MLOAD PUSH2 0x382 SWAP2 SWAP1 PUSH2 0x3E03 JUMP JUMPDEST PUSH1 0x40 MLOAD DUP1 SWAP2 SUB SWAP1 RETURN JUMPDEST PUSH2 0x393 PUSH2 0x14AC JUMP JUMPDEST PUSH1 0x40 MLOAD PUSH2 0x3A0 SWAP2 SWAP1 PUSH2 0x3E03 JUMP JUMPDEST PUSH1 0x40 MLOAD DUP1 SWAP2 SUB SWAP1 RETURN JUMPDEST PUSH2 0x3C3 PUSH1 0x4 DUP1 CALLDATASIZE SUB DUP2 ADD SWAP1 PUSH2 0x3BE SWAP2 SWAP1 PUSH2 0x3F5C JUMP JUMPDEST PUSH2 0x14B1 JUMP JUMPDEST PUSH1 0x40 MLOAD PUSH2 0x3D0 SWAP2 SWAP1 PUSH2 0x3E03 JUMP JUMPDEST PUSH1 0x40 MLOAD DUP1 SWAP2 SUB SWAP1 RETURN JUMPDEST PUSH2 0x3F3 PUSH1 0x4 DUP1 CALLDATASIZE SUB DUP2 ADD SWAP1 PUSH2 0x3EE SWAP2 SWAP1 PUSH2 0x3F5C JUMP JUMPDEST PUSH2 0x14C3 JUMP JUMPDEST PUSH1 0x40 MLOAD PUSH2 0x401 SWAP3 SWAP2 SWAP1 PUSH2 0x3F89 JUMP JUMPDEST PUSH1 0x40 MLOAD DUP1 SWAP2 SUB SWAP1 RETURN JUMPDEST PUSH2 0x424 PUSH1 0x4 DUP1 CALLDATASIZE SUB DUP2 ADD SWAP1 PUSH2 0x41F SWAP2 SWAP1 PUSH2 0x3DC7 JUMP JUMPDEST PUSH2 0x15E3 JUMP JUMPDEST STOP JUMPDEST PUSH2 0x440 PUSH1 0x4 DUP1 CALLDATASIZE SUB DUP2 ADD SWAP1 PUSH2 0x43B SWAP2 SWAP1 PUSH2 0x3F5C JUMP JUMPDEST PUSH2 0x1A34 JUMP JUMPDEST PUSH1 0x40 MLOAD PUSH2 0x44D SWAP2 SWAP1 PUSH2 0x3E03 JUMP JUMPDEST PUSH1 0x40 MLOAD DUP1 SWAP2 SUB SWAP1 RETURN JUMPDEST PUSH2 0x470 PUSH1 0x4 DUP1 CALLDATASIZE SUB DUP2 ADD SWAP1 PUSH2 0x46B SWAP2 SWAP1 PUSH2 0x3DC7 JUMP JUMPDEST PUSH2 0x1ADA JUMP JUMPDEST STOP JUMPDEST PUSH2 0x48C PUSH1 0x4 DUP1 CALLDATASIZE SUB DUP2 ADD SWAP1 PUSH2 0x487 SWAP2 SWAP1 PUSH2 0x3FB2 JUMP JUMPDEST PUSH2 0x1EC3 JUMP JUMPDEST STOP JUMPDEST PUSH2 0x4A8 PUSH1 0x4 DUP1 CALLDATASIZE SUB DUP2 ADD SWAP1 PUSH2 0x4A3 SWAP2 SWAP1 PUSH2 0x3DC7 JUMP JUMPDEST PUSH2 0x2589 JUMP JUMPDEST STOP JUMPDEST PUSH2 0x4B2 PUSH2 0x2AA7 JUMP JUMPDEST PUSH1 0x40 MLOAD PUSH2 0x4BF SWAP2 SWAP1 PUSH2 0x3E03 JUMP JUMPDEST PUSH1 0x40 MLOAD DUP1 SWAP2 SUB SWAP1 RETURN JUMPDEST PUSH2 0x4E2 PUSH1 0x4 DUP1 CALLDATASIZE SUB DUP2 ADD SWAP1 PUSH2 0x4DD SWAP2 SWAP1 PUSH2 0x3F5C JUMP JUMPDEST PUSH2 0x2B0E JUMP JUMPDEST PUSH1 0x40 MLOAD PUSH2 0x4EF SWAP2 SWAP1 PUSH2 0x3E03 JUMP JUMPDEST PUSH1 0x40 MLOAD DUP1 SWAP2 SUB SWAP1 RETURN JUMPDEST PUSH2 0x500 PUSH2 0x2BB4 JUMP JUMPDEST PUSH1 0x40 MLOAD PUSH2 0x50D SWAP2 SWAP1 PUSH2 0x3E03 JUMP JUMPDEST PUSH1 0x40 MLOAD DUP1 SWAP2 SUB SWAP1 RETURN JUMPDEST PUSH2 0x530 PUSH1 0x4 DUP1 CALLDATASIZE SUB DUP2 ADD SWAP1 PUSH2 0x52B SWAP2 SWAP1 PUSH2 0x3DC7 JUMP JUMPDEST PUSH2 0x2BBC JUMP JUMPDEST STOP JUMPDEST PUSH2 0x54C PUSH1 0x4 DUP1 CALLDATASIZE SUB DUP2 ADD SWAP1 PUSH2 0x547 SWAP2 SWAP1 PUSH2 0x3F5C JUMP JUMPDEST PUSH2 0x30E8 JUMP JUMPDEST PUSH1 0x40 MLOAD PUSH2 0x559 SWAP2 SWAP1 PUSH2 0x3E03 JUMP JUMPDEST PUSH1 0x40 MLOAD DUP1 SWAP2 SUB SWAP1 RETURN JUMPDEST PUSH2 0x56A PUSH2 0x31AC JUMP JUMPDEST PUSH1 0x40 MLOAD PUSH2 0x577 SWAP2 SWAP1 PUSH2 0x3E03 JUMP JUMPDEST PUSH1 0x40 MLOAD DUP1 SWAP2 SUB SWAP1 RETURN JUMPDEST PUSH2 0x588 PUSH2 0x32A5 JUMP JUMPDEST PUSH1 0x40 MLOAD PUSH2 0x595 SWAP2 SWAP1 PUSH2 0x3E03 JUMP JUMPDEST PUSH1 0x40 MLOAD DUP1 SWAP2 SUB SWAP1 RETURN JUMPDEST PUSH2 0x5B8 PUSH1 0x4 DUP1 CALLDATASIZE SUB DUP2 ADD SWAP1 PUSH2 0x5B3 SWAP2 SWAP1 PUSH2 0x3F5C JUMP JUMPDEST PUSH2 0x330A JUMP JUMPDEST PUSH1 0x40 MLOAD PUSH2 0x5C5 SWAP2 SWAP1 PUSH2 0x3E03 JUMP JUMPDEST PUSH1 0x40 MLOAD DUP1 SWAP2 SUB SWAP1 RETURN JUMPDEST PUSH2 0x5D6 PUSH2 0x331C JUMP JUMPDEST PUSH1 0x40 MLOAD PUSH2 0x5E3 SWAP2 SWAP1 PUSH2 0x3E03 JUMP JUMPDEST PUSH1 0x40 MLOAD DUP1 SWAP2 SUB SWAP1 RETURN JUMPDEST PUSH2 0x606 PUSH1 0x4 DUP1 CALLDATASIZE SUB DUP2 ADD SWAP1 PUSH2 0x601 SWAP2 SWAP1 PUSH2 0x3F5C JUMP JUMPDEST PUSH2 0x332B JUMP JUMPDEST PUSH1 0x40 MLOAD PUSH2 0x613 SWAP2 SWAP1 PUSH2 0x3E03 JUMP JUMPDEST PUSH1 0x40 MLOAD DUP1 SWAP2 SUB SWAP1 RETURN JUMPDEST PUSH2 0x624 PUSH2 0x33D1 JUMP JUMPDEST DUP1 PUSH1 0x0 DUP2 GT PUSH2 0x65F JUMPI PUSH1 0x40 MLOAD PUSH32 0x58F2468300000000000000000000000000000000000000000000000000000000 DUP2 MSTORE PUSH1 0x4 ADD PUSH1 0x40 MLOAD DUP1 SWAP2 SUB SWAP1 REVERT JUMPDEST PUSH1 0x0 PUSH1 0x4 PUSH1 0x0 CALLER PUSH20 0xFFFFFFFFFFFFFFFFFFFFFFFFFFFFFFFFFFFFFFFF AND PUSH20 0xFFFFFFFFFFFFFFFFFFFFFFFFFFFFFFFFFFFFFFFF AND DUP2 MSTORE PUSH1 0x20 ADD SWAP1 DUP2 MSTORE PUSH1 0x20 ADD PUSH1 0x0 KECCAK256 PUSH1 0x0 PUSH32 0x0 PUSH20 0xFFFFFFFFFFFFFFFFFFFFFFFFFFFFFFFFFFFFFFFF AND PUSH20 0xFFFFFFFFFFFFFFFFFFFFFFFFFFFFFFFFFFFFFFFF AND DUP2 MSTORE PUSH1 0x20 ADD SWAP1 DUP2 MSTORE PUSH1 0x20 ADD PUSH1 0x0 KECCAK256 SLOAD SWAP1 POP DUP1 DUP4 GT ISZERO PUSH2 0x73A JUMPI PUSH1 0x40 MLOAD PUSH32 0x89148A5500000000000000000000000000000000000000000000000000000000 DUP2 MSTORE PUSH1 0x4 ADD PUSH1 0x40 MLOAD DUP1 SWAP2 SUB SWAP1 REVERT JUMPDEST PUSH1 0x0 DUP2 DUP5 GT PUSH2 0x749 JUMPI DUP4 PUSH2 0x74B JUMP JUMPDEST DUP2 JUMPDEST SWAP1 POP DUP1 PUSH1 0x4 PUSH1 0x0 CALLER PUSH20 0xFFFFFFFFFFFFFFFFFFFFFFFFFFFFFFFFFFFFFFFF AND PUSH20 0xFFFFFFFFFFFFFFFFFFFFFFFFFFFFFFFFFFFFFFFF AND DUP2 MSTORE PUSH1 0x20 ADD SWAP1 DUP2 MSTORE PUSH1 0x20 ADD PUSH1 0x0 KECCAK256 PUSH1 0x0 PUSH32 0x0 PUSH20 0xFFFFFFFFFFFFFFFFFFFFFFFFFFFFFFFFFFFFFFFF AND PUSH20 0xFFFFFFFFFFFFFFFFFFFFFFFFFFFFFFFFFFFFFFFF AND DUP2 MSTORE PUSH1 0x20 ADD SWAP1 DUP2 MSTORE PUSH1 0x20 ADD PUSH1 0x0 KECCAK256 PUSH1 0x0 DUP3 DUP3 SLOAD PUSH2 0x7F9 SWAP2 SWAP1 PUSH2 0x4021 JUMP JUMPDEST SWAP3 POP POP DUP2 SWAP1 SSTORE POP PUSH1 0x0 PUSH1 0x4 PUSH1 0x0 CALLER PUSH20 0xFFFFFFFFFFFFFFFFFFFFFFFFFFFFFFFFFFFFFFFF AND PUSH20 0xFFFFFFFFFFFFFFFFFFFFFFFFFFFFFFFFFFFFFFFF AND DUP2 MSTORE PUSH1 0x20 ADD SWAP1 DUP2 MSTORE PUSH1 0x20 ADD PUSH1 0x0 KECCAK256 PUSH1 0x0 PUSH32 0x0 PUSH20 0xFFFFFFFFFFFFFFFFFFFFFFFFFFFFFFFFFFFFFFFF AND PUSH20 0xFFFFFFFFFFFFFFFFFFFFFFFFFFFFFFFFFFFFFFFF AND DUP2 MSTORE PUSH1 0x20 ADD SWAP1 DUP2 MSTORE PUSH1 0x20 ADD PUSH1 0x0 KECCAK256 SLOAD SUB PUSH2 0x8AE JUMPI PUSH2 0x8AD CALLER PUSH2 0x3417 JUMP JUMPDEST JUMPDEST PUSH1 0x0 PUSH32 0x0 PUSH20 0xFFFFFFFFFFFFFFFFFFFFFFFFFFFFFFFFFFFFFFFF AND PUSH4 0x95EA7B3 ADDRESS DUP5 PUSH1 0x40 MLOAD DUP4 PUSH4 0xFFFFFFFF AND PUSH1 0xE0 SHL DUP2 MSTORE PUSH1 0x4 ADD PUSH2 0x90B SWAP3 SWAP2 SWAP1 PUSH2 0x4064 JUMP JUMPDEST PUSH1 0x20 PUSH1 0x40 MLOAD DUP1 DUP4 SUB DUP2 PUSH1 0x0 DUP8 GAS CALL ISZERO DUP1 ISZERO PUSH2 0x92A JUMPI RETURNDATASIZE PUSH1 0x0 DUP1 RETURNDATACOPY RETURNDATASIZE PUSH1 0x0 REVERT JUMPDEST POP POP POP POP PUSH1 0x40 MLOAD RETURNDATASIZE PUSH1 0x1F NOT PUSH1 0x1F DUP3 ADD AND DUP3 ADD DUP1 PUSH1 0x40 MSTORE POP DUP2 ADD SWAP1 PUSH2 0x94E SWAP2 SWAP1 PUSH2 0x40C5 JUMP JUMPDEST SWAP1 POP DUP1 PUSH2 0x987 JUMPI PUSH1 0x40 MLOAD PUSH32 0x98D23B5100000000000000000000000000000000000000000000000000000000 DUP2 MSTORE PUSH1 0x4 ADD PUSH1 0x40 MLOAD DUP1 SWAP2 SUB SWAP1 REVERT JUMPDEST PUSH32 0x0 PUSH20 0xFFFFFFFFFFFFFFFFFFFFFFFFFFFFFFFFFFFFFFFF AND PUSH4 0x23B872DD CALLER ADDRESS DUP6 PUSH1 0x40 MLOAD DUP5 PUSH4 0xFFFFFFFF AND PUSH1 0xE0 SHL DUP2 MSTORE PUSH1 0x4 ADD PUSH2 0x9E4 SWAP4 SWAP3 SWAP2 SWAP1 PUSH2 0x40F2 JUMP JUMPDEST PUSH1 0x20 PUSH1 0x40 MLOAD DUP1 DUP4 SUB DUP2 PUSH1 0x0 DUP8 GAS CALL ISZERO DUP1 ISZERO PUSH2 0xA03 JUMPI RETURNDATASIZE PUSH1 0x0 DUP1 RETURNDATACOPY RETURNDATASIZE PUSH1 0x0 REVERT JUMPDEST POP POP POP POP PUSH1 0x40 MLOAD RETURNDATASIZE PUSH1 0x1F NOT PUSH1 0x1F DUP3 ADD AND DUP3 ADD DUP1 PUSH1 0x40 MSTORE POP DUP2 ADD SWAP1 PUSH2 0xA27 SWAP2 SWAP1 PUSH2 0x40C5 JUMP JUMPDEST SWAP1 POP DUP1 PUSH2 0xA60 JUMPI PUSH1 0x40 MLOAD PUSH32 0xE64E62DE00000000000000000000000000000000000000000000000000000000 DUP2 MSTORE PUSH1 0x4 ADD PUSH1 0x40 MLOAD DUP1 SWAP2 SUB SWAP1 REVERT JUMPDEST PUSH32 0x0 PUSH20 0xFFFFFFFFFFFFFFFFFFFFFFFFFFFFFFFFFFFFFFFF AND CALLER PUSH20 0xFFFFFFFFFFFFFFFFFFFFFFFFFFFFFFFFFFFFFFFF AND PUSH32 0x5F2EEDA0E08E4B437F487C8D7D29B14537D15E3488170DC3DE5DBDF8DAC4684 DUP5 PUSH1 0x40 MLOAD PUSH2 0xADD SWAP2 SWAP1 PUSH2 0x3E03 JUMP JUMPDEST PUSH1 0x40 MLOAD DUP1 SWAP2 SUB SWAP1 LOG3 POP POP POP POP PUSH2 0xAF1 PUSH2 0x359F JUMP JUMPDEST POP JUMP JUMPDEST PUSH1 0x4B DUP2 JUMP JUMPDEST PUSH1 0x0 PUSH2 0xB03 PUSH2 0x35A9 JUMP JUMPDEST SWAP1 POP SWAP1 JUMP JUMPDEST PUSH1 0x60 PUSH1 0x2 DUP1 SLOAD DUP1 PUSH1 0x20 MUL PUSH1 0x20 ADD PUSH1 0x40 MLOAD SWAP1 DUP2 ADD PUSH1 0x40 MSTORE DUP1 SWAP3 SWAP2 SWAP1 DUP2 DUP2 MSTORE PUSH1 0x20 ADD DUP3 DUP1 SLOAD DUP1 ISZERO PUSH2 0xB8C JUMPI PUSH1 0x20 MUL DUP3 ADD SWAP2 SWAP1 PUSH1 0x0 MSTORE PUSH1 0x20 PUSH1 0x0 KECCAK256 SWAP1 JUMPDEST DUP2 PUSH1 0x0 SWAP1 SLOAD SWAP1 PUSH2 0x100 EXP SWAP1 DIV PUSH20 0xFFFFFFFFFFFFFFFFFFFFFFFFFFFFFFFFFFFFFFFF AND PUSH20 0xFFFFFFFFFFFFFFFFFFFFFFFFFFFFFFFFFFFFFFFF AND DUP2 MSTORE PUSH1 0x20 ADD SWAP1 PUSH1 0x1 ADD SWAP1 DUP1 DUP4 GT PUSH2 0xB42 JUMPI JUMPDEST POP POP POP POP POP SWAP1 POP SWAP1 JUMP JUMPDEST PUSH2 0xB9E PUSH2 0x33D1 JUMP JUMPDEST DUP1 PUSH1 0x0 DUP2 GT PUSH2 0xBD9 JUMPI PUSH1 0x40 MLOAD PUSH32 0x58F2468300000000000000000000000000000000000000000000000000000000 DUP2 MSTORE PUSH1 0x4 ADD PUSH1 0x40 MLOAD DUP1 SWAP2 SUB SWAP1 REVERT JUMPDEST PUSH1 0x0 PUSH1 0x3 PUSH1 0x0 CALLER PUSH20 0xFFFFFFFFFFFFFFFFFFFFFFFFFFFFFFFFFFFFFFFF AND PUSH20 0xFFFFFFFFFFFFFFFFFFFFFFFFFFFFFFFFFFFFFFFF AND DUP2 MSTORE PUSH1 0x20 ADD SWAP1 DUP2 MSTORE PUSH1 0x20 ADD PUSH1 0x0 KECCAK256 PUSH1 0x0 PUSH32 0x0 PUSH20 0xFFFFFFFFFFFFFFFFFFFFFFFFFFFFFFFFFFFFFFFF AND PUSH20 0xFFFFFFFFFFFFFFFFFFFFFFFFFFFFFFFFFFFFFFFF AND DUP2 MSTORE PUSH1 0x20 ADD SWAP1 DUP2 MSTORE PUSH1 0x20 ADD PUSH1 0x0 KECCAK256 SLOAD SWAP1 POP DUP3 DUP2 LT ISZERO PUSH2 0xCB4 JUMPI PUSH1 0x40 MLOAD PUSH32 0x89148A5500000000000000000000000000000000000000000000000000000000 DUP2 MSTORE PUSH1 0x4 ADD PUSH1 0x40 MLOAD DUP1 SWAP2 SUB SWAP1 REVERT JUMPDEST PUSH1 0x0 PUSH1 0x6 PUSH1 0x0 CALLER PUSH20 0xFFFFFFFFFFFFFFFFFFFFFFFFFFFFFFFFFFFFFFFF AND PUSH20 0xFFFFFFFFFFFFFFFFFFFFFFFFFFFFFFFFFFFFFFFF AND DUP2 MSTORE PUSH1 0x20 ADD SWAP1 DUP2 MSTORE PUSH1 0x20 ADD PUSH1 0x0 KECCAK256 PUSH1 0x0 PUSH32 0x0 PUSH20 0xFFFFFFFFFFFFFFFFFFFFFFFFFFFFFFFFFFFFFFFF AND PUSH20 0xFFFFFFFFFFFFFFFFFFFFFFFFFFFFFFFFFFFFFFFF AND DUP2 MSTORE PUSH1 0x20 ADD SWAP1 DUP2 MSTORE PUSH1 0x20 ADD PUSH1 0x0 KECCAK256 SLOAD TIMESTAMP PUSH2 0xD5E SWAP2 SWAP1 PUSH2 0x4021 JUMP JUMPDEST SWAP1 POP PUSH1 0x0 PUSH2 0xD6C DUP6 DUP4 PUSH2 0x36E4 JUMP JUMPDEST SWAP1 POP PUSH1 0x0 DUP2 DUP7 PUSH2 0xD7C SWAP2 SWAP1 PUSH2 0x4129 JUMP JUMPDEST SWAP1 POP PUSH1 0x0 PUSH32 0x0 PUSH20 0xFFFFFFFFFFFFFFFFFFFFFFFFFFFFFFFFFFFFFFFF AND PUSH4 0x95EA7B3 ADDRESS DUP5 PUSH1 0x40 MLOAD DUP4 PUSH4 0xFFFFFFFF AND PUSH1 0xE0 SHL DUP2 MSTORE PUSH1 0x4 ADD PUSH2 0xDDB SWAP3 SWAP2 SWAP1 PUSH2 0x4064 JUMP JUMPDEST PUSH1 0x20 PUSH1 0x40 MLOAD DUP1 DUP4 SUB DUP2 PUSH1 0x0 DUP8 GAS CALL ISZERO DUP1 ISZERO PUSH2 0xDFA JUMPI RETURNDATASIZE PUSH1 0x0 DUP1 RETURNDATACOPY RETURNDATASIZE PUSH1 0x0 REVERT JUMPDEST POP POP POP POP PUSH1 0x40 MLOAD RETURNDATASIZE PUSH1 0x1F NOT PUSH1 0x1F DUP3 ADD AND DUP3 ADD DUP1 PUSH1 0x40 MSTORE POP DUP2 ADD SWAP1 PUSH2 0xE1E SWAP2 SWAP1 PUSH2 0x40C5 JUMP JUMPDEST SWAP1 POP DUP1 PUSH2 0xE57 JUMPI PUSH1 0x40 MLOAD PUSH32 0x98D23B5100000000000000000000000000000000000000000000000000000000 DUP2 MSTORE PUSH1 0x4 ADD PUSH1 0x40 MLOAD DUP1 SWAP2 SUB SWAP1 REVERT JUMPDEST PUSH32 0x0 PUSH20 0xFFFFFFFFFFFFFFFFFFFFFFFFFFFFFFFFFFFFFFFF AND PUSH4 0xA9059CBB CALLER DUP5 PUSH1 0x40 MLOAD DUP4 PUSH4 0xFFFFFFFF AND PUSH1 0xE0 SHL DUP2 MSTORE PUSH1 0x4 ADD PUSH2 0xEB2 SWAP3 SWAP2 SWAP1 PUSH2 0x4064 JUMP JUMPDEST PUSH1 0x20 PUSH1 0x40 MLOAD DUP1 DUP4 SUB DUP2 PUSH1 0x0 DUP8 GAS CALL ISZERO DUP1 ISZERO PUSH2 0xED1 JUMPI RETURNDATASIZE PUSH1 0x0 DUP1 RETURNDATACOPY RETURNDATASIZE PUSH1 0x0 REVERT JUMPDEST POP POP POP POP PUSH1 0x40 MLOAD RETURNDATASIZE PUSH1 0x1F NOT PUSH1 0x1F DUP3 ADD AND DUP3 ADD DUP1 PUSH1 0x40 MSTORE POP DUP2 ADD SWAP1 PUSH2 0xEF5 SWAP2 SWAP1 PUSH2 0x40C5 JUMP JUMPDEST SWAP1 POP DUP1 PUSH2 0xF2E JUMPI PUSH1 0x40 MLOAD PUSH32 0xE64E62DE00000000000000000000000000000000000000000000000000000000 DUP2 MSTORE PUSH1 0x4 ADD PUSH1 0x40 MLOAD DUP1 SWAP2 SUB SWAP1 REVERT JUMPDEST DUP7 PUSH1 0x3 PUSH1 0x0 CALLER PUSH20 0xFFFFFFFFFFFFFFFFFFFFFFFFFFFFFFFFFFFFFFFF AND PUSH20 0xFFFFFFFFFFFFFFFFFFFFFFFFFFFFFFFFFFFFFFFF AND DUP2 MSTORE PUSH1 0x20 ADD SWAP1 DUP2 MSTORE PUSH1 0x20 ADD PUSH1 0x0 KECCAK256 PUSH1 0x0 PUSH32 0x0 PUSH20 0xFFFFFFFFFFFFFFFFFFFFFFFFFFFFFFFFFFFFFFFF AND PUSH20 0xFFFFFFFFFFFFFFFFFFFFFFFFFFFFFFFFFFFFFFFF AND DUP2 MSTORE PUSH1 0x20 ADD SWAP1 DUP2 MSTORE PUSH1 0x20 ADD PUSH1 0x0 KECCAK256 PUSH1 0x0 DUP3 DUP3 SLOAD PUSH2 0xFDA SWAP2 SWAP1 PUSH2 0x4021 JUMP JUMPDEST SWAP3 POP POP DUP2 SWAP1 SSTORE POP DUP7 PUSH1 0x7 PUSH1 0x0 PUSH32 0x0 PUSH20 0xFFFFFFFFFFFFFFFFFFFFFFFFFFFFFFFFFFFFFFFF AND PUSH20 0xFFFFFFFFFFFFFFFFFFFFFFFFFFFFFFFFFFFFFFFF AND DUP2 MSTORE PUSH1 0x20 ADD SWAP1 DUP2 MSTORE PUSH1 0x20 ADD PUSH1 0x0 KECCAK256 PUSH1 0x0 DUP3 DUP3 SLOAD PUSH2 0x1050 SWAP2 SWAP1 PUSH2 0x4021 JUMP JUMPDEST SWAP3 POP POP DUP2 SWAP1 SSTORE POP PUSH1 0x0 PUSH1 0x3 PUSH1 0x0 CALLER PUSH20 0xFFFFFFFFFFFFFFFFFFFFFFFFFFFFFFFFFFFFFFFF AND PUSH20 0xFFFFFFFFFFFFFFFFFFFFFFFFFFFFFFFFFFFFFFFF AND DUP2 MSTORE PUSH1 0x20 ADD SWAP1 DUP2 MSTORE PUSH1 0x20 ADD PUSH1 0x0 KECCAK256 PUSH1 0x0 PUSH32 0x0 PUSH20 0xFFFFFFFFFFFFFFFFFFFFFFFFFFFFFFFFFFFFFFFF AND PUSH20 0xFFFFFFFFFFFFFFFFFFFFFFFFFFFFFFFFFFFFFFFF AND DUP2 MSTORE PUSH1 0x20 ADD SWAP1 DUP2 MSTORE PUSH1 0x20 ADD PUSH1 0x0 KECCAK256 SLOAD SUB PUSH2 0x119E JUMPI PUSH1 0x0 PUSH1 0x6 PUSH1 0x0 CALLER PUSH20 0xFFFFFFFFFFFFFFFFFFFFFFFFFFFFFFFFFFFFFFFF AND PUSH20 0xFFFFFFFFFFFFFFFFFFFFFFFFFFFFFFFFFFFFFFFF AND DUP2 MSTORE PUSH1 0x20 ADD SWAP1 DUP2 MSTORE PUSH1 0x20 ADD PUSH1 0x0 KECCAK256 PUSH1 0x0 PUSH32 0x0 PUSH20 0xFFFFFFFFFFFFFFFFFFFFFFFFFFFFFFFFFFFFFFFF AND PUSH20 0xFFFFFFFFFFFFFFFFFFFFFFFFFFFFFFFFFFFFFFFF AND DUP2 MSTORE PUSH1 0x20 ADD SWAP1 DUP2 MSTORE PUSH1 0x20 ADD PUSH1 0x0 KECCAK256 DUP2 SWAP1 SSTORE POP JUMPDEST PUSH32 0x0 PUSH20 0xFFFFFFFFFFFFFFFFFFFFFFFFFFFFFFFFFFFFFFFF AND CALLER PUSH20 0xFFFFFFFFFFFFFFFFFFFFFFFFFFFFFFFFFFFFFFFF AND PUSH32 0x9B1BFA7FA9EE420A16E124F794C35AC9F90472ACC99140EB2F6447C714CAD8EB DUP10 PUSH1 0x40 MLOAD PUSH2 0x121B SWAP2 SWAP1 PUSH2 0x3E03 JUMP JUMPDEST PUSH1 0x40 MLOAD DUP1 SWAP2 SUB SWAP1 LOG3 POP POP POP POP POP POP PUSH2 0x1231 PUSH2 0x359F JUMP JUMPDEST POP JUMP JUMPDEST PUSH1 0xA DUP2 JUMP JUMPDEST PUSH1 0x5 DUP2 JUMP JUMPDEST PUSH1 0x0 PUSH1 0x6 PUSH1 0x0 DUP4 PUSH20 0xFFFFFFFFFFFFFFFFFFFFFFFFFFFFFFFFFFFFFFFF AND PUSH20 0xFFFFFFFFFFFFFFFFFFFFFFFFFFFFFFFFFFFFFFFF AND DUP2 MSTORE PUSH1 0x20 ADD SWAP1 DUP2 MSTORE PUSH1 0x20 ADD PUSH1 0x0 KECCAK256 PUSH1 0x0 PUSH32 0x0 PUSH20 0xFFFFFFFFFFFFFFFFFFFFFFFFFFFFFFFFFFFFFFFF AND PUSH20 0xFFFFFFFFFFFFFFFFFFFFFFFFFFFFFFFFFFFFFFFF AND DUP2 MSTORE PUSH1 0x20 ADD SWAP1 DUP2 MSTORE PUSH1 0x20 ADD PUSH1 0x0 KECCAK256 SLOAD SWAP1 POP SWAP2 SWAP1 POP JUMP JUMPDEST PUSH1 0x0 DUP1 PUSH2 0x12F0 DUP4 PUSH2 0x3726 JUMP JUMPDEST SWAP1 POP PUSH1 0x0 PUSH1 0x4 PUSH1 0x0 DUP6 PUSH20 0xFFFFFFFFFFFFFFFFFFFFFFFFFFFFFFFFFFFFFFFF AND PUSH20 0xFFFFFFFFFFFFFFFFFFFFFFFFFFFFFFFFFFFFFFFF AND DUP2 MSTORE PUSH1 0x20 ADD SWAP1 DUP2 MSTORE PUSH1 0x20 ADD PUSH1 0x0 KECCAK256 PUSH1 0x0 PUSH32 0x0 PUSH20 0xFFFFFFFFFFFFFFFFFFFFFFFFFFFFFFFFFFFFFFFF AND PUSH20 0xFFFFFFFFFFFFFFFFFFFFFFFFFFFFFFFFFFFFFFFF AND DUP2 MSTORE PUSH1 0x20 ADD SWAP1 DUP2 MSTORE PUSH1 0x20 ADD PUSH1 0x0 KECCAK256 SLOAD SWAP1 POP PUSH1 0x0 DUP2 SUB PUSH2 0x13A5 JUMPI DUP2 SWAP3 POP POP POP PUSH2 0x13B6 JUMP JUMPDEST DUP1 DUP3 PUSH2 0x13B1 SWAP2 SWAP1 PUSH2 0x4021 JUMP JUMPDEST SWAP3 POP POP POP JUMPDEST SWAP2 SWAP1 POP JUMP JUMPDEST PUSH1 0x0 DUP1 PUSH2 0x13C6 PUSH2 0x37FC JUMP JUMPDEST SWAP1 POP DUP1 PUSH8 0xDE0B6B3A7640000 DUP5 PUSH2 0x13DD SWAP2 SWAP1 PUSH2 0x415D JUMP JUMPDEST PUSH2 0x13E7 SWAP2 SWAP1 PUSH2 0x41CE JUMP JUMPDEST SWAP2 POP POP SWAP2 SWAP1 POP JUMP JUMPDEST PUSH1 0x60 PUSH1 0x1 DUP1 SLOAD DUP1 PUSH1 0x20 MUL PUSH1 0x20 ADD PUSH1 0x40 MLOAD SWAP1 DUP2 ADD PUSH1 0x40 MSTORE DUP1 SWAP3 SWAP2 SWAP1 DUP2 DUP2 MSTORE PUSH1 0x20 ADD DUP3 DUP1 SLOAD DUP1 ISZERO PUSH2 0x1473 JUMPI PUSH1 0x20 MUL DUP3 ADD SWAP2 SWAP1 PUSH1 0x0 MSTORE PUSH1 0x20 PUSH1 0x0 KECCAK256 SWAP1 JUMPDEST DUP2 PUSH1 0x0 SWAP1 SLOAD SWAP1 PUSH2 0x100 EXP SWAP1 DIV PUSH20 0xFFFFFFFFFFFFFFFFFFFFFFFFFFFFFFFFFFFFFFFF AND PUSH20 0xFFFFFFFFFFFFFFFFFFFFFFFFFFFFFFFFFFFFFFFF AND DUP2 MSTORE PUSH1 0x20 ADD SWAP1 PUSH1 0x1 ADD SWAP1 DUP1 DUP4 GT PUSH2 0x1429 JUMPI JUMPDEST POP POP POP POP POP SWAP1 POP SWAP1 JUMP JUMPDEST PUSH1 0x0 DUP1 PUSH2 0x1489 DUP4 PUSH2 0x3726 JUMP JUMPDEST SWAP1 POP PUSH1 0x64 PUSH1 0x4B DUP3 PUSH2 0x149A SWAP2 SWAP1 PUSH2 0x415D JUMP JUMPDEST PUSH2 0x14A4 SWAP2 SWAP1 PUSH2 0x41CE JUMP JUMPDEST SWAP2 POP POP SWAP2 SWAP1 POP JUMP JUMPDEST PUSH1 0x50 DUP2 JUMP JUMPDEST PUSH1 0x0 PUSH2 0x14BC DUP3 PUSH2 0x3726 JUMP JUMPDEST SWAP1 POP SWAP2 SWAP1 POP JUMP JUMPDEST PUSH1 0x0 DUP1 PUSH1 0x0 PUSH2 0x14D1 DUP5 PUSH2 0x3726 JUMP JUMPDEST SWAP1 POP PUSH1 0x0 PUSH1 0x4 PUSH1 0x0 DUP7 PUSH20 0xFFFFFFFFFFFFFFFFFFFFFFFFFFFFFFFFFFFFFFFF AND PUSH20 0xFFFFFFFFFFFFFFFFFFFFFFFFFFFFFFFFFFFFFFFF AND DUP2 MSTORE PUSH1 0x20 ADD SWAP1 DUP2 MSTORE PUSH1 0x20 ADD PUSH1 0x0 KECCAK256 PUSH1 0x0 PUSH32 0x0 PUSH20 0xFFFFFFFFFFFFFFFFFFFFFFFFFFFFFFFFFFFFFFFF AND PUSH20 0xFFFFFFFFFFFFFFFFFFFFFFFFFFFFFFFFFFFFFFFF AND DUP2 MSTORE PUSH1 0x20 ADD SWAP1 DUP2 MSTORE PUSH1 0x20 ADD PUSH1 0x0 KECCAK256 SLOAD SWAP1 POP PUSH1 0x0 DUP2 SUB PUSH2 0x1593 JUMPI PUSH9 0x3635C9ADC5DEA00000 PUSH1 0x0 SWAP4 POP SWAP4 POP POP POP PUSH2 0x15DE JUMP JUMPDEST PUSH1 0x0 PUSH1 0x64 PUSH1 0x50 DUP5 PUSH2 0x15A4 SWAP2 SWAP1 PUSH2 0x415D JUMP JUMPDEST PUSH2 0x15AE SWAP2 SWAP1 PUSH2 0x41CE JUMP JUMPDEST SWAP1 POP PUSH1 0x0 DUP3 PUSH8 0xDE0B6B3A7640000 DUP4 PUSH2 0x15C7 SWAP2 SWAP1 PUSH2 0x415D JUMP JUMPDEST PUSH2 0x15D1 SWAP2 SWAP1 PUSH2 0x41CE JUMP JUMPDEST SWAP1 POP DUP1 DUP4 SWAP6 POP SWAP6 POP POP POP POP POP JUMPDEST SWAP2 POP SWAP2 JUMP JUMPDEST PUSH2 0x15EB PUSH2 0x33D1 JUMP JUMPDEST DUP1 PUSH1 0x0 DUP2 GT PUSH2 0x1626 JUMPI PUSH1 0x40 MLOAD PUSH32 0x58F2468300000000000000000000000000000000000000000000000000000000 DUP2 MSTORE PUSH1 0x4 ADD PUSH1 0x40 MLOAD DUP1 SWAP2 SUB SWAP1 REVERT JUMPDEST PUSH1 0x0 PUSH32 0x0 PUSH20 0xFFFFFFFFFFFFFFFFFFFFFFFFFFFFFFFFFFFFFFFF AND PUSH4 0x95EA7B3 ADDRESS DUP6 PUSH1 0x40 MLOAD DUP4 PUSH4 0xFFFFFFFF AND PUSH1 0xE0 SHL DUP2 MSTORE PUSH1 0x4 ADD PUSH2 0x1683 SWAP3 SWAP2 SWAP1 PUSH2 0x4064 JUMP JUMPDEST PUSH1 0x20 PUSH1 0x40 MLOAD DUP1 DUP4 SUB DUP2 PUSH1 0x0 DUP8 GAS CALL ISZERO DUP1 ISZERO PUSH2 0x16A2 JUMPI RETURNDATASIZE PUSH1 0x0 DUP1 RETURNDATACOPY RETURNDATASIZE PUSH1 0x0 REVERT JUMPDEST POP POP POP POP PUSH1 0x40 MLOAD RETURNDATASIZE PUSH1 0x1F NOT PUSH1 0x1F DUP3 ADD AND DUP3 ADD DUP1 PUSH1 0x40 MSTORE POP DUP2 ADD SWAP1 PUSH2 0x16C6 SWAP2 SWAP1 PUSH2 0x40C5 JUMP JUMPDEST SWAP1 POP DUP1 PUSH2 0x16FF JUMPI PUSH1 0x40 MLOAD PUSH32 0x98D23B5100000000000000000000000000000000000000000000000000000000 DUP2 MSTORE PUSH1 0x4 ADD PUSH1 0x40 MLOAD DUP1 SWAP2 SUB SWAP1 REVERT JUMPDEST PUSH32 0x0 PUSH20 0xFFFFFFFFFFFFFFFFFFFFFFFFFFFFFFFFFFFFFFFF AND PUSH4 0x23B872DD CALLER ADDRESS DUP7 PUSH1 0x40 MLOAD DUP5 PUSH4 0xFFFFFFFF AND PUSH1 0xE0 SHL DUP2 MSTORE PUSH1 0x4 ADD PUSH2 0x175C SWAP4 SWAP3 SWAP2 SWAP1 PUSH2 0x40F2 JUMP JUMPDEST PUSH1 0x20 PUSH1 0x40 MLOAD DUP1 DUP4 SUB DUP2 PUSH1 0x0 DUP8 GAS CALL ISZERO DUP1 ISZERO PUSH2 0x177B JUMPI RETURNDATASIZE PUSH1 0x0 DUP1 RETURNDATACOPY RETURNDATASIZE PUSH1 0x0 REVERT JUMPDEST POP POP POP POP PUSH1 0x40 MLOAD RETURNDATASIZE PUSH1 0x1F NOT PUSH1 0x1F DUP3 ADD AND DUP3 ADD DUP1 PUSH1 0x40 MSTORE POP DUP2 ADD SWAP1 PUSH2 0x179F SWAP2 SWAP1 PUSH2 0x40C5 JUMP JUMPDEST SWAP1 POP DUP1 PUSH2 0x17D8 JUMPI PUSH1 0x40 MLOAD PUSH32 0xE64E62DE00000000000000000000000000000000000000000000000000000000 DUP2 MSTORE PUSH1 0x4 ADD PUSH1 0x40 MLOAD DUP1 SWAP2 SUB SWAP1 REVERT JUMPDEST DUP3 PUSH1 0x3 PUSH1 0x0 CALLER PUSH20 0xFFFFFFFFFFFFFFFFFFFFFFFFFFFFFFFFFFFFFFFF AND PUSH20 0xFFFFFFFFFFFFFFFFFFFFFFFFFFFFFFFFFFFFFFFF AND DUP2 MSTORE PUSH1 0x20 ADD SWAP1 DUP2 MSTORE PUSH1 0x20 ADD PUSH1 0x0 KECCAK256 PUSH1 0x0 PUSH32 0x0 PUSH20 0xFFFFFFFFFFFFFFFFFFFFFFFFFFFFFFFFFFFFFFFF AND PUSH20 0xFFFFFFFFFFFFFFFFFFFFFFFFFFFFFFFFFFFFFFFF AND DUP2 MSTORE PUSH1 0x20 ADD SWAP1 DUP2 MSTORE PUSH1 0x20 ADD PUSH1 0x0 KECCAK256 PUSH1 0x0 DUP3 DUP3 SLOAD PUSH2 0x1884 SWAP2 SWAP1 PUSH2 0x4129 JUMP JUMPDEST SWAP3 POP POP DUP2 SWAP1 SSTORE POP DUP3 PUSH1 0x7 PUSH1 0x0 PUSH32 0x0 PUSH20 0xFFFFFFFFFFFFFFFFFFFFFFFFFFFFFFFFFFFFFFFF AND PUSH20 0xFFFFFFFFFFFFFFFFFFFFFFFFFFFFFFFFFFFFFFFF AND DUP2 MSTORE PUSH1 0x20 ADD SWAP1 DUP2 MSTORE PUSH1 0x20 ADD PUSH1 0x0 KECCAK256 PUSH1 0x0 DUP3 DUP3 SLOAD PUSH2 0x18FA SWAP2 SWAP1 PUSH2 0x4129 JUMP JUMPDEST SWAP3 POP POP DUP2 SWAP1 SSTORE POP TIMESTAMP PUSH1 0x6 PUSH1 0x0 CALLER PUSH20 0xFFFFFFFFFFFFFFFFFFFFFFFFFFFFFFFFFFFFFFFF AND PUSH20 0xFFFFFFFFFFFFFFFFFFFFFFFFFFFFFFFFFFFFFFFF AND DUP2 MSTORE PUSH1 0x20 ADD SWAP1 DUP2 MSTORE PUSH1 0x20 ADD PUSH1 0x0 KECCAK256 PUSH1 0x0 PUSH32 0x0 PUSH20 0xFFFFFFFFFFFFFFFFFFFFFFFFFFFFFFFFFFFFFFFF AND PUSH20 0xFFFFFFFFFFFFFFFFFFFFFFFFFFFFFFFFFFFFFFFF AND DUP2 MSTORE PUSH1 0x20 ADD SWAP1 DUP2 MSTORE PUSH1 0x20 ADD PUSH1 0x0 KECCAK256 DUP2 SWAP1 SSTORE POP PUSH32 0x0 PUSH20 0xFFFFFFFFFFFFFFFFFFFFFFFFFFFFFFFFFFFFFFFF AND CALLER PUSH20 0xFFFFFFFFFFFFFFFFFFFFFFFFFFFFFFFFFFFFFFFF AND PUSH32 0x5548C837AB068CF56A2C2479DF0882A4922FD203EDB7517321831D95078C5F62 DUP6 PUSH1 0x40 MLOAD PUSH2 0x1A1F SWAP2 SWAP1 PUSH2 0x3E03 JUMP JUMPDEST PUSH1 0x40 MLOAD DUP1 SWAP2 SUB SWAP1 LOG3 POP POP PUSH2 0x1A31 PUSH2 0x359F JUMP JUMPDEST POP JUMP JUMPDEST PUSH1 0x0 PUSH1 0x5 PUSH1 0x0 DUP4 PUSH20 0xFFFFFFFFFFFFFFFFFFFFFFFFFFFFFFFFFFFFFFFF AND PUSH20 0xFFFFFFFFFFFFFFFFFFFFFFFFFFFFFFFFFFFFFFFF AND DUP2 MSTORE PUSH1 0x20 ADD SWAP1 DUP2 MSTORE PUSH1 0x20 ADD PUSH1 0x0 KECCAK256 PUSH1 0x0 PUSH32 0x0 PUSH20 0xFFFFFFFFFFFFFFFFFFFFFFFFFFFFFFFFFFFFFFFF AND PUSH20 0xFFFFFFFFFFFFFFFFFFFFFFFFFFFFFFFFFFFFFFFF AND DUP2 MSTORE PUSH1 0x20 ADD SWAP1 DUP2 MSTORE PUSH1 0x20 ADD PUSH1 0x0 KECCAK256 SLOAD SWAP1 POP SWAP2 SWAP1 POP JUMP JUMPDEST PUSH2 0x1AE2 PUSH2 0x33D1 JUMP JUMPDEST DUP1 PUSH1 0x0 DUP2 GT PUSH2 0x1B1D JUMPI PUSH1 0x40 MLOAD PUSH32 0x58F2468300000000000000000000000000000000000000000000000000000000 DUP2 MSTORE PUSH1 0x4 ADD PUSH1 0x40 MLOAD DUP1 SWAP2 SUB SWAP1 REVERT JUMPDEST PUSH1 0x0 PUSH32 0x0 PUSH20 0xFFFFFFFFFFFFFFFFFFFFFFFFFFFFFFFFFFFFFFFF AND PUSH4 0x95EA7B3 ADDRESS DUP6 PUSH1 0x40 MLOAD DUP4 PUSH4 0xFFFFFFFF AND PUSH1 0xE0 SHL DUP2 MSTORE PUSH1 0x4 ADD PUSH2 0x1B7A SWAP3 SWAP2 SWAP1 PUSH2 0x4064 JUMP JUMPDEST PUSH1 0x20 PUSH1 0x40 MLOAD DUP1 DUP4 SUB DUP2 PUSH1 0x0 DUP8 GAS CALL ISZERO DUP1 ISZERO PUSH2 0x1B99 JUMPI RETURNDATASIZE PUSH1 0x0 DUP1 RETURNDATACOPY RETURNDATASIZE PUSH1 0x0 REVERT JUMPDEST POP POP POP POP PUSH1 0x40 MLOAD RETURNDATASIZE PUSH1 0x1F NOT PUSH1 0x1F DUP3 ADD AND DUP3 ADD DUP1 PUSH1 0x40 MSTORE POP DUP2 ADD SWAP1 PUSH2 0x1BBD SWAP2 SWAP1 PUSH2 0x40C5 JUMP JUMPDEST SWAP1 POP DUP1 PUSH2 0x1BF6 JUMPI PUSH1 0x40 MLOAD PUSH32 0x98D23B5100000000000000000000000000000000000000000000000000000000 DUP2 MSTORE PUSH1 0x4 ADD PUSH1 0x40 MLOAD DUP1 SWAP2 SUB SWAP1 REVERT JUMPDEST PUSH32 0x0 PUSH20 0xFFFFFFFFFFFFFFFFFFFFFFFFFFFFFFFFFFFFFFFF AND PUSH4 0x23B872DD CALLER ADDRESS DUP7 PUSH1 0x40 MLOAD DUP5 PUSH4 0xFFFFFFFF AND PUSH1 0xE0 SHL DUP2 MSTORE PUSH1 0x4 ADD PUSH2 0x1C53 SWAP4 SWAP3 SWAP2 SWAP1 PUSH2 0x40F2 JUMP JUMPDEST PUSH1 0x20 PUSH1 0x40 MLOAD DUP1 DUP4 SUB DUP2 PUSH1 0x0 DUP8 GAS CALL ISZERO DUP1 ISZERO PUSH2 0x1C72 JUMPI RETURNDATASIZE PUSH1 0x0 DUP1 RETURNDATACOPY RETURNDATASIZE PUSH1 0x0 REVERT JUMPDEST POP POP POP POP PUSH1 0x40 MLOAD RETURNDATASIZE PUSH1 0x1F NOT PUSH1 0x1F DUP3 ADD AND DUP3 ADD DUP1 PUSH1 0x40 MSTORE POP DUP2 ADD SWAP1 PUSH2 0x1C96 SWAP2 SWAP1 PUSH2 0x40C5 JUMP JUMPDEST SWAP1 POP DUP1 PUSH2 0x1CCF JUMPI PUSH1 0x40 MLOAD PUSH32 0xE64E62DE00000000000000000000000000000000000000000000000000000000 DUP2 MSTORE PUSH1 0x4 ADD PUSH1 0x40 MLOAD DUP1 SWAP2 SUB SWAP1 REVERT JUMPDEST DUP3 PUSH1 0x5 PUSH1 0x0 CALLER PUSH20 0xFFFFFFFFFFFFFFFFFFFFFFFFFFFFFFFFFFFFFFFF AND PUSH20 0xFFFFFFFFFFFFFFFFFFFFFFFFFFFFFFFFFFFFFFFF AND DUP2 MSTORE PUSH1 0x20 ADD SWAP1 DUP2 MSTORE PUSH1 0x20 ADD PUSH1 0x0 KECCAK256 PUSH1 0x0 PUSH32 0x0 PUSH20 0xFFFFFFFFFFFFFFFFFFFFFFFFFFFFFFFFFFFFFFFF AND PUSH20 0xFFFFFFFFFFFFFFFFFFFFFFFFFFFFFFFFFFFFFFFF AND DUP2 MSTORE PUSH1 0x20 ADD SWAP1 DUP2 MSTORE PUSH1 0x20 ADD PUSH1 0x0 KECCAK256 PUSH1 0x0 DUP3 DUP3 SLOAD PUSH2 0x1D7B SWAP2 SWAP1 PUSH2 0x4129 JUMP JUMPDEST SWAP3 POP POP DUP2 SWAP1 SSTORE POP PUSH1 0x0 PUSH1 0x5 PUSH1 0x0 CALLER PUSH20 0xFFFFFFFFFFFFFFFFFFFFFFFFFFFFFFFFFFFFFFFF AND PUSH20 0xFFFFFFFFFFFFFFFFFFFFFFFFFFFFFFFFFFFFFFFF AND DUP2 MSTORE PUSH1 0x20 ADD SWAP1 DUP2 MSTORE PUSH1 0x20 ADD PUSH1 0x0 KECCAK256 PUSH1 0x0 PUSH32 0x0 PUSH20 0xFFFFFFFFFFFFFFFFFFFFFFFFFFFFFFFFFFFFFFFF AND PUSH20 0xFFFFFFFFFFFFFFFFFFFFFFFFFFFFFFFFFFFFFFFF AND DUP2 MSTORE PUSH1 0x20 ADD SWAP1 DUP2 MSTORE PUSH1 0x20 ADD PUSH1 0x0 KECCAK256 SLOAD GT ISZERO PUSH2 0x1E31 JUMPI PUSH2 0x1E30 CALLER PUSH2 0x3937 JUMP JUMPDEST JUMPDEST PUSH32 0x0 PUSH20 0xFFFFFFFFFFFFFFFFFFFFFFFFFFFFFFFFFFFFFFFF AND CALLER PUSH20 0xFFFFFFFFFFFFFFFFFFFFFFFFFFFFFFFFFFFFFFFF AND PUSH32 0xEF12F18E2B6578B91B3C852C423CA8EE530F65F20F770E62A7CE8AA08E1AB777 DUP6 PUSH1 0x40 MLOAD PUSH2 0x1EAE SWAP2 SWAP1 PUSH2 0x3E03 JUMP JUMPDEST PUSH1 0x40 MLOAD DUP1 SWAP2 SUB SWAP1 LOG3 POP POP PUSH2 0x1EC0 PUSH2 0x359F JUMP JUMPDEST POP JUMP JUMPDEST PUSH2 0x1ECB PUSH2 0x33D1 JUMP JUMPDEST DUP1 PUSH1 0x0 DUP2 GT PUSH2 0x1F06 JUMPI PUSH1 0x40 MLOAD PUSH32 0x58F2468300000000000000000000000000000000000000000000000000000000 DUP2 MSTORE PUSH1 0x4 ADD PUSH1 0x40 MLOAD DUP1 SWAP2 SUB SWAP1 REVERT JUMPDEST PUSH1 0x0 DUP1 PUSH2 0x1F12 DUP6 PUSH2 0x14C3 JUMP JUMPDEST SWAP2 POP SWAP2 POP PUSH8 0xDE0B6B3A7640000 DUP3 LT PUSH2 0x1F57 JUMPI PUSH1 0x40 MLOAD PUSH32 0x8BDE3E8300000000000000000000000000000000000000000000000000000000 DUP2 MSTORE PUSH1 0x4 ADD PUSH1 0x40 MLOAD DUP1 SWAP2 SUB SWAP1 REVERT JUMPDEST PUSH1 0x0 DUP2 DUP6 GT PUSH2 0x1F66 JUMPI DUP5 PUSH2 0x1F68 JUMP JUMPDEST DUP2 JUMPDEST SWAP1 POP PUSH1 0x0 PUSH2 0x1F75 DUP3 PUSH2 0x13BB JUMP JUMPDEST SWAP1 POP PUSH1 0x5 PUSH1 0x0 DUP9 PUSH20 0xFFFFFFFFFFFFFFFFFFFFFFFFFFFFFFFFFFFFFFFF AND PUSH20 0xFFFFFFFFFFFFFFFFFFFFFFFFFFFFFFFFFFFFFFFF AND DUP2 MSTORE PUSH1 0x20 ADD SWAP1 DUP2 MSTORE PUSH1 0x20 ADD PUSH1 0x0 KECCAK256 PUSH1 0x0 PUSH32 0x0 PUSH20 0xFFFFFFFFFFFFFFFFFFFFFFFFFFFFFFFFFFFFFFFF AND PUSH20 0xFFFFFFFFFFFFFFFFFFFFFFFFFFFFFFFFFFFFFFFF AND DUP2 MSTORE PUSH1 0x20 ADD SWAP1 DUP2 MSTORE PUSH1 0x20 ADD PUSH1 0x0 KECCAK256 SLOAD DUP2 GT ISZERO PUSH2 0x204D JUMPI PUSH1 0x40 MLOAD PUSH32 0x6AF290B100000000000000000000000000000000000000000000000000000000 DUP2 MSTORE PUSH1 0x4 ADD PUSH1 0x40 MLOAD DUP1 SWAP2 SUB SWAP1 REVERT JUMPDEST PUSH1 0x0 PUSH1 0x64 PUSH1 0xA DUP4 PUSH2 0x205E SWAP2 SWAP1 PUSH2 0x415D JUMP JUMPDEST PUSH2 0x2068 SWAP2 SWAP1 PUSH2 0x41CE JUMP JUMPDEST SWAP1 POP PUSH1 0x0 DUP2 DUP4 PUSH2 0x2078 SWAP2 SWAP1 PUSH2 0x4129 JUMP JUMPDEST SWAP1 POP DUP9 PUSH20 0xFFFFFFFFFFFFFFFFFFFFFFFFFFFFFFFFFFFFFFFF AND CALLER PUSH20 0xFFFFFFFFFFFFFFFFFFFFFFFFFFFFFFFFFFFFFFFF AND SUB PUSH2 0x20DF JUMPI PUSH1 0x40 MLOAD PUSH32 0x8E04DCBB00000000000000000000000000000000000000000000000000000000 DUP2 MSTORE PUSH1 0x4 ADD PUSH1 0x40 MLOAD DUP1 SWAP2 SUB SWAP1 REVERT JUMPDEST DUP4 PUSH1 0x4 PUSH1 0x0 DUP12 PUSH20 0xFFFFFFFFFFFFFFFFFFFFFFFFFFFFFFFFFFFFFFFF AND PUSH20 0xFFFFFFFFFFFFFFFFFFFFFFFFFFFFFFFFFFFFFFFF AND DUP2 MSTORE PUSH1 0x20 ADD SWAP1 DUP2 MSTORE PUSH1 0x20 ADD PUSH1 0x0 KECCAK256 PUSH1 0x0 PUSH32 0x0 PUSH20 0xFFFFFFFFFFFFFFFFFFFFFFFFFFFFFFFFFFFFFFFF AND PUSH20 0xFFFFFFFFFFFFFFFFFFFFFFFFFFFFFFFFFFFFFFFF AND DUP2 MSTORE PUSH1 0x20 ADD SWAP1 DUP2 MSTORE PUSH1 0x20 ADD PUSH1 0x0 KECCAK256 PUSH1 0x0 DUP3 DUP3 SLOAD PUSH2 0x218B SWAP2 SWAP1 PUSH2 0x4021 JUMP JUMPDEST SWAP3 POP POP DUP2 SWAP1 SSTORE POP DUP3 PUSH1 0x5 PUSH1 0x0 DUP12 PUSH20 0xFFFFFFFFFFFFFFFFFFFFFFFFFFFFFFFFFFFFFFFF AND PUSH20 0xFFFFFFFFFFFFFFFFFFFFFFFFFFFFFFFFFFFFFFFF AND DUP2 MSTORE PUSH1 0x20 ADD SWAP1 DUP2 MSTORE PUSH1 0x20 ADD PUSH1 0x0 KECCAK256 PUSH1 0x0 PUSH32 0x0 PUSH20 0xFFFFFFFFFFFFFFFFFFFFFFFFFFFFFFFFFFFFFFFF AND PUSH20 0xFFFFFFFFFFFFFFFFFFFFFFFFFFFFFFFFFFFFFFFF AND DUP2 MSTORE PUSH1 0x20 ADD SWAP1 DUP2 MSTORE PUSH1 0x20 ADD PUSH1 0x0 KECCAK256 PUSH1 0x0 DUP3 DUP3 SLOAD PUSH2 0x223E SWAP2 SWAP1 PUSH2 0x4021 JUMP JUMPDEST SWAP3 POP POP DUP2 SWAP1 SSTORE POP PUSH1 0x0 PUSH32 0x0 PUSH20 0xFFFFFFFFFFFFFFFFFFFFFFFFFFFFFFFFFFFFFFFF AND PUSH4 0x95EA7B3 ADDRESS DUP8 PUSH1 0x40 MLOAD DUP4 PUSH4 0xFFFFFFFF AND PUSH1 0xE0 SHL DUP2 MSTORE PUSH1 0x4 ADD PUSH2 0x22A2 SWAP3 SWAP2 SWAP1 PUSH2 0x4064 JUMP JUMPDEST PUSH1 0x20 PUSH1 0x40 MLOAD DUP1 DUP4 SUB DUP2 PUSH1 0x0 DUP8 GAS CALL ISZERO DUP1 ISZERO PUSH2 0x22C1 JUMPI RETURNDATASIZE PUSH1 0x0 DUP1 RETURNDATACOPY RETURNDATASIZE PUSH1 0x0 REVERT JUMPDEST POP POP POP POP PUSH1 0x40 MLOAD RETURNDATASIZE PUSH1 0x1F NOT PUSH1 0x1F DUP3 ADD AND DUP3 ADD DUP1 PUSH1 0x40 MSTORE POP DUP2 ADD SWAP1 PUSH2 0x22E5 SWAP2 SWAP1 PUSH2 0x40C5 JUMP JUMPDEST SWAP1 POP PUSH32 0x0 PUSH20 0xFFFFFFFFFFFFFFFFFFFFFFFFFFFFFFFFFFFFFFFF AND PUSH4 0x23B872DD CALLER ADDRESS DUP9 PUSH1 0x40 MLOAD DUP5 PUSH4 0xFFFFFFFF AND PUSH1 0xE0 SHL DUP2 MSTORE PUSH1 0x4 ADD PUSH2 0x2344 SWAP4 SWAP3 SWAP2 SWAP1 PUSH2 0x40F2 JUMP JUMPDEST PUSH1 0x20 PUSH1 0x40 MLOAD DUP1 DUP4 SUB DUP2 PUSH1 0x0 DUP8 GAS CALL ISZERO DUP1 ISZERO PUSH2 0x2363 JUMPI RETURNDATASIZE PUSH1 0x0 DUP1 RETURNDATACOPY RETURNDATASIZE PUSH1 0x0 REVERT JUMPDEST POP POP POP POP PUSH1 0x40 MLOAD RETURNDATASIZE PUSH1 0x1F NOT PUSH1 0x1F DUP3 ADD AND DUP3 ADD DUP1 PUSH1 0x40 MSTORE POP DUP2 ADD SWAP1 PUSH2 0x2387 SWAP2 SWAP1 PUSH2 0x40C5 JUMP JUMPDEST SWAP1 POP PUSH1 0x0 PUSH32 0x0 PUSH20 0xFFFFFFFFFFFFFFFFFFFFFFFFFFFFFFFFFFFFFFFF AND PUSH4 0x95EA7B3 ADDRESS DUP6 PUSH1 0x40 MLOAD DUP4 PUSH4 0xFFFFFFFF AND PUSH1 0xE0 SHL DUP2 MSTORE PUSH1 0x4 ADD PUSH2 0x23E6 SWAP3 SWAP2 SWAP1 PUSH2 0x4064 JUMP JUMPDEST PUSH1 0x20 PUSH1 0x40 MLOAD DUP1 DUP4 SUB DUP2 PUSH1 0x0 DUP8 GAS CALL ISZERO DUP1 ISZERO PUSH2 0x2405 JUMPI RETURNDATASIZE PUSH1 0x0 DUP1 RETURNDATACOPY RETURNDATASIZE PUSH1 0x0 REVERT JUMPDEST POP POP POP POP PUSH1 0x40 MLOAD RETURNDATASIZE PUSH1 0x1F NOT PUSH1 0x1F DUP3 ADD AND DUP3 ADD DUP1 PUSH1 0x40 MSTORE POP DUP2 ADD SWAP1 PUSH2 0x2429 SWAP2 SWAP1 PUSH2 0x40C5 JUMP JUMPDEST SWAP1 POP PUSH32 0x0 PUSH20 0xFFFFFFFFFFFFFFFFFFFFFFFFFFFFFFFFFFFFFFFF AND PUSH4 0xA9059CBB CALLER DUP6 PUSH1 0x40 MLOAD DUP4 PUSH4 0xFFFFFFFF AND PUSH1 0xE0 SHL DUP2 MSTORE PUSH1 0x4 ADD PUSH2 0x2486 SWAP3 SWAP2 SWAP1 PUSH2 0x4064 JUMP JUMPDEST PUSH1 0x20 PUSH1 0x40 MLOAD DUP1 DUP4 SUB DUP2 PUSH1 0x0 DUP8 GAS CALL ISZERO DUP1 ISZERO PUSH2 0x24A5 JUMPI RETURNDATASIZE PUSH1 0x0 DUP1 RETURNDATACOPY RETURNDATASIZE PUSH1 0x0 REVERT JUMPDEST POP POP POP POP PUSH1 0x40 MLOAD RETURNDATASIZE PUSH1 0x1F NOT PUSH1 0x1F DUP3 ADD AND DUP3 ADD DUP1 PUSH1 0x40 MSTORE POP DUP2 ADD SWAP1 PUSH2 0x24C9 SWAP2 SWAP1 PUSH2 0x40C5 JUMP JUMPDEST SWAP1 POP DUP2 ISZERO DUP1 PUSH2 0x24D6 JUMPI POP DUP1 ISZERO JUMPDEST ISZERO PUSH2 0x250D JUMPI PUSH1 0x40 MLOAD PUSH32 0xE64E62DE00000000000000000000000000000000000000000000000000000000 DUP2 MSTORE PUSH1 0x4 ADD PUSH1 0x40 MLOAD DUP1 SWAP2 SUB SWAP1 REVERT JUMPDEST DUP11 PUSH20 0xFFFFFFFFFFFFFFFFFFFFFFFFFFFFFFFFFFFFFFFF AND CALLER PUSH20 0xFFFFFFFFFFFFFFFFFFFFFFFFFFFFFFFFFFFFFFFF AND PUSH32 0xF3FA0EAEE8F258C23B013654DF25D1527F98A5C7CCD5E951DD77CACA400EF972 DUP9 DUP7 PUSH1 0x40 MLOAD PUSH2 0x256C SWAP3 SWAP2 SWAP1 PUSH2 0x3F89 JUMP JUMPDEST PUSH1 0x40 MLOAD DUP1 SWAP2 SUB SWAP1 LOG3 POP POP POP POP POP POP POP POP POP PUSH2 0x2585 PUSH2 0x359F JUMP JUMPDEST POP POP JUMP JUMPDEST PUSH2 0x2591 PUSH2 0x33D1 JUMP JUMPDEST DUP1 PUSH1 0x0 DUP2 GT PUSH2 0x25CC JUMPI PUSH1 0x40 MLOAD PUSH32 0x58F2468300000000000000000000000000000000000000000000000000000000 DUP2 MSTORE PUSH1 0x4 ADD PUSH1 0x40 MLOAD DUP1 SWAP2 SUB SWAP1 REVERT JUMPDEST PUSH1 0x0 PUSH1 0x5 PUSH1 0x0 CALLER PUSH20 0xFFFFFFFFFFFFFFFFFFFFFFFFFFFFFFFFFFFFFFFF AND PUSH20 0xFFFFFFFFFFFFFFFFFFFFFFFFFFFFFFFFFFFFFFFF AND DUP2 MSTORE PUSH1 0x20 ADD SWAP1 DUP2 MSTORE PUSH1 0x20 ADD PUSH1 0x0 KECCAK256 PUSH1 0x0 PUSH32 0x0 PUSH20 0xFFFFFFFFFFFFFFFFFFFFFFFFFFFFFFFFFFFFFFFF AND PUSH20 0xFFFFFFFFFFFFFFFFFFFFFFFFFFFFFFFFFFFFFFFF AND DUP2 MSTORE PUSH1 0x20 ADD SWAP1 DUP2 MSTORE PUSH1 0x20 ADD PUSH1 0x0 KECCAK256 SLOAD SWAP1 POP DUP3 DUP2 LT ISZERO PUSH2 0x26A7 JUMPI PUSH1 0x40 MLOAD PUSH32 0x663CA2F000000000000000000000000000000000000000000000000000000000 DUP2 MSTORE PUSH1 0x4 ADD PUSH1 0x40 MLOAD DUP1 SWAP2 SUB SWAP1 REVERT JUMPDEST DUP3 PUSH1 0x5 PUSH1 0x0 CALLER PUSH20 0xFFFFFFFFFFFFFFFFFFFFFFFFFFFFFFFFFFFFFFFF AND PUSH20 0xFFFFFFFFFFFFFFFFFFFFFFFFFFFFFFFFFFFFFFFF AND DUP2 MSTORE PUSH1 0x20 ADD SWAP1 DUP2 MSTORE PUSH1 0x20 ADD PUSH1 0x0 KECCAK256 PUSH1 0x0 PUSH32 0x0 PUSH20 0xFFFFFFFFFFFFFFFFFFFFFFFFFFFFFFFFFFFFFFFF AND PUSH20 0xFFFFFFFFFFFFFFFFFFFFFFFFFFFFFFFFFFFFFFFF AND DUP2 MSTORE PUSH1 0x20 ADD SWAP1 DUP2 MSTORE PUSH1 0x20 ADD PUSH1 0x0 KECCAK256 PUSH1 0x0 DUP3 DUP3 SLOAD PUSH2 0x2753 SWAP2 SWAP1 PUSH2 0x4021 JUMP JUMPDEST SWAP3 POP POP DUP2 SWAP1 SSTORE POP PUSH1 0x0 PUSH2 0x2765 CALLER PUSH2 0x14C3 JUMP JUMPDEST POP SWAP1 POP PUSH8 0xDE0B6B3A7640000 DUP2 LT ISZERO PUSH2 0x27B5 JUMPI DUP1 PUSH1 0x40 MLOAD PUSH32 0x4697F3700000000000000000000000000000000000000000000000000000000 DUP2 MSTORE PUSH1 0x4 ADD PUSH2 0x27AC SWAP2 SWAP1 PUSH2 0x3E03 JUMP JUMPDEST PUSH1 0x40 MLOAD DUP1 SWAP2 SUB SWAP1 REVERT JUMPDEST PUSH1 0x0 PUSH1 0x5 PUSH1 0x0 CALLER PUSH20 0xFFFFFFFFFFFFFFFFFFFFFFFFFFFFFFFFFFFFFFFF AND PUSH20 0xFFFFFFFFFFFFFFFFFFFFFFFFFFFFFFFFFFFFFFFF AND DUP2 MSTORE PUSH1 0x20 ADD SWAP1 DUP2 MSTORE PUSH1 0x20 ADD PUSH1 0x0 KECCAK256 PUSH1 0x0 PUSH32 0x0 PUSH20 0xFFFFFFFFFFFFFFFFFFFFFFFFFFFFFFFFFFFFFFFF AND PUSH20 0xFFFFFFFFFFFFFFFFFFFFFFFFFFFFFFFFFFFFFFFF AND DUP2 MSTORE PUSH1 0x20 ADD SWAP1 DUP2 MSTORE PUSH1 0x20 ADD PUSH1 0x0 KECCAK256 SLOAD SUB PUSH2 0x2863 JUMPI PUSH2 0x2862 CALLER PUSH2 0x3A33 JUMP JUMPDEST JUMPDEST PUSH1 0x0 PUSH32 0x0 PUSH20 0xFFFFFFFFFFFFFFFFFFFFFFFFFFFFFFFFFFFFFFFF AND PUSH4 0x95EA7B3 ADDRESS DUP8 PUSH1 0x40 MLOAD DUP4 PUSH4 0xFFFFFFFF AND PUSH1 0xE0 SHL DUP2 MSTORE PUSH1 0x4 ADD PUSH2 0x28C0 SWAP3 SWAP2 SWAP1 PUSH2 0x4064 JUMP JUMPDEST PUSH1 0x20 PUSH1 0x40 MLOAD DUP1 DUP4 SUB DUP2 PUSH1 0x0 DUP8 GAS CALL ISZERO DUP1 ISZERO PUSH2 0x28DF JUMPI RETURNDATASIZE PUSH1 0x0 DUP1 RETURNDATACOPY RETURNDATASIZE PUSH1 0x0 REVERT JUMPDEST POP POP POP POP PUSH1 0x40 MLOAD RETURNDATASIZE PUSH1 0x1F NOT PUSH1 0x1F DUP3 ADD AND DUP3 ADD DUP1 PUSH1 0x40 MSTORE POP DUP2 ADD SWAP1 PUSH2 0x2903 SWAP2 SWAP1 PUSH2 0x40C5 JUMP JUMPDEST SWAP1 POP DUP1 PUSH2 0x293C JUMPI PUSH1 0x40 MLOAD PUSH32 0x98D23B5100000000000000000000000000000000000000000000000000000000 DUP2 MSTORE PUSH1 0x4 ADD PUSH1 0x40 MLOAD DUP1 SWAP2 SUB SWAP1 REVERT JUMPDEST PUSH32 0x0 PUSH20 0xFFFFFFFFFFFFFFFFFFFFFFFFFFFFFFFFFFFFFFFF AND PUSH4 0xA9059CBB CALLER DUP8 PUSH1 0x40 MLOAD DUP4 PUSH4 0xFFFFFFFF AND PUSH1 0xE0 SHL DUP2 MSTORE PUSH1 0x4 ADD PUSH2 0x2997 SWAP3 SWAP2 SWAP1 PUSH2 0x4064 JUMP JUMPDEST PUSH1 0x20 PUSH1 0x40 MLOAD DUP1 DUP4 SUB DUP2 PUSH1 0x0 DUP8 GAS CALL ISZERO DUP1 ISZERO PUSH2 0x29B6 JUMPI RETURNDATASIZE PUSH1 0x0 DUP1 RETURNDATACOPY RETURNDATASIZE PUSH1 0x0 REVERT JUMPDEST POP POP POP POP PUSH1 0x40 MLOAD RETURNDATASIZE PUSH1 0x1F NOT PUSH1 0x1F DUP3 ADD AND DUP3 ADD DUP1 PUSH1 0x40 MSTORE POP DUP2 ADD SWAP1 PUSH2 0x29DA SWAP2 SWAP1 PUSH2 0x40C5 JUMP JUMPDEST SWAP1 POP DUP1 PUSH2 0x2A13 JUMPI PUSH1 0x40 MLOAD PUSH32 0xE64E62DE00000000000000000000000000000000000000000000000000000000 DUP2 MSTORE PUSH1 0x4 ADD PUSH1 0x40 MLOAD DUP1 SWAP2 SUB SWAP1 REVERT JUMPDEST PUSH32 0x0 PUSH20 0xFFFFFFFFFFFFFFFFFFFFFFFFFFFFFFFFFFFFFFFF AND CALLER PUSH20 0xFFFFFFFFFFFFFFFFFFFFFFFFFFFFFFFFFFFFFFFF AND PUSH32 0xC994FEB9B99296D80965B47AEC6BE0D25704DDF95B9B9BC1ED8BC753960D5809 DUP8 PUSH1 0x40 MLOAD PUSH2 0x2A90 SWAP2 SWAP1 PUSH2 0x3E03 JUMP JUMPDEST PUSH1 0x40 MLOAD DUP1 SWAP2 SUB SWAP1 LOG3 POP POP POP POP PUSH2 0x2AA4 PUSH2 0x359F JUMP JUMPDEST POP JUMP JUMPDEST PUSH1 0x0 PUSH1 0x7 PUSH1 0x0 PUSH32 0x0 PUSH20 0xFFFFFFFFFFFFFFFFFFFFFFFFFFFFFFFFFFFFFFFF AND PUSH20 0xFFFFFFFFFFFFFFFFFFFFFFFFFFFFFFFFFFFFFFFF AND DUP2 MSTORE PUSH1 0x20 ADD SWAP1 DUP2 MSTORE PUSH1 0x20 ADD PUSH1 0x0 KECCAK256 SLOAD SWAP1 POP SWAP1 JUMP JUMPDEST PUSH1 0x0 PUSH1 0x3 PUSH1 0x0 DUP4 PUSH20 0xFFFFFFFFFFFFFFFFFFFFFFFFFFFFFFFFFFFFFFFF AND PUSH20 0xFFFFFFFFFFFFFFFFFFFFFFFFFFFFFFFFFFFFFFFF AND DUP2 MSTORE PUSH1 0x20 ADD SWAP1 DUP2 MSTORE PUSH1 0x20 ADD PUSH1 0x0 KECCAK256 PUSH1 0x0 PUSH32 0x0 PUSH20 0xFFFFFFFFFFFFFFFFFFFFFFFFFFFFFFFFFFFFFFFF AND PUSH20 0xFFFFFFFFFFFFFFFFFFFFFFFFFFFFFFFFFFFFFFFF AND DUP2 MSTORE PUSH1 0x20 ADD SWAP1 DUP2 MSTORE PUSH1 0x20 ADD PUSH1 0x0 KECCAK256 SLOAD SWAP1 POP SWAP2 SWAP1 POP JUMP JUMPDEST PUSH4 0x1E13380 DUP2 JUMP JUMPDEST PUSH2 0x2BC4 PUSH2 0x33D1 JUMP JUMPDEST DUP1 PUSH1 0x0 DUP2 GT PUSH2 0x2BFF JUMPI PUSH1 0x40 MLOAD PUSH32 0x58F2468300000000000000000000000000000000000000000000000000000000 DUP2 MSTORE PUSH1 0x4 ADD PUSH1 0x40 MLOAD DUP1 SWAP2 SUB SWAP1 REVERT JUMPDEST PUSH1 0x0 PUSH2 0x2C0A CALLER PUSH2 0x147D JUMP JUMPDEST SWAP1 POP PUSH1 0x0 PUSH1 0x4 PUSH1 0x0 CALLER PUSH20 0xFFFFFFFFFFFFFFFFFFFFFFFFFFFFFFFFFFFFFFFF AND PUSH20 0xFFFFFFFFFFFFFFFFFFFFFFFFFFFFFFFFFFFFFFFF AND DUP2 MSTORE PUSH1 0x20 ADD SWAP1 DUP2 MSTORE PUSH1 0x20 ADD PUSH1 0x0 KECCAK256 PUSH1 0x0 PUSH32 0x0 PUSH20 0xFFFFFFFFFFFFFFFFFFFFFFFFFFFFFFFFFFFFFFFF AND PUSH20 0xFFFFFFFFFFFFFFFFFFFFFFFFFFFFFFFFFFFFFFFF AND DUP2 MSTORE PUSH1 0x20 ADD SWAP1 DUP2 MSTORE PUSH1 0x20 ADD PUSH1 0x0 KECCAK256 SLOAD SWAP1 POP PUSH1 0x0 DUP5 DUP3 PUSH2 0x2CBB SWAP2 SWAP1 PUSH2 0x4129 JUMP JUMPDEST SWAP1 POP DUP1 DUP4 LT ISZERO PUSH2 0x2CF7 JUMPI PUSH1 0x40 MLOAD PUSH32 0x663CA2F000000000000000000000000000000000000000000000000000000000 DUP2 MSTORE PUSH1 0x4 ADD PUSH1 0x40 MLOAD DUP1 SWAP2 SUB SWAP1 REVERT JUMPDEST DUP1 PUSH1 0x4 PUSH1 0x0 CALLER PUSH20 0xFFFFFFFFFFFFFFFFFFFFFFFFFFFFFFFFFFFFFFFF AND PUSH20 0xFFFFFFFFFFFFFFFFFFFFFFFFFFFFFFFFFFFFFFFF AND DUP2 MSTORE PUSH1 0x20 ADD SWAP1 DUP2 MSTORE PUSH1 0x20 ADD PUSH1 0x0 KECCAK256 PUSH1 0x0 PUSH32 0x0 PUSH20 0xFFFFFFFFFFFFFFFFFFFFFFFFFFFFFFFFFFFFFFFF AND PUSH20 0xFFFFFFFFFFFFFFFFFFFFFFFFFFFFFFFFFFFFFFFF AND DUP2 MSTORE PUSH1 0x20 ADD SWAP1 DUP2 MSTORE PUSH1 0x20 ADD PUSH1 0x0 KECCAK256 DUP2 SWAP1 SSTORE POP PUSH1 0x0 PUSH2 0x2DA3 CALLER PUSH2 0x14C3 JUMP JUMPDEST POP SWAP1 POP PUSH8 0xDE0B6B3A7640000 DUP2 LT ISZERO PUSH2 0x2DF3 JUMPI DUP1 PUSH1 0x40 MLOAD PUSH32 0x4697F3700000000000000000000000000000000000000000000000000000000 DUP2 MSTORE PUSH1 0x4 ADD PUSH2 0x2DEA SWAP2 SWAP1 PUSH2 0x3E03 JUMP JUMPDEST PUSH1 0x40 MLOAD DUP1 SWAP2 SUB SWAP1 REVERT JUMPDEST PUSH1 0x0 PUSH1 0x4 PUSH1 0x0 CALLER PUSH20 0xFFFFFFFFFFFFFFFFFFFFFFFFFFFFFFFFFFFFFFFF AND PUSH20 0xFFFFFFFFFFFFFFFFFFFFFFFFFFFFFFFFFFFFFFFF AND DUP2 MSTORE PUSH1 0x20 ADD SWAP1 DUP2 MSTORE PUSH1 0x20 ADD PUSH1 0x0 KECCAK256 PUSH1 0x0 PUSH32 0x0 PUSH20 0xFFFFFFFFFFFFFFFFFFFFFFFFFFFFFFFFFFFFFFFF AND PUSH20 0xFFFFFFFFFFFFFFFFFFFFFFFFFFFFFFFFFFFFFFFF AND DUP2 MSTORE PUSH1 0x20 ADD SWAP1 DUP2 MSTORE PUSH1 0x20 ADD PUSH1 0x0 KECCAK256 SLOAD GT ISZERO PUSH2 0x2EA2 JUMPI PUSH2 0x2EA1 CALLER PUSH2 0x3BBD JUMP JUMPDEST JUMPDEST PUSH1 0x0 PUSH32 0x0 PUSH20 0xFFFFFFFFFFFFFFFFFFFFFFFFFFFFFFFFFFFFFFFF AND PUSH4 0x95EA7B3 ADDRESS DUP10 PUSH1 0x40 MLOAD DUP4 PUSH4 0xFFFFFFFF AND PUSH1 0xE0 SHL DUP2 MSTORE PUSH1 0x4 ADD PUSH2 0x2EFF SWAP3 SWAP2 SWAP1 PUSH2 0x4064 JUMP JUMPDEST PUSH1 0x20 PUSH1 0x40 MLOAD DUP1 DUP4 SUB DUP2 PUSH1 0x0 DUP8 GAS CALL ISZERO DUP1 ISZERO PUSH2 0x2F1E JUMPI RETURNDATASIZE PUSH1 0x0 DUP1 RETURNDATACOPY RETURNDATASIZE PUSH1 0x0 REVERT JUMPDEST POP POP POP POP PUSH1 0x40 MLOAD RETURNDATASIZE PUSH1 0x1F NOT PUSH1 0x1F DUP3 ADD AND DUP3 ADD DUP1 PUSH1 0x40 MSTORE POP DUP2 ADD SWAP1 PUSH2 0x2F42 SWAP2 SWAP1 PUSH2 0x40C5 JUMP JUMPDEST SWAP1 POP DUP1 PUSH2 0x2F7B JUMPI PUSH1 0x40 MLOAD PUSH32 0x98D23B5100000000000000000000000000000000000000000000000000000000 DUP2 MSTORE PUSH1 0x4 ADD PUSH1 0x40 MLOAD DUP1 SWAP2 SUB SWAP1 REVERT JUMPDEST PUSH32 0x0 PUSH20 0xFFFFFFFFFFFFFFFFFFFFFFFFFFFFFFFFFFFFFFFF AND PUSH4 0xA9059CBB CALLER DUP10 PUSH1 0x40 MLOAD DUP4 PUSH4 0xFFFFFFFF AND PUSH1 0xE0 SHL DUP2 MSTORE PUSH1 0x4 ADD PUSH2 0x2FD6 SWAP3 SWAP2 SWAP1 PUSH2 0x4064 JUMP JUMPDEST PUSH1 0x20 PUSH1 0x40 MLOAD DUP1 DUP4 SUB DUP2 PUSH1 0x0 DUP8 GAS CALL ISZERO DUP1 ISZERO PUSH2 0x2FF5 JUMPI RETURNDATASIZE PUSH1 0x0 DUP1 RETURNDATACOPY RETURNDATASIZE PUSH1 0x0 REVERT JUMPDEST POP POP POP POP PUSH1 0x40 MLOAD RETURNDATASIZE PUSH1 0x1F NOT PUSH1 0x1F DUP3 ADD AND DUP3 ADD DUP1 PUSH1 0x40 MSTORE POP DUP2 ADD SWAP1 PUSH2 0x3019 SWAP2 SWAP1 PUSH2 0x40C5 JUMP JUMPDEST SWAP1 POP DUP1 PUSH2 0x3052 JUMPI PUSH1 0x40 MLOAD PUSH32 0xE64E62DE00000000000000000000000000000000000000000000000000000000 DUP2 MSTORE PUSH1 0x4 ADD PUSH1 0x40 MLOAD DUP1 SWAP2 SUB SWAP1 REVERT JUMPDEST PUSH32 0x0 PUSH20 0xFFFFFFFFFFFFFFFFFFFFFFFFFFFFFFFFFFFFFFFF AND CALLER PUSH20 0xFFFFFFFFFFFFFFFFFFFFFFFFFFFFFFFFFFFFFFFF AND PUSH32 0x312A5E5E1079F5DDA4E95DBBD0B908B291FD5B992EF22073643AB691572C5B52 DUP10 PUSH1 0x40 MLOAD PUSH2 0x30CF SWAP2 SWAP1 PUSH2 0x3E03 JUMP JUMPDEST PUSH1 0x40 MLOAD DUP1 SWAP2 SUB SWAP1 LOG3 POP POP POP POP POP POP PUSH2 0x30E5 PUSH2 0x359F JUMP JUMPDEST POP JUMP JUMPDEST PUSH1 0x0 DUP1 PUSH2 0x30F4 DUP4 PUSH2 0x147D JUMP JUMPDEST SWAP1 POP PUSH1 0x0 PUSH1 0x4 PUSH1 0x0 DUP6 PUSH20 0xFFFFFFFFFFFFFFFFFFFFFFFFFFFFFFFFFFFFFFFF AND PUSH20 0xFFFFFFFFFFFFFFFFFFFFFFFFFFFFFFFFFFFFFFFF AND DUP2 MSTORE PUSH1 0x20 ADD SWAP1 DUP2 MSTORE PUSH1 0x20 ADD PUSH1 0x0 KECCAK256 PUSH1 0x0 PUSH32 0x0 PUSH20 0xFFFFFFFFFFFFFFFFFFFFFFFFFFFFFFFFFFFFFFFF AND PUSH20 0xFFFFFFFFFFFFFFFFFFFFFFFFFFFFFFFFFFFFFFFF AND DUP2 MSTORE PUSH1 0x20 ADD SWAP1 DUP2 MSTORE PUSH1 0x20 ADD PUSH1 0x0 KECCAK256 SLOAD SWAP1 POP DUP1 DUP3 PUSH2 0x31A3 SWAP2 SWAP1 PUSH2 0x4021 JUMP JUMPDEST SWAP3 POP POP POP SWAP2 SWAP1 POP JUMP JUMPDEST PUSH1 0x0 DUP1 PUSH1 0x0 SWAP1 POP PUSH1 0x0 PUSH2 0x31BD PUSH2 0x13EF JUMP JUMPDEST SWAP1 POP PUSH1 0x0 JUMPDEST DUP2 MLOAD DUP2 LT ISZERO PUSH2 0x329C JUMPI PUSH1 0x4 PUSH1 0x0 DUP4 DUP4 DUP2 MLOAD DUP2 LT PUSH2 0x31E2 JUMPI PUSH2 0x31E1 PUSH2 0x41FF JUMP JUMPDEST JUMPDEST PUSH1 0x20 MUL PUSH1 0x20 ADD ADD MLOAD PUSH20 0xFFFFFFFFFFFFFFFFFFFFFFFFFFFFFFFFFFFFFFFF AND PUSH20 0xFFFFFFFFFFFFFFFFFFFFFFFFFFFFFFFFFFFFFFFF AND DUP2 MSTORE PUSH1 0x20 ADD SWAP1 DUP2 MSTORE PUSH1 0x20 ADD PUSH1 0x0 KECCAK256 PUSH1 0x0 PUSH32 0x0 PUSH20 0xFFFFFFFFFFFFFFFFFFFFFFFFFFFFFFFFFFFFFFFF AND PUSH20 0xFFFFFFFFFFFFFFFFFFFFFFFFFFFFFFFFFFFFFFFF AND DUP2 MSTORE PUSH1 0x20 ADD SWAP1 DUP2 MSTORE PUSH1 0x20 ADD PUSH1 0x0 KECCAK256 SLOAD DUP4 PUSH2 0x328D SWAP2 SWAP1 PUSH2 0x4129 JUMP JUMPDEST SWAP3 POP DUP1 DUP1 PUSH1 0x1 ADD SWAP2 POP POP PUSH2 0x31C2 JUMP JUMPDEST POP DUP2 SWAP3 POP POP POP SWAP1 JUMP JUMPDEST PUSH1 0x0 DUP1 PUSH1 0x0 SWAP1 POP PUSH1 0x0 PUSH2 0x32B6 PUSH2 0xB08 JUMP JUMPDEST SWAP1 POP PUSH1 0x0 JUMPDEST DUP2 MLOAD DUP2 LT ISZERO PUSH2 0x3301 JUMPI PUSH2 0x32E7 DUP3 DUP3 DUP2 MLOAD DUP2 LT PUSH2 0x32DA JUMPI PUSH2 0x32D9 PUSH2 0x41FF JUMP JUMPDEST JUMPDEST PUSH1 0x20 MUL PUSH1 0x20 ADD ADD MLOAD PUSH2 0x3726 JUMP JUMPDEST DUP4 PUSH2 0x32F2 SWAP2 SWAP1 PUSH2 0x4129 JUMP JUMPDEST SWAP3 POP DUP1 DUP1 PUSH1 0x1 ADD SWAP2 POP POP PUSH2 0x32BB JUMP JUMPDEST POP DUP2 SWAP3 POP POP POP SWAP1 JUMP JUMPDEST PUSH1 0x0 PUSH2 0x3315 DUP3 PUSH2 0x3CB9 JUMP JUMPDEST SWAP1 POP SWAP2 SWAP1 POP JUMP JUMPDEST PUSH1 0x0 PUSH2 0x3326 PUSH2 0x37FC JUMP JUMPDEST SWAP1 POP SWAP1 JUMP JUMPDEST PUSH1 0x0 PUSH1 0x4 PUSH1 0x0 DUP4 PUSH20 0xFFFFFFFFFFFFFFFFFFFFFFFFFFFFFFFFFFFFFFFF AND PUSH20 0xFFFFFFFFFFFFFFFFFFFFFFFFFFFFFFFFFFFFFFFF AND DUP2 MSTORE PUSH1 0x20 ADD SWAP1 DUP2 MSTORE PUSH1 0x20 ADD PUSH1 0x0 KECCAK256 PUSH1 0x0 PUSH32 0x0 PUSH20 0xFFFFFFFFFFFFFFFFFFFFFFFFFFFFFFFFFFFFFFFF AND PUSH20 0xFFFFFFFFFFFFFFFFFFFFFFFFFFFFFFFFFFFFFFFF AND DUP2 MSTORE PUSH1 0x20 ADD SWAP1 DUP2 MSTORE PUSH1 0x20 ADD PUSH1 0x0 KECCAK256 SLOAD SWAP1 POP SWAP2 SWAP1 POP JUMP JUMPDEST PUSH1 0x2 PUSH1 0x0 SLOAD SUB PUSH2 0x340D JUMPI PUSH1 0x40 MLOAD PUSH32 0x3EE5AEB500000000000000000000000000000000000000000000000000000000 DUP2 MSTORE PUSH1 0x4 ADD PUSH1 0x40 MLOAD DUP1 SWAP2 SUB SWAP1 REVERT JUMPDEST PUSH1 0x2 PUSH1 0x0 DUP2 SWAP1 SSTORE POP JUMP JUMPDEST PUSH1 0x0 JUMPDEST PUSH1 0x1 DUP1 SLOAD SWAP1 POP DUP2 LT ISZERO PUSH2 0x359B JUMPI DUP2 PUSH20 0xFFFFFFFFFFFFFFFFFFFFFFFFFFFFFFFFFFFFFFFF AND PUSH1 0x1 DUP3 DUP2 SLOAD DUP2 LT PUSH2 0x3452 JUMPI PUSH2 0x3451 PUSH2 0x41FF JUMP JUMPDEST JUMPDEST SWAP1 PUSH1 0x0 MSTORE PUSH1 0x20 PUSH1 0x0 KECCAK256 ADD PUSH1 0x0 SWAP1 SLOAD SWAP1 PUSH2 0x100 EXP SWAP1 DIV PUSH20 0xFFFFFFFFFFFFFFFFFFFFFFFFFFFFFFFFFFFFFFFF AND PUSH20 0xFFFFFFFFFFFFFFFFFFFFFFFFFFFFFFFFFFFFFFFF AND SUB PUSH2 0x358E JUMPI PUSH1 0x1 DUP1 DUP1 DUP1 SLOAD SWAP1 POP PUSH2 0x34AA SWAP2 SWAP1 PUSH2 0x4021 JUMP JUMPDEST DUP2 SLOAD DUP2 LT PUSH2 0x34BB JUMPI PUSH2 0x34BA PUSH2 0x41FF JUMP JUMPDEST JUMPDEST SWAP1 PUSH1 0x0 MSTORE PUSH1 0x20 PUSH1 0x0 KECCAK256 ADD PUSH1 0x0 SWAP1 SLOAD SWAP1 PUSH2 0x100 EXP SWAP1 DIV PUSH20 0xFFFFFFFFFFFFFFFFFFFFFFFFFFFFFFFFFFFFFFFF AND PUSH1 0x1 DUP3 DUP2 SLOAD DUP2 LT PUSH2 0x34FA JUMPI PUSH2 0x34F9 PUSH2 0x41FF JUMP JUMPDEST JUMPDEST SWAP1 PUSH1 0x0 MSTORE PUSH1 0x20 PUSH1 0x0 KECCAK256 ADD PUSH1 0x0 PUSH2 0x100 EXP DUP2 SLOAD DUP2 PUSH20 0xFFFFFFFFFFFFFFFFFFFFFFFFFFFFFFFFFFFFFFFF MUL NOT AND SWAP1 DUP4 PUSH20 0xFFFFFFFFFFFFFFFFFFFFFFFFFFFFFFFFFFFFFFFF AND MUL OR SWAP1 SSTORE POP PUSH1 0x1 DUP1 SLOAD DUP1 PUSH2 0x3554 JUMPI PUSH2 0x3553 PUSH2 0x422E JUMP JUMPDEST JUMPDEST PUSH1 0x1 SWAP1 SUB DUP2 DUP2 SWAP1 PUSH1 0x0 MSTORE PUSH1 0x20 PUSH1 0x0 KECCAK256 ADD PUSH1 0x0 PUSH2 0x100 EXP DUP2 SLOAD SWAP1 PUSH20 0xFFFFFFFFFFFFFFFFFFFFFFFFFFFFFFFFFFFFFFFF MUL NOT AND SWAP1 SSTORE SWAP1 SSTORE PUSH2 0x359B JUMP JUMPDEST DUP1 DUP1 PUSH1 0x1 ADD SWAP2 POP POP PUSH2 0x341A JUMP JUMPDEST POP POP JUMP JUMPDEST PUSH1 0x1 PUSH1 0x0 DUP2 SWAP1 SSTORE POP JUMP JUMPDEST PUSH1 0x0 DUP1 PUSH1 0x9 PUSH1 0x0 PUSH32 0x0 PUSH20 0xFFFFFFFFFFFFFFFFFFFFFFFFFFFFFFFFFFFFFFFF AND PUSH20 0xFFFFFFFFFFFFFFFFFFFFFFFFFFFFFFFFFFFFFFFF AND DUP2 MSTORE PUSH1 0x20 ADD SWAP1 DUP2 MSTORE PUSH1 0x20 ADD PUSH1 0x0 KECCAK256 PUSH1 0x0 SWAP1 SLOAD SWAP1 PUSH2 0x100 EXP SWAP1 DIV PUSH20 0xFFFFFFFFFFFFFFFFFFFFFFFFFFFFFFFFFFFFFFFF AND SWAP1 POP PUSH1 0x0 DUP2 SWAP1 POP PUSH1 0x0 DUP2 PUSH20 0xFFFFFFFFFFFFFFFFFFFFFFFFFFFFFFFFFFFFFFFF AND PUSH20 0x0 PUSH4 0x2B8D0621 SWAP1 SWAP2 PUSH1 0x40 MLOAD DUP3 PUSH4 0xFFFFFFFF AND PUSH1 0xE0 SHL DUP2 MSTORE PUSH1 0x4 ADD PUSH2 0x3684 SWAP2 SWAP1 PUSH2 0x42BC JUMP JUMPDEST PUSH1 0xA0 PUSH1 0x40 MLOAD DUP1 DUP4 SUB DUP2 DUP7 GAS DELEGATECALL ISZERO DUP1 ISZERO PUSH2 0x36A1 JUMPI RETURNDATASIZE PUSH1 0x0 DUP1 RETURNDATACOPY RETURNDATASIZE PUSH1 0x0 REVERT JUMPDEST POP POP POP POP PUSH1 0x40 MLOAD RETURNDATASIZE PUSH1 0x1F NOT PUSH1 0x1F DUP3 ADD AND DUP3 ADD DUP1 PUSH1 0x40 MSTORE POP DUP2 ADD SWAP1 PUSH2 0x36C5 SWAP2 SWAP1 PUSH2 0x4364 JUMP JUMPDEST POP POP POP SWAP2 POP POP PUSH5 0x2540BE400 DUP2 PUSH2 0x36DC SWAP2 SWAP1 PUSH2 0x415D JUMP JUMPDEST SWAP4 POP POP POP POP SWAP1 JUMP JUMPDEST PUSH1 0x0 DUP1 PUSH1 0x64 PUSH4 0x1E13380 DUP5 PUSH1 0x5 DUP8 PUSH2 0x36FC SWAP2 SWAP1 PUSH2 0x415D JUMP JUMPDEST PUSH2 0x3706 SWAP2 SWAP1 PUSH2 0x415D JUMP JUMPDEST PUSH2 0x3710 SWAP2 SWAP1 PUSH2 0x41CE JUMP JUMPDEST PUSH2 0x371A SWAP2 SWAP1 PUSH2 0x41CE JUMP JUMPDEST SWAP1 POP DUP1 SWAP2 POP POP SWAP3 SWAP2 POP POP JUMP JUMPDEST PUSH1 0x0 DUP1 PUSH1 0x5 PUSH1 0x0 DUP5 PUSH20 0xFFFFFFFFFFFFFFFFFFFFFFFFFFFFFFFFFFFFFFFF AND PUSH20 0xFFFFFFFFFFFFFFFFFFFFFFFFFFFFFFFFFFFFFFFF AND DUP2 MSTORE PUSH1 0x20 ADD SWAP1 DUP2 MSTORE PUSH1 0x20 ADD PUSH1 0x0 KECCAK256 PUSH1 0x0 PUSH32 0x0 PUSH20 0xFFFFFFFFFFFFFFFFFFFFFFFFFFFFFFFFFFFFFFFF AND PUSH20 0xFFFFFFFFFFFFFFFFFFFFFFFFFFFFFFFFFFFFFFFF AND DUP2 MSTORE PUSH1 0x20 ADD SWAP1 DUP2 MSTORE PUSH1 0x20 ADD PUSH1 0x0 KECCAK256 SLOAD SWAP1 POP PUSH1 0x0 PUSH2 0x37D2 PUSH2 0x37FC JUMP JUMPDEST SWAP1 POP PUSH8 0xDE0B6B3A7640000 DUP2 DUP4 PUSH2 0x37E9 SWAP2 SWAP1 PUSH2 0x415D JUMP JUMPDEST PUSH2 0x37F3 SWAP2 SWAP1 PUSH2 0x41CE JUMP JUMPDEST SWAP3 POP POP POP SWAP2 SWAP1 POP JUMP JUMPDEST PUSH1 0x0 DUP1 PUSH1 0x8 PUSH1 0x0 PUSH32 0x0 PUSH20 0xFFFFFFFFFFFFFFFFFFFFFFFFFFFFFFFFFFFFFFFF AND PUSH20 0xFFFFFFFFFFFFFFFFFFFFFFFFFFFFFFFFFFFFFFFF AND DUP2 MSTORE PUSH1 0x20 ADD SWAP1 DUP2 MSTORE PUSH1 0x20 ADD PUSH1 0x0 KECCAK256 PUSH1 0x0 SWAP1 SLOAD SWAP1 PUSH2 0x100 EXP SWAP1 DIV PUSH20 0xFFFFFFFFFFFFFFFFFFFFFFFFFFFFFFFFFFFFFFFF AND SWAP1 POP PUSH1 0x0 DUP2 SWAP1 POP PUSH1 0x0 DUP2 PUSH20 0xFFFFFFFFFFFFFFFFFFFFFFFFFFFFFFFFFFFFFFFF AND PUSH20 0x0 PUSH4 0x2B8D0621 SWAP1 SWAP2 PUSH1 0x40 MLOAD DUP3 PUSH4 0xFFFFFFFF AND PUSH1 0xE0 SHL DUP2 MSTORE PUSH1 0x4 ADD PUSH2 0x38D7 SWAP2 SWAP1 PUSH2 0x42BC JUMP JUMPDEST PUSH1 0xA0 PUSH1 0x40 MLOAD DUP1 DUP4 SUB DUP2 DUP7 GAS DELEGATECALL ISZERO DUP1 ISZERO PUSH2 0x38F4 JUMPI RETURNDATASIZE PUSH1 0x0 DUP1 RETURNDATACOPY RETURNDATASIZE PUSH1 0x0 REVERT JUMPDEST POP POP POP POP PUSH1 0x40 MLOAD RETURNDATASIZE PUSH1 0x1F NOT PUSH1 0x1F DUP3 ADD AND DUP3 ADD DUP1 PUSH1 0x40 MSTORE POP DUP2 ADD SWAP1 PUSH2 0x3918 SWAP2 SWAP1 PUSH2 0x4364 JUMP JUMPDEST POP POP POP SWAP2 POP POP PUSH5 0x2540BE400 DUP2 PUSH2 0x392F SWAP2 SWAP1 PUSH2 0x415D JUMP JUMPDEST SWAP4 POP POP POP POP SWAP1 JUMP JUMPDEST PUSH1 0x0 JUMPDEST PUSH1 0x2 DUP1 SLOAD SWAP1 POP DUP2 LT ISZERO PUSH2 0x39CB JUMPI DUP2 PUSH20 0xFFFFFFFFFFFFFFFFFFFFFFFFFFFFFFFFFFFFFFFF AND PUSH1 0x2 DUP3 DUP2 SLOAD DUP2 LT PUSH2 0x3972 JUMPI PUSH2 0x3971 PUSH2 0x41FF JUMP JUMPDEST JUMPDEST SWAP1 PUSH1 0x0 MSTORE PUSH1 0x20 PUSH1 0x0 KECCAK256 ADD PUSH1 0x0 SWAP1 SLOAD SWAP1 PUSH2 0x100 EXP SWAP1 DIV PUSH20 0xFFFFFFFFFFFFFFFFFFFFFFFFFFFFFFFFFFFFFFFF AND PUSH20 0xFFFFFFFFFFFFFFFFFFFFFFFFFFFFFFFFFFFFFFFF AND SUB PUSH2 0x39BE JUMPI POP PUSH2 0x3A30 JUMP JUMPDEST DUP1 DUP1 PUSH1 0x1 ADD SWAP2 POP POP PUSH2 0x393A JUMP JUMPDEST POP PUSH1 0x2 DUP2 SWAP1 DUP1 PUSH1 0x1 DUP2 SLOAD ADD DUP1 DUP3 SSTORE DUP1 SWAP2 POP POP PUSH1 0x1 SWAP1 SUB SWAP1 PUSH1 0x0 MSTORE PUSH1 0x20 PUSH1 0x0 KECCAK256 ADD PUSH1 0x0 SWAP1 SWAP2 SWAP1 SWAP2 SWAP1 SWAP2 PUSH2 0x100 EXP DUP2 SLOAD DUP2 PUSH20 0xFFFFFFFFFFFFFFFFFFFFFFFFFFFFFFFFFFFFFFFF MUL NOT AND SWAP1 DUP4 PUSH20 0xFFFFFFFFFFFFFFFFFFFFFFFFFFFFFFFFFFFFFFFF AND MUL OR SWAP1 SSTORE POP JUMPDEST POP JUMP JUMPDEST PUSH1 0x0 JUMPDEST PUSH1 0x2 DUP1 SLOAD SWAP1 POP DUP2 LT ISZERO PUSH2 0x3BB9 JUMPI DUP2 PUSH20 0xFFFFFFFFFFFFFFFFFFFFFFFFFFFFFFFFFFFFFFFF AND PUSH1 0x2 DUP3 DUP2 SLOAD DUP2 LT PUSH2 0x3A6E JUMPI PUSH2 0x3A6D PUSH2 0x41FF JUMP JUMPDEST JUMPDEST SWAP1 PUSH1 0x0 MSTORE PUSH1 0x20 PUSH1 0x0 KECCAK256 ADD PUSH1 0x0 SWAP1 SLOAD SWAP1 PUSH2 0x100 EXP SWAP1 DIV PUSH20 0xFFFFFFFFFFFFFFFFFFFFFFFFFFFFFFFFFFFFFFFF AND PUSH20 0xFFFFFFFFFFFFFFFFFFFFFFFFFFFFFFFFFFFFFFFF AND SUB PUSH2 0x3BAC JUMPI PUSH1 0x2 PUSH1 0x1 PUSH1 0x2 DUP1 SLOAD SWAP1 POP PUSH2 0x3AC8 SWAP2 SWAP1 PUSH2 0x4021 JUMP JUMPDEST DUP2 SLOAD DUP2 LT PUSH2 0x3AD9 JUMPI PUSH2 0x3AD8 PUSH2 0x41FF JUMP JUMPDEST JUMPDEST SWAP1 PUSH1 0x0 MSTORE PUSH1 0x20 PUSH1 0x0 KECCAK256 ADD PUSH1 0x0 SWAP1 SLOAD SWAP1 PUSH2 0x100 EXP SWAP1 DIV PUSH20 0xFFFFFFFFFFFFFFFFFFFFFFFFFFFFFFFFFFFFFFFF AND PUSH1 0x2 DUP3 DUP2 SLOAD DUP2 LT PUSH2 0x3B18 JUMPI PUSH2 0x3B17 PUSH2 0x41FF JUMP JUMPDEST JUMPDEST SWAP1 PUSH1 0x0 MSTORE PUSH1 0x20 PUSH1 0x0 KECCAK256 ADD PUSH1 0x0 PUSH2 0x100 EXP DUP2 SLOAD DUP2 PUSH20 0xFFFFFFFFFFFFFFFFFFFFFFFFFFFFFFFFFFFFFFFF MUL NOT AND SWAP1 DUP4 PUSH20 0xFFFFFFFFFFFFFFFFFFFFFFFFFFFFFFFFFFFFFFFF AND MUL OR SWAP1 SSTORE POP PUSH1 0x2 DUP1 SLOAD DUP1 PUSH2 0x3B72 JUMPI PUSH2 0x3B71 PUSH2 0x422E JUMP JUMPDEST JUMPDEST PUSH1 0x1 SWAP1 SUB DUP2 DUP2 SWAP1 PUSH1 0x0 MSTORE PUSH1 0x20 PUSH1 0x0 KECCAK256 ADD PUSH1 0x0 PUSH2 0x100 EXP DUP2 SLOAD SWAP1 PUSH20 0xFFFFFFFFFFFFFFFFFFFFFFFFFFFFFFFFFFFFFFFF MUL NOT AND SWAP1 SSTORE SWAP1 SSTORE PUSH2 0x3BB9 JUMP JUMPDEST DUP1 DUP1 PUSH1 0x1 ADD SWAP2 POP POP PUSH2 0x3A36 JUMP JUMPDEST POP POP JUMP JUMPDEST PUSH1 0x0 JUMPDEST PUSH1 0x1 DUP1 SLOAD SWAP1 POP DUP2 LT ISZERO PUSH2 0x3C51 JUMPI DUP2 PUSH20 0xFFFFFFFFFFFFFFFFFFFFFFFFFFFFFFFFFFFFFFFF AND PUSH1 0x1 DUP3 DUP2 SLOAD DUP2 LT PUSH2 0x3BF8 JUMPI PUSH2 0x3BF7 PUSH2 0x41FF JUMP JUMPDEST JUMPDEST SWAP1 PUSH1 0x0 MSTORE PUSH1 0x20 PUSH1 0x0 KECCAK256 ADD PUSH1 0x0 SWAP1 SLOAD SWAP1 PUSH2 0x100 EXP SWAP1 DIV PUSH20 0xFFFFFFFFFFFFFFFFFFFFFFFFFFFFFFFFFFFFFFFF AND PUSH20 0xFFFFFFFFFFFFFFFFFFFFFFFFFFFFFFFFFFFFFFFF AND SUB PUSH2 0x3C44 JUMPI POP PUSH2 0x3CB6 JUMP JUMPDEST DUP1 DUP1 PUSH1 0x1 ADD SWAP2 POP POP PUSH2 0x3BC0 JUMP JUMPDEST POP PUSH1 0x1 DUP2 SWAP1 DUP1 PUSH1 0x1 DUP2 SLOAD ADD DUP1 DUP3 SSTORE DUP1 SWAP2 POP POP PUSH1 0x1 SWAP1 SUB SWAP1 PUSH1 0x0 MSTORE PUSH1 0x20 PUSH1 0x0 KECCAK256 ADD PUSH1 0x0 SWAP1 SWAP2 SWAP1 SWAP2 SWAP1 SWAP2 PUSH2 0x100 EXP DUP2 SLOAD DUP2 PUSH20 0xFFFFFFFFFFFFFFFFFFFFFFFFFFFFFFFFFFFFFFFF MUL NOT AND SWAP1 DUP4 PUSH20 0xFFFFFFFFFFFFFFFFFFFFFFFFFFFFFFFFFFFFFFFF AND MUL OR SWAP1 SSTORE POP JUMPDEST POP JUMP JUMPDEST PUSH1 0x0 DUP1 PUSH32 0x0 PUSH20 0xFFFFFFFFFFFFFFFFFFFFFFFFFFFFFFFFFFFFFFFF AND PUSH4 0x70A08231 DUP5 PUSH1 0x40 MLOAD DUP3 PUSH4 0xFFFFFFFF AND PUSH1 0xE0 SHL DUP2 MSTORE PUSH1 0x4 ADD PUSH2 0x3D15 SWAP2 SWAP1 PUSH2 0x43DF JUMP JUMPDEST PUSH1 0x20 PUSH1 0x40 MLOAD DUP1 DUP4 SUB DUP2 DUP7 GAS STATICCALL ISZERO DUP1 ISZERO PUSH2 0x3D32 JUMPI RETURNDATASIZE PUSH1 0x0 DUP1 RETURNDATACOPY RETURNDATASIZE PUSH1 0x0 REVERT JUMPDEST POP POP POP POP PUSH1 0x40 MLOAD RETURNDATASIZE PUSH1 0x1F NOT PUSH1 0x1F DUP3 ADD AND DUP3 ADD DUP1 PUSH1 0x40 MSTORE POP DUP2 ADD SWAP1 PUSH2 0x3D56 SWAP2 SWAP1 PUSH2 0x43FA JUMP JUMPDEST SWAP1 POP PUSH1 0x0 PUSH2 0x3D62 PUSH2 0x37FC JUMP JUMPDEST SWAP1 POP PUSH8 0xDE0B6B3A7640000 DUP2 DUP4 PUSH2 0x3D79 SWAP2 SWAP1 PUSH2 0x415D JUMP JUMPDEST PUSH2 0x3D83 SWAP2 SWAP1 PUSH2 0x41CE JUMP JUMPDEST SWAP3 POP POP POP SWAP2 SWAP1 POP JUMP JUMPDEST PUSH1 0x0 DUP1 REVERT JUMPDEST PUSH1 0x0 DUP2 SWAP1 POP SWAP2 SWAP1 POP JUMP JUMPDEST PUSH2 0x3DA4 DUP2 PUSH2 0x3D91 JUMP JUMPDEST DUP2 EQ PUSH2 0x3DAF JUMPI PUSH1 0x0 DUP1 REVERT JUMPDEST POP JUMP JUMPDEST PUSH1 0x0 DUP2 CALLDATALOAD SWAP1 POP PUSH2 0x3DC1 DUP2 PUSH2 0x3D9B JUMP JUMPDEST SWAP3 SWAP2 POP POP JUMP JUMPDEST PUSH1 0x0 PUSH1 0x20 DUP3 DUP5 SUB SLT ISZERO PUSH2 0x3DDD JUMPI PUSH2 0x3DDC PUSH2 0x3D8C JUMP JUMPDEST JUMPDEST PUSH1 0x0 PUSH2 0x3DEB DUP5 DUP3 DUP6 ADD PUSH2 0x3DB2 JUMP JUMPDEST SWAP2 POP POP SWAP3 SWAP2 POP POP JUMP JUMPDEST PUSH2 0x3DFD DUP2 PUSH2 0x3D91 JUMP JUMPDEST DUP3 MSTORE POP POP JUMP JUMPDEST PUSH1 0x0 PUSH1 0x20 DUP3 ADD SWAP1 POP PUSH2 0x3E18 PUSH1 0x0 DUP4 ADD DUP5 PUSH2 0x3DF4 JUMP JUMPDEST SWAP3 SWAP2 POP POP JUMP JUMPDEST PUSH1 0x0 DUP2 MLOAD SWAP1 POP SWAP2 SWAP1 POP JUMP JUMPDEST PUSH1 0x0 DUP3 DUP3 MSTORE PUSH1 0x20 DUP3 ADD SWAP1 POP SWAP3 SWAP2 POP POP JUMP JUMPDEST PUSH1 0x0 DUP2 SWAP1 POP PUSH1 0x20 DUP3 ADD SWAP1 POP SWAP2 SWAP1 POP JUMP JUMPDEST PUSH1 0x0 PUSH20 0xFFFFFFFFFFFFFFFFFFFFFFFFFFFFFFFFFFFFFFFF DUP3 AND SWAP1 POP SWAP2 SWAP1 POP JUMP JUMPDEST PUSH1 0x0 PUSH2 0x3E75 DUP3 PUSH2 0x3E4A JUMP JUMPDEST SWAP1 POP SWAP2 SWAP1 POP JUMP JUMPDEST PUSH2 0x3E85 DUP2 PUSH2 0x3E6A JUMP JUMPDEST DUP3 MSTORE POP POP JUMP JUMPDEST PUSH1 0x0 PUSH2 0x3E97 DUP4 DUP4 PUSH2 0x3E7C JUMP JUMPDEST PUSH1 0x20 DUP4 ADD SWAP1 POP SWAP3 SWAP2 POP POP JUMP JUMPDEST PUSH1 0x0 PUSH1 0x20 DUP3 ADD SWAP1 POP SWAP2 SWAP1 POP JUMP JUMPDEST PUSH1 0x0 PUSH2 0x3EBB DUP3 PUSH2 0x3E1E JUMP JUMPDEST PUSH2 0x3EC5 DUP2 DUP6 PUSH2 0x3E29 JUMP JUMPDEST SWAP4 POP PUSH2 0x3ED0 DUP4 PUSH2 0x3E3A JUMP JUMPDEST DUP1 PUSH1 0x0 JUMPDEST DUP4 DUP2 LT ISZERO PUSH2 0x3F01 JUMPI DUP2 MLOAD PUSH2 0x3EE8 DUP9 DUP3 PUSH2 0x3E8B JUMP JUMPDEST SWAP8 POP PUSH2 0x3EF3 DUP4 PUSH2 0x3EA3 JUMP JUMPDEST SWAP3 POP POP PUSH1 0x1 DUP2 ADD SWAP1 POP PUSH2 0x3ED4 JUMP JUMPDEST POP DUP6 SWAP4 POP POP POP POP SWAP3 SWAP2 POP POP JUMP JUMPDEST PUSH1 0x0 PUSH1 0x20 DUP3 ADD SWAP1 POP DUP2 DUP2 SUB PUSH1 0x0 DUP4 ADD MSTORE PUSH2 0x3F28 DUP2 DUP5 PUSH2 0x3EB0 JUMP JUMPDEST SWAP1 POP SWAP3 SWAP2 POP POP JUMP JUMPDEST PUSH2 0x3F39 DUP2 PUSH2 0x3E6A JUMP JUMPDEST DUP2 EQ PUSH2 0x3F44 JUMPI PUSH1 0x0 DUP1 REVERT JUMPDEST POP JUMP JUMPDEST PUSH1 0x0 DUP2 CALLDATALOAD SWAP1 POP PUSH2 0x3F56 DUP2 PUSH2 0x3F30 JUMP JUMPDEST SWAP3 SWAP2 POP POP JUMP JUMPDEST PUSH1 0x0 PUSH1 0x20 DUP3 DUP5 SUB SLT ISZERO PUSH2 0x3F72 JUMPI PUSH2 0x3F71 PUSH2 0x3D8C JUMP JUMPDEST JUMPDEST PUSH1 0x0 PUSH2 0x3F80 DUP5 DUP3 DUP6 ADD PUSH2 0x3F47 JUMP JUMPDEST SWAP2 POP POP SWAP3 SWAP2 POP POP JUMP JUMPDEST PUSH1 0x0 PUSH1 0x40 DUP3 ADD SWAP1 POP PUSH2 0x3F9E PUSH1 0x0 DUP4 ADD DUP6 PUSH2 0x3DF4 JUMP JUMPDEST PUSH2 0x3FAB PUSH1 0x20 DUP4 ADD DUP5 PUSH2 0x3DF4 JUMP JUMPDEST SWAP4 SWAP3 POP POP POP JUMP JUMPDEST PUSH1 0x0 DUP1 PUSH1 0x40 DUP4 DUP6 SUB SLT ISZERO PUSH2 0x3FC9 JUMPI PUSH2 0x3FC8 PUSH2 0x3D8C JUMP JUMPDEST JUMPDEST PUSH1 0x0 PUSH2 0x3FD7 DUP6 DUP3 DUP7 ADD PUSH2 0x3F47 JUMP JUMPDEST SWAP3 POP POP PUSH1 0x20 PUSH2 0x3FE8 DUP6 DUP3 DUP7 ADD PUSH2 0x3DB2 JUMP JUMPDEST SWAP2 POP POP SWAP3 POP SWAP3 SWAP1 POP JUMP JUMPDEST PUSH32 0x4E487B7100000000000000000000000000000000000000000000000000000000 PUSH1 0x0 MSTORE PUSH1 0x11 PUSH1 0x4 MSTORE PUSH1 0x24 PUSH1 0x0 REVERT JUMPDEST PUSH1 0x0 PUSH2 0x402C DUP3 PUSH2 0x3D91 JUMP JUMPDEST SWAP2 POP PUSH2 0x4037 DUP4 PUSH2 0x3D91 JUMP JUMPDEST SWAP3 POP DUP3 DUP3 SUB SWAP1 POP DUP2 DUP2 GT ISZERO PUSH2 0x404F JUMPI PUSH2 0x404E PUSH2 0x3FF2 JUMP JUMPDEST JUMPDEST SWAP3 SWAP2 POP POP JUMP JUMPDEST PUSH2 0x405E DUP2 PUSH2 0x3E6A JUMP JUMPDEST DUP3 MSTORE POP POP JUMP JUMPDEST PUSH1 0x0 PUSH1 0x40 DUP3 ADD SWAP1 POP PUSH2 0x4079 PUSH1 0x0 DUP4 ADD DUP6 PUSH2 0x4055 JUMP JUMPDEST PUSH2 0x4086 PUSH1 0x20 DUP4 ADD DUP5 PUSH2 0x3DF4 JUMP JUMPDEST SWAP4 SWAP3 POP POP POP JUMP JUMPDEST PUSH1 0x0 DUP2 ISZERO ISZERO SWAP1 POP SWAP2 SWAP1 POP JUMP JUMPDEST PUSH2 0x40A2 DUP2 PUSH2 0x408D JUMP JUMPDEST DUP2 EQ PUSH2 0x40AD JUMPI PUSH1 0x0 DUP1 REVERT JUMPDEST POP JUMP JUMPDEST PUSH1 0x0 DUP2 MLOAD SWAP1 POP PUSH2 0x40BF DUP2 PUSH2 0x4099 JUMP JUMPDEST SWAP3 SWAP2 POP POP JUMP JUMPDEST PUSH1 0x0 PUSH1 0x20 DUP3 DUP5 SUB SLT ISZERO PUSH2 0x40DB JUMPI PUSH2 0x40DA PUSH2 0x3D8C JUMP JUMPDEST JUMPDEST PUSH1 0x0 PUSH2 0x40E9 DUP5 DUP3 DUP6 ADD PUSH2 0x40B0 JUMP JUMPDEST SWAP2 POP POP SWAP3 SWAP2 POP POP JUMP JUMPDEST PUSH1 0x0 PUSH1 0x60 DUP3 ADD SWAP1 POP PUSH2 0x4107 PUSH1 0x0 DUP4 ADD DUP7 PUSH2 0x4055 JUMP JUMPDEST PUSH2 0x4114 PUSH1 0x20 DUP4 ADD DUP6 PUSH2 0x4055 JUMP JUMPDEST PUSH2 0x4121 PUSH1 0x40 DUP4 ADD DUP5 PUSH2 0x3DF4 JUMP JUMPDEST SWAP5 SWAP4 POP POP POP POP JUMP JUMPDEST PUSH1 0x0 PUSH2 0x4134 DUP3 PUSH2 0x3D91 JUMP JUMPDEST SWAP2 POP PUSH2 0x413F DUP4 PUSH2 0x3D91 JUMP JUMPDEST SWAP3 POP DUP3 DUP3 ADD SWAP1 POP DUP1 DUP3 GT ISZERO PUSH2 0x4157 JUMPI PUSH2 0x4156 PUSH2 0x3FF2 JUMP JUMPDEST JUMPDEST SWAP3 SWAP2 POP POP JUMP JUMPDEST PUSH1 0x0 PUSH2 0x4168 DUP3 PUSH2 0x3D91 JUMP JUMPDEST SWAP2 POP PUSH2 0x4173 DUP4 PUSH2 0x3D91 JUMP JUMPDEST SWAP3 POP DUP3 DUP3 MUL PUSH2 0x4181 DUP2 PUSH2 0x3D91 JUMP JUMPDEST SWAP2 POP DUP3 DUP3 DIV DUP5 EQ DUP4 ISZERO OR PUSH2 0x4198 JUMPI PUSH2 0x4197 PUSH2 0x3FF2 JUMP JUMPDEST JUMPDEST POP SWAP3 SWAP2 POP POP JUMP JUMPDEST PUSH32 0x4E487B7100000000000000000000000000000000000000000000000000000000 PUSH1 0x0 MSTORE PUSH1 0x12 PUSH1 0x4 MSTORE PUSH1 0x24 PUSH1 0x0 REVERT JUMPDEST PUSH1 0x0 PUSH2 0x41D9 DUP3 PUSH2 0x3D91 JUMP JUMPDEST SWAP2 POP PUSH2 0x41E4 DUP4 PUSH2 0x3D91 JUMP JUMPDEST SWAP3 POP DUP3 PUSH2 0x41F4 JUMPI PUSH2 0x41F3 PUSH2 0x419F JUMP JUMPDEST JUMPDEST DUP3 DUP3 DIV SWAP1 POP SWAP3 SWAP2 POP POP JUMP JUMPDEST PUSH32 0x4E487B7100000000000000000000000000000000000000000000000000000000 PUSH1 0x0 MSTORE PUSH1 0x32 PUSH1 0x4 MSTORE PUSH1 0x24 PUSH1 0x0 REVERT JUMPDEST PUSH32 0x4E487B7100000000000000000000000000000000000000000000000000000000 PUSH1 0x0 MSTORE PUSH1 0x31 PUSH1 0x4 MSTORE PUSH1 0x24 PUSH1 0x0 REVERT JUMPDEST PUSH1 0x0 DUP2 SWAP1 POP SWAP2 SWAP1 POP JUMP JUMPDEST PUSH1 0x0 PUSH2 0x4282 PUSH2 0x427D PUSH2 0x4278 DUP5 PUSH2 0x3E4A JUMP JUMPDEST PUSH2 0x425D JUMP JUMPDEST PUSH2 0x3E4A JUMP JUMPDEST SWAP1 POP SWAP2 SWAP1 POP JUMP JUMPDEST PUSH1 0x0 PUSH2 0x4294 DUP3 PUSH2 0x4267 JUMP JUMPDEST SWAP1 POP SWAP2 SWAP1 POP JUMP JUMPDEST PUSH1 0x0 PUSH2 0x42A6 DUP3 PUSH2 0x4289 JUMP JUMPDEST SWAP1 POP SWAP2 SWAP1 POP JUMP JUMPDEST PUSH2 0x42B6 DUP2 PUSH2 0x429B JUMP JUMPDEST DUP3 MSTORE POP POP JUMP JUMPDEST PUSH1 0x0 PUSH1 0x20 DUP3 ADD SWAP1 POP PUSH2 0x42D1 PUSH1 0x0 DUP4 ADD DUP5 PUSH2 0x42AD JUMP JUMPDEST SWAP3 SWAP2 POP POP JUMP JUMPDEST PUSH1 0x0 PUSH10 0xFFFFFFFFFFFFFFFFFFFF DUP3 AND SWAP1 POP SWAP2 SWAP1 POP JUMP JUMPDEST PUSH2 0x42F6 DUP2 PUSH2 0x42D7 JUMP JUMPDEST DUP2 EQ PUSH2 0x4301 JUMPI PUSH1 0x0 DUP1 REVERT JUMPDEST POP JUMP JUMPDEST PUSH1 0x0 DUP2 MLOAD SWAP1 POP PUSH2 0x4313 DUP2 PUSH2 0x42ED JUMP JUMPDEST SWAP3 SWAP2 POP POP JUMP JUMPDEST PUSH1 0x0 DUP2 SWAP1 POP SWAP2 SWAP1 POP JUMP JUMPDEST PUSH2 0x432C DUP2 PUSH2 0x4319 JUMP JUMPDEST DUP2 EQ PUSH2 0x4337 JUMPI PUSH1 0x0 DUP1 REVERT JUMPDEST POP JUMP JUMPDEST PUSH1 0x0 DUP2 MLOAD SWAP1 POP PUSH2 0x4349 DUP2 PUSH2 0x4323 JUMP JUMPDEST SWAP3 SWAP2 POP POP JUMP JUMPDEST PUSH1 0x0 DUP2 MLOAD SWAP1 POP PUSH2 0x435E DUP2 PUSH2 0x3D9B JUMP JUMPDEST SWAP3 SWAP2 POP POP JUMP JUMPDEST PUSH1 0x0 DUP1 PUSH1 0x0 DUP1 PUSH1 0x0 PUSH1 0xA0 DUP7 DUP9 SUB SLT ISZERO PUSH2 0x4380 JUMPI PUSH2 0x437F PUSH2 0x3D8C JUMP JUMPDEST JUMPDEST PUSH1 0x0 PUSH2 0x438E DUP9 DUP3 DUP10 ADD PUSH2 0x4304 JUMP JUMPDEST SWAP6 POP POP PUSH1 0x20 PUSH2 0x439F DUP9 DUP3 DUP10 ADD PUSH2 0x433A JUMP JUMPDEST SWAP5 POP POP PUSH1 0x40 PUSH2 0x43B0 DUP9 DUP3 DUP10 ADD PUSH2 0x434F JUMP JUMPDEST SWAP4 POP POP PUSH1 0x60 PUSH2 0x43C1 DUP9 DUP3 DUP10 ADD PUSH2 0x434F JUMP JUMPDEST SWAP3 POP POP PUSH1 0x80 PUSH2 0x43D2 DUP9 DUP3 DUP10 ADD PUSH2 0x4304 JUMP JUMPDEST SWAP2 POP POP SWAP3 SWAP6 POP SWAP3 SWAP6 SWAP1 SWAP4 POP JUMP JUMPDEST PUSH1 0x0 PUSH1 0x20 DUP3 ADD SWAP1 POP PUSH2 0x43F4 PUSH1 0x0 DUP4 ADD DUP5 PUSH2 0x4055 JUMP JUMPDEST SWAP3 SWAP2 POP POP JUMP JUMPDEST PUSH1 0x0 PUSH1 0x20 DUP3 DUP5 SUB SLT ISZERO PUSH2 0x4410 JUMPI PUSH2 0x440F PUSH2 0x3D8C JUMP JUMPDEST JUMPDEST PUSH1 0x0 PUSH2 0x441E DUP5 DUP3 DUP6 ADD PUSH2 0x434F JUMP JUMPDEST SWAP2 POP POP SWAP3 SWAP2 POP POP JUMP INVALID LOG2 PUSH5 0x6970667358 0x22 SLT KECCAK256 EXTCODESIZE DUP5 SWAP6 PUSH9 0xDF7D7DB490BFD8636E PUSH0 0xF9 0xC9 PUSH8 0x8AE4732AC2B7ABA3 PUSH7 0xAC41DB0A033C64 PUSH20 0x6F6C634300081B00330000000000000000000000 "
        },
        "methodIdentifiers": {
          "COLLATERAL_FACTOR()": "17f49e05",
          "INTEREST_RATE()": "5b72a33a",
          "LIQUIDATION_BONUS()": "3574d4c4",
          "LIQUIDATION_THRESHOLD()": "90a8ae9b",
          "SECONDS_IN_A_YEAR()": "c4fa17a4",
          "borrow(uint256)": "c5ebeaec",
          "calculateAvailableBorrow(address)": "c671922c",
          "calculateHealthFactor(address)": "9ce625f7",
          "calculateNetWorth(address)": "5e5c83b4",
          "deposit(uint256)": "b6b55f25",
          "depositCollateral(uint256)": "bad4a01f",
          "getBorrowLimit(address)": "7c17d237",
          "getBorrowers()": "6854786a",
          "getCollateralDepositors()": "2957cb77",
          "getCollateralPrice()": "f7683bbc",
          "getCollateralTokenAmountFromDai(uint256)": "64c15196",
          "getCollateralValue(address)": "97904e42",
          "getCollateralWalletValue(address)": "ee31d43f",
          "getDaiPrice()": "2649aa16",
          "getTotalBorrows()": "cc484c5c",
          "getTotalCollateralValue()": "ed6493af",
          "getTotalDeposit()": "c022215c",
          "getUserBorrow(address)": "fc2e93b5",
          "getUserCollateral(address)": "b6f7132f",
          "getUserDeposit(address)": "c084b10b",
          "getUserTimestamp(address)": "5e0bd769",
          "liquidate(address,uint256)": "bcbaf487",
          "redeemCollateral(uint256)": "bd37b775",
          "repayBorrow(uint256)": "0e752702",
          "withdraw(uint256)": "2e1a7d4d"
        }
      }
    }
  }
}