{
  "_format": "hh-sol-artifact-1",
  "contractName": "DEX",
  "sourceName": "contracts/Dex.sol",
  "abi": [
    {
      "inputs": [
        {
          "internalType": "address",
          "name": "_firstToken",
          "type": "address"
        },
        {
          "internalType": "address",
          "name": "_secondToken",
          "type": "address"
        },
        {
          "internalType": "contract PriceFeedAdapter",
          "name": "_firstPriceFeed",
          "type": "address"
        },
        {
          "internalType": "contract PriceFeedAdapter",
          "name": "_secondPriceFeed",
          "type": "address"
        }
      ],
      "stateMutability": "nonpayable",
      "type": "constructor"
    },
    {
      "inputs": [],
      "name": "DEX__AmountTooHigh",
      "type": "error"
    },
    {
      "inputs": [],
      "name": "DEX__AmountTooLow",
      "type": "error"
    },
    {
      "inputs": [],
      "name": "DEX__CircuitBreakerTriggered",
      "type": "error"
    },
    {
      "inputs": [],
      "name": "DEX__ExcessiveSlippage",
      "type": "error"
    },
    {
      "inputs": [],
      "name": "DEX__FlashLoanProtection",
      "type": "error"
    },
    {
      "inputs": [],
      "name": "DEX__InsufficientLiquidityBalance",
      "type": "error"
    },
    {
      "inputs": [],
      "name": "DEX__InvalidSwapToken",
      "type": "error"
    },
    {
      "inputs": [],
      "name": "DEX__InvalidTokenRatio",
      "type": "error"
    },
    {
      "inputs": [],
      "name": "DEX__MustGreaterThanZero",
      "type": "error"
    },
    {
      "inputs": [
        {
          "internalType": "uint256",
          "name": "",
          "type": "uint256"
        }
      ],
      "name": "DEX__RateLimitExceeded",
      "type": "error"
    },
    {
      "inputs": [],
      "name": "DEX__TransferFailed",
      "type": "error"
    },
    {
      "inputs": [],
      "name": "DEX__ZeroPrice",
      "type": "error"
    },
    {
      "inputs": [],
      "name": "ReentrancyGuardReentrantCall",
      "type": "error"
    },
    {
      "anonymous": false,
      "inputs": [
        {
          "indexed": true,
          "internalType": "address",
          "name": "sender",
          "type": "address"
        },
        {
          "indexed": false,
          "internalType": "address",
          "name": "firstToken",
          "type": "address"
        },
        {
          "indexed": false,
          "internalType": "uint256",
          "name": "firstTokenAmount",
          "type": "uint256"
        },
        {
          "indexed": false,
          "internalType": "address",
          "name": "secondToken",
          "type": "address"
        },
        {
          "indexed": false,
          "internalType": "uint256",
          "name": "secondTokenAmount",
          "type": "uint256"
        },
        {
          "indexed": false,
          "internalType": "uint256",
          "name": "lpTokensMinted",
          "type": "uint256"
        }
      ],
      "name": "AddLiquidity",
      "type": "event"
    },
    {
      "anonymous": false,
      "inputs": [
        {
          "indexed": false,
          "internalType": "uint256",
          "name": "oldPrice",
          "type": "uint256"
        },
        {
          "indexed": false,
          "internalType": "uint256",
          "name": "newPrice",
          "type": "uint256"
        },
        {
          "indexed": false,
          "internalType": "uint256",
          "name": "timestamp",
          "type": "uint256"
        }
      ],
      "name": "CircuitBreakerTriggered",
      "type": "event"
    },
    {
      "anonymous": false,
      "inputs": [
        {
          "indexed": false,
          "internalType": "address",
          "name": "user",
          "type": "address"
        },
        {
          "indexed": false,
          "internalType": "uint256",
          "name": "slippage",
          "type": "uint256"
        }
      ],
      "name": "HighSlippageWarning",
      "type": "event"
    },
    {
      "anonymous": false,
      "inputs": [
        {
          "indexed": true,
          "internalType": "address",
          "name": "sender",
          "type": "address"
        },
        {
          "indexed": false,
          "internalType": "address",
          "name": "firstToken",
          "type": "address"
        },
        {
          "indexed": false,
          "internalType": "uint256",
          "name": "firstTokenAmount",
          "type": "uint256"
        },
        {
          "indexed": false,
          "internalType": "address",
          "name": "secondToken",
          "type": "address"
        },
        {
          "indexed": false,
          "internalType": "uint256",
          "name": "secondTokenAmount",
          "type": "uint256"
        },
        {
          "indexed": false,
          "internalType": "uint256",
          "name": "lpTokensBurned",
          "type": "uint256"
        }
      ],
      "name": "RemoveLiquidity",
      "type": "event"
    },
    {
      "anonymous": false,
      "inputs": [
        {
          "indexed": true,
          "internalType": "address",
          "name": "sender",
          "type": "address"
        },
        {
          "indexed": false,
          "internalType": "address",
          "name": "tokenIn",
          "type": "address"
        },
        {
          "indexed": false,
          "internalType": "uint256",
          "name": "amountIn",
          "type": "uint256"
        },
        {
          "indexed": false,
          "internalType": "address",
          "name": "tokenOut",
          "type": "address"
        },
        {
          "indexed": false,
          "internalType": "uint256",
          "name": "amountOut",
          "type": "uint256"
        }
      ],
      "name": "Swap",
      "type": "event"
    },
    {
      "anonymous": false,
      "inputs": [
        {
          "indexed": false,
          "internalType": "address",
          "name": "user",
          "type": "address"
        },
        {
          "indexed": false,
          "internalType": "uint256",
          "name": "swapsCount",
          "type": "uint256"
        },
        {
          "indexed": false,
          "internalType": "uint256",
          "name": "windowStart",
          "type": "uint256"
        }
      ],
      "name": "SwapTracked",
      "type": "event"
    },
    {
      "anonymous": false,
      "inputs": [
        {
          "indexed": false,
          "internalType": "address",
          "name": "user",
          "type": "address"
        },
        {
          "indexed": false,
          "internalType": "uint256",
          "name": "newWindowStart",
          "type": "uint256"
        }
      ],
      "name": "WindowReset",
      "type": "event"
    },
    {
      "inputs": [
        {
          "internalType": "uint256",
          "name": "_ethAmount",
          "type": "uint256"
        },
        {
          "internalType": "uint256",
          "name": "_daiAmount",
          "type": "uint256"
        }
      ],
      "name": "addLiquidity",
      "outputs": [
        {
          "internalType": "uint256",
          "name": "lpTokens",
          "type": "uint256"
        }
      ],
      "stateMutability": "nonpayable",
      "type": "function"
    },
    {
      "inputs": [],
      "name": "getLiquidityTotalSupply",
      "outputs": [
        {
          "internalType": "uint256",
          "name": "",
          "type": "uint256"
        },
        {
          "internalType": "uint256",
          "name": "",
          "type": "uint256"
        }
      ],
      "stateMutability": "view",
      "type": "function"
    },
    {
      "inputs": [
        {
          "internalType": "address",
          "name": "user",
          "type": "address"
        }
      ],
      "name": "getLpTokensBalance",
      "outputs": [
        {
          "internalType": "uint256",
          "name": "",
          "type": "uint256"
        }
      ],
      "stateMutability": "view",
      "type": "function"
    },
    {
      "inputs": [
        {
          "internalType": "address",
          "name": "tokenIn",
          "type": "address"
        },
        {
          "internalType": "uint256",
          "name": "amountIn",
          "type": "uint256"
        }
      ],
      "name": "getOutputAmount",
      "outputs": [
        {
          "internalType": "uint256",
          "name": "",
          "type": "uint256"
        }
      ],
      "stateMutability": "view",
      "type": "function"
    },
    {
      "inputs": [
        {
          "internalType": "address",
          "name": "tokenIn",
          "type": "address"
        },
        {
          "internalType": "uint256",
          "name": "amountIn",
          "type": "uint256"
        }
      ],
      "name": "getOutputLiquidity",
      "outputs": [
        {
          "internalType": "uint256",
          "name": "liquidity",
          "type": "uint256"
        }
      ],
      "stateMutability": "view",
      "type": "function"
    },
    {
      "inputs": [],
      "name": "getPrice",
      "outputs": [
        {
          "internalType": "uint256",
          "name": "",
          "type": "uint256"
        },
        {
          "internalType": "uint256",
          "name": "",
          "type": "uint256"
        }
      ],
      "stateMutability": "view",
      "type": "function"
    },
    {
      "inputs": [],
      "name": "getTotalLpTokens",
      "outputs": [
        {
          "internalType": "uint256",
          "name": "",
          "type": "uint256"
        }
      ],
      "stateMutability": "view",
      "type": "function"
    },
    {
      "inputs": [
        {
          "internalType": "address",
          "name": "user",
          "type": "address"
        }
      ],
      "name": "getUserLiquidity",
      "outputs": [
        {
          "internalType": "uint256",
          "name": "",
          "type": "uint256"
        },
        {
          "internalType": "uint256",
          "name": "",
          "type": "uint256"
        }
      ],
      "stateMutability": "view",
      "type": "function"
    },
    {
      "inputs": [
        {
          "internalType": "uint256",
          "name": "_lpTokens",
          "type": "uint256"
        }
      ],
      "name": "removeLiquidity",
      "outputs": [
        {
          "internalType": "uint256",
          "name": "_ethAmount",
          "type": "uint256"
        },
        {
          "internalType": "uint256",
          "name": "_daiAmount",
          "type": "uint256"
        }
      ],
      "stateMutability": "nonpayable",
      "type": "function"
    },
    {
      "inputs": [
        {
          "internalType": "address",
          "name": "tokenIn",
          "type": "address"
        },
        {
          "internalType": "uint256",
          "name": "amountIn",
          "type": "uint256"
        },
        {
          "internalType": "uint256",
          "name": "minAmountOut",
          "type": "uint256"
        }
      ],
      "name": "swap",
      "outputs": [
        {
          "internalType": "uint256",
          "name": "amountOut",
          "type": "uint256"
        }
      ],
      "stateMutability": "nonpayable",
      "type": "function"
    }
  ],
  "bytecode": "0x60e060405234801561001057600080fd5b5060405161547238038061547283398181016040528101906100329190610322565b60016000819055508373ffffffffffffffffffffffffffffffffffffffff1660a08173ffffffffffffffffffffffffffffffffffffffff16815250508273ffffffffffffffffffffffffffffffffffffffff1660c08173ffffffffffffffffffffffffffffffffffffffff1681525050816003600060a05173ffffffffffffffffffffffffffffffffffffffff1673ffffffffffffffffffffffffffffffffffffffff16815260200190815260200160002060006101000a81548173ffffffffffffffffffffffffffffffffffffffff021916908373ffffffffffffffffffffffffffffffffffffffff160217905550806004600060c05173ffffffffffffffffffffffffffffffffffffffff1673ffffffffffffffffffffffffffffffffffffffff16815260200190815260200160002060006101000a81548173ffffffffffffffffffffffffffffffffffffffff021916908373ffffffffffffffffffffffffffffffffffffffff1602179055506040516101ae90610274565b604051809103906000f0801580156101ca573d6000803e3d6000fd5b5073ffffffffffffffffffffffffffffffffffffffff1660808173ffffffffffffffffffffffffffffffffffffffff168152505060805173ffffffffffffffffffffffffffffffffffffffff166326f9a952306040518263ffffffff1660e01b81526004016102399190610398565b600060405180830381600087803b15801561025357600080fd5b505af1158015610267573d6000803e3d6000fd5b50505050505050506103b3565b611a2180613a5183390190565b600080fd5b600073ffffffffffffffffffffffffffffffffffffffff82169050919050565b60006102b182610286565b9050919050565b6102c1816102a6565b81146102cc57600080fd5b50565b6000815190506102de816102b8565b92915050565b60006102ef826102a6565b9050919050565b6102ff816102e4565b811461030a57600080fd5b50565b60008151905061031c816102f6565b92915050565b6000806000806080858703121561033c5761033b610281565b5b600061034a878288016102cf565b945050602061035b878288016102cf565b935050604061036c8782880161030d565b925050606061037d8782880161030d565b91505092959194509250565b610392816102a6565b82525050565b60006020820190506103ad6000830184610389565b92915050565b60805160a05160c05161351861053960003960008181610260015281816104bf0152818161080a01528181610b0501528181610c61015281816113b001528181611501015281816117c5015281816118ba01528181611a1001528181611ba501528181611c9101528181611dfc01528181611ee80152818161200401528181612391015281816126d9015281816128d901528181612a480152612b490152600081816102da01528181610446015281816104990152818161078601528181610ae301528181610c3f0152818161134c01528181611460015281816116bf015281816118450152818161196a01528181611af201528181611c1b01528181611d4901528181611e7201528181611f62015281816122ed015281816125d101528181612882015281816129f101528181612ad00152612b2301526000818161035e015281816106e901528181610a060152818161162c015281816117320152818161247f015281816125360152818161262d0152818161273501526127ef01526135186000f3fe608060405234801561001057600080fd5b506004361061009e5760003560e01c80639c8f9f23116100665780639c8f9f23146101705780639cd441da146101a15780639f1d0f59146101d1578063b4f601f414610201578063dbbdd935146102205761009e565b8063048792b0146100a35780632c763477146100d35780637b07004b146101035780638fd28a0b1461013357806398d5fdca14610151575b600080fd5b6100bd60048036038101906100b89190612eb7565b610251565b6040516100ca9190612f06565b60405180910390f35b6100ed60048036038101906100e89190612f21565b61035a565b6040516100fa9190612f06565b60405180910390f35b61011d60048036038101906101189190612eb7565b6103fd565b60405161012a9190612f06565b60405180910390f35b61013b6106e5565b6040516101489190612f06565b60405180910390f35b61015961077b565b604051610167929190612f4e565b60405180910390f35b61018a60048036038101906101859190612f77565b6109a2565b604051610198929190612f4e565b60405180910390f35b6101bb60048036038101906101b69190612fa4565b610b4d565b6040516101c89190612f06565b60405180910390f35b6101eb60048036038101906101e69190612fe4565b610cab565b6040516101f89190612f06565b60405180910390f35b610209611341565b604051610217929190612f4e565b60405180910390f35b61023a60048036038101906102359190612f21565b611418565b604051610248929190612f4e565b60405180910390f35b60008061025c61156a565b90507f000000000000000000000000000000000000000000000000000000000000000073ffffffffffffffffffffffffffffffffffffffff168473ffffffffffffffffffffffffffffffffffffffff16036102d85780670de0b6b3a7640000846102c69190613066565b6102d091906130d7565b915050610354565b7f000000000000000000000000000000000000000000000000000000000000000073ffffffffffffffffffffffffffffffffffffffff168473ffffffffffffffffffffffffffffffffffffffff160361035257670de0b6b3a764000081846103409190613066565b61034a91906130d7565b915050610354565b505b92915050565b60007f000000000000000000000000000000000000000000000000000000000000000073ffffffffffffffffffffffffffffffffffffffff166370a08231836040518263ffffffff1660e01b81526004016103b59190613117565b602060405180830381865afa1580156103d2573d6000803e3d6000fd5b505050506040513d601f19601f820116820180604052508101906103f69190613147565b9050919050565b600080600260008573ffffffffffffffffffffffffffffffffffffffff1673ffffffffffffffffffffffffffffffffffffffff16815260200190815260200160002054905060007f000000000000000000000000000000000000000000000000000000000000000073ffffffffffffffffffffffffffffffffffffffff168573ffffffffffffffffffffffffffffffffffffffff16146104bd577f00000000000000000000000000000000000000000000000000000000000000006104df565b7f00000000000000000000000000000000000000000000000000000000000000005b90506000600260008373ffffffffffffffffffffffffffffffffffffffff1673ffffffffffffffffffffffffffffffffffffffff1681526020019081526020016000205490506103e88311158061053857506103e88111155b1561056f576040517f8a35dadb00000000000000000000000000000000000000000000000000000000815260040160405180910390fd5b601e61271061057e9190613174565b7fffffffffffffffffffffffffffffffffffffffffffffffffffffffffffffffff6105a991906130d7565b85106105e1576040517f4b0220dd00000000000000000000000000000000000000000000000000000000815260040160405180910390fd5b6000601e6127106105f29190613174565b866105fd9190613066565b9050807fffffffffffffffffffffffffffffffffffffffffffffffffffffffffffffffff61062b91906130d7565b8210610663576040517f4b0220dd00000000000000000000000000000000000000000000000000000000815260040160405180910390fd5b600082826106719190613066565b9050600082612710876106849190613066565b61068e91906131a8565b905060008110156106cb576040517fce01ee3500000000000000000000000000000000000000000000000000000000815260040160405180910390fd5b80826106d791906130d7565b965050505050505092915050565b60007f000000000000000000000000000000000000000000000000000000000000000073ffffffffffffffffffffffffffffffffffffffff166318160ddd6040518163ffffffff1660e01b8152600401602060405180830381865afa158015610752573d6000803e3d6000fd5b505050506040513d601f19601f820116820180604052508101906107769190613147565b905090565b6000806000600360007f000000000000000000000000000000000000000000000000000000000000000073ffffffffffffffffffffffffffffffffffffffff1673ffffffffffffffffffffffffffffffffffffffff16815260200190815260200160002060009054906101000a900473ffffffffffffffffffffffffffffffffffffffff1690506000600460007f000000000000000000000000000000000000000000000000000000000000000073ffffffffffffffffffffffffffffffffffffffff1673ffffffffffffffffffffffffffffffffffffffff16815260200190815260200160002060009054906101000a900473ffffffffffffffffffffffffffffffffffffffff16905060008273ffffffffffffffffffffffffffffffffffffffff1663feaf968c6040518163ffffffff1660e01b815260040160a060405180830381865afa1580156108d3573d6000803e3d6000fd5b505050506040513d601f19601f820116820180604052508101906108f79190613254565b50505091505060008273ffffffffffffffffffffffffffffffffffffffff1663feaf968c6040518163ffffffff1660e01b815260040160a060405180830381865afa15801561094a573d6000803e3d6000fd5b505050506040513d601f19601f8201168201806040525081019061096e9190613254565b5050509150506402540be400826109859190613066565b6402540be400826109969190613066565b95509550505050509091565b6000806109ad6115e1565b82600081116109e8576040517fdfe91a9100000000000000000000000000000000000000000000000000000000815260040160405180910390fd5b6109f184611627565b8093508194505050610a0433848461183b565b7f000000000000000000000000000000000000000000000000000000000000000073ffffffffffffffffffffffffffffffffffffffff16639dc29fac33866040518363ffffffff1660e01b8152600401610a5f9291906132cf565b600060405180830381600087803b158015610a7957600080fd5b505af1158015610a8d573d6000803e3d6000fd5b50505050610a9e3384846000611aa8565b610aa9338484611f5e565b3373ffffffffffffffffffffffffffffffffffffffff167f31a83f5720229e02936f2f1b2260a050bbd8377dce85422763735b783106deb17f0000000000000000000000000000000000000000000000000000000000000000857f00000000000000000000000000000000000000000000000000000000000000008689604051610b379594939291906132f8565b60405180910390a250610b486120eb565b915091565b6000610b576115e1565b8260008111610b92576040517fdfe91a9100000000000000000000000000000000000000000000000000000000815260040160405180910390fd5b8260008111610bcd576040517fdfe91a9100000000000000000000000000000000000000000000000000000000815260040160405180910390fd5b610bd785856120f5565b610be18585612224565b610bec3386866122e9565b610bf6858561247a565b9250610c053386866001611aa8565b3373ffffffffffffffffffffffffffffffffffffffff167fcfc390ea13b09661b205e48ee692d38f6798b0e0992a868008f841929b0e03d27f0000000000000000000000000000000000000000000000000000000000000000877f00000000000000000000000000000000000000000000000000000000000000008888604051610c939594939291906132f8565b60405180910390a25050610ca56120eb565b92915050565b6000610cb56115e1565b8260008111610cf0576040517fdfe91a9100000000000000000000000000000000000000000000000000000000815260040160405180910390fd5b6000610cfa61156a565b9050600060065403610faf57806006819055506000600560003373ffffffffffffffffffffffffffffffffffffffff1673ffffffffffffffffffffffffffffffffffffffff16815260200190815260200160002090506000429050620151808260010154610d6891906131a8565b8110610dbb57600082600001819055508082600101819055507fa31800064c1fa7483461ad24aa6c1699852837e3767bcbade2174f349352205c3382604051610db29291906132cf565b60405180910390a15b600a826000015410610e2657600081620151808460010154610ddd91906131a8565b610de79190613174565b9050806040517f34f4c357000000000000000000000000000000000000000000000000000000008152600401610e1d9190612f06565b60405180910390fd5b816000016000815480929190610e3b9061334b565b91905055507f2f3530d2b4c7f3027f91111f096ce4db6f8c8a39110882358c36bc02c868278d3383600001548460010154604051610e7b93929190613393565b60405180910390a13373ffffffffffffffffffffffffffffffffffffffff163273ffffffffffffffffffffffffffffffffffffffff1614610ee8576040517fd193014500000000000000000000000000000000000000000000000000000000815260040160405180910390fd5b610ef28888612880565b6000610efd896129ed565b9050610f0989896103fd565b955086861015610f45576040517fc7f6f5d800000000000000000000000000000000000000000000000000000000815260040160405180910390fd5b610f52338a8a848a612b70565b3373ffffffffffffffffffffffffffffffffffffffff167f5380cf97d8f645d3c4896da60c053458dca03a3a31cec642ac80e1ddf0d8d02a8a8a848a604051610f9e94939291906133ca565b60405180910390a250505050611331565b6000600654821115610fe957600654606460065484610fce9190613174565b610fd89190613066565b610fe291906130d7565b9050611013565b600654606483600654610ffc9190613174565b6110069190613066565b61101091906130d7565b90505b601481111561108b577f3d747073b9d4b08f72a3edbdb8e590c3266455bdd20cc08af18f78bb50b0adcc60065483426040516110519392919061340f565b60405180910390a16040517f4a82f61900000000000000000000000000000000000000000000000000000000815260040160405180910390fd5b816006819055506000600560003373ffffffffffffffffffffffffffffffffffffffff1673ffffffffffffffffffffffffffffffffffffffff168152602001908152602001600020905060004290506201518082600101546110ed91906131a8565b811061114057600082600001819055508082600101819055507fa31800064c1fa7483461ad24aa6c1699852837e3767bcbade2174f349352205c33826040516111379291906132cf565b60405180910390a15b600a8260000154106111ab5760008162015180846001015461116291906131a8565b61116c9190613174565b9050806040517f34f4c3570000000000000000000000000000000000000000000000000000000081526004016111a29190612f06565b60405180910390fd5b8160000160008154809291906111c09061334b565b91905055507f2f3530d2b4c7f3027f91111f096ce4db6f8c8a39110882358c36bc02c868278d338360000154846001015460405161120093929190613393565b60405180910390a13373ffffffffffffffffffffffffffffffffffffffff163273ffffffffffffffffffffffffffffffffffffffff161461126d576040517fd193014500000000000000000000000000000000000000000000000000000000815260040160405180910390fd5b6112778989612880565b60006112828a6129ed565b905061128e8a8a6103fd565b9650878710156112ca576040517fc7f6f5d800000000000000000000000000000000000000000000000000000000815260040160405180910390fd5b6112d7338b8b848b612b70565b3373ffffffffffffffffffffffffffffffffffffffff167f5380cf97d8f645d3c4896da60c053458dca03a3a31cec642ac80e1ddf0d8d02a8b8b848b60405161132394939291906133ca565b60405180910390a250505050505b5061133a6120eb565b9392505050565b6000806000600260007f000000000000000000000000000000000000000000000000000000000000000073ffffffffffffffffffffffffffffffffffffffff1673ffffffffffffffffffffffffffffffffffffffff1681526020019081526020016000205490506000600260007f000000000000000000000000000000000000000000000000000000000000000073ffffffffffffffffffffffffffffffffffffffff1673ffffffffffffffffffffffffffffffffffffffff16815260200190815260200160002054905081819350935050509091565b6000806000600160008573ffffffffffffffffffffffffffffffffffffffff1673ffffffffffffffffffffffffffffffffffffffff16815260200190815260200160002060007f000000000000000000000000000000000000000000000000000000000000000073ffffffffffffffffffffffffffffffffffffffff1673ffffffffffffffffffffffffffffffffffffffff1681526020019081526020016000205490506000600160008673ffffffffffffffffffffffffffffffffffffffff1673ffffffffffffffffffffffffffffffffffffffff16815260200190815260200160002060007f000000000000000000000000000000000000000000000000000000000000000073ffffffffffffffffffffffffffffffffffffffff1673ffffffffffffffffffffffffffffffffffffffff1681526020019081526020016000205490508181935093505050915091565b600080600061157761077b565b91509150600081670de0b6b3a7640000846115929190613066565b61159c91906130d7565b9050600081036115d8576040517fce01ee3500000000000000000000000000000000000000000000000000000000815260040160405180910390fd5b80935050505090565b60026000540361161d576040517f3ee5aeb500000000000000000000000000000000000000000000000000000000815260040160405180910390fd5b6002600081905550565b6000807f000000000000000000000000000000000000000000000000000000000000000073ffffffffffffffffffffffffffffffffffffffff166318160ddd6040518163ffffffff1660e01b8152600401602060405180830381865afa158015611695573d6000803e3d6000fd5b505050506040513d601f19601f820116820180604052508101906116b99190613147565b600260007f000000000000000000000000000000000000000000000000000000000000000073ffffffffffffffffffffffffffffffffffffffff1673ffffffffffffffffffffffffffffffffffffffff16815260200190815260200160002054846117249190613066565b61172e91906130d7565b91507f000000000000000000000000000000000000000000000000000000000000000073ffffffffffffffffffffffffffffffffffffffff166318160ddd6040518163ffffffff1660e01b8152600401602060405180830381865afa15801561179b573d6000803e3d6000fd5b505050506040513d601f19601f820116820180604052508101906117bf9190613147565b600260007f000000000000000000000000000000000000000000000000000000000000000073ffffffffffffffffffffffffffffffffffffffff1673ffffffffffffffffffffffffffffffffffffffff168152602001908152602001600020548461182a9190613066565b61183491906130d7565b9050915091565b6103e882600260007f000000000000000000000000000000000000000000000000000000000000000073ffffffffffffffffffffffffffffffffffffffff1673ffffffffffffffffffffffffffffffffffffffff168152602001908152602001600020546118a99190613174565b108061192057506103e881600260007f000000000000000000000000000000000000000000000000000000000000000073ffffffffffffffffffffffffffffffffffffffff1673ffffffffffffffffffffffffffffffffffffffff1681526020019081526020016000205461191e9190613174565b105b806119c6575081600160008573ffffffffffffffffffffffffffffffffffffffff1673ffffffffffffffffffffffffffffffffffffffff16815260200190815260200160002060007f000000000000000000000000000000000000000000000000000000000000000073ffffffffffffffffffffffffffffffffffffffff1673ffffffffffffffffffffffffffffffffffffffff16815260200190815260200160002054105b80611a6c575080600160008573ffffffffffffffffffffffffffffffffffffffff1673ffffffffffffffffffffffffffffffffffffffff16815260200190815260200160002060007f000000000000000000000000000000000000000000000000000000000000000073ffffffffffffffffffffffffffffffffffffffff1673ffffffffffffffffffffffffffffffffffffffff16815260200190815260200160002054105b15611aa3576040517f71b0892700000000000000000000000000000000000000000000000000000000815260040160405180910390fd5b505050565b8015611d055782600160008673ffffffffffffffffffffffffffffffffffffffff1673ffffffffffffffffffffffffffffffffffffffff16815260200190815260200160002060007f000000000000000000000000000000000000000000000000000000000000000073ffffffffffffffffffffffffffffffffffffffff1673ffffffffffffffffffffffffffffffffffffffff1681526020019081526020016000206000828254611b5a91906131a8565b9250508190555081600160008673ffffffffffffffffffffffffffffffffffffffff1673ffffffffffffffffffffffffffffffffffffffff16815260200190815260200160002060007f000000000000000000000000000000000000000000000000000000000000000073ffffffffffffffffffffffffffffffffffffffff1673ffffffffffffffffffffffffffffffffffffffff1681526020019081526020016000206000828254611c0d91906131a8565b9250508190555082600260007f000000000000000000000000000000000000000000000000000000000000000073ffffffffffffffffffffffffffffffffffffffff1673ffffffffffffffffffffffffffffffffffffffff1681526020019081526020016000206000828254611c8391906131a8565b9250508190555081600260007f000000000000000000000000000000000000000000000000000000000000000073ffffffffffffffffffffffffffffffffffffffff1673ffffffffffffffffffffffffffffffffffffffff1681526020019081526020016000206000828254611cf991906131a8565b92505081905550611f58565b82600160008673ffffffffffffffffffffffffffffffffffffffff1673ffffffffffffffffffffffffffffffffffffffff16815260200190815260200160002060007f000000000000000000000000000000000000000000000000000000000000000073ffffffffffffffffffffffffffffffffffffffff1673ffffffffffffffffffffffffffffffffffffffff1681526020019081526020016000206000828254611db19190613174565b9250508190555081600160008673ffffffffffffffffffffffffffffffffffffffff1673ffffffffffffffffffffffffffffffffffffffff16815260200190815260200160002060007f000000000000000000000000000000000000000000000000000000000000000073ffffffffffffffffffffffffffffffffffffffff1673ffffffffffffffffffffffffffffffffffffffff1681526020019081526020016000206000828254611e649190613174565b9250508190555082600260007f000000000000000000000000000000000000000000000000000000000000000073ffffffffffffffffffffffffffffffffffffffff1673ffffffffffffffffffffffffffffffffffffffff1681526020019081526020016000206000828254611eda9190613174565b9250508190555081600260007f000000000000000000000000000000000000000000000000000000000000000073ffffffffffffffffffffffffffffffffffffffff1673ffffffffffffffffffffffffffffffffffffffff1681526020019081526020016000206000828254611f509190613174565b925050819055505b50505050565b60007f000000000000000000000000000000000000000000000000000000000000000073ffffffffffffffffffffffffffffffffffffffff1663a9059cbb85856040518363ffffffff1660e01b8152600401611fbb9291906132cf565b6020604051808303816000875af1158015611fda573d6000803e3d6000fd5b505050506040513d601f19601f82011682018060405250810190611ffe919061347e565b905060007f000000000000000000000000000000000000000000000000000000000000000073ffffffffffffffffffffffffffffffffffffffff1663a9059cbb86856040518363ffffffff1660e01b815260040161205d9291906132cf565b6020604051808303816000875af115801561207c573d6000803e3d6000fd5b505050506040513d601f19601f820116820180604052508101906120a0919061347e565b90508115806120ad575080155b156120e4576040517f67ba00c000000000000000000000000000000000000000000000000000000000815260040160405180910390fd5b5050505050565b6001600081905550565b670de0b6b3a76400007fffffffffffffffffffffffffffffffffffffffffffffffffffffffffffffffff61212991906130d7565b8210158061216a5750670de0b6b3a76400007fffffffffffffffffffffffffffffffffffffffffffffffffffffffffffffffff61216691906130d7565b8110155b8061219f5750807fffffffffffffffffffffffffffffffffffffffffffffffffffffffffffffffff61219c91906130d7565b82115b156121d6576040517f4b0220dd00000000000000000000000000000000000000000000000000000000815260040160405180910390fd5b6103e8821115806121e957506103e88111155b15612220576040517f8a35dadb00000000000000000000000000000000000000000000000000000000815260040160405180910390fd5b5050565b600061222e61156a565b9050600061223a61077b565b509050600081670de0b6b3a7640000856122549190613066565b61225e91906130d7565b838661226a9190613066565b61227491906130d7565b9050600060648461228591906130d7565b9050808461229391906131a8565b8211806122aa575080846122a79190613174565b82105b156122e1576040517f6b07152c00000000000000000000000000000000000000000000000000000000815260040160405180910390fd5b505050505050565b60007f000000000000000000000000000000000000000000000000000000000000000073ffffffffffffffffffffffffffffffffffffffff166323b872dd8530866040518463ffffffff1660e01b8152600401612348939291906134ab565b6020604051808303816000875af1158015612367573d6000803e3d6000fd5b505050506040513d601f19601f8201168201806040525081019061238b919061347e565b905060007f000000000000000000000000000000000000000000000000000000000000000073ffffffffffffffffffffffffffffffffffffffff166323b872dd8630866040518463ffffffff1660e01b81526004016123ec939291906134ab565b6020604051808303816000875af115801561240b573d6000803e3d6000fd5b505050506040513d601f19601f8201168201806040525081019061242f919061347e565b905081158061243c575080155b15612473576040517f67ba00c000000000000000000000000000000000000000000000000000000000815260040160405180910390fd5b5050505050565b6000807f000000000000000000000000000000000000000000000000000000000000000073ffffffffffffffffffffffffffffffffffffffff166318160ddd6040518163ffffffff1660e01b8152600401602060405180830381865afa1580156124e8573d6000803e3d6000fd5b505050506040513d601f19601f8201168201806040525081019061250c9190613147565b036125c9576103e861252883856125239190613066565b612d96565b6125329190613174565b90507f000000000000000000000000000000000000000000000000000000000000000073ffffffffffffffffffffffffffffffffffffffff166340c10f1960016103e86040518363ffffffff1660e01b81526004016125929291906132cf565b600060405180830381600087803b1580156125ac57600080fd5b505af11580156125c0573d6000803e3d6000fd5b505050506127ed565b6000600260007f000000000000000000000000000000000000000000000000000000000000000073ffffffffffffffffffffffffffffffffffffffff1673ffffffffffffffffffffffffffffffffffffffff168152602001908152602001600020547f000000000000000000000000000000000000000000000000000000000000000073ffffffffffffffffffffffffffffffffffffffff166318160ddd6040518163ffffffff1660e01b8152600401602060405180830381865afa158015612696573d6000803e3d6000fd5b505050506040513d601f19601f820116820180604052508101906126ba9190613147565b856126c59190613066565b6126cf91906130d7565b90506000600260007f000000000000000000000000000000000000000000000000000000000000000073ffffffffffffffffffffffffffffffffffffffff1673ffffffffffffffffffffffffffffffffffffffff168152602001908152602001600020547f000000000000000000000000000000000000000000000000000000000000000073ffffffffffffffffffffffffffffffffffffffff166318160ddd6040518163ffffffff1660e01b8152600401602060405180830381865afa15801561279e573d6000803e3d6000fd5b505050506040513d601f19601f820116820180604052508101906127c29190613147565b856127cd9190613066565b6127d791906130d7565b90508082106127e657806127e8565b815b925050505b7f000000000000000000000000000000000000000000000000000000000000000073ffffffffffffffffffffffffffffffffffffffff166340c10f1933836040518363ffffffff1660e01b81526004016128489291906132cf565b600060405180830381600087803b15801561286257600080fd5b505af1158015612876573d6000803e3d6000fd5b5050505092915050565b7f000000000000000000000000000000000000000000000000000000000000000073ffffffffffffffffffffffffffffffffffffffff168273ffffffffffffffffffffffffffffffffffffffff161415801561292857507f000000000000000000000000000000000000000000000000000000000000000073ffffffffffffffffffffffffffffffffffffffff168273ffffffffffffffffffffffffffffffffffffffff1614155b1561295f576040517f03267b3000000000000000000000000000000000000000000000000000000000815260040160405180910390fd5b600060028060008573ffffffffffffffffffffffffffffffffffffffff1673ffffffffffffffffffffffffffffffffffffffff168152602001908152602001600020546129ac91906130d7565b9050808211156129e8576040517f4b0220dd00000000000000000000000000000000000000000000000000000000815260040160405180910390fd5b505050565b60007f000000000000000000000000000000000000000000000000000000000000000073ffffffffffffffffffffffffffffffffffffffff168273ffffffffffffffffffffffffffffffffffffffff1614158015612a9757507f000000000000000000000000000000000000000000000000000000000000000073ffffffffffffffffffffffffffffffffffffffff168273ffffffffffffffffffffffffffffffffffffffff1614155b15612ace576040517f03267b3000000000000000000000000000000000000000000000000000000000815260040160405180910390fd5b7f000000000000000000000000000000000000000000000000000000000000000073ffffffffffffffffffffffffffffffffffffffff168273ffffffffffffffffffffffffffffffffffffffff1614612b47577f0000000000000000000000000000000000000000000000000000000000000000612b69565b7f00000000000000000000000000000000000000000000000000000000000000005b9050919050565b60008473ffffffffffffffffffffffffffffffffffffffff166323b872dd8730876040518463ffffffff1660e01b8152600401612baf939291906134ab565b6020604051808303816000875af1158015612bce573d6000803e3d6000fd5b505050506040513d601f19601f82011682018060405250810190612bf2919061347e565b905080612c2b576040517f67ba00c000000000000000000000000000000000000000000000000000000000815260040160405180910390fd5b8273ffffffffffffffffffffffffffffffffffffffff1663a9059cbb87846040518363ffffffff1660e01b8152600401612c669291906132cf565b6020604051808303816000875af1158015612c85573d6000803e3d6000fd5b505050506040513d601f19601f82011682018060405250810190612ca9919061347e565b905080612ce2576040517f67ba00c000000000000000000000000000000000000000000000000000000000815260040160405180910390fd5b83600260008773ffffffffffffffffffffffffffffffffffffffff1673ffffffffffffffffffffffffffffffffffffffff1681526020019081526020016000206000828254612d3191906131a8565b9250508190555081600260008573ffffffffffffffffffffffffffffffffffffffff1673ffffffffffffffffffffffffffffffffffffffff1681526020019081526020016000206000828254612d879190613174565b92505081905550505050505050565b6000808203612da85760009050612e19565b60038211612db95760019050612e19565b8190506000600183901c90505b81811015612e17578091506001818285612de091906130d7565b612dea91906131a8565b901c905081811480612e07575081600182612e0591906131a8565b145b15612e125750612e19565b612dc6565b505b919050565b600080fd5b600073ffffffffffffffffffffffffffffffffffffffff82169050919050565b6000612e4e82612e23565b9050919050565b612e5e81612e43565b8114612e6957600080fd5b50565b600081359050612e7b81612e55565b92915050565b6000819050919050565b612e9481612e81565b8114612e9f57600080fd5b50565b600081359050612eb181612e8b565b92915050565b60008060408385031215612ece57612ecd612e1e565b5b6000612edc85828601612e6c565b9250506020612eed85828601612ea2565b9150509250929050565b612f0081612e81565b82525050565b6000602082019050612f1b6000830184612ef7565b92915050565b600060208284031215612f3757612f36612e1e565b5b6000612f4584828501612e6c565b91505092915050565b6000604082019050612f636000830185612ef7565b612f706020830184612ef7565b9392505050565b600060208284031215612f8d57612f8c612e1e565b5b6000612f9b84828501612ea2565b91505092915050565b60008060408385031215612fbb57612fba612e1e565b5b6000612fc985828601612ea2565b9250506020612fda85828601612ea2565b9150509250929050565b600080600060608486031215612ffd57612ffc612e1e565b5b600061300b86828701612e6c565b935050602061301c86828701612ea2565b925050604061302d86828701612ea2565b9150509250925092565b7f4e487b7100000000000000000000000000000000000000000000000000000000600052601160045260246000fd5b600061307182612e81565b915061307c83612e81565b925082820261308a81612e81565b915082820484148315176130a1576130a0613037565b5b5092915050565b7f4e487b7100000000000000000000000000000000000000000000000000000000600052601260045260246000fd5b60006130e282612e81565b91506130ed83612e81565b9250826130fd576130fc6130a8565b5b828204905092915050565b61311181612e43565b82525050565b600060208201905061312c6000830184613108565b92915050565b60008151905061314181612e8b565b92915050565b60006020828403121561315d5761315c612e1e565b5b600061316b84828501613132565b91505092915050565b600061317f82612e81565b915061318a83612e81565b92508282039050818111156131a2576131a1613037565b5b92915050565b60006131b382612e81565b91506131be83612e81565b92508282019050808211156131d6576131d5613037565b5b92915050565b600069ffffffffffffffffffff82169050919050565b6131fb816131dc565b811461320657600080fd5b50565b600081519050613218816131f2565b92915050565b6000819050919050565b6132318161321e565b811461323c57600080fd5b50565b60008151905061324e81613228565b92915050565b600080600080600060a086880312156132705761326f612e1e565b5b600061327e88828901613209565b955050602061328f8882890161323f565b94505060406132a088828901613132565b93505060606132b188828901613132565b92505060806132c288828901613209565b9150509295509295909350565b60006040820190506132e46000830185613108565b6132f16020830184612ef7565b9392505050565b600060a08201905061330d6000830188613108565b61331a6020830187612ef7565b6133276040830186613108565b6133346060830185612ef7565b6133416080830184612ef7565b9695505050505050565b600061335682612e81565b91507fffffffffffffffffffffffffffffffffffffffffffffffffffffffffffffffff820361338857613387613037565b5b600182019050919050565b60006060820190506133a86000830186613108565b6133b56020830185612ef7565b6133c26040830184612ef7565b949350505050565b60006080820190506133df6000830187613108565b6133ec6020830186612ef7565b6133f96040830185613108565b6134066060830184612ef7565b95945050505050565b60006060820190506134246000830186612ef7565b6134316020830185612ef7565b61343e6040830184612ef7565b949350505050565b60008115159050919050565b61345b81613446565b811461346657600080fd5b50565b60008151905061347881613452565b92915050565b60006020828403121561349457613493612e1e565b5b60006134a284828501613469565b91505092915050565b60006060820190506134c06000830186613108565b6134cd6020830185613108565b6134da6040830184612ef7565b94935050505056fea26469706673582212207f2208a12f9dc1f96f6806d6c1d6674810532cb4188368248fe30457c6b1972664736f6c634300081b0033608060405234801561001057600080fd5b50336040518060400160405280600c81526020017f444558204c5020546f6b656e00000000000000000000000000000000000000008152506040518060400160405280600381526020017f444c500000000000000000000000000000000000000000000000000000000000815250816003908161008d919061043d565b50806004908161009d919061043d565b505050600073ffffffffffffffffffffffffffffffffffffffff168173ffffffffffffffffffffffffffffffffffffffff16036101125760006040517f1e4fbdf70000000000000000000000000000000000000000000000000000000081526004016101099190610550565b60405180910390fd5b6101218161012760201b60201c565b5061056b565b6000600560009054906101000a900473ffffffffffffffffffffffffffffffffffffffff16905081600560006101000a81548173ffffffffffffffffffffffffffffffffffffffff021916908373ffffffffffffffffffffffffffffffffffffffff1602179055508173ffffffffffffffffffffffffffffffffffffffff168173ffffffffffffffffffffffffffffffffffffffff167f8be0079c531659141344cd1fd0a4f28419497f9722a3daafe3b4186f6b6457e060405160405180910390a35050565b600081519050919050565b7f4e487b7100000000000000000000000000000000000000000000000000000000600052604160045260246000fd5b7f4e487b7100000000000000000000000000000000000000000000000000000000600052602260045260246000fd5b6000600282049050600182168061026e57607f821691505b60208210810361028157610280610227565b5b50919050565b60008190508160005260206000209050919050565b60006020601f8301049050919050565b600082821b905092915050565b6000600883026102e97fffffffffffffffffffffffffffffffffffffffffffffffffffffffffffffffff826102ac565b6102f386836102ac565b95508019841693508086168417925050509392505050565b6000819050919050565b6000819050919050565b600061033a6103356103308461030b565b610315565b61030b565b9050919050565b6000819050919050565b6103548361031f565b61036861036082610341565b8484546102b9565b825550505050565b600090565b61037d610370565b61038881848461034b565b505050565b5b818110156103ac576103a1600082610375565b60018101905061038e565b5050565b601f8211156103f1576103c281610287565b6103cb8461029c565b810160208510156103da578190505b6103ee6103e68561029c565b83018261038d565b50505b505050565b600082821c905092915050565b6000610414600019846008026103f6565b1980831691505092915050565b600061042d8383610403565b9150826002028217905092915050565b610446826101ed565b67ffffffffffffffff81111561045f5761045e6101f8565b5b6104698254610256565b6104748282856103b0565b600060209050601f8311600181146104a75760008415610495578287015190505b61049f8582610421565b865550610507565b601f1984166104b586610287565b60005b828110156104dd578489015182556001820191506020850194506020810190506104b8565b868310156104fa57848901516104f6601f891682610403565b8355505b6001600288020188555050505b505050505050565b600073ffffffffffffffffffffffffffffffffffffffff82169050919050565b600061053a8261050f565b9050919050565b61054a8161052f565b82525050565b60006020820190506105656000830184610541565b92915050565b6114a78061057a6000396000f3fe608060405234801561001057600080fd5b50600436106101005760003560e01c8063715018a6116100975780639dc29fac116100665780639dc29fac1461028b578063a9059cbb146102a7578063dd62ed3e146102d7578063f2fde38b1461030757610100565b8063715018a614610227578063745fba84146102315780638da5cb5b1461024f57806395d89b411461026d57610100565b806326f9a952116100d357806326f9a952146101a1578063313ce567146101bd57806340c10f19146101db57806370a08231146101f757610100565b806306fdde0314610105578063095ea7b31461012357806318160ddd1461015357806323b872dd14610171575b600080fd5b61010d610323565b60405161011a919061108f565b60405180910390f35b61013d6004803603810190610138919061114a565b6103b5565b60405161014a91906111a5565b60405180910390f35b61015b6103d8565b60405161016891906111cf565b60405180910390f35b61018b600480360381019061018691906111ea565b6103e2565b60405161019891906111a5565b60405180910390f35b6101bb60048036038101906101b6919061123d565b610411565b005b6101c561045d565b6040516101d29190611286565b60405180910390f35b6101f560048036038101906101f0919061114a565b610466565b005b610211600480360381019061020c919061123d565b610504565b60405161021e91906111cf565b60405180910390f35b61022f61054c565b005b610239610560565b60405161024691906112b0565b60405180910390f35b610257610586565b60405161026491906112b0565b60405180910390f35b6102756105b0565b604051610282919061108f565b60405180910390f35b6102a560048036038101906102a0919061114a565b610642565b005b6102c160048036038101906102bc919061114a565b6106e0565b6040516102ce91906111a5565b60405180910390f35b6102f160048036038101906102ec91906112cb565b610703565b6040516102fe91906111cf565b60405180910390f35b610321600480360381019061031c919061123d565b61078a565b005b6060600380546103329061133a565b80601f016020809104026020016040519081016040528092919081815260200182805461035e9061133a565b80156103ab5780601f10610380576101008083540402835291602001916103ab565b820191906000526020600020905b81548152906001019060200180831161038e57829003601f168201915b5050505050905090565b6000806103c0610810565b90506103cd818585610818565b600191505092915050565b6000600254905090565b6000806103ed610810565b90506103fa85828561082a565b6104058585856108be565b60019150509392505050565b6104196109b2565b80600660006101000a81548173ffffffffffffffffffffffffffffffffffffffff021916908373ffffffffffffffffffffffffffffffffffffffff16021790555050565b60006012905090565b600660009054906101000a900473ffffffffffffffffffffffffffffffffffffffff1673ffffffffffffffffffffffffffffffffffffffff163373ffffffffffffffffffffffffffffffffffffffff16146104f6576040517f08c379a00000000000000000000000000000000000000000000000000000000081526004016104ed906113b7565b60405180910390fd5b6105008282610a39565b5050565b60008060008373ffffffffffffffffffffffffffffffffffffffff1673ffffffffffffffffffffffffffffffffffffffff168152602001908152602001600020549050919050565b6105546109b2565b61055e6000610abb565b565b600660009054906101000a900473ffffffffffffffffffffffffffffffffffffffff1681565b6000600560009054906101000a900473ffffffffffffffffffffffffffffffffffffffff16905090565b6060600480546105bf9061133a565b80601f01602080910402602001604051908101604052809291908181526020018280546105eb9061133a565b80156106385780601f1061060d57610100808354040283529160200191610638565b820191906000526020600020905b81548152906001019060200180831161061b57829003601f168201915b5050505050905090565b600660009054906101000a900473ffffffffffffffffffffffffffffffffffffffff1673ffffffffffffffffffffffffffffffffffffffff163373ffffffffffffffffffffffffffffffffffffffff16146106d2576040517f08c379a00000000000000000000000000000000000000000000000000000000081526004016106c9906113b7565b60405180910390fd5b6106dc8282610b81565b5050565b6000806106eb610810565b90506106f88185856108be565b600191505092915050565b6000600160008473ffffffffffffffffffffffffffffffffffffffff1673ffffffffffffffffffffffffffffffffffffffff16815260200190815260200160002060008373ffffffffffffffffffffffffffffffffffffffff1673ffffffffffffffffffffffffffffffffffffffff16815260200190815260200160002054905092915050565b6107926109b2565b600073ffffffffffffffffffffffffffffffffffffffff168173ffffffffffffffffffffffffffffffffffffffff16036108045760006040517f1e4fbdf70000000000000000000000000000000000000000000000000000000081526004016107fb91906112b0565b60405180910390fd5b61080d81610abb565b50565b600033905090565b6108258383836001610c03565b505050565b60006108368484610703565b90507fffffffffffffffffffffffffffffffffffffffffffffffffffffffffffffffff81146108b857818110156108a8578281836040517ffb8f41b200000000000000000000000000000000000000000000000000000000815260040161089f939291906113d7565b60405180910390fd5b6108b784848484036000610c03565b5b50505050565b600073ffffffffffffffffffffffffffffffffffffffff168373ffffffffffffffffffffffffffffffffffffffff16036109305760006040517f96c6fd1e00000000000000000000000000000000000000000000000000000000815260040161092791906112b0565b60405180910390fd5b600073ffffffffffffffffffffffffffffffffffffffff168273ffffffffffffffffffffffffffffffffffffffff16036109a25760006040517fec442f0500000000000000000000000000000000000000000000000000000000815260040161099991906112b0565b60405180910390fd5b6109ad838383610dda565b505050565b6109ba610810565b73ffffffffffffffffffffffffffffffffffffffff166109d8610586565b73ffffffffffffffffffffffffffffffffffffffff1614610a37576109fb610810565b6040517f118cdaa7000000000000000000000000000000000000000000000000000000008152600401610a2e91906112b0565b60405180910390fd5b565b600073ffffffffffffffffffffffffffffffffffffffff168273ffffffffffffffffffffffffffffffffffffffff1603610aab5760006040517fec442f05000000000000000000000000000000000000000000000000000000008152600401610aa291906112b0565b60405180910390fd5b610ab760008383610dda565b5050565b6000600560009054906101000a900473ffffffffffffffffffffffffffffffffffffffff16905081600560006101000a81548173ffffffffffffffffffffffffffffffffffffffff021916908373ffffffffffffffffffffffffffffffffffffffff1602179055508173ffffffffffffffffffffffffffffffffffffffff168173ffffffffffffffffffffffffffffffffffffffff167f8be0079c531659141344cd1fd0a4f28419497f9722a3daafe3b4186f6b6457e060405160405180910390a35050565b600073ffffffffffffffffffffffffffffffffffffffff168273ffffffffffffffffffffffffffffffffffffffff1603610bf35760006040517f96c6fd1e000000000000000000000000000000000000000000000000000000008152600401610bea91906112b0565b60405180910390fd5b610bff82600083610dda565b5050565b600073ffffffffffffffffffffffffffffffffffffffff168473ffffffffffffffffffffffffffffffffffffffff1603610c755760006040517fe602df05000000000000000000000000000000000000000000000000000000008152600401610c6c91906112b0565b60405180910390fd5b600073ffffffffffffffffffffffffffffffffffffffff168373ffffffffffffffffffffffffffffffffffffffff1603610ce75760006040517f94280d62000000000000000000000000000000000000000000000000000000008152600401610cde91906112b0565b60405180910390fd5b81600160008673ffffffffffffffffffffffffffffffffffffffff1673ffffffffffffffffffffffffffffffffffffffff16815260200190815260200160002060008573ffffffffffffffffffffffffffffffffffffffff1673ffffffffffffffffffffffffffffffffffffffff168152602001908152602001600020819055508015610dd4578273ffffffffffffffffffffffffffffffffffffffff168473ffffffffffffffffffffffffffffffffffffffff167f8c5be1e5ebec7d5bd14f71427d1e84f3dd0314c0f7b2291e5b200ac8c7c3b92584604051610dcb91906111cf565b60405180910390a35b50505050565b600073ffffffffffffffffffffffffffffffffffffffff168373ffffffffffffffffffffffffffffffffffffffff1603610e2c578060026000828254610e20919061143d565b92505081905550610eff565b60008060008573ffffffffffffffffffffffffffffffffffffffff1673ffffffffffffffffffffffffffffffffffffffff16815260200190815260200160002054905081811015610eb8578381836040517fe450d38c000000000000000000000000000000000000000000000000000000008152600401610eaf939291906113d7565b60405180910390fd5b8181036000808673ffffffffffffffffffffffffffffffffffffffff1673ffffffffffffffffffffffffffffffffffffffff16815260200190815260200160002081905550505b600073ffffffffffffffffffffffffffffffffffffffff168273ffffffffffffffffffffffffffffffffffffffff1603610f485780600260008282540392505081905550610f95565b806000808473ffffffffffffffffffffffffffffffffffffffff1673ffffffffffffffffffffffffffffffffffffffff168152602001908152602001600020600082825401925050819055505b8173ffffffffffffffffffffffffffffffffffffffff168373ffffffffffffffffffffffffffffffffffffffff167fddf252ad1be2c89b69c2b068fc378daa952ba7f163c4a11628f55a4df523b3ef83604051610ff291906111cf565b60405180910390a3505050565b600081519050919050565b600082825260208201905092915050565b60005b8381101561103957808201518184015260208101905061101e565b60008484015250505050565b6000601f19601f8301169050919050565b600061106182610fff565b61106b818561100a565b935061107b81856020860161101b565b61108481611045565b840191505092915050565b600060208201905081810360008301526110a98184611056565b905092915050565b600080fd5b600073ffffffffffffffffffffffffffffffffffffffff82169050919050565b60006110e1826110b6565b9050919050565b6110f1816110d6565b81146110fc57600080fd5b50565b60008135905061110e816110e8565b92915050565b6000819050919050565b61112781611114565b811461113257600080fd5b50565b6000813590506111448161111e565b92915050565b60008060408385031215611161576111606110b1565b5b600061116f858286016110ff565b925050602061118085828601611135565b9150509250929050565b60008115159050919050565b61119f8161118a565b82525050565b60006020820190506111ba6000830184611196565b92915050565b6111c981611114565b82525050565b60006020820190506111e460008301846111c0565b92915050565b600080600060608486031215611203576112026110b1565b5b6000611211868287016110ff565b9350506020611222868287016110ff565b925050604061123386828701611135565b9150509250925092565b600060208284031215611253576112526110b1565b5b6000611261848285016110ff565b91505092915050565b600060ff82169050919050565b6112808161126a565b82525050565b600060208201905061129b6000830184611277565b92915050565b6112aa816110d6565b82525050565b60006020820190506112c560008301846112a1565b92915050565b600080604083850312156112e2576112e16110b1565b5b60006112f0858286016110ff565b9250506020611301858286016110ff565b9150509250929050565b7f4e487b7100000000000000000000000000000000000000000000000000000000600052602260045260246000fd5b6000600282049050600182168061135257607f821691505b6020821081036113655761136461130b565b5b50919050565b7f4f6e6c79204445582063616e2063616c6c207468697300000000000000000000600082015250565b60006113a160168361100a565b91506113ac8261136b565b602082019050919050565b600060208201905081810360008301526113d081611394565b9050919050565b60006060820190506113ec60008301866112a1565b6113f960208301856111c0565b61140660408301846111c0565b949350505050565b7f4e487b7100000000000000000000000000000000000000000000000000000000600052601160045260246000fd5b600061144882611114565b915061145383611114565b925082820190508082111561146b5761146a61140e565b5b9291505056fea264697066735822122095808044141a1d863642252c5f48762aa29dab755003bb1f343b2ad184599a1164736f6c634300081b0033",
  "linkReferences": {},
  "deployedLinkReferences": {}
}